:1000000000000220E1020000DD020000DD0200002D
:10001000DD020000DD020000DD020000DD02000064
:10002000DD020000DD020000DD020000DD02000054
:10003000DD020000DD020000DD020000A102000080
:10004000DD020000DD020000DD020000DD02000034
:10005000DD020000DD020000DD020000DD02000024
:10006000DD020000DD0200009D020000DD02000054
:10007000DD020000DD020000DD020000DD02000004
:10008000DD020000DD02000099020000DD02000038
:10009000DD020000DD020000DD020000DD020000E4
:1000A000DD020000DD020000DD020000DD020000D4
:1000B000DD020000DD020000DD020000DD020000C4
:1000C000DD020000DD020000DD020000DD020000B4
:1000D000DD020000DD020000DD020000DD020000A4
:1000E000DD020000DD020000DD020000DD02000094
:1000F000DD020000DD020000DD020000DD02000084
:10010000DD020000DD020000DD02000010B5054C3C
:10011000237833B9044B13B10448AFF300800123B3
:10012000237010BD70000020000000008009000056
:10013000084B10B51BB108480849AFF300800848C8
:10014000036803B910BD074B002BFBD0BDE810407E
:10015000184700BF00000000800900007400002064
:100160006800002000000000154B002B08BF134B57
:100170009D46A3F5803A00218B460F461348144A4A
:10018000121A00F0DEFB0F4B002B00D098470E4BED
:10019000002B00D098470020002104000D000D48DE
:1001A000002802D00C48AFF3008000F099FB20003B
:1001B000290000F013F800F07FFB00BF00000800EA
:1001C000000002200000000000000000700000207D
:1001D000E0010020000000000000000008B5044914
:1001E0000A22044800F0A2FB00F006F8FEE700BF78
:1001F000700900008C000020144B04221A661A4675
:10020000D2F89010114B0907FAD402225A674FF422
:1002100080121A600822C3F8B0200D4AD2F8981054
:1002200021F0F001C2F89810D2F8981041F0400186
:10023000C2F898101A6842F00F021A600422C3F83C
:1002400074210122C3F87021704700BF00400E40A6
:1002500000A0004010B50E4BD3F81C34B3B10022FF
:1002600001230B4891B2D0F81C440132234202D141
:100270005B009BB2F5E701238B40C0F82434054BAB
:1002800053F82130002BE6D09847E4E710BD00BFBB
:1002900000A000408C010020FFF7DCBFFFF7DABFB1
:1002A00070B50C4C0C4DD4E90023013243F100032E
:1002B000C4E900232B689847D4E900014FF47A720F
:1002C000002300F021F8134303D16B68BDE87040B0
:1002D000184770BDD0010020D8010020FEE70000C3
:1002E00008B50649064B074A8B4204D252F8040F60
:1002F00043F8040BF8E7FFF737FF00BF6C0000205E
:10030000000000208809000053B94AB9002908BF3D
:1003100000281CBF4FF0FF314FF0FF3000F03CB819
:1003200082B0EC462DE9005000F01EF8DDF804E044
:1003300002B00CBC704700BF2DE9F041069C90460E
:1003400006460F461D4600F029F808FB01FCA8FBF5
:10035000002300FB05C5B21A2B4467EB0303864656
:10036000C4E90023BDE8F0812DE9F843089E174653
:10037000804689461D4600F067F900FB05F3A0FBA7
:10038000074507FB0137B8EB04043D4469EB05055D
:10039000C6E90045BDE8F883704700BF00292DE994
:1003A000F043C0F2A8800026002BC0F29E80814658
:1003B0008E4690469C46174604460D46002B3DD17E
:1003C0008A4259D9B2FA82F33BB1C3F120029D406F
:1003D00020FA02F29F4015439C40390CB5FBF1F026
:1003E0001FFA87FE01FB10550EFB00F3220C42EAB8
:1003F0000545AB4209D9ED1900F1FF3280F00B81C0
:10040000AB4240F2088102383D44ED1AB5FBF1F3EE
:1004100001FB13550EFB03FEA4B244EA0545AE45AD
:1004200008D9ED1903F1FF3280F0F780AE4540F2B4
:10043000F480023B43EA0043002203E08B420FD9E1
:1004400000221346341C18BF012460424FF00005FF
:1004500065EB45015840514000196941BDE8F08302
:10046000B3FA83F2002A40F089808B4202D38045A0
:1004700000F2E2800123E5E712B90123B3FBF2F7B2
:10048000B7FA87F8B8F1000F3BD1ED1B4FEA174CD4
:100490001FFA87FE0122B5FBFCF00CFB10550EFB8A
:1004A00000F3210C41EA0545AB4207D9ED1900F1F3
:1004B000FF3102D2AB4200F2C3800846ED1AB5FB11
:1004C000FCF30CFB13550EFB03FEA4B244EA0545F6
:1004D000AE4507D9ED1903F1FF3102D2AE4500F266
:1004E000AD800B4643EA0043ACE752426FEA060692
:1004F00063EB43035BE7404261EB41014FF0FF36A2
:1005000052E707FA08F7C8F1200225FA02F34FEA8A
:10051000174CB3FBFCF11FFA87FE0CFB113324FAD6
:1005200002F205FA08F50EFB01F92A43100C40EA25
:100530000343994504FA08F407D9DB1901F1FF30A8
:1005400078D2994576D902393B44C9EB0303B3FB12
:10055000FCF00CFB10330EFB00F592B242EA0343B1
:100560009D4207D9DB1900F1FF325FD29D425DD970
:1005700002383B445D1B40EA01428CE7C2F1200394
:1005800028FA03F10CFA02FC41EA0C0C4FEA1C4079
:100590002EFA03F1B1FBF0F51FFA8CF700FB1511F1
:1005A00029FA03F30EFA02FE07FB05F943EA0E0EE1
:1005B0004FEA1E4343EA0141894508FA02F808D987
:1005C00011EB0C0105F1FF3332D2894530D9023DE0
:1005D0006144C9EB0101B1FBF0F300FB131107FB10
:1005E00003F71FFA8EFE4EEA014E774508D91EEB3F
:1005F0000C0E03F1FF3117D2774515D9023BE644C3
:1006000043EA0543A3FB0889C7EB0E0ECE4509D389
:1006100005D0002216E71046F7E613460AE7944095
:100620004445F6D2013BF4E70B46E9E71046A1E763
:100630001D46CEE7014688E7134603E7023B51E734
:1006400002383D443AE700BF2DE9F043002B44D186
:100650008A42154604464FD9B2FA82F70E464FB188
:10066000C7F12003B94020FA03F602FA07F50E435A
:1006700000FA07F42F0CB6FBF7F01FFA85FE07FB14
:1006800010620EFB00F1260C46EA0243994209D99A
:100690005B1900F1FF3280F0EE80994240F2EB806E
:1006A00002382B44591AB1FBF7F307FB13110EFB69
:1006B00003FEA4B244EA01418E4508D9491903F169
:1006C000FF3280F0DA808E4540F2D780023B43EA69
:1006D000004000263146BDE8F0838B4247D8B3FA8C
:1006E00083F6002E48D18B4202D3824200F2CF80A3
:1006F00001203146BDE8F08312B90125B5FBF2F5C2
:10070000B5FA85FCBCF1000F78D1491B2F0C1FFAFC
:1007100085FE0126B1FBF7F007FB10110EFB00F27E
:10072000230C43EA01418A4207D9491900F1FF33FA
:1007300002D28A4200F2BC801846891AB1FBF7F354
:1007400007FB13110EFB03FEA4B244EA01429645D7
:1007500008D9521903F1FF3180F09180964540F29B
:100760008E80023B43EA00403146BDE8F08300261C
:1007700030463146BDE8F083C6F1200422FA04F584
:10078000B3402B4321FA04F74FEA1348B7FBF8FCB8
:100790001FFA83F908FB1C7720FA04FE01FA06F51C
:1007A00009FB0CF44EEA05054FEA154E4EEA0747E1
:1007B000BC4202FA06F204D9FF180CF1FF3168D3EB
:1007C0008C463F1BB7FBF8F408FB147709FB04F9D0
:1007D000ADB245EA0741894504D9C91804F1FF358E
:1007E0005DD32C4644EA0C44A4FB0223C9EB01016F
:1007F000994249D345D0204600266BE7CCF120042E
:1008000005FA0CF521FA04F32A0CB3FBF2F61FFAF1
:1008100085FE02FB163820FA04F701FA0CF10EFBF4
:1008200006F90F433C0C44EA0843994500FA0CF4DE
:1008300007D95B1906F1FF3138D2994536D9023E06
:100840002B44C9EB0303B3FBF2F002FB10330EFBA6
:1008500000F1BFB247EA0343994207D95B1900F19F
:10086000FF3721D299421FD902382B441746591A13
:1008700040EA06464EE7104614E7134627E70B46C4
:1008800070E7B0409042B6D2601E002622E73046A4
:1008900020E7BC4294D9ACF1020C1F4491E7894592
:1008A0009FD9023C19449DE73846DFE70E46C8E76A
:1008B0000238294441E700BF08B5074B044613B18D
:1008C0000021AFF30080054B1868836A03B1984795
:1008D000204600F03FF800BF000000007C09000047
:1008E0000E4B70B51E460E4C0025E41AA410A5420E
:1008F00004D056F8253098470135F8E700F02CF879
:10090000084B094C1E46E41AA4100025A54204D049
:1009100056F8253098470135F8E770BD6000002093
:1009200060000020600000206400002010B5431E1D
:100930000A44914204D011F8014B03F8014FF8E743
:1009400010BD03460244934202D003F8011BFAE7AC
:1009500070470000FEE700BFF8B500BFF8BC08BC58
:100960009E467047F8B500BFF8BC08BC9E4670476D
:1009700048656C6C6F20504321004300000000204C
:040980000000000073
:08098400E4F7FF7F0100000011
:10098C00000000000000000000000000000000005B
:10099C00000000000000000000000000000000004B
:1009AC007A090000000000000000000000000000B8
:1009BC00000000000000000000000000000000002B
:1009CC00000000000000000000000000000000001B
:1009DC00000000000000000000000000000000000B
:0C09EC00310100000D01000000000000BF
:04000003000002E116
:00000001FF
