S00E00006D616368696E652E73333711
S21400000000000420098C0000358C0000358C0000B0
S214000010358C0000358C0000358C0000358C0000D7
S214000020358C0000358C0000358C0000358C0000C7
S214000030358C0000358C0000358C0000358C0000B7
S21400004039890000358C0000358C0000358C0000A6
S214000050358C0000358C0000358C0000358C000097
S214000060358C0000A53D000055410000D18B0000F6
S214000070358C0000358C0000358C000049030000EC
S214000080358C0000358C00007D410000993700005B
S214000090358C0000358C0000358C0000358C000057
S2140000A0358C0000358C0000358C0000358C000047
S2140000B0358C0000358C000001480000358C0000AF
S2140000C0358C0000358C0000358C0000358C000027
S2140000D0358C0000358C0000358C0000358C000017
S2140000E0358C0000358C0000358C0000358C000007
S2140000F0358C0000358C0000358C0000358C0000F7
S214000100358C0000358C0000358C000010B5054C91
S214000110237833B9044B13B10448AFF300800123AE
S214000120237010BD2802002000000000602301009C
S21400013008B5034B1BB103490348AFF3008008BD65
S214000140000000002C02002060230100154B002B4D
S21400015008BF134B9D46A3F5803A00218B460F46F9
S2140001601348144A121A0DF0A2FF0F4B002B00D0B2
S21400017098470E4B002B00D0984700200021040023
S2140001800D000D48002802D00C48AFF300800DF09B
S2140001905FFF2000290003F09FFB0DF045FF00BF26
S2140001A0000008000000042000000000000000001E
S2140001B0280200208C8F03200000000000000000B2
S2140001C080B483B000AF0346FB7197F9073003F0A5
S2140001D01F02074997F907305B09012000FA02F26F
S2140001E041F8232000BF0C37BD465DF8047B7047FE
S2140001F000E100E080B483B000AF78607B68DB6C21
S21400020018460C37BD465DF8047B704780B483B053
S21400021000AF786039607B683A681A6400BF0C37B4
S214000220BD465DF8047B704780B483B000AF78604D
S21400023039607B685A6C3B681A437B685A6400BF17
S2140002400C37BD465DF8047B704780B483B000AFC2
S21400025078600B46FB70FA787B689A6000BF0C37B4
S214000260BD465DF8047B704780B588B000AF0121BD
S214000270314809F0C9FA00233B7600237B761F231A
S214000280BB760023FB7600233B7700237B773B4639
S21400029000221A605A609A60DA601A615A614FF05A
S2140002A0FF337B6043F6E413FB60002009F00AF896
S2140002B00346BB760021214808F0CCFF0346FB76B8
S2140002C007F1180319461E4808F090FE0223BB707B
S2140002D005237B700123FB743B46682200211846E9
S2140002E008F0E6FE3B4669220021184608F0E0FECC
S2140002F03B466A220021184608F0DAFE3B466B228F
S2140003000021184608F0D4FE0E4B00221A703B4619
S21400031019460B4808F018FF02210948FFF784FF2A
S2140003200F20FFF74DFF04210548FFF78EFF00BFA3
S2140003302037BD4680BD00BF00D20400A086010065
S214000340002000404402002098B500AF0221134868
S214000350FFF75CFF124B1B781C461048FFF74AFF5E
S2140003600246104B43F824200D4B1B781A460E4BC2
S214000370012199540A4B1B78022B06D8084B1B7890
S2140003800133DAB2064B1A7005E0054B00221A70EC
S214000390064B01221A7000BF98BD00BF0020004027
S2140003A0440200204C020020480200206D04002079
S2140003B080B485B000AF78600023FB737B680022B2
S2140003C01A707B6800225A707B6803F55933A9338C
S2140003D000221A707B6803F55933AA3300221A707C
S2140003E07B6803F55933AB3300221A707B6803F53C
S2140003F00053213300221A707B6803F50053203324
S21400040000221A707B6803F58053193300221A7095
S2140004107B6803F58053183300221A707B6803F557
S2140004203933A83300221A700023FB73FB7B0F2B93
S2140004300CD8FB7B7A68DB02134403F53933A93307
S21400044000221A70FB7B0133FB73EFE700BF143703
S214000450BD465DF8047B704780B582B000AF78601B
S214000460786803F0DBF80346002B14BF0123002353
S214000470DBB2002B02D0786800F028FA7B681B7885
S214000480052B00F20F8201A252F823F0A50400000B
S214000490EF040000D90500008706000023070000CF
S2140004A0E70700007B6800221A707B6803F5593363
S2140004B0AB331B78002B0ED07B6803F5005320333C
S2140004C01B78002B07D17B685B7C002B03D17B68F5
S2140004D004221A70EAE17B6803F53933A8331B78E7
S2140004E0002B00F0E3817B6805221A70DEE17B6852
S2140004F003F5005320331B78002B14D00AF01CFEA3
S2140005000346002BCCBF01230023DBB2002B00F0F8
S214000510CF817B6803F50053203300221A707B6876
S21400052000221A70C4E10AF007FE0346DB0FDBB2B6
S214000530002B03D07B6801221A70B9E17B6803F5B3
S21400054080531A3301221A70786800F01DFA7B680F
S21400055003F5035320337A6802F580521B321146A6
S21400056018460BF026FC03461A467B6803F5005334
S2140005701C331A607B6803F500531C331B685A1C37
S2140005807B6803F500531C331A607B6803F58052C2
S2140005901A327B6803F500531C331B689BB219465E
S2140005A010460AF069FD0346002BCCBF012300234A
S2140005B0DBB2002B06D07B6803F500532033012204
S2140005C01A7005E07B6803F50053203300221A708A
S2140005D07B6801221A706BE17B6803F500532033B9
S2140005E01B78002B14D00AF0A7FD0346002BCCBFC7
S2140005F001230023DBB2002B00F05C817B6803F54F
S2140006000053203300221A707B6800221A7051E1D2
S2140006100AF092FD0346DB0FDBB2002B03D07B68AB
S21400062002221A7046E17B6803F580531A330022D3
S2140006301A70786800F0CCFA7B6803F580521A329C
S2140006407B6803F500531C331B689BB219461046A3
S2140006500AF012FD0346002BCCBF01230023DBB2B9
S214000660002B06D07B6803F50053203301221A7056
S21400067005E07B6803F50053203300221A707B6880
S21400068002221A7016E17B6803F5005320331B78AC
S214000690002B14D00AF050FD0346002BCCBF0123DC
S2140006A00023DBB2002B00F007817B6803F50053C4
S2140006B0203300221A707B6800221A70FCE00AF0D1
S2140006C03BFD0346DB0FDBB2002B03D07B68032227
S2140006D01A70F1E07B6803F580531A3302221A7011
S2140006E07B6803F580531A33012118460AF0C4FCD0
S2140006F00346002BCCBF01230023DBB2002B06D021
S2140007007B6803F50053203301221A7005E07B68EE
S21400071003F50053203300221A707B6803221A70F8
S214000720CAE07B6803F5005320331B78002B14D0F7
S2140007300AF002FD0346002BCCBF01230023DBB2E8
S214000740002B00F0BB807B6803F5005320330022AB
S2140007501A707B6800221A70B0E00AF0EDFC0346BF
S214000760DB0FDBB2002B03D07B6804221A70A5E0F7
S2140007707B6803F580531A3303221A70786800F0FA
S214000780CFF97B6803F500531C331B685A1C7B6843
S21400079003F500531C331A607B6803F580521A3247
S2140007A07B6803F500531C331B689BB21946104642
S2140007B00AF062FC0346002BCCBF01230023DBB209
S2140007C0002B06D07B6803F50053203301221A70F5
S2140007D005E07B6803F50053203300221A707B681F
S2140007E004221A706AE07B6803F5005320331B78F6
S2140007F0002B19D00AF0A0FC0346002BCCBF012327
S2140008000023DBB2002B5BD07B6803F5005320335C
S21400081000221A707B6803F53933A83300221A7059
S2140008207B6800221A704BE00AF086FC0346DB0F5A
S214000830DBB2002B03D07B6805221A7040E07B6891
S21400084003F580531A330B221A707B6803F50053A6
S2140008501C3301221A607B6803F580521A327B68CB
S21400086003F500531C331B689BB2194610460AF06A
S21400087003FC0346002BCCBF01230023DBB2002B76
S21400088006D07B6803F50053203301221A7005E07A
S2140008907B6803F50053203300221A707B6805221C
S2140008A01A700DE07B6800221A700AE000BF08E0AC
S2140008B000BF06E000BF04E000BF02E000BF00E0AB
S2140008C000BF00BF0837BD4680BD00BF80B582B000
S2140008D000AF78607B6800221A707B689B7C0C2BCC
S2140008E047D801A252F823F01D0900002509000090
S2140008F02D0900007B0900007B0900006B09000041
S214000900730900007B0900007B0900007B090000DA
S2140009107B090000730900007B0900007B68022247
S2140009201A702BE07B6801221A7027E07B6803F5BB
S214000930005328337A681332114618460BF04AF9EA
S2140009407B6803F5005329331B78002B08D07B689F
S21400095003F50053283301221A70786800F0B5F9C1
S2140009600849786800F05AF908E0786800F082FDD7
S21400097004E07B6800221A7000E000BF00BF083762
S214000980BD4680BD941E010090B482B000AF786072
S2140009907B6803F505531B6893F80E217B6803F507
S2140009A0035320331A707B6803F505531B6893F8CE
S2140009B00F217B6803F5035321331A707B6803F518
S2140009C005531B6893F866217B6803F503532233AF
S2140009D01A707B6803F505531B6893F867217B68DC
S2140009E003F5035323331A707B6803F505531B681E
S2140009F093F8BE217B6803F5035324331A707B6893
S214000A0003F505531B6893F8BF217B6803F5035372
S214000A1025331A707B6803F505531B6893F8162276
S214000A207B6803F5035326331A707B6803F505537A
S214000A301B6893F817227B6803F5035327331A7055
S214000A407B6803F505531B6803F58C73D3E9003404
S214000A507A6802F50452C2E900347B6803F5055350
S214000A601B6803F5B873D3E900127B6803F50453DB
S214000A700833C3E900127B6803F505531B6803F5CA
S214000A80E473D3E900127B6803F504531033C3E91B
S214000A9000127B6803F505531B6803F50873D3E95A
S214000AA000127B6803F504531833C3E900127B6811
S214000AB003F5055304331B68D3E904127B6803F57A
S214000AC004532033C3E900127B6803F5055304334F
S214000AD01B68D3E90A127B6803F504532833C3E97D
S214000AE000127B6803F5055304331B68D3E9101224
S214000AF07B6803F504533033C3E900127B6803F5C3
S214000B00055304331B68D3E916127B6803F50453B8
S214000B103833C3E9001200BF0837BD4690BC7047A3
S214000B2080B582B000AF78607B6803F580521B32D8
S214000B307B6803F55933A9331B78DB0203F5393399
S214000B40A83379680B440133194610460EF066F94F
S214000B507B6803F55933A9331B787A68DB021344A4
S214000B6003F53933A93300221A707B6803F559332D
S214000B70A9331B780E2B07D87B6803F55933A933A6
S214000B801B780133DAB200E000227B6803F55933A4
S214000B90A9331A707B6803F55933AB331B78013BD6
S214000BA0DAB27B6803F55933AB331A707B6803F50A
S214000BB080531A3318460EF039F903461A467B68F6
S214000BC003F500531C331A6000BF0837BD4680BDCE
S214000BD080B584B002AF78607B6803F580501B3028
S214000BE00023019301230093022300220A490EF0FA
S214000BF0EBF87B6803F580531B3318460EF016F9A6
S214000C00034601331A467B6803F500531C331A600B
S214000C1000BF0837BD4680BDE41E01000EB480B597
S214000C20ADF6140D00AF3B1D186007F50263C7F85C
S214000C300C3807F10C00D7F80C38D7F81C284FF4FE
S214000C4000610EF0D7FF3B1D1B6803F55933AA332E
S214000C501B783A1DDB0203F53933A83312681344B8
S214000C60013307F10C02114618460EF0D7F83B1D6B
S214000C701B6803F55933AA331B780E2B08D83B1D87
S214000C801B6803F55933AA331B780133DAB200E048
S214000C9000223B1D1B6803F55933AA331A703B1D0F
S214000CA01B6803F55933AB331B780133DAB23B1DAF
S214000CB01B6803F55933AB331A7000BF07F61407E9
S214000CC0BD46BDE8804003B0704790B482B000AF28
S214000CD078607B6803F50353D3E900347A6802F53D
S214000CE00552126802F59072C2E900347B6803F57B
S214000CF003530833D3E900347A6802F505521268C4
S214000D0002F5BC72C2E900347B6803F50353103366
S214000D10D3E900347A6802F50552126802F5E872E3
S214000D20C2E900347B6803F503531833D3E9003473
S214000D307A6802F50552126802F50A72C2E90034B2
S214000D407B6803F50153D3E900347A6802F505524F
S214000D50126802F59472C2E900347B6803F5015309
S214000D601033D3E900347A6802F50552126802F5AA
S214000D70C072C2E900347B6803F501532033D3E91F
S214000D8000347A6802F50552126802F5EC72C2E980
S214000D9000347B6803F501533033D3E900347A68B6
S214000DA002F50552126802F50C72C2E900347B683F
S214000DB003F50253D3E900347A6802F50552126847
S214000DC002F59872C2E900347B6803F502531033CB
S214000DD0D3E900347A6802F50552126802F5C47247
S214000DE0C2E900347B6803F502532033D3E90034AC
S214000DF07A6802F50552126802F5F072C2E900340C
S214000E007B6803F502533033D3E900347A6802F581
S214000E100552126802F50E72C2E9003400BF0837A8
S214000E20BD4690BC704780B500AF002304220A215F
S214000E30032009F0C5FF012302220921032009F03F
S214000E40BFFF002302220A21022009F0B9FF002377
S214000E5002220B21032009F0B3FF002302220921FE
S214000E60002009F0ADFF002302220821002009F02F
S214000E70A7FF002302220721002009F0A1FF00237C
S214000E8002220621002009F09BFF002302220B21EC
S214000E90022009F095FF002302220921022009F012
S214000EA08FFF0023042202210A2009F089FF002375
S214000EB004220721052009F083FF002300220021D9
S214000EC0002009F07DFF002300220121002009F008
S214000ED077FF002300220221002009F071FF002383
S214000EE000220321002009F06BFF002304220A21C0
S214000EF0012009F065FF002304220B21012009F0E0
S214000F005FFF002304220C21012009F059FF002373
S214000F1004220D21012009F053FF012304220E2193
S214000F20092009F04DFF002304220C21052009F0BA
S214000F3047FF002304220421052009F041FF002377
S214000F4004220C21032009F03BFF002304220D217C
S214000F50032009F035FF012304220F21092009F0A0
S214000F602FFF002304220D21052009F029FF00236E
S214000F7004220521052009F023FF00230422042172
S214000F80002009F01DFF002304220521002009F09F
S214000F9017FF012304220F21052009F011FF00236B
S214000FA004220E21052009F00BFF0023042206214F
S214000FB0052009F005FF0023042200210A2009F07D
S214000FC0FFFE0023042201210A2009F0F9FE012376
S214000FD004220321082009F0F3FE002304220B213B
S214000FE0052009F0EDFE002304220321052009F068
S214000FF0E7FE002304220E21032009F0E1FE002371
S21400100004220F21032009F0DBFE01230422022123
S214001010082009F0D5FE002304220A21052009F045
S214001020CFFE002304220221052009F0C9FE00237A
S21400103004220821022009F0C3FE0023042209210D
S214001040012009F0BDFE012304220121082009F039
S214001050B7FE002304220921052009F0B1FE002373
S21400106004220121052009F0ABFE002304220621FC
S214001070022009F0A5FE002304220721022009F021
S2140010809FFE012304220021082009F099FE002378
S21400109004220821052009F093FE002304220021E3
S2140010A0052009F08DFE002304220421022009F009
S2140010B087FE002304220521022009F081FE00BFDE
S2140010C080BD0000000000002DE9B043A2B000AFD4
S2140010D07860002387F88730C14B1B78002B00F020
S2140010E05281BF4B00221A70002387F8873097F88A
S2140010F08730032B32D897F88730BA4A52F8234005
S21400110097F8873097F88720B74931F812201046AD
S214001110A1B2B64A9B01034422F8131097F8873011
S214001120B14A32F813303E2B0CD897F88730AE4AC7
S21400113032F8132097F88730013291B2AA4A22F883
S214001140131005E097F88730A74A002122F81310FD
S21400115097F88730013387F88730C8E7A44B1B68B9
S214001160C72B05D8A24B1B680133A14A13600AE1BE
S2140011709F4B00221A60002387F8873097F8873045
S214001180032B00F2F38097F887309B0007F1880264
S2140011901344002243F8202C0023A7F88430B7F825
S2140011A084303F2B20D897F887309B0007F18802C1
S2140011B0134453F8202C97F88710B7F884308B48E0
S2140011C089010B4430F81330194697F887300A44E3
S2140011D09B0007F188010B4443F8202CB7F88430B5
S2140011E00133A7F88430DAE797F887309B0007F1D9
S2140011F08802134453F8202C97F8873092099B00F6
S21400120007F188010B4443F8202C97F88730794A79
S2140012100021D15497F88730724A52F82330184686
S2140012200BF08AF85EA3D3E900230BF0FFF8034621
S2140012300C461846214697F887505BA3D3E900234F
S2140012400BF01EFA03460C46EA0007F188010A4432
S214001250603AC2E9003497F88730DB0007F188026D
S2140012601344603BD3E900341A46234650A1D1E923
S21400127000010BF005FA03460C461846214697F87F
S21400128087504DA3D3E900230AF018FF03460C4607
S214001290EA0007F188010A44803AC2E9003497F868
S2140012A08730DB0007F188021344803BD3E9000156
S2140012B04FF000024FF000030BF048FB0346002BF4
S2140012C04ED097F88730DB0007F188021344803B46
S2140012D0D3E900341A46234637A1D1E900010BF0C2
S2140012E0CFF903460C46184621460CF03FFCC7E9EA
S2140012F01E0133A3D3E90023D7E91E010BF096F8AD
S21400130003460C46184621462FA3D3E900230AF0CD
S214001310D7FE03460C469846A1462DA3D3E90023E4
S214001320D7E91E010BF082F803460C461A46234600
S21400133029A1D1E900010AF0C1FE03460C4697F840
S21400134087501A462346404649460BF099F903460D
S2140013500C46EA0007F188010A44403AC2E9003424
S21400136097F88730013387F8873007E7224B1B68EA
S214001370312B05D8204B1B6801331F4A136002E04F
S2140013801D4B00221A607B6803F5055304331B6867
S2140013901B78002B00BF8837BD46BDE8B08300BF72
S2140013A06666666666660A400000000000FEAF409D
S2140013B0000000004024144100000000006AF840CD
S2140013C0285C8FC2FAE1F34000000000E01BF84002
S2140013D06666666666A272400000000000DCAE40EC
S2140013E06D0400204C0200205C0400205C020020FB
S2140013F068040020480200206404002080B584B001
S21400140000AF78600023FB60786800F039F97B68ED
S21400141003F53833683318460AF08FFD7B6803F50A
S214001420383303F54E7318460AF087FD7B6803F5DC
S214001430383303F5E87318460AF07FFD0023FB6097
S214001440FB68B3F5F97F10D8FB684FF4B47202FB63
S21400145003F303F5055308337A68134418460AF075
S2140014606CFDFB680133FB60EAE700BF1037BD4642
S21400147080BD000080B582B000AF7860786800F06C
S21400148049F97B6803F5383303F54E731B78002B58
S21400149000F0EA807B6803F5383303F239331B78B3
S2140014A0002B31D07B6803F5383303F23A331B78D0
S2140014B01B2B11D16E497868FFF7B0FB7B6803F5EC
S2140014C0383303F5E9731B221A707B6803F538334B
S2140014D06A331B221A70C0E07B6803F5383303F5C5
S2140014E0E8731B78002B40F0B8807B6803F5383330
S2140014F003F54E737A6802F5383202F5E872114643
S214001500184600F013FDA8E07B6800225A747B683A
S2140015105B78002B54D057497868FFF77FFB7B68D1
S21400152003F5383202F54E727B6803F53933A4337F
S2140015301B8819464FF4B47303FB01F303F50553F8
S214001540083379680B441946104600F0EFFC7B68B8
S21400155003F53933A4331B88B3F5F97F07D87B68C6
S21400156003F53933A4331B8801339AB200E0002216
S2140015707B6803F53933A4331A807B6803F5393367
S214001580A6331B8801339AB27B6803F53933A6333A
S2140015901A807B6803F5383303F54E7300221A7001
S2140015A07B6803F5383303F23A331B78062B54D1A5
S2140015B07B6801229A7030497868FFF72FFB4CE071
S2140015C07B6803F5383303F23A331B78032B44D198
S2140015D02A497868FFF722FB7B6803F5383202F564
S2140015E04E727B6803F53933A4331B8819464FF4D3
S2140015F0B47303FB01F303F50553083379680B4412
S2140016001946104600F092FC7B6803F53933A43384
S2140016101B88B3F5F97F07D87B6803F53933A43305
S2140016201B8801339AB200E000227B6803F5393349
S214001630A4331A807B6803F53933A6331B8801333D
S2140016409AB27B6803F53933A6331A807B6803F5B4
S214001650383303F54E7300221A707B6803F538336F
S21400166003F54E7300221A7000BF0837BD4680BDD2
S214001670101F0100201F0100401F0100581F01001D
S21400168090B583B000AF786021497868FFF7C6FA56
S2140016907B6800225A707B6800229A707A684FF046
S2140016A000034FF00004C2E902347B6803F53933C7
S2140016B0A63300221A807B6803F53933A433002250
S2140016C01A807B6803F53933A23300221A807B68C0
S2140016D003F53933A2331B8819467A684FF4B4737E
S2140016E003FB01F3134403F50553083300221A7075
S2140016F07B6803F53833683300221A707B68002253
S2140017005A747B6800221A7400BF0C37BD4690BD21
S214001710701F010080B582B000AF78607B6803F56B
S214001720383303F54E737A681332114618460AF0BA
S214001730BAF800BF0837BD4680BD80B582B000AF9E
S21400174078607B6803F5383303F5E8731B78002B65
S21400175015D07B6803F5383303F5E8737A6802F52D
S214001760383268321146184600F0E0FB7B6803F515
S214001770383303F5E87318460AF0DFFB50E07B6861
S21400178003F53933A6331B88002B49D07B6803F555
S2140017903933A2331B881A464FF4B47303FB02F3A3
S2140017A003F5055308337A681A447B6803F5383323
S2140017B068331946104600F0B9FB7B6803F53933E9
S2140017C0A2331B8819467A684FF4B47303FB01F3FF
S2140017D0134403F50553083300221A707B6803F59B
S2140017E03933A2331B88B3F5F97F07D87B6803F536
S2140017F03933A2331B8801339AB200E000227B689B
S21400180003F53933A2331A807B6803F53933A633E0
S2140018101B88013B9AB27B6803F53933A6331A80DE
S21400182000BF0837BD4680BD80B582B000AF786087
S2140018307B685B78002B7CD07B689B78002B78D10C
S2140018407B681B7C002B65D07B6803F53933A63399
S2140018501B88B3F5F97F03D37B6800221A746CE00B
S2140018607B685B7C002B68D17B681B78002B64D17F
S2140018707B6803F5005320331B78002B13D009F048
S2140018805BFC0346002BCCBF01230023DBB2002BFE
S21400189053D07B6803F50053203300221A707B6810
S2140018A001225A7449E009F047FC0346DB0FDBB21D
S2140018B0002B42D17B6803F580531A3305221A7039
S2140018C07B6803F500531C3301221A607B6803F51E
S2140018D080521A327B6803F500531C331B689BB298
S2140018E01946104609F0C8FB0346002BCCBF01235F
S2140018F00023DBB2002B06D07B6803F500532033B1
S21400190001221A7019E07B6803F500532033002289
S2140019101A7012E07B6803F53933A6331B88F92B5F
S2140019200BD87B6801221A7406497868FFF776F9A7
S21400193003E07B6800221A7400E000BF00BF08378F
S214001940BD4680BD901F010080B582B000AF7860B4
S2140019507B6803F5383368331946786800F0CAFBAD
S214001960786801F07BFB7868FFF7AEFB00BF0837AE
S214001970BD4680BD80B582B000AF78607868FFF75E
S21400198053FF786800F096F9786800F011F87868E8
S214001990FFF7DAFF00BF0837BD4680BD80B483B0CE
S2140019A000AF786000BF0C37BD465DF8047B70471B
S2140019B080B582B000AF78607B6803F53833683353
S2140019C01B78002B00F0AA807B6803F538336C3355
S2140019D01B78002B40F0A8807B6803F53833703303
S2140019E07A6802F5055212681146184600F0A0F80B
S2140019F07B6803F5383390337A6802F5055212682F
S214001A0058321146184600F093F87B6803F53833D1
S214001A10B0337A6802F505521268B032114618469D
S214001A2000F086F87B6803F53833D0337A6802F521
S214001A300552126802F584721146184600F078F8CE
S214001A407B6803F53833F0337A6802F5055212687E
S214001A5002F5B0721146184600F06AF87B6803F586
S214001A60383303F588737A6802F50552126802F572
S214001A70DC721146184600F05BF87B6803F53833D5
S214001A8003F598737A6802F50552126802F5047237
S214001A901146184600F04CF87B6803F5383202F51C
S214001AA0A8727B6803F5055304331B681946104675
S214001AB000F06AF87B6803F5383202F5B8727B6886
S214001AC003F5055304331B6818331946104600F017
S214001AD05BF87B6803F5383202F5C8727B6803F55D
S214001AE0055304331B6830331946104600F04CF893
S214001AF07B6803F5383202F5D8727B6803F5055328
S214001B0004331B6848331946104600F03DF87B68DE
S214001B1003F538336C3301221A7005E07B6803F551
S214001B2038336C3300221A7000BF0837BD4680BDBC
S214001B3080B582B000AF786039607B681B78002B78
S214001B401ED07B681A693B681A637B685A693B68D3
S214001B505A633B681B6B002B04DD0121386801F0DB
S214001B6032FA0DE03B681B6B002B05DA4FF0FF31B5
S214001B70386801F028FA03E00021386801F023FAFB
S214001B8000BF0837BD4680BD90B482B000AF786015
S214001B9039607B681B78002B14D03B6801229A7151
S214001BA07B68D3E904343A68C2E902347B68DA79A0
S214001BB03B689A707B685A7A3B68DA707B681A7A58
S214001BC03B681A7100BF0837BD4690BC704780B4AA
S214001BD083B000AF786039607B681B78002B0AD032
S214001BE03B681B6B002B06D17B685B78002B02D111
S214001BF07B6800221A7000BF0C37BD465DF8047B78
S214001C00704790B583B000AF786039607B681B780A
S214001C10002B1BD07B68DB79002B14D03B68D3E904
S214001C2004013B68D3E902341A4623460AF066FEEE
S214001C300346002B00D109E07B6801229A727B687C
S214001C4000221A7002E07B6800221A7000BF0C3770
S214001C50BD4690BD80B483B000AF786039607B68C5
S214001C601B78002B05D07B6800225A703B68002248
S214001C701A6300BF0C37BD465DF8047B704790B40E
S214001C8082B000AF786039607B681B78002B0CD080
S214001C907B6800225A703A684FF000034FF0000449
S214001CA0C2E902343B6800229A7000BF0837BD467E
S214001CB090BC704780B584B000AF78607B6803F551
S214001CC0383368331B78002B00F022817B6803F5DD
S214001CD03833D0337A6802F50552126802F58472FA
S214001CE011461846FFF773FF7B6803F53833F03369
S214001CF07A6802F50552126802F5B0721146184667
S214001D00FFF765FF7B6803F5383303F588737A6859
S214001D1002F50552126802F5DC7211461846FFF706
S214001D2056FF7B6803F5383303F598737A6802F537
S214001D300552126802F5047211461846FFF747FF6F
S214001D407B6803F5383390337A6802F505521268DB
S214001D50583211461846FFF73AFF7B6803F53833CA
S214001D60B0337A6802F505521268B032114618464A
S214001D70FFF72DFF7B6803F5383370337A6802F57A
S214001D800552126811461846FFF721FF7B6803F5D7
S214001D90383202F5A8727B6803F5055304331B68D6
S214001DA019461046FFF72DFF7B6803F5383202F51B
S214001DB0B8727B6803F5055304331B68183319465D
S214001DC01046FFF71EFF7B6803F5383202F5C8722F
S214001DD07B6803F5055304331B68303319461046F9
S214001DE0FFF70FFF7B6803F5383202F5D8727B6881
S214001DF003F5055304331B68483319461046FFF7AE
S214001E0000FF0023FB737B6803F538336A331B78C7
S214001E10002B14BF01230023DBB25AB297F90F3010
S214001E2013435BB2FB737B6803F5383370331A7861
S214001E30FB7B1343FB737B6803F5383390331A78C8
S214001E40FB7B1343FB737B6803F53833B0331A7898
S214001E50FB7B1343FB737B6803F53833D0331A7868
S214001E60FB7B1343FB737B6803F53833F0331A7838
S214001E70FB7B1343FB737B6803F5383303F58873EA
S214001E801A78FB7B1343FB737B6803F5383303F543
S214001E9098731A78FB7B1343FB737B6803F5383320
S214001EA003F5A8731A78FB7B1343FB737B6803F573
S214001EB0383303F5B8731A78FB7B1343FB737B68E0
S214001EC003F5383303F5C8731A78FB7B1343FB73AB
S214001ED07B6803F5383303F5D8731A78FB7B134316
S214001EE0FB73FB7B002B13D17B6803F53833693318
S214001EF01B78002B05D07B6803F53933A833012205
S214001F001A707B6803F53833683318460AF015F8FC
S214001F107B6803F5383368331B78002B02D178686A
S214001F20FFF70BFC00BF1037BD4680BD80B582B002
S214001F3000AF786039607B681A783B681A707B68F7
S214001F405A783B685A703B6800221A717B689A7808
S214001F503B689A707B6803F108023B6808331946B1
S214001F60104600F061F87B6803F128023B682833CE
S214001F701946104600F058F87B6803F148023B68A3
S214001F8048331946104600F04FF87B6803F16802A4
S214001F903B6868331946104600F046F87B6803F144
S214001FA088023B6888331946104600F03DF87B6887
S214001FB003F1A8023B68A8331946104600F034F82F
S214001FC07B6803F1C8023B68C8331946104600F028
S214001FD02BF87B6803F1E8023B68E83319461046A5
S214001FE000F055F87B6803F584723B6803F584734C
S214001FF01946104600F04BF87B6803F594723B6870
S21400200003F594731946104600F041F87B6803F513
S214002010A4723B6803F5A4731946104600F037F81F
S21400202000BF0837BD4680BD80B483B000AF78607F
S21400203039607B685A783B685A707B685A693B6897
S2140020405A617B681A693B681A617B685A7E3B68EE
S2140020505A767B681A7E3B681A767B681A783B68E5
S2140020601A707B689A7E3B689A767B68DA7E3B6855
S214002070DA767B68DA783B68DA707B689A783B6851
S2140020809A7000BF0C37BD465DF8047B704790B46D
S21400209082B000AF786039607B685A783B685A70C7
S2140020A07B681A783B681A707B68D3E906343A680E
S2140020B0C2E906347B681A793B681A717B685A7ADB
S2140020C03B685A727B681A7A3B681A727B685A7940
S2140020D03B685A717B68D3E904343A68C2E9043431
S2140020E07B689A7A3B689A7200BF0837BD4690BCF8
S2140020F07047000080B584B000AF786039603B68F8
S21400210003F108017B6803F505531B681A467868D7
S21400211000F0F6FA3B6803F128017B6803F50553E7
S2140021201B6858331A46786800F0EAFA3B6803F1F1
S21400213048017B6803F505531B68B0331A46786878
S21400214000F0DEFA3B6803F168017B6803F505538F
S2140021501B6803F584731A46786800F0D1FA3B686A
S21400216003F188017B6803F505531B6803F5B0731C
S2140021701A46786800F0C4FA3B6803F1A8017B6849
S21400218003F505531B6803F5DC731A46786800F000
S214002190B7FA3B6803F1C8017B6803F505531B6873
S2140021A003F504731A46786800F0AAFA3B6803F150
S2140021B0E8017B6803F5055304331B681A46786804
S2140021C000F020FC3B6803F584717B6803F505533B
S2140021D004331B6818331A46786800F013FC3B6813
S2140021E003F594717B6803F5055304331B6830339D
S2140021F01A46786800F006FC3B6803F5A4717B6815
S21400220003F5055304331B6848331A46786800F014
S214002210F9FB3B681B78002B00F06E823B689B78CE
S2140022201B2B00F25F8201A252F823F0EF2600007B
S214002230E5260000E52600009D220000E5260000B9
S214002240E5260000B1220000E5260000E526000095
S214002250E5260000E5260000E5260000CB2200006B
S214002260E526000027230000E5260000E5260000FE
S2140022706125000023260000E5260000E526000074
S214002280E5260000E5260000E5260000E52600001D
S214002290E5260000E5260000052400007B680022F5
S2140022A09A707B6801225A703B6800229A7023E27B
S2140022B07B6800229A707B6800225A703B68002276
S2140022C09A707868FFF7DCF916E20123FB733B6827
S2140022D093F86930002B01D00023FB733B6893F81A
S2140022E08930002B01D00023FB733B6893F8A9309C
S2140022F0002B01D00023FB733B6893F8C930002BFA
S21400230001D00023FB73FB7B002B00F0F2817B687F
S21400231003F5005320331B78002B40F0EA813B681E
S21400232000229A70E5E17B6803F5005320331B78A2
S214002330002B14D008F000FF0346002BCCBF01236F
S2140023400023DBB2002B00F0D6817B6803F5005338
S214002350203300221A703B6800229A70CBE108F006
S214002360EBFE0346DB0FDBB2002B40F0C4817B683C
S21400237003F580531A3301221A707868FEF704FBBF
S2140023807B6803F5035320337A6802F580521B32CC
S2140023901146184609F00DFD03461A467B6803F5FC
S2140023A000531C331A607B6803F500531C331B680C
S2140023B05A1C7B6803F500531C331A607B6803F5D0
S2140023C080521A327B6803F500531C331B689BB29D
S2140023D01946104608F050FE0346002BCCBF0123DA
S2140023E00023DBB2002B06D07B6803F500532033B6
S2140023F001221A707FE17B6803F500532033002228
S2140024001A7078E17B6803F53833D0337A6802F5C2
S2140024100552126802F5847211461846FFF71AFC38
S2140024207B6803F53833F0337A6802F50552126894
S21400243002F5B07211461846FFF70CFC7B6803F5F0
S214002440383303F588737A6802F50552126802F588
S214002450DC7211461846FFF7FDFB7B6803F5383340
S21400246003F598737A6802F50552126802F504724D
S21400247011461846FFF7EEFB7B6803F538339033BA
S2140024807A6802F505521268583211461846FFF768
S214002490E1FB7B6803F53833B0337A6802F5055202
S2140024A01268B03211461846FFF7D4FB7B6803F576
S2140024B0383370337A6802F50552126811461846AA
S2140024C0FFF7C8FB7B6803F5383202F5A8727B6815
S2140024D003F5055304331B6819461046FFF7CFFB78
S2140024E07B6803F5383202F5B8727B6803F505534E
S2140024F004331B68183319461046FFF7C0FB7B6889
S21400250003F5383202F5C8727B6803F505530433C9
S2140025101B68303319461046FFF7B1FB7B6803F59E
S214002520383202F5D8727B6803F5055304331B680E
S214002530483319461046FFF7A2FB7B6803F538338D
S21400254003F5E873184609F0F8FC7B6803F53833A2
S2140025506833184609F0F1FC3B6800229A70CBE01D
S2140025603B6893F86A30002B08D07B6803F5055368
S2140025701B6803F58473184600F0FBFC3B6893F871
S2140025808A30002B08D07B6803F505531B6803F5DB
S214002590B073184600F0EDFC3B6893F8AA30002BA9
S2140025A008D07B6803F505531B6803F5DC731846F3
S2140025B000F0DFFC3B6893F8CA30002B08D07B683D
S2140025C003F505531B6803F50473184600F0D1FCA9
S2140025D03B6893F82A30002B07D07B6803F5055339
S2140025E01B685833184600F0C4FC3B6893F84A3022
S2140025F0002B07D07B6803F505531B68B0331846DD
S21400260000F0B7FC3B689B7A002B06D07B6803F58E
S21400261005531B68184600F0ACFC3B6800229A7015
S2140026206AE03B6893F86B30002B08D07B6803F5B4
S21400263005531B6803F58473184600F0AFFC3B682F
S21400264093F88B30002B08D07B6803F505531B6886
S21400265003F5B073184600F0A1FC3B6893F8AB3066
S214002660002B08D07B6803F505531B6803F5DC7365
S214002670184600F093FC3B6893F8CB30002B08D04C
S2140026807B6803F505531B6803F50473184600F0D2
S21400269085FC3B6893F82B30002B07D07B6803F54E
S2140026A005531B685833184600F078FC3B6893F8CF
S2140026B04B30002B07D07B6803F505531B68B033FF
S2140026C0184600F06BFC3B68DB7A002B06D07B6874
S2140026D003F505531B68184600F060FC3B680022B3
S2140026E09A7009E03B6800229A7000BF04E000BFC1
S2140026F002E000BF00E000BF00BF1037BD4680BD4F
S21400270090B585B000AFF860B9607A60BB681B789A
S214002710002B00F06F81BB685B78122B00F26281A1
S21400272001A252F823F000BFEF290000E5290000BF
S214002730E5290000E5290000E5290000E52900005C
S214002740E5290000E5290000E5290000E52900004C
S214002750E529000075270000F5270000AF280000D7
S214002760E5290000C52800003D2900009D2900003D
S214002770C12900007B68DB78002B22D07B68DB79E0
S214002780012B16D17B680022DA707B68D3E90A3405
S2140027901A467B68D3E90434D31A1A467B681A6350
S2140027A04FF0FF31786800F00EFCBB6800225A70CC
S2140027B020E17B6801221A630121786800F003FC9F
S2140027C018E17B68DB79012B09D17B684FF0FF327B
S2140027D01A634FF0FF31786800F0F5FB0AE17B687A
S2140027E00122DA707B6801221A630121786800F002
S2140027F0EAFBFFE07B689B78002B1ED07B689B790A
S214002800012B10D17B6801225A707A684FF00003C2
S2140028104FF00004C2E904347B6800229A707B689B
S2140028200122DA7025E07B684FF0FF321A634FF022
S214002830FF31786800F0C7FB1BE07B68DB78002B75
S21400284017D17B689B79012B07D17B6801221A631D
S2140028500121786800F0B7FB0BE07B6801229A70D4
S2140028607B684FF0FF321A634FF0FF31786800F054
S214002870AAFB7B68DB78002B00F0BB807B68DB79EB
S214002880012B0CD17B680022DA707B68D3E9043414
S2140028907A68C2E90634BB6800225A70A9E07B68F1
S2140028A001221A630121786800F08DFBA1E0BB6865
S2140028B01B694FEAE3747A68C2E90434BB680022F5
S2140028C05A7097E07B689B78002B1ED07B689B79BC
S2140028D0012B10D17B6801225A707A684FF00003F2
S2140028E04FF00004C2E904347B6800229A70BB688B
S2140028F000225A707EE07B684FF0FF321A634FF07A
S214002900FF31786800F05FFB74E07B689B79012BF1
S21400291007D17B6801221A630121786800F053FB17
S21400292068E07B6801229A707B684FF0FF321A637A
S2140029304FF0FF31786800F046FB5BE07B68DB78A1
S214002940002B12D07B68DB79012B06D17B68002236
S214002950DA70BB6800225A704CE07B6801221A636A
S2140029600121786800F02FFB44E07B68DB79012BBF
S21400297009D17B684FF0FF321A634FF0FF31786859
S21400298000F021FB36E07B680122DA707B680122CA
S2140029901A630121786800F016FB2BE07B683C3355
S2140029A01A461649F868FEF739F9BB689B78002B7B
S2140029B002D0786800F0DDFABB6800225A7019E091
S2140029C07B683C331A460E49F868FEF727F9BB6861
S2140029D0DB78002B02D0786800F0E0FABB680022B3
S2140029E05A7007E0BB6800225A7000BF02E000BFC2
S2140029F000E000BF00BF1437BD4690BDAC1F01000D
S214002A00C01F010080B485B000AFF860B9607A607E
S214002A10BB681B78002B09D0BB685B78002B04D002
S214002A20BB6800225A7000BF00E000BF00BF14372A
S214002A30BD465DF8047B704780B485B000AF786013
S214002A4039607B6803F10473DA003B6813449B002B
S214002A50FB60FB681B6818461437BD465DF8047BB0
S214002A60704780B485B000AF786039607B6803F14A
S214002A70C063FB60FB683A681A6000BF1437BD4647
S214002A805DF8047B704780B485B000AF786039602D
S214002A907B6803F18063FB60FB683A681A6000BFDE
S214002AA01437BD465DF8047B704780B582B000AF32
S214002AB003463960FB71FB791A4613465B001344E4
S214002AC01B011C3303F1804303F520433A6811468B
S214002AD01846FFF7B1FF034618460837BD4680BDC7
S214002AE080B582B000AF03463960FB71FB791A46A9
S214002AF013465B0013441B010C3303F1804303F5BC
S214002B0020433A68012101FA02F211461846FFF7FF
S214002B10BAFF00BF0837BD4680BD80B582B000AFA3
S214002B2003463960FB71FB791A4613465B00134473
S214002B301B010C3303F1804303F520433A6801215F
S214002B4001FA02F211461846FFF78BFF00BF08375E
S214002B50BD4680BD80B582B000AF78607B68052238
S214002B6083F846207B68082283F84D207B6808227D
S214002B7083F844207B68002283F84B207B6802227F
S214002B8083F847207B68042283F84E207B68022265
S214002B9083F848207B68052283F84F207B68002254
S214002BA083F84A207B68002283F851207B68002245
S214002BB083F849207B68002283F850207B68052232
S214002BC083F845207B68002283F84C207B6805222A
S214002BD083F89E207B680A2283F8A5207B6808225B
S214002BE083F89C207B68022283F8A3207B6802225D
S214002BF083F89F207B68082283F8A6207B68012242
S214002C0083F8A0207B68092283F8A7207B6800222F
S214002C1083F8A2207B68002283F8A9207B68002224
S214002C2083F8A1207B68002283F8A8207B68052211
S214002C3083F89D207B68022283F8A4207B68052207
S214002C4083F8F6207B68092283F8FD207B6808223B
S214002C5083F8F4207B68012283F8FB207B6802223D
S214002C6083F8F7207B68062283F8FE207B68022222
S214002C7083F8F8207B68072283F8FF207B68002211
S214002C8083F8FA207B68002283F801217B68002203
S214002C9083F8F9207B68002283F800217B680522F0
S214002CA083F8F5207B68012283F8FC207B680522E8
S214002CB083F84E217B680C2283F855217B68092215
S214002CC083F84C217B680E2283F853217B6803220D
S214002CD083F84F217B680C2283F856217B680322F9
S214002CE083F850217B680D2283F857217B680322E6
S214002CF083F852217B680B2283F859217B680222D5
S214002D0083F851217B680A2283F858217B680522C4
S214002D1083F84D217B68042283F854217B680522C2
S214002D2083F8A6217B680D2283F8AD217B680922F3
S214002D3083F8A4217B680F2283F8AB217B680022EE
S214002D4083F8A7217B68042283F8AE217B680022E3
S214002D5083F8A8217B68052283F8AF217B680022D0
S214002D6083F8AA217B68082283F8B1217B680022B9
S214002D7083F8A9217B68092283F8B0217B680522A5
S214002D8083F8A5217B68052283F8AC217B680522A1
S214002D9083F8FE217B680E2283F805227B680522D5
S214002DA083F8FC217B680F2283F803227B680A22C3
S214002DB083F8FF217B68002283F806227B680A22BC
S214002DC083F800227B68012283F807227B680022B2
S214002DD083F802227B68062283F809227B68002299
S214002DE083F801227B68072283F808227B68052285
S214002DF083F8FD217B68062283F804227B6805227F
S214002E0083F856227B680B2283F85D227B680822B3
S214002E1083F854227B68032283F85B227B680322B4
S214002E2083F857227B680E2283F85E227B68032293
S214002E3083F858227B680F2283F85F227B68022281
S214002E4083F85A227B68092283F861227B68022273
S214002E5083F859227B680B2283F860227B68052260
S214002E6083F855227B68032283F85C227B68184926
S214002E70184600F03BF87B6858331649184600F0B1
S214002E8035F87B68B0331449184600F02FF87B6895
S214002E9003F584731149184600F028F87B6803F59B
S214002EA0B0730F49184600F021F87B6803F5DC7311
S214002EB00C49184600F01AF87B6803F504730A49B3
S214002EC0184600F013F800BF0837BD4680BD00BFA7
S214002ED0D41F0100D81F0100E01F0100E81F0100F9
S214002EE0F01F0100F81F01000020010090B583B01C
S214002EF000AF78603960786800F050F87B68002290
S214002F001A727A6842F210734FF00004C2E9043471
S214002F107A684FF000034FF00004C2E90A347A687A
S214002F204FF000034FF00004C2E908347B6800222B
S214002F301A637B6800221A717B6800225A707868D0
S214002F4000F0B4F87B6842F210725A637B68002285
S214002F509A637B6800229A707B680022DA707B682E
S214002F603C33396818460BF059FF00BF0C37BD4696
S214002F7090BD80B582B000AF78607B6893F844203F
S214002F807B6893F84B3019461046FFF7A9FD7B681F
S214002F9001221A7000BF0837BD4680BD80B582B0DA
S214002FA000AF78607B6893F844207B6893F84B30DA
S214002FB019461046FFF7B1FD7B6800221A7000BF65
S214002FC00837BD4680BD80B582B000AF78600B463E
S214002FD0FB7097F90330002B05D0012B11D0B3F10D
S214002FE0FF3F1CD029E07B6893F846207B6893F867
S214002FF04D3019461046FFF773FD7B68FA781A7253
S21400300028E07B6893F846207B6893F84D30194695
S2140030101046FFF782FD7B68FA781A721AE07B6822
S21400302093F846207B6893F84D3019461046FFF714
S21400303057FD7B68FA781A720CE07B6893F8462096
S2140030407B6893F84D3019461046FFF749FD7B68BC
S21400305000221A7200BF0837BD4680BD80B582B018
S21400306000AF7860104B1B78002B18D00E4B002258
S2140030701A707B6803F505531B68184600F0E5F8E0
S2140030807B6803F505531B68184600F049F87B6813
S21400309003F505531B681946786800F028F900BF49
S2140030A00837BD4680BD00BF6C04002080B582B0E6
S2140030B000AF78607B6893F849207B6893F85030BF
S2140030C019461046FFF7F1FC0346002B14BF0123F8
S2140030D00023DBB2002B03D07B6800229A7102E04B
S2140030E07B6801229A717B6893F84A207B6893F884
S2140030F0513019461046FFF7D8FC0346002B14BF84
S21400310001230023DBB2002B03D07B680022DA7198
S21400311002E07B680122DA7100BF0837BD4680BD39
S21400312080B582B000AF78607B6803F5847318467C
S214003130FFF7BCFF7B6803F5B0731846FFF7B6FFD2
S2140031407B6803F5DC731846FFF7B0FF7B6803F572
S21400315004731846FFF7AAFF7B68002283F85E20F8
S2140031607B68002283F85F207B68002283F8B62005
S2140031707B68002283F8B7207B6800229A717B6800
S2140031800022DA7100BF0837BD4680BD2DE99048A1
S21400319082B000AF78607B685B79002B05D07868DA
S2140031A000F093F87B6800225A717B681B78002B2E
S2140031B046D07B681B6B002B42D07B689B6B002B3A
S2140031C005D07B689B6B5A1E7B689A6338E07B68E9
S2140031D01B79002B34D07B6893F90830012B03D180
S2140031E07B68DB79002B09D07B6893F90830B3F154
S2140031F0FF3F22D17B689B79002B1ED1786800F0B8
S21400320052F87B68D3E904127B6893F908304FFACA
S21400321083FB4FEAEB7C1BEB01034CEB02047A6862
S214003220C2E904347B681B6B7A6892F908209A1A04
S2140032307B681A637B6801225A717B6800221A71C8
S21400324000BF0837BD46BDE8908880B582B000AFA5
S21400325078607B681846FFF799FF7B6858331846F6
S214003260FFF794FF7B68B0331846FFF78FFF7B6845
S21400327003F584731846FFF789FF7B6803F5B07380
S2140032801846FFF783FF7B6803F5DC731846FFF7E5
S2140032907DFF7B6803F504731846FFF777FF00BFD2
S2140032A00837BD4680BD80B582B000AF78607B68C9
S2140032B093F845207B6893F84C3019461046FFF784
S2140032C02CFC00BF0837BD4680BD80B582B000AF7D
S2140032D078607B6893F845207B6893F84C301946F5
S2140032E01046FFF7FDFB00BF0837BD4680BD80B522
S2140032F082B000AF786039603B681946786800F0A5
S2140033002DF83B6858331946786800F027F83B6874
S214003310B0331946786800F021F83B6803F58473EB
S2140033201946786800F01AF83B6803F5B07319463A
S214003330786800F013F83B6803F5DC731946786884
S21400334000F00CF83B6803F504731946786800F043
S21400335005F800BF0837BD4680BD000080B582B0C6
S21400336000AF786039603B681B79002B3AD13B6828
S2140033701B6B002B36D03B68DB79002B13D03B68E9
S21400338093F90830012B0ED14FF0FF313868FFF764
S2140033901AFE3B6800221A633B683C331A46134900
S2140033A07868FDF73BFC3B689B79002B13D03B68A5
S2140033B093F90830B3F1FF3F0DD101213868FFF7CC
S2140033C002FE3B6800221A633B683C331A460849F3
S2140033D07868FDF723FC3B685A6B3B689A633B684A
S2140033E001221A7100BF0837BD4680BD08200100C3
S2140033F01C20010080B485B000AF786039607B681F
S21400340003F10473DA003B6813449B00FB60FB681F
S2140034101B6818461437BD465DF8047B704780B4B9
S21400342085B000AF786039607B6803F1C063FB60ED
S214003430FB683A681A6000BF1437BD465DF8047B27
S214003440704780B485B000AF786039607B6803F160
S2140034508063FB60FB683A681A6000BF1437BD469D
S2140034605DF8047B704780B582B000AF03463960D4
S214003470FB71FB791A4613465B0013441B011C3391
S21400348003F1804303F520433A6811461846FFF7D8
S214003490B1FF034618460837BD4680BD80B582B0EA
S2140034A000AF03463960FB71FB791A4613465B0092
S2140034B013441B010C3303F1804303F520433A68A1
S2140034C0012101FA02F211461846FFF7BAFF00BFC3
S2140034D00837BD4680BD80B582B000AF0346396070
S2140034E0FB71FB791A4613465B0013441B010C3331
S2140034F003F1804303F520433A68012101FA02F202
S21400350011461846FFF78BFF00BF0837BD4680BD43
S21400351080B584B000AFF860B9607A607B689BB213
S2140035201946034807F074FD00BF1037BD4680BD3E
S214003530C804002080B500AF09210320FFF793FFE1
S2140035400346DBB2184680BD80B500AF0A210320D3
S214003550FFF7C1FF00BF80BD80B500AF0A21032082
S214003560FFF79CFF00BF80BD80B586B002AF7860D5
S2140035700B467B800023FB607B88072B02D8012349
S214003580FB6004E07B88FA2B01D90123FB607B8873
S2140035901A4679680E480AF07FFD0E4B18687A883E
S2140035A0002301930C4B009313460C4A084901F084
S2140035B04BFD0346FB60FB68002B02D10123FB603A
S2140035C001E00023FB60002318461037BD4680BD8F
S2140035D0C80500200000002011350000C8040020A7
S2140035E080B500AF0B4B0A229A710A4B1D22DA7186
S2140035F0084B0A225A71074B0A221A71054B5822A9
S2140036001A61054B1B680349184601F0A9FB00BF69
S21400361080BD00BF040000200000002080B582B0FE
S21400362000AF78607B681233184607F04BFD024601
S2140036307B6803F5805314331A607B6803F5805368
S21400364014331B68002B03D107F002FD002309E0AA
S2140036507B6803F5805314331B68002B01DD0123C0
S21400366000E0002318460837BD4680BD80B483B00E
S21400367000AF0346FB7197F9073003F01F020749B6
S21400368097F907305B09012000FA02F241F823207F
S21400369000BF0C37BD465DF8047B704700E100E0D4
S2140036A080B483B000AF78607B68094A934203D049
S2140036B07B68084A934202D14FF0FF3301E04FF691
S2140036C0FF7318460C37BD465DF8047B704700BF95
S2140036D000A0014000A4014080B483B000AF786031
S2140036E039607B683A685A6100BF0C37BD465DF8A2
S2140036F0047B704780B483B000AF786039607B6825
S2140037009A693B681A437B689A6100BF0C37BD46CE
S2140037105DF8047B704780B582B000AF7860396092
S2140037207868FFF7BDFF7B683A68DA6100BF083744
S214003730BD4680BD80B582B000AF786000F004F86A
S21400374000BF0837BD4680BD80B584B000AF0121FC
S2140037500F4806F059F84FF47A710E48FFF7DBFF72
S2140037603B4600221A605A609A601A7301233B7027
S21400377001210848FFF7BEFF1320FFF777FF3B46FF
S2140037801946044807F00AF900BF1037BD4680BD49
S214003790001204000084014080B500AF01210448F7
S2140037A0FFF79AFF034B01221A7000BF80BD00BFCF
S2140037B0008401406C04002080B400AF044BDB6C36
S2140037C01B0EDBB21846BD465DF8047B704700BF93
S2140037D0B081E00F80B582B000AFFFF7EDFF034683
S2140037E0FB71FB79002B0CD1104B4AF6E8521A609D
S2140037F00F4B1B680E4A43F0040313600B4B00226A
S2140038001A60FB79012B05D80A4B1B68094A43F45A
S21400381000531360084B1B6A23F44413064A43F410
S2140038208813136200BF0837BD4680BD90310E4036
S21400383098310E4064310E4000400E4080B483B094
S21400384000AF78607B6800221A707B6818460C37D9
S214003850BD465DF8047B704780B483B000AF7860E7
S2140038607B683C3300221A605A607B6818460C3727
S214003870BD465DF8047B704780B582B000AF7860C7
S2140038807B681846FFF7E8FF7B6858331846FFF753
S214003890E3FF7B68B0331846FFF7DEFF7B6803F56F
S2140038A084731846FFF7D8FF7B6803F5B073184695
S2140038B0FFF7D2FF7B6803F5DC731846FFF7CCFFF3
S2140038C07B6803F504731846FFF7C6FF7B68184647
S2140038D00837BD4680BD000080B5ADF5327D00AF2F
S2140038E03B461846FFF7C8FFFFF774FF154B03F576
S2140038F005533A461A60134B03F50553043307F590
S2140039001A721A600F4B03F505531B68184600F031
S2140039101DF80C4B03F505531B681946094800F0C3
S21400392043F809490748FDF779F907F079FC054897
S214003930FCF792FD0348FEF71DF80248FEF72EF846
S214003940F3E700BFC80600203020010080B582B033
S21400395000AF786000F00EF8FFF742FEFDF763FA5E
S214003960FCF782FC7868FFF7E5FE00BF0837BD4627
S21400397080BD000080B500AF0121094805F044FF76
S2140039800121084805F040FF0421112006F06AF9DD
S21400399000220021032006F0DBFA00BF80BD00BF36
S2140039A04041050000350A0080B582B000AF78605F
S2140039B039603868FFF7CEF87868FDF71FFD78683D
S2140039C0FCF7F6FC00BF0837BD4680BD80B582B068
S2140039D000AF786039607B68012B07D13B684FF6F3
S2140039E0FF72934202D10348FFF728FF00BF083753
S2140039F0BD4680BDC806002080B500AF4FF6FF71FB
S214003A000120FFF7E3FF80BD80B584B000AF78608B
S214003A103960214B1B7883F00103DBB2002B01D009
S214003A201E4B34E07B68002B01D11D4B2FE006F0C7
S214003A307DFCB8600023FB6022E01A4AFB681B018D
S214003A4013440C331B7883F00103DBB2002B14D035
S214003A50FA687B681A60134AFB681B0113440C3330
S214003A6001221A700F4AFB681B01134400221A60D9
S214003A70B86806F06BFC002309E0FB680133FB60C6
S214003A80FB68072BD9DDB86806F060FC064B1846C5
S214003A901037BD4680BD00BF786B0320028000F063
S214003AA0018000F07C6B0320048000F080B584B0B9
S214003AB000AF194B1B687B6000233B7106F036FC99
S214003AC0B860164B1B78002B04D0B86806F03EFC96
S214003AD0134B1CE0114B01221A70B86806F036FC36
S214003AE00023FB6009E00F4AFB681B0113440C33FC
S214003AF000221A70FB680133FB60FB68072BF2DDBF
S214003B000423FB713B1D184606F05EFD0023184695
S214003B101037BD4680BD00BF44200100786B0320EF
S214003B20038000F07C6B032080B58CB008AFF86093
S214003B30B9607A603B60BB6A07937B6A069397F826
S214003B4020300593FB6904933B7E03930023029386
S214003B503B6801937B680093BB68FA6800210020ED
S214003B6000F08EF9034618461037BD4680BD80B576
S214003B708CB008AFF860B9607A603B60BB6A0793A8
S214003B807B6A069397F820300593FB6904933B7E87
S214003B900393002302933B6801937B680093BB6802
S214003BA0FA680121002000F06BF90346184610372A
S214003BB0BD4680BD80B582B000AF7860114B1B78E3
S214003BC083F00103DBB2002B01D00F4B16E07B68BD
S214003BD0072B01D90D4B11E00D4A7B681B011344DE
S214003BE00C331B7883F00103DBB2002B01D0094BAA
S214003BF004E07B68184606F0CBFD0023184608371D
S214003C00BD4680BD786B0320028000F0018000F086
S214003C107C6B0320078000F080B483B000AF786030
S214003C2039601A4B1B7883F00103DBB2002B01D0FE
S214003C30174B25E07B68072B02D83B68002B01D189
S214003C40144B1DE0144A7B681B0113440C331B788D
S214003C5083F00103DBB2002B01D0104B10E0104BB9
S214003C601B6A01217A6801FA02F21340002B03D086
S214003C703B6801221A7002E03B6800221A7000239B
S214003C8018460C37BD465DF8047B7047786B0320FA
S214003C90028000F0018000F07C6B0320078000F0BB
S214003CA000200E4080B483B000AF786039601A4BB5
S214003CB01B7883F00103DBB2002B01D0174B25E005
S214003CC07B68072B02D83B68002B01D1144B1DE004
S214003CD0144A7B681B0113440C331B7883F00103E2
S214003CE0DBB2002B01D0104B10E0104B1B6E0121F5
S214003CF07A6801FA02F21340002B03D03B680122D7
S214003D001A7002E03B6800221A70002318460C372F
S214003D10BD465DF8047B7047786B0320028000F098
S214003D20018000F07C6B0320078000F000200E402E
S214003D3080B582B000AF78603960154B1B7883F091
S214003D400103DBB2002B01D0124B1DE07B68072B72
S214003D5002D83B68002B01D10F4B15E00F4A7B6859
S214003D601B0113440C331B7883F00103DBB2002BDA
S214003D7001D00B4B08E07B68184606F02DFD034685
S214003D801A463B681A60002318460837BD4680BDB1
S214003D90786B0320028000F0018000F07C6B03202B
S214003DA0078000F080B586B000AF324B1B6EFB601C
S214003DB0304BDB6EFA681340FB60FB68002B00DAC2
S214003DC0FEE700237B6101233B614CE0FA683B6918
S214003DD01340002B41D0274A3B6993667B691B0141
S214003DE0254A1344BB60BB681B68002B35D0BB68F4
S214003DF09B685A1CBB689A60BB681B68BA68916867
S214003E00BA685268786998470346002B14BF0123A6
S214003E100023DBB283F00103DBB2FB71FB7903F016
S214003E200103FB71BB685B7B012B16D1FB79002B72
S214003E3013D0124A7B695B01134403F1080213791D
S214003E406FF3410313710D4A7B695B01134403F161
S214003E50180213796FF3410313717B6901337B6199
S214003E603B695B003B617B69072BAFD900BF183706
S214003E70BD4680BD00200E407C6B0320FC6B0320FB
S214003E8090B58BB000AFBA607B600346FB730B4601
S214003E90BB737A4B1B7883F00103DBB2002B01D097
S214003EA0774BE7E0BB68072B0FD8BB6B002B0CD01B
S214003EB0FB6B002B09D0BB6CB3F5006F05DCFB7BFE
S214003EC0012B04D13B6C002B01D16E4BD2E0BB68BA
S214003ED01B016D4A13447B627B6A1B7B83F00103E4
S214003EE0DBB2002B01D0694BC4E007F110030022BF
S214003EF01A605A609A60DA60BB685B01644A1344D1
S214003F003B62BB7B002B1DD13B6A1A460023136025
S214003F1053609360D3603A6A937843F010039370CB
S214003F203A6AD37843F03003D37097F8443083F07E
S214003F300103DBB2002B22D03A6AD37843F00303A6
S214003F40D3701CE03B6A1A460023136053609360EC
S214003F50D3603A6A937843F0100393703A6AD37842
S214003F6043F00303D37097F8443083F00103DBB2C9
S214003F70002B04D03A6AD37843F03003D3707B68C2
S214003F803B61BB6C9BB2013B9BB2C3F30A0399B285
S214003F903A6A138861F30E131380BA6B3B6A9A6011
S214003FA0FA6B3B6A5A6097F84C3003F00303D9B2B9
S214003FB03A6AD37861F38303D370FB7B012B3AD143
S214003FC03A6A137B43F0010313733A6A137B43F098
S214003FD0020313733A6AD368042161F39F03D36024
S214003FE02B4ABB685B01134403F110023B6A14467C
S214003FF00FCB84E80F00264ABB685B01134403F12D
S214004000180253686FF0030161F39F0353603A6C24
S2140040101F49BB685B010B4414331A60BB7B012B42
S21400402009D1FA6B1A49BB685B010B4418331A6056
S2140040303A6C3B6A5A603B6D002B07D1FB7B002B2A
S21400404004D13A6A93786FF3041393707B6A3A6DDF
S2140040501A607B6A7A6D5A607B6A00229A607B6A75
S214004060FA7B5A73BB6807F110013A6A184606F0E5
S214004070E5FA002318462C37BD4690BD786B032022
S214004080028000F0018000F07C6B0320078000F0C7
S214004090FC6B032080B483B000AF7860044A7B6872
S2140040A0C2F8243400BF0C37BD465DF8047B704769
S2140040B000A0004080B483B000AF074BD3F828348C
S2140040C07B60054BD3F81C247B68134018460C37DE
S2140040D0BD465DF8047B704700A0004080B485B004
S2140040E000AF78607B68FB60FB6893FAA3F3BB6065
S2140040F0BB68B3FA83F318461437BD465DF8047BF5
S2140041007047000080B584B000AF786019E078682A
S214004110FFF7E4FFF8600122FB6802FA03F3DB43D3
S2140041201A467B6813407B60094AFB6852F82330C6
S214004130BB60BB68002B04D0FB68DAB2BB681046D5
S21400414098477B68002BE2D100BF1037BD4680BD84
S214004150FC6C032080B582B000AFFFF7ABFF0246D1
S21400416045F2555313407B607868FFF793FF7868F5
S214004170FFF7C8FF00BF0837BD4680BD80B582B0D8
S21400418000AFFFF797FF02464AF6AA2313407B606C
S2140041907868FFF77FFF7868FFF7B4FF00BF08373F
S2140041A0BD4680BD80B483B000AF0346FB71FB798B
S2140041B003F01F02074997F907305B09012000FA50
S2140041C002F241F8232000BF0C37BD465DF8047BA1
S2140041D0704700BF00E100E080B483B000AF034644
S2140041E0FB71FB7903F01F02074997F907305B095B
S2140041F0012000FA02F2603341F8232000BF0C379A
S214004200BD465DF8047B704700E100E080B485B0F1
S21400421000AF78607B68002B03D07B68B3F5004F57
S21400422000BF7B68B3FA83F3C3F11F03FB60FB6830
S21400423018461437BD465DF8047B704780B483B0DB
S21400424000AF7860064A7B6804331B0113440433CE
S2140042501B6818460C37BD465DF8047B704700BFE8
S2140042600020044080B483B000AF78603960074A0D
S2140042707B6804331B01134404333A681A6000BF9A
S2140042800C37BD465DF8047B704700BF0020044035
S21400429080B400AF034B9B681846BD465DF8047BB0
S2140042A0704700BF0020044080B483B000AF786041
S2140042B0044A7B68136200BF0C37BD465DF8047B7A
S2140042C0704700BF0020044080B483B000AF786021
S2140042D0064B5A6A7B68DB43044913404B6200BFB7
S2140042E00C37BD465DF8047B704700BF00200440D5
S2140042F080B483B000AF7860054B5A6A04497B6887
S21400430013434B6200BF0C37BD465DF8047B704715
S2140043100020044080B483B000AF064B5B6A7B602D
S214004320044B9A697B68134018460C37BD465DF807
S214004330047B70470020044080B586B000AF7860EC
S21400434000237B6100233B6105F0F0FFF86002E08C
S2140043507B6901337B617B69032B0ADC16497A692A
S21400436013469B001344DB000B441E331B78002BC4
S214004370EED17B69042B02D1104B3B6114E07B68C5
S214004380002B0FD00C497A6913469B001344DB00C0
S2140043900B441E3301221A707A697B681A60002368
S2140043A03B6101E0064B3B61F86805F0CFFF3B69D7
S2140043B018461837BD4680BD406D0320011000F03A
S2140043C0041000F080B500AF224B1B78002B01D004
S2140043D000233CE01F4B01221A7001211E4805F005
S2140043E013FA02211D4805F03DFC0820FFF70EFFDA
S2140043F00346DAB21A4B1A7101211A4805F004FA7C
S214004400174806F057FA1849012006F025FA40F238
S214004410FF70FFF759FF40F2FF70FFF745FF134BA1
S21400442000229A601E20FFF7D7FE1E20FFF7BAFE76
S214004430A02200210E4809F03AFE0E4B00221A7008
S2140044400D4B00221A700D4B00221A6000231846EE
S21400445080BD00BFEA6D032000250A00050022008B
S21400446020000020A00914002C000020002004409A
S214004470406D0320E86D0320E96D0320E46D032002
S21400448090B58FB000AFF8607A603B600B46FB7269
S21400449000233B63FB68032B01D9B64B65E105F0AF
S2140044A045FFF862B449FA6813469B001344DB00E4
S2140044B00B441E331B7883F00103DBB2002B04D0C1
S2140044C0F86A05F043FFAD4B4FE17B68002B0BD13C
S2140044D03B68002B03D03B68B96CF8689847F86ACD
S2140044E005F034FF002340E1FFF7D2FE7863A249CF
S2140044F0FA6813469B001344DB000B4418333A68F3
S2140045001A607B6819464FF000024FF000034FF028
S2140045100004D40344EA5144CB0313F57A6044F113
S21400452000014FF4FA524FF0000308F019FA034660
S2140045300C4619462246904CF86803469B000344F6
S214004540DB0023440833C3E90012FB7A012B28D191
S2140045507B684FF47A7202FB03F18748FA681346C9
S2140045609B001344DB0003440833D3E900341A46A7
S214004570F42303FB02F3CB1A18467F49FA68134666
S2140045809B001344DB000B44103318607A49FA682A
S21400459013469B001344DB000B4414337A221A6044
S2140045A013E07549FA6813469B001344DB000B447E
S2140045B00833D3E90012704CF86803469B000344A6
S2140045C0DB0023440833C3E900126B49FA6813463C
S2140045D09B001344DB000B440833D3E90034591C1A
S2140045E044F10002644CF86803469B000344DB0079
S2140045F02344C3E900126049FA6813469B0013443B
S214004600DB000B441C3301221A705B49FA68134620
S2140046109B001344DB000B441F33FA7A1A7056498A
S214004620FA6813469B001344DB000B442033BA6C35
S2140046301A60534B1B78002B04D0F86A05F086FEF0
S214004640002392E04F4B1B68B3F1FF3F04D04D4B65
S2140046501B6801334B4A13604B4B1B7883F00103F6
S214004660DBB2002B2ED0494A7B6B13600420FFF789
S2140046701BFE4149FA6813469B001344DB000B44BB
S214004680D3E90034C7E906346FF064037B617B69C5
S21400469019464FF00002D7E90634A24208BF9942F5
S2140046A001D20B4614463B617A6B3B6913441946AC
S2140046B00120FFF7D7FD0420FFF71AFE324B012238
S2140046C01A7045E02F4B1B68012B41D12A49FA6826
S2140046D013469B001344DB000B441C3300221A7065
S2140046E00420FFF7F1FD294B1B687A6BD31ABB62D7
S2140046F0B86A00F0D7F800F03DFA3B6B002B09D102
S2140047001D49FA6813469B001344DB000B441C3318
S21400471001221A703B6B01333B63786B00F05CFA46
S214004720FFF7B6FD7863194B1B687A6BD31ABB622A
S2140047300120FFF783FD0246144B1B68D31A7B62E9
S214004740114B1B78002B03D0BA6A7B6A9A42C7D8F3
S2140047500C4B1B68002B04D00A4B1B68013B094A14
S2140047601360F86A05F0F2FD002318463C37BD4694
S21400477090BD00BF021000F0406D0320031000F053
S214004780E86D0320E46D0320E96D0320E06D03204F
S21400479080B584B000AF78607B68032B01D9154BD9
S2140047A023E005F0C3FDF86013497A6813469B00C2
S2140047B01344DB000B441E331B7883F00103DBB28B
S2140047C0002B04D0F86805F0C1FD0C4B0DE00A493B
S2140047D07A6813469B001344DB000B441C3300220C
S2140047E01A70F86805F0B2FD002318461037BD466B
S2140047F080BD00BF021000F0406D0320031000F0E3
S21400480080B586B000AF05F091FD3861FFF782FDF8
S214004810F860FB6823F005031846FFF745FDFB68C4
S21400482003F00403002B30D01B4B01221A70FFF755
S2140048302FFD78610420FFF747FD184B1B687A6947
S214004840D31ABB60B86800F02DF800F093F97869C9
S21400485000F0C2F9FFF71CFD7861104B1B687A69FF
S214004860D31ABB600120FFF7E9FC02460B4B1B681E
S214004870D31A7B600A4B1B78002B03D0BA687B6880
S2140048809A42D7D8044B00221A70386905F05EFDAC
S21400489000BF1837BD4680BDE86D0320E06D0320DD
S2140048A0E96D0320F0B587B000AF786000237B6128
S2140048B056E1AF497A6913469B001344DB000B446C
S2140048C01D3300221A70AA497A6913469B001344C6
S2140048D0DB000B441C331B78002B00F03E81A44900
S2140048E07A6913469B001344DB000B44D3E900347B
S2140048F07A6811464FF00002A24208BF99421AD2C7
S2140049009B497A6913469B001344DB000B44D3E9AA
S21400491000567B684FF0000429463246C91A62EBFF
S2140049200402934C786903469B000344DB0023444F
S214004930C3E9001211E18E497A6913469B001344BD
S214004940DB000B441F331B78002B0AD188497A6999
S21400495013469B001344DB000B441C3300221A70E2
S214004960E6E07B6819464FF00002814C7869034602
S2140049709B000344DB002344D3E900560B46144651
S2140049805B1B64EB0604C7E9023479497A6913466F
S2140049909B001344DB000B440833D3E900457449FD
S2140049A07A6913469B001344DB000B440833D3E9B3
S2140049B00023D7E9020107F0D3FFA41A65EB03052D
S2140049C021462A466A4C786903469B000344DB006E
S2140049D02344C3E9001266497A6913469B001344D0
S2140049E0DB000B4410331B68002B50DD60497A69EE
S2140049F013469B001344DB000B44143319685C48D1
S214004A007A6913469B001344DB00034410331B688B
S214004A10194457487A6913469B001344DB00034445
S214004A201433196052497A6913469B001344DB001D
S214004A300B4414331B68F32B7AD94D497A69134615
S214004A409B001344DB000B44D3E90034591C44F1AB
S214004A500002474C786903469B000344DB0023446E
S214004A60C3E9001242497A6913469B001344DB00EF
S214004A700B4414331B68A3F1F4013D487A691346CE
S214004A809B001344DB0003441433196050E038499C
S214004A907A6913469B001344DB000B4414331968F1
S214004AA033487A6913469B001344DB0003441033F3
S214004AB01B68C91A2E487A6913469B001344DB000C
S214004AC00344143319602A497A6913469B00134439
S214004AD0DB000B4414331B68F32B29D924497A696D
S214004AE013469B001344DB000B44D3E9003413F158
S214004AF0FF3144F1FF321E4C786903469B000344A5
S214004B00DB002344C3E9001219497A6913469B0067
S214004B101344DB000B4414331B68A3F1F401144860
S214004B207A6913469B001344DB0003441433196070
S214004B300F497A6913469B001344DB000B44183375
S214004B401B68002B09D00A497A6913469B00134458
S214004B50DB000B441D3301221A707B6901337B6135
S214004B607B69032B7FF7A5AE00BF1C37BD46F0BDA3
S214004B70406D032090B583B000AF00237B6022E039
S214004B8014497A6813469B001344DB000B441D331C
S214004B901B78002B14D00F497A6813469B001344E9
S214004BA0DB000B4418331C6878680A497A68134699
S214004BB09B001344DB000B4420331B681946A047B8
S214004BC07B6801337B607B68032BD9DD00BF0C3725
S214004BD0BD4690BD406D032090B58BB000AF7860A9
S214004BE04FF0FF334FF0FF34C7E9063400237B62F3
S214004BF027E031497A6A13469B001344DB000B44D6
S214004C001C331B78002B19D02B497A6A13469B005D
S214004C101344DB000B44D3E90012D7E90634A24262
S214004C2008BF99420AD224497A6A13469B00134465
S214004C30DB000B44D3E90034C7E906347B6A013352
S214004C407B627B6A032BD4DD1C4B00221A70D7E9EB
S214004C500634B4F1FF3F08BFB3F1FF3F27D0D7E9D2
S214004C600634C7E904346FF06403FB60FB6819463A
S214004C704FF00002D7E90434A24208BF994201D29D
S214004C800B461446C7E906340D4A7B6813600420B9
S214004C90FFF70AFBBA697B68134419460120FFF741
S214004CA0E1FA064B01221A700420FFF721FB00BF31
S214004CB02C37BD4690BD00BF406D0320E96D032034
S214004CC0E06D032080B485B000AF786039607B6803
S214004CD003F10473DA003B6813449B00FB60FB6837
S214004CE01B6818461437BD465DF8047B704780B5D0
S214004CF082B000AF03463960FB71FB79002B1CD0F5
S214004D00FB79012B19D0FB79022B16D0FB79032BEC
S214004D1013D0FB79042B10D0FB79052B0DD0FB7933
S214004D20062B0AD0FB79072B07D0FB79082B04D07B
S214004D30FB79092B01D0FB790A2BFA7913465B0025
S214004D4013441B011C3303F1804303F520433968E9
S214004D501846FFF7B7FF034618460837BD4680BD1E
S214004D60B0B58AB000AF78603960A04B07F1080490
S214004D701D460FCD0FC495E8030084E803007B684A
S214004D80002B01D19A4B5AE13B68002B01D1994B7D
S214004D9055E158220021786809F089F93B681B68BC
S214004DA0954A93420AD17B68944ADA647B68944AAF
S214004DB05A627B684FF440229A6231E03B681B6877
S214004DC0904A93420AD17B688F4ADA647B688F4A9E
S214004DD05A627B684FF450229A6221E03B681B6857
S214004DE08B4A93420AD17B688A4ADA647B688A4A8D
S214004DF05A627B684FF460229A6211E03B681B6837
S214004E00864A93420AD17B68854ADA647B68854A7B
S214004E105A627B684FF470229A6201E0754B0EE18D
S214004E207A683B6814461D460FCD0FC495E8070008
S214004E3084E807003B685B7D012B01D10123BB752D
S214004E403B689B7D002B02D100233B8319E03B6827
S214004E509B7D012B03D14FF400733B8311E03B682D
S214004E609B7D022B03D14FF480733B8309E03B68A4
S214004E709B7D032B03D14FF440733B8301E05D4BD6
S214004E80DDE03B681B7D012B05D100237B754FF4CD
S214004E907A733B6102E03B689B683B610121624894
S214004EA004F0B2FC0121614804F0AEFC7B68DB6CC8
S214004EB00121184604F0A8FC3B681B6807F10802AD
S214004EC01146184605F0F8FD3B681B7D002B0BD1FC
S214004ED03B68DB7D002B07D13B681B681A683B6884
S214004EE01B6842F480321A603B68DB7D002B1CD1C5
S214004EF03B681B680F225A673B681B689B6F03F072
S214004F00E0333A681279120213433A68527913432F
S214004F103A68927912061A433B68DB791B041946F5
S214004F203B681B680A439A6719E03B681B680B22BC
S214004F305A673B681B689B6F23F01F2323F01F03F1
S214004F403A681279120213433A6852791A433B6858
S214004F509B791B0619463B681B680A439A67012122
S214004F60786800F0BBF878627B6A002B01D07B6A19
S214004F7065E005F0DBF938622D4B1B7883F0010302
S214004F80DBB2002B08D02A4B01221A70386A05F0D3
S214004F90DDF9FFF717FA02E0386A05F0D7F93B6843
S214004FA01B7D012B09D17B6854331846FFF7C4F9E3
S214004FB00346002B01D01F4B41E0FEF777FD7B68D0
S214004FC01C3300211846FEF71FFD0346002B01D0B8
S214004FD0194B34E07B68203300211846FEF714FD99
S214004FE00346002B2AD0144B29E000BF48200100BE
S214004FF0012000F0022000F0000001400042040002
S21400500001000C00000401400052040001000D00E5
S214005010000801400062040001000E00000C014080
S2140050200072040001000F004041050000350A0030
S214005030EB6D0320042000F0092000F00023184642
S2140050402837BD46B0BD00BF80B588B002AFF86057
S214005050B9607A603B60FB681B7D002B01D11C4B5E
S21400506031E03A68B968F86803F0C0FB78617B699C
S214005070002B01D07B6926E07B68002B01D1154B05
S21400508021E07B6A002B08D0FB68586D7A6AFB68C3
S2140050900093114B0021FFF7F3F9FB681B7E012BF1
S2140050A008D1F86803F0DAFB78617B69002B01D041
S2140050B07B6908E03B6A00933B687A68B968F868E1
S2140050C003F036FB002318461837BD4680BD00BFE8
S2140050D0082000F0022000F08586000080B58AB027
S2140050E000AF78600B46FB707B68FB607B681B68D4
S2140050F0674A934240F07686FB681B79002B00F0E7
S214005100C980FB681B79012B00F0C080FB681B7907
S214005110022B00F0B980FB681B79032B00F0B280ED
S214005120FB681B79042B00F0AB80FB681B79052B12
S21400513000F0A480FB681B79062B00F09D80FB68BE
S2140051401B79072B00F09680FB681B79082B00F074
S2140051508F80FB681B79092B00F08880FB681B7921
S2140051600A2B00F08180FB681B790B2B7AD0FB683A
S2140051701B790C2B74D0FB681B790D2B6ED0FB684B
S2140051801B790E2B68D0FB681B790F2B62D0FB684F
S2140051901B79102B5CD0FB681B79112B56D0FB6853
S2140051A01B79122B50D0FB681B79132B4AD0FB6857
S2140051B01B79142B44D0FB681B79152B3ED0FB685B
S2140051C01B79162B38D0FB681B79172B32D0FB685F
S2140051D01B79182B2CD0FB681B79192B26D0FB6863
S2140051E01B791A2B20D0FB681B791B2B1AD0FB6867
S2140051F01B791C2B14D0FB681B791D2B0ED0FB686B
S2140052001B791E2B08D0FB681B791F2B01D10523A9
S21400521041E04FF0FF333EE005233CE005233AE053
S214005220052338E0052336E0052334E0052332E085
S214005230052330E003232EE003232CE003232AE09B
S214005240032328E0032326E0032324E0032322E0AD
S214005250022320E002231EE002231CE002231AE0C1
S214005260022318E0022316E0012314E0012312E0D3
S214005270012310E001230EE001230CE000230AE0E6
S214005280002308E0002306E0002304E0002302E0F9
S214005290000001400023BB61FB685B79002B00F037
S2140052A0C780FB685B79012B00F0C080FB685B79E8
S2140052B0022B00F0B980FB685B79032B00F0B2800C
S2140052C0FB685B79042B00F0AB80FB685B79052BF1
S2140052D000F0A480FB685B79062B00F09D80FB68DD
S2140052E05B79072B00F09680FB685B79082B00F053
S2140052F08F80FB685B79092B00F08880FB685B7900
S2140053000A2B00F08180FB685B790B2B7AD0FB6858
S2140053105B790C2B74D0FB685B790D2B6ED0FB6829
S2140053205B790E2B68D0FB685B790F2B62D0FB682D
S2140053305B79102B5CD0FB685B79112B56D0FB6831
S2140053405B79122B50D0FB685B79132B4AD0FB6835
S2140053505B79142B44D0FB685B79152B3ED0FB6839
S2140053605B79162B38D0FB685B79172B32D0FB683D
S2140053705B79182B2CD0FB685B79192B26D0FB6841
S2140053805B791A2B20D0FB685B791B2B1AD0FB6845
S2140053905B791C2B14D0FB685B791D2B0ED0FB6849
S2140053A05B791E2B08D0FB685B791F2B01D100238D
S2140053B03FE04FF0FF333CE005233AE0052338E0BA
S2140053C0052336E0052334E0052332E0052330E0EC
S2140053D005232EE005232CE003232AE0032328E000
S2140053E0032326E0032324E0032322E0032320E014
S2140053F003231EE002231CE002231AE0022318E027
S214005400022316E0022314E0022312E0012310E038
S21400541001230EE001230CE001230AE0012308E04B
S214005420002306E0002304E0002302E0002300E05F
S21400543000237B61FB689B79002B00F0C780FB682C
S2140054409B79012B00F0C080FB689B79022B00F053
S214005450B980FB689B79032B00F0B280FB689B79D0
S214005460042B00F0AB80FB689B79052B00F0A48032
S214005470FB689B79062B00F09D80FB689B79072BC9
S21400548000F09680FB689B79082B00F08F80FB6805
S2140054909B79092B00F08880FB689B790A2B00F02B
S2140054A08180FB689B790B2B7AD0FB689B790C2B51
S2140054B074D0FB689B790D2B6ED0FB689B790E2B06
S2140054C068D0FB689B790F2B62D0FB689B79102B0A
S2140054D05CD0FB689B79112B56D0FB689B79122B0E
S2140054E050D0FB689B79132B4AD0FB689B79142B12
S2140054F044D0FB689B79152B3ED0FB689B79162B16
S21400550038D0FB689B79172B32D0FB689B79182B19
S2140055102CD0FB689B79192B26D0FB689B791A2B1D
S21400552020D0FB689B791B2B1AD0FB689B791C2B21
S21400553014D0FB689B791D2B0ED0FB689B791E2B25
S21400554008D0FB689B791F2B01D100233FE04FF06A
S214005550FF333CE000233AE0052338E0052336E03D
S214005560052334E0052332E0052330E005232EE052
S21400557005232CE005232AE0032328E0032326E066
S214005580032324E0032322E0032320E003231EE07A
S21400559003231CE002231AE0022318E0022316E08D
S2140055A0022314E0022312E0022310E001230EE09F
S2140055B001230CE001230AE0012308E0012306E0B2
S2140055C0002304E0002302E0002300E000233B6108
S2140055D0FB68DB79002B00F0C780FB68DB79012BCA
S2140055E000F0C080FB68DB79022B00F0B980FB6816
S2140055F0DB79032B00F0B280FB68DB79042B00F02C
S214005600AB80FB68DB79052B00F0A480FB68DB79B8
S214005610062B00F09D80FB68DB79072B00F0968058
S214005620FB68DB79082B00F08F80FB68DB79092BA1
S21400563000F08880FB68DB790A2B00F08180FB682D
S214005640DB790B2B7AD0FB68DB790C2B74D0FB68EC
S214005650DB790D2B6ED0FB68DB790E2B68D0FB68F0
S214005660DB790F2B62D0FB68DB79102B5CD0FB68F4
S214005670DB79112B56D0FB68DB79122B50D0FB68F8
S214005680DB79132B4AD0FB68DB79142B44D0FB68FC
S214005690DB79152B3ED0FB68DB79162B38D0FB6800
S2140056A0DB79172B32D0FB68DB79182B2CD0FB6804
S2140056B0DB79192B26D0FB68DB791A2B20D0FB6808
S2140056C0DB791B2B1AD0FB68DB791C2B14D0FB680C
S2140056D0DB791D2B0ED0FB68DB791E2B08D0FB6810
S2140056E0DB791F2B01D100233FE04FF0FF333CE076
S2140056F000233AE0002338E0052336E0052334E0B3
S214005700052332E0052330E005232EE005232CE0B8
S21400571005232AE0052328E0032326E0032324E0CC
S214005720032322E0032320E003231EE003231CE0E0
S21400573003231AE0022318E0022316E0022314E0F3
S214005740022312E0022310E002230EE001230CE005
S21400575001230AE0012308E0012306E0012304E018
S214005760002302E0002300E000237A68D363FB688E
S2140057701B79002B00F0C780FB681B79012B00F01B
S214005780C080FB681B79022B00F0B980FB681B7990
S214005790032B00F0B280FB681B79042B00F0AB8073
S2140057A0FB681B79052B00F0A480FB681B79062B91
S2140057B000F09D80FB681B79072B00F09680FB6845
S2140057C01B79082B00F08F80FB681B79092B00F0F3
S2140057D08880FB681B790A2B00F08180FB681B79A8
S2140057E00B2B7AD0FB681B790C2B74D0FB681B79CB
S2140057F00D2B6ED0FB681B790E2B68D0FB681B79CF
S2140058000F2B62D0FB681B79102B5CD0FB681B79D2
S214005810112B56D0FB681B79122B50D0FB681B79D6
S214005820132B4AD0FB681B79142B44D0FB681B79DA
S214005830152B3ED0FB681B79162B38D0FB681B79DE
S214005840172B32D0FB681B79182B2CD0FB681B79E2
S214005850192B26D0FB681B791A2B20D0FB681B79E6
S2140058601B2B1AD0FB681B791C2B14D0FB681B79EA
S2140058701D2B0ED0FB681B791E2B08D0FB681B79EE
S2140058801F2B01D107233FE04FF0FF333CE00623F8
S2140058903AE0052338E0042336E0032334E002230D
S2140058A032E0012330E000232EE00F232CE00E230D
S2140058B02AE00D2328E00C2326E00B2324E00A230D
S2140058C022E0092320E00B231EE00A231CE0092324
