:1000000000000420F98400002585000025850000FB
:100010002585000025850000258500002585000038
:100020002585000025850000258500002585000028
:100030002585000025850000258500002585000018
:100040002982000025850000258500002585000007
:1000500025850000258500002585000025850000F8
:100060002585000095360000453A0000C184000057
:100070002585000025850000258500004903000036
:1000800025850000258500006D3A000089300000BC
:1000900025850000258500002585000025850000B8
:1000A00025850000258500002585000025850000A8
:1000B0002585000025850000F14000002585000011
:1000C0002585000025850000258500002585000088
:1000D0002585000025850000258500002585000078
:1000E0002585000025850000258500002585000068
:1000F0002585000025850000258500002585000058
:1001000025850000258500002585000010B5054CDB
:10011000237833B9044B13B10448AFF300800123B3
:10012000237010BD2802002000000000B818010054
:1001300008B5034B1BB103490348AFF3008008BD6A
:10014000000000002C020020B8180100154B002B05
:1001500008BF134B9D46A3F5803A00218B460F46FE
:100160001348144A121A0DF056FA0F4B002B00D008
:1001700098470E4B002B00D0984700200021040028
:100180000D000D48002802D00C48AFF300800DF0A0
:1001900013FA2000290003F015F80DF0F9F900BF5B
:1001A0000000080000000420000000000000000023
:1001B00028020020748E03200000000000000000D0
:1001C00080B483B000AF0346FB7197F9073003F0AA
:1001D0001F02074997F907305B09012000FA02F274
:1001E00041F8232000BF0C37BD465DF8047B704703
:1001F00000E100E080B483B000AF78607B68DB6C26
:1002000018460C37BD465DF8047B704780B483B058
:1002100000AF786039607B683A681A6400BF0C37B9
:10022000BD465DF8047B704780B483B000AF786052
:1002300039607B685A6C3B681A437B685A6400BF1C
:100240000C37BD465DF8047B704780B483B000AFC7
:1002500078600B46FB70FA787B689A6000BF0C37B9
:10026000BD465DF8047B704780B588B000AF0121C2
:10027000314808F041FF00233B7600237B761F23A3
:10028000BB760023FB7600233B7700237B773B463E
:1002900000221A605A609A60DA601A615A614FF05F
:1002A000FF337B6043F6E413FB60002008F082FC20
:1002B0000346BB760021214808F044FC0346FB7648
:1002C00007F1180319461E4808F008FB0223BB700B
:1002D00005237B700123FB743B46682200211846EE
:1002E00008F05EFB3B4669220021184608F058FBE7
:1002F0003B466A220021184608F052FB3B466B221F
:100300000021184608F04CFB0E4B00221A703B46A9
:1003100019460B4808F090FB02210948FFF784FFBB
:100320000F20FFF74DFF04210548FFF78EFF00BFA8
:100330002037BD4680BD00BF00D20400A08601006A
:10034000002000404402002098B500AF022113486D
:10035000FFF75CFF124B1B781C461048FFF74AFF63
:100360000246104B43F824200D4B1B781A460E4BC7
:10037000012199540A4B1B78022B06D8084B1B7895
:100380000133DAB2064B1A7005E0054B00221A70F1
:10039000064B01221A7000BF98BD00BF002000402C
:1003A000440200204C020020480200206D0400207E
:1003B00080B485B000AF78600023FB737B680022B7
:1003C0001A707B6800225A707B6803F5583303F576
:1003D000647300221A707B6803F5583303F291337B
:1003E00000221A707B6803F5583303F2923300221F
:1003F0001A707B6803F50053213300221A707B6862
:1004000003F50053203300221A707B6803F58053F4
:10041000193300221A707B6803F5805318330022C9
:100420001A700023FB73FB7B0F2B0DD8FB7B7A68C4
:10043000DB02134403F5383303F5647300221A70AA
:10044000FB7B0133FB73EEE700BF1437BD465DF85D
:10045000047B704780B582B000AF7860786802F0A6
:1004600055FD0346002B14BF01230023DBB2002BF4
:1004700002D0786800F03CF97B681B78032B00F20F
:100480002A8101A252F823F099040000CF04000051
:100490007D0500002B0600007B6803F5583303F24E
:1004A00092331B78002B0ED07B6803F5005320336A
:1004B0001B78002B07D17B685B7C002B03D17B680A
:1004C00003221A7010E17B6800221A700CE17B682D
:1004D00003F5005320331B78002B14D00AF0A4FA44
:1004E0000346002BCCBF01230023DBB2002B00F01E
:1004F000F6807B6803F50053203300221A707B6876
:1005000000221A70EBE00AF08FFA0346DB0FDBB231
:10051000002B03D07B6801221A70E0E07B6803F5B2
:1005200080531A3301221A70786800F01BF97B6837
:1005300003F580521A327B6803F500531C331B68A5
:100540009BB2194610460AF00FFA0346002BCCBFA7
:1005500001230023DBB2002B06D07B6803F5005398
:10056000203301221A7005E07B6803F50053203325
:1005700000221A707B6801221A70B0E07B6803F5D4
:10058000005320331B78002B14D00AF04DFA034699
:10059000002BCCBF01230023DBB2002B00F0A18095
:1005A0007B6803F50053203300221A707B68002219
:1005B0001A7096E00AF038FA0346DB0FDBB2002B24
:1005C00003D07B6802221A708BE07B6803F58053AE
:1005D0001A3300221A70786800F0BAF97B6803F5C4
:1005E00080521A327B6803F500531C331B689BB2A0
:1005F000194610460AF0B8F90346002BCCBF012378
:100600000023DBB2002B06D07B6803F500532033B8
:1006100001221A7005E07B6803F5005320330022A5
:100620001A707B6802221A705BE07B6803F5005346
:1006300020331B78002B13D00AF0F6F90346002B69
:10064000CCBF01230023DBB2002B4CD07B6803F529
:100650000053203300221A707B6800221A7042E097
:100660000AF0E2F90346DB0FDBB2002B03D07B6814
:1006700003221A7037E07B6803F580531A33022295
:100680001A70786800F004F97B6803F580521A321A
:100690007B6803F500531C331B689BB21946104658
:1006A0000AF062F90346002BCCBF01230023DBB222
:1006B000002B06D07B6803F50053203301221A700B
:1006C00005E07B6803F50053203300221A707B6835
:1006D00003221A7007E07B6800221A7004E000BF52
:1006E00002E000BF00E000BF00BF0837BD4680BD8C
:1006F00080B582B000AF78607B6800221A707B689A
:100700009B7C0A2B24D801A252F823F03907000061
:100710004107000059070000590700004907000081
:100720005107000059070000590700005907000051
:1007300059070000590700007B6802221A700CE07C
:100740007B6801221A7008E0786800F0ABFC04E0D6
:100750007B6800221A7000E000BF00BF0837BD466A
:1007600080BD00BF2DE9F04397B00EAFF861FB6983
:1007700003F580501B30FB6903F5005324331B68DD
:1007800093F8C6309C46FB6903F5005324331B687D
:1007900093F8C7309E46FB6903F5005324331B686A
:1007A00093F80631BB61FB6903F5005324331B68E2
:1007B00093F807317B61FB6903F5005324331B6811
:1007C00093F846313B61FB6903F5005324331B6802
:1007D00093F84731FB60FB6903F5005324331B6832
:1007E00093F88631BB60FB6903F5005324331B6823
:1007F00093F887317B60FB6903F5005324331B6852
:10080000D3E93456FB6903F5005324331B6803F521
:100810008873D3E90089FB6903F5005328331B680B
:10082000D3E90412FB6903F5005328331B68D3E9AD
:100830000A34CDE90C34CDE90A12CDE90889CDE9B5
:1008400006567A680592BA680492FA6803923A6981
:1008500002927A690192BB690093734662460B4922
:100860000DF066FDFB6903F580531A3318460DF051
:1008700091FD03461A46FB6903F500531C331A60C9
:1008800000BF2437BD46BDE8F08300BF041401005B
:1008900080B582B000AF78607B6803F580521B3270
:1008A0007B6803F5583303F564731B78DB0203F5AB
:1008B000383303F5647379680B44194610460DF01C
:1008C00061FD7B6803F5583303F564731B787A6820
:1008D000DB02134403F5383303F5647300221A7006
:1008E0007B6803F5583303F564731B780E2B08D827
:1008F0007B6803F5583303F564731B780133DAB270
:1009000000E000227B6803F5583303F564731A7026
:100910007B6803F5583303F292331B78013BDAB25C
:100920007B6803F5583303F292331A707B6803F542
:1009300080531A3318460DF02DFD03461A467B6886
:1009400003F500531C331A6000BF0837BD4680BD55
:1009500080B584B002AF78607B6803F580501B30AF
:100960000023019301230093022300220A490DF082
:10097000DFFC7B6803F580531B3318460DF00AFD3E
:10098000034601331A467B6803F500531C331A6093
:1009900000BF0837BD4680BD3C1401000EB480B5D1
:1009A000ADF6140D00AF3B1D186007F50263C7F8E4
:1009B0000C3807F10C00D7F80C38D7F81C284FF486
:1009C00000610EF0CBFB3B1D1B6803F5583303F2AF
:1009D00091331B783A1DDB0203F5383303F564735A
:1009E0001268134407F10C02114618460DF0CAFCB8
:1009F0003B1D1B6803F5583303F291331B780E2B14
:100A000009D83B1D1B6803F5583303F291331B785B
:100A10000133DAB200E000223B1D1B6803F55833B6
:100A200003F291331A703B1D1B6803F5583303F230
:100A300092331B780133DAB23B1D1B6803F5583340
:100A400003F292331A7000BF07F61407BD46BDE8E3
:100A5000804003B0704780B500AF002304220A2114
:100A6000032009F025FE012302220921032009F0B9
:100A70001FFE002302220A21022009F019FE002392
:100A800002220B21032009F013FE00230222092178
:100A9000002009F00DFE002302220821002009F0A9
:100AA00007FE002302220721002009F001FE002397
:100AB00002220621002009F0FBFD002302220B2167
:100AC000022009F0F5FD002302220921022009F08D
:100AD000EFFD0023042202210A2009F0E9FD002392
:100AE00004220721052009F0E3FD00230022002154
:100AF000002009F0DDFD002300220121002009F083
:100B0000D7FD002300220221002009F0D1FD00239F
:100B100000220321002009F0CBFD002304220A213A
:100B2000012009F0C5FD002304220B21012009F05A
:100B3000BFFD002304220C21012009F0B9FD002390
:100B400004220D21012009F0B3FD012304220E210E
:100B5000092009F0ADFD002304220C21052009F035
:100B6000A7FD002304220421052009F0A1FD002394
:100B700004220C21032009F09BFD002304220D21F7
:100B8000032009F095FD012304220F21092009F01B
:100B90008FFD002304220D21052009F089FD00238B
:100BA00004220521052009F083FD002304220421ED
:100BB000002009F07DFD002304220521002009F01A
:100BC00077FD012304220F21052009F071FD002388
:100BD00004220E21052009F06BFD002304220621CA
:100BE000052009F065FD0023042200210A2009F0F8
:100BF0005FFD0023042201210A2009F059FD012391
:100C000004220321082009F053FD002304220B21B4
:100C1000052009F04DFD002304220321052009F0E1
:100C200047FD002304220E21032009F041FD00238B
:100C300004220F21032009F03BFD0123042202219D
:100C4000082009F035FD002304220A21052009F0BF
:100C50002FFD002304220221052009F029FD002395
:100C600004220821022009F023FD00230422092187
:100C7000012009F01DFD012304220121082009F0B3
:100C800017FD002304220921052009F011FD00238E
:100C900004220121052009F00BFD00230422062176
:100CA000022009F005FD002304220721022009F09B
:100CB000FFFC012304220021082009F0F9FC002395
:100CC00004220821052009F0F3FC0023042200215E
:100CD000052009F0EDFC002304220421022009F084
:100CE000E7FC002304220521022009F0E1FC00BFFB
:100CF00080BD0000000000002DE9B043A2B000AFAD
:100D00007860002387F88730C14B1B78002B00F0F8
:100D10005281BF4B00221A70002387F8873097F862
:100D20008730032B32D897F88730BA4A52F82340DD
:100D300097F8873097F88720B74931F81220104686
:100D4000A1B2B64A9B01034422F8131097F88730EA
:100D5000B14A32F813303E2B0CD897F88730AE4AA0
:100D600032F8132097F88730013291B2AA4A22F85C
:100D7000131005E097F88730A74A002122F81310D6
:100D800097F88730013387F88730C8E7A44B1B6892
:100D9000C72B05D8A24B1B680133A14A13600AE197
:100DA0009F4B00221A60002387F8873097F887301E
:100DB000032B00F2F38097F887309B0007F188023D
:100DC0001344002243F8202C0023A7F88430B7F8FE
:100DD00084303F2B20D897F887309B0007F188029A
:100DE000134453F8202C97F88710B7F884308B48B9
:100DF00089010B4430F81330194697F887300A44BC
:100E00009B0007F188010B4443F8202CB7F884308D
:100E10000133A7F88430DAE797F887309B0007F1B1
:100E20008802134453F8202C97F8873092099B00CE
:100E300007F188010B4443F8202C97F88730794A52
:100E40000021D15497F88730724A52F8233018465F
:100E50000AF026FD5EA3D3E900230AF09BFD0346BA
:100E60000C461846214697F887505BA3D3E9002328
:100E70000AF0BAFE03460C46EA0007F188010A446C
:100E8000603AC2E9003497F88730DB0007F1880246
:100E90001344603BD3E900341A46234650A1D1E9FC
:100EA00000010AF0A1FE03460C461846214697F8B9
:100EB00087504DA3D3E900230AF0B4FB03460C4648
:100EC000EA0007F188010A44803AC2E9003497F841
:100ED0008730DB0007F188021344803BD3E900012F
:100EE0004FF000024FF000030AF0E4FF0346002B2E
:100EF0004ED097F88730DB0007F188021344803B1F
:100F0000D3E900341A46234637A1D1E900010AF09B
:100F10006BFE03460C46184621460CF0DBF8C7E989
:100F20001E0133A3D3E90023D7E91E010AF032FDE5
:100F300003460C46184621462FA3D3E900230AF0A6
:100F400073FB03460C469846A1462DA3D3E9002324
:100F5000D7E91E010AF01EFD03460C461A46234639
:100F600029A1D1E900010AF05DFB03460C4697F880
:100F700087501A462346404649460AF035FE034646
:100F80000C46EA0007F188010A44403AC2E90034FD
:100F900097F88730013387F8873007E7224B1B68C3
:100FA000312B05D8204B1B6801331F4A136002E028
:100FB0001D4B00221A607B6803F5005328331B6821
:100FC0001B78002B00BF8837BD46BDE8B08300BF4B
:100FD0006666666666660A400000000000FEAF4076
:100FE000000000004024144100000000006AF840A6
:100FF000285C8FC2FAE1F34000000000E01BF840DB
:101000006666666666A272400000000000DCAE40C4
:101010006D0400204C0200205C0400205C020020D3
:1010200068040020480200206404002080B584B0D9
:1010300000AF78600023FB60786800F043F97B68BC
:1010400003F5373303F5547318460AF029FA7B6821
:1010500003F5383303F5087318460AF021FA7B6864
:1010600003F53833B83318460AF01AFA0023FB6048
:10107000FB68B3F5F97F10D8FB684FF4B47202FB3C
:1010800003F303F5005330337A68134418460AF02B
:1010900007FAFB680133FB60EAE700BF1037BD4683
:1010A00080BD000080B582B000AF7860786800F045
:1010B00059F97B6803F5383303F508731B78002B67
:1010C00000F0F4807B6803F5383303F221231B78AA
:1010D000002B2FD07B6803F5383303F222231B78D3
:1010E000162B11D173497868FFF758FC7B6803F51C
:1010F0003833BA3316221A707B6803F5373303F29C
:10110000523316221A70CAE07B6803F53833B833BD
:101110001B78002B40F0C3807B6803F5383303F560
:1011200008737A6802F53832B8321146184600F072
:1011300037FDB4E07B6800225A747B685B78002B33
:101140005AD05D497868FFF729FC7B6803F538328F
:1011500002F508727B6803F5383303F563731B8867
:1011600019464FF4B47303FB01F303F50053303316
:1011700079680B441946104600F012FD7B6803F5B0
:10118000383303F563731B88B3F5F97F08D87B68A0
:1011900003F5383303F563731B8801339AB200E01B
:1011A00000227B6803F5383303F563731A807B688C
:1011B00003F5383303F28E331B8801339AB27B6810
:1011C00003F5383303F28E331A807B6803F5383326
:1011D00003F5087300221A707B6803F5383303F2B5
:1011E00022231B78052B5AD17B6801229A70334940
:1011F0007868FFF7D3FB52E07B6803F5383303F2DE
:1012000022231B78022B4AD12D497868FFF7C6FBB1
:101210007B6803F5383202F508727B6803F53833D2
:1012200003F563731B8819464FF4B47303FB01F392
:1012300003F50053303379680B441946104600F02B
:10124000AFFC7B6803F5383303F563731B88B3F594
:10125000F97F08D87B6803F5383303F563731B887F
:1012600001339AB200E000227B6803F5383303F5BE
:1012700063731A807B6803F5383303F28E331B885F
:1012800001339AB27B6803F5383303F28E331A8048
:101290007B6803F5383303F5087300221A707B6806
:1012A00003F5383303F5087300221A7000BF0837BE
:1012B000BD4680BD68140100781401009814010037
:1012C000B014010090B583B000AF7860244978680D
:1012D000FFF764FB7B6800225A707B6800229A70DB
:1012E0007A684FF000034FF00004C2E902347B68D3
:1012F00003F5383303F28E3300221A807B6803F53E
:10130000383303F5637300221A807B6803F53833A2
:1013100003F28A3300221A807B6803F5383303F224
:101320008A331B8819467A684FF4B47303FB01F3C0
:10133000134403F50053303300221A707B6803F521
:10134000373303F5547300221A707B6800225A74F5
:101350007B6800221A7400BF0C37BD4690BD00BFE9
:10136000C814010080B582B000AF78607B6803F5D7
:10137000383303F508737A6813321146184609F0BA
:101380000AFF00BF0837BD4680BD80B582B000AF00
:1013900078607B6803F53833B8331B78002B14D0A2
:1013A0007B6803F53833B8337A6802F5373202F5D3
:1013B00054721146184600F0F3FB7B6803F538338E
:1013C000B83318460AF06CF859E07B6803F53833F7
:1013D00003F28E331B88002B51D07B6803F5383322
:1013E00003F28A331B881A464FF4B47303FB02F3EB
:1013F00003F5005330337A681A447B6803F53733BA
:1014000003F554731946104600F0CAFB7B6803F5D8
:10141000383303F28A331B8819467A684FF4B47361
:1014200003FB01F3134403F50053303300221A7019
:101430007B6803F5383303F28A331B88B3F5F97FF1
:1014400008D87B6803F5383303F28A331B880133ED
:101450009AB200E000227B6803F5383303F28A3346
:101460001A807B6803F5383303F28E331B88013B07
:101470009AB27B6803F5383303F28E331A8000BFCB
:101480000837BD4680BD000080B582B000AF7860EF
:101490007B685B78002B7ED07B689B78002B7AD1B1
:1014A0007B681B7C002B66D07B6803F5383303F226
:1014B0008E331B88B3F5F97F03D37B6800221A743F
:1014C0006DE07B685B7C002B69D17B681B78002B0F
:1014D00065D17B6803F5005320331B78002B13D0B4
:1014E00009F0A2FA0346002BCCBF01230023DBB294
:1014F000002B54D07B6803F50053203300221A7070
:101500007B6801225A744AE009F08EFA0346DB0F29
:10151000DBB2002B43D17B6803F580531A330422DE
:101520001A707B6803F500531C3301221A607B6834
:1015300003F580521A327B6803F500531C331B6895
:101540009BB21946104609F00FFA0346002BCCBF98
:1015500001230023DBB2002B06D07B6803F5005388
:10156000203301221A701AE07B6803F50053203300
:1015700000221A7013E07B6803F5383303F28E33D0
:101580001B88F92B0BD87B6801221A7406497868EE
:10159000FFF704FA03E07B6800221A7400E000BF42
:1015A00000BF0837BD4680BDE814010080B582B099
:1015B00000AF78607B6803F5373303F55473194641
:1015C000786800F0C5FB786801F0DEF97868FFF70D
:1015D00093FB00BF0837BD4680BD80B582B000AF29
:1015E00078607868FFF750FF786800F0A0F97868B5
:1015F00000F011F87868FFF7D9FF00BF0837BD4643
:1016000080BD80B483B000AF786000BF0C37BD46AA
:101610005DF8047B704780B582B000AF78607B686E
:1016200003F5373303F554731B78002B00F0B280B9
:101630007B6803F5373303F555731B78002B40F0B7
:10164000B0807B6803F5373202F556727B6803F58C
:10165000005324331B681946104600F0A6F87B6837
:1016600003F5373202F55E727B6803F500532433CD
:101670001B6840331946104600F097F87B6803F565
:10168000373202F566727B6803F5005324331B681A
:1016900080331946104600F088F87B6803F537322E
:1016A00002F56E727B6803F5005324331B68C03368
:1016B0001946104600F079F87B6803F5373202F5D9
:1016C00076727B6803F5005324331B6803F580733F
:1016D0001946104600F069F87B6803F5373202F5C9
:1016E0007E727B6803F5005324331B6803F5A073F7
:1016F0001946104600F059F87B6803F53832183265
:101700007B6803F5005324331B6803F5C073194647
:10171000104600F04AF87B6803F5383238327B68AF
:1017200003F5005328331B681946104600F069F88A
:101730007B6803F5383258327B6803F50053283351
:101740001B6818331946104600F05BF87B6803F5F8
:10175000383278327B6803F5005328331B68303306
:101760001946104600F04DF87B6803F53832983280
:101770007B6803F5005328331B684833194610462D
:1017800000F03FF87B6803F5373303F5557301220A
:101790001A7006E07B6803F5373303F555730022B2
:1017A0001A7000BF0837BD4680BD80B582B000AF5B
:1017B000786039607B681B78002B1ED07B681A69C3
:1017C0003B689A617B685A693B68DA613B689B6950
:1017D000002B04DD0121386801F08BF80DE03B6837
:1017E0009B69002B05DA4FF0FF31386801F081F872
:1017F00003E00021386801F07CF800BF0837BD46DF
:1018000080BD90B482B000AF786039607B681B788F
:10181000002B14D03B6801229A717B68D3E9043411
:101820003A68C2E902347B68DA793B689A707B686F
:101830005A7A3B68DA707B681A7A3B681A7100BF83
:101840000837BD4690BC704780B483B000AF786065
:1018500039607B681B78002B0AD03B689B69002BA2
:1018600006D17B685B78002B02D17B6800221A705E
:1018700000BF0C37BD465DF8047B704790B583B060
:1018800000AF786039607B681B78002B1BD07B68C9
:10189000DB79002B14D03B68D3E904013B68D3E922
:1018A00002341A4623460AF0DDFA0346002B00D123
:1018B00009E07B6801229A727B6800221A7002E0BC
:1018C0007B6800221A7000BF0C37BD4690BD80B403
:1018D00083B000AF786039607B681B78002B05D03F
:1018E0007B6800225A703B6800229A6100BF0C3767
:1018F000BD465DF8047B704790B482B000AF78605D
:1019000039607B681B78002B0CD07B6800225A70F2
:101910003A684FF000034FF00004C2E902343B681C
:1019200000229A7000BF0837BD4690BC704780B552
:1019300084B000AF78607B6803F5373303F55473E8
:101940001B78002B00F01D817B6803F5373202F510
:101950006E727B6803F5005324331B68C03319464D
:101960001046FFF771FF7B6803F5373202F5767298
:101970007B6803F5005324331B6803F58073194615
:101980001046FFF761FF7B6803F5373202F57E7280
:101990007B6803F5005324331B6803F5A0731946D5
:1019A0001046FFF751FF7B6803F5383218327B6829
:1019B00003F5005324331B6803F5C0731946104622
:1019C000FFF742FF7B6803F5373202F55E727B68F2
:1019D00003F5005324331B68403319461046FFF7C4
:1019E00033FF7B6803F5373202F566727B6803F5D7
:1019F000005324331B68803319461046FFF724FF39
:101A00007B6803F5373202F556727B6803F50053A5
:101A100024331B6819461046FFF716FF7B6803F551
:101A2000383238327B6803F5005328331B68194677
:101A30001046FFF723FF7B6803F5383258327B6886
:101A400003F5005328331B68183319461046FFF777
:101A500015FF7B6803F5383278327B6803F5005355
:101A600028331B68303319461046FFF707FF7B68A1
:101A700003F5383298327B6803F5005328331B682E
:101A8000483319461046FFF7F9FE0023FB737B68C5
:101A900003F5373303F252331B78002B14BF0123B5
:101AA0000023DBB25AB297F90F3013435BB2FB73DA
:101AB0007B6803F5373303F556731A78FB7B1343C2
:101AC000FB737B6803F5373303F55E731A78FB7B92
:101AD0001343FB737B6803F5373303F566731A789A
:101AE000FB7B1343FB737B6803F5373303F56E739E
:101AF0001A78FB7B1343FB737B6803F5373303F5DD
:101B000076731A78FB7B1343FB737B6803F53733DB
:101B100003F57E731A78FB7B1343FB737B6803F535
:101B2000383318331A78FB7B1343FB737B6803F558
:101B3000383338331A78FB7B1343FB737B6803F528
:101B4000383358331A78FB7B1343FB737B6803F5F8
:101B5000383378331A78FB7B1343FB737B6803F5C8
:101B6000383398331A78FB7B1343FB73FB7B002BD2
:101B700007D17B6803F5373303F55473184609F032
:101B80008FFC7B6803F5373303F554731B78002B08
:101B900002D17868FFF7F9FB00BF1037BD4680BD62
:101BA00080B582B000AF786039607B681A783B6896
:101BB0001A703B6800221A717B689A783B689A70A9
:101BC0007B6803F108023B6808331946104600F0B1
:101BD00061F87B6803F128023B68283319461046F8
:101BE00000F058F87B6803F148023B684833194617
:101BF000104600F04FF87B6803F168023B686833D9
:101C00001946104600F046F87B6803F188023B68ED
:101C100088331946104600F03DF87B6803F1A802AE
:101C20003B68A8331946104600F034F87B6803F18E
:101C3000C8023B68C8331946104600F02BF87B6891
:101C400003F1E8023B68E8331946104600F051F80A
:101C50007B6803F584723B6803F58473194610466C
:101C600000F047F87B6803F594723B6803F59473C2
:101C70001946104600F03DF87B6803F5A4723B68F6
:101C800003F5A4731946104600F033F800BF083777
:101C9000BD4680BD80B483B000AF786039607B689A
:101CA0005A693B685A617B681A693B681A617B68AC
:101CB0005A7E3B685A767B681A7E3B681A767B6848
:101CC0001A783B681A707B689A7E3B689A767B68C4
:101CD000DA7E3B68DA767B68DA783B68DA707B68B4
:101CE0009A783B689A7000BF0C37BD465DF8047B5C
:101CF000704790B482B000AF786039607B681A7822
:101D00003B681A707B68D3E906343A68C2E9063446
:101D10007B681A793B681A717B685A7A3B685A72F9
:101D20007B681A7A3B681A727B685A793B685A71E9
:101D30007B68D3E904343A68C2E904347B689A7A50
:101D40003B689A7200BF0837BD4690BC70470000E0
:101D500080B582B000AF786039603B6803F108015C
:101D60007B6803F5005324331B681A46786800F03B
:101D700063FA3B6803F128017B6803F500532433C1
:101D80001B6840331A46786800F056FA3B6803F146
:101D900048017B6803F5005324331B6880331A46DF
:101DA000786800F049FA3B6803F168017B6803F545
:101DB000005324331B68C0331A46786800F03CFA9D
:101DC0003B6803F188017B6803F5005324331B68EB
:101DD00003F580731A46786800F02EFA3B6803F129
:101DE000A8017B6803F5005324331B6803F5A07337
:101DF0001A46786800F020FA3B6803F1C8017B6856
:101E000003F5005324331B6803F5C0731A46786842
:101E100000F012FA3B6803F1E8017B6803F5005318
:101E200028331B681A46786800F092FA3B6803F57D
:101E300084717B6803F5005328331B6818331A46F6
:101E4000786800F085FA3B6803F594717B6803F5C8
:101E5000005328331B6830331A46786800F078FA4C
:101E60003B6803F5A4717B6803F5005328331B68B6
:101E700048331A46786800F06BFA3B681B78002BF1
:101E800000F0D5813B689B78162B00F2CA8101A235
:101E900052F823F02D22000023220000F11E000042
:101EA0002322000023220000051F0000232200003F
:101EB000232200002322000023220000232200000E
:101EC000232200008720000055210000232200006B
:101ED00023220000232200002322000023220000EE
:101EE0002322000023220000232200001F1F0000E5
:101EF0007B6800229A707B6801225A703B6800223E
:101F00009A7094E17B6800229A707B6800225A7074
:101F10003B6800229A707868FFF7D4F987E17B6804
:101F200003F5373202F56E727B6803F500532433F4
:101F30001B68C03319461046FFF7C9FC7B6803F5E0
:101F4000373202F576727B6803F5005324331B6841
:101F500003F5807319461046FFF7B9FC7B6803F55B
:101F6000373202F57E727B6803F5005324331B6819
:101F700003F5A07319461046FFF7A9FC7B6803F52B
:101F8000383218327B6803F5005324331B6803F59D
:101F9000C07319461046FFF79AFC7B6803F5373289
:101FA00002F55E727B6803F5005324331B684033EF
:101FB00019461046FFF78BFC7B6803F5373202F5B4
:101FC00066727B6803F5005324331B68803319461F
:101FD0001046FFF77CFC7B6803F5373202F556723A
:101FE0007B6803F5005324331B6819461046FFF73E
:101FF0006EFC7B6803F5383238327B6803F500539A
:1020000028331B6819461046FFF776FC7B6803F5FA
:10201000383258327B6803F5005328331B68183375
:1020200019461046FFF768FC7B6803F538327832B2
:102030007B6803F5005328331B683033194610467C
:10204000FFF75AFC7B6803F5383298327B6803F55A
:10205000005328331B68483319461046FFF74CFCE1
:102060007B6803F53833B833184609F019FA7B68F2
:1020700003F5373303F55473184609F011FA3B683A
:1020800000229A70D3E03B6893F86A30002B08D0A6
:102090007B6803F5005324331B68C033184600F0F7
:1020A000FEFB3B6893F88A30002B09D07B6803F570
:1020B000005324331B6803F58073184600F0EFFBD0
:1020C0003B6893F8AA30002B09D07B6803F50053D6
:1020D00024331B6803F5A073184600F0E0FB3B684F
:1020E00093F8CA30002B09D07B6803F500532433E2
:1020F0001B6803F5C073184600F0D1FB3B6893F8EA
:102100002A30002B08D07B6803F5005324331B686A
:102110004033184600F0C3FB3B6893F84A30002B6D
:1021200008D07B6803F5005324331B6880331846BE
:1021300000F0B5FB3B689B7A002B07D07B6803F56A
:10214000005324331B68184600F0A9FB3B680022AB
:102150009A706CE03B6893F86B30002B08D07B687A
:1021600003F5005324331B68C033184600F0ACFB62
:102170003B6893F88B30002B09D07B6803F5005344
:1021800024331B6803F58073184600F09DFB3B6801
:1021900093F8AB30002B09D07B6803F50053243350
:1021A0001B6803F5A073184600F08EFB3B6893F89C
:1021B000CB30002B09D07B6803F5005324331B6818
:1021C00003F5C073184600F07FFB3B6893F82B3093
:1021D000002B08D07B6803F5005324331B68403381
:1021E000184600F071FB3B6893F84B30002B08D089
:1021F0007B6803F5005324331B688033184600F0D6
:1022000063FB3B68DB7A002B07D07B6803F5005348
:1022100024331B68184600F057FB3B6800229A7075
:1022200005E03B6800229A7000BF00E000BF00BFDD
:102230000837BD4680BD00BF90B585B000AFF860DF
:10224000B9607A60BB681B78002B79D0BB685B787B
:102250000D2B6BD801A252F823F000BF37230000EA
:102260002D2300002D2300002D2300002D2300002E
:102270002D2300002D2300002D2300002D2300001E
:102280002D23000095220000C7220000E522000057
:10229000092300007B689B78002B4ED07B689B79DC
:1022A000012B4AD17B6801225A707A684FF00003F3
:1022B0004FF00004C2E904347B6800229A70BB68C6
:1022C00000225A7039E07B68DB78002B37D07B68BE
:1022D000DB79012B33D17B680022DA70BB680022E6
:1022E0005A702CE07B6824331A461749F868FEF7C9
:1022F00055FBBB689B78002B02D0786800F0CFFAC2
:10230000BB6800225A701BE07B6824331A460F49D1
:10231000F868FEF743FBBB68DB78002B02D07868D7
:1023200000F0D2FABB6800225A7009E0BB680022B4
:102330005A7000BF04E000BF02E000BF00E000BF31
:1023400000BF1437BD4690BD0415010018150100EB
:1023500080B485B000AFF860B9607A60BB681B7864
:10236000002B09D0BB685B78002B04D0BB6800222F
:102370005A7000BF00E000BF00BF1437BD465DF8D3
:10238000047B704780B485B000AF786039607B68AB
:1023900003F10473DA003B6813449B00FB60FB68A5
:1023A0001B6818461437BD465DF8047B704780B43F
:1023B00085B000AF786039607B6803F1C063FB6073
:1023C000FB683A681A6000BF1437BD465DF8047BAD
:1023D000704780B485B000AF786039607B6803F1E6
:1023E0008063FB60FB683A681A6000BF1437BD4623
:1023F0005DF8047B704780B582B000AF034639605A
:10240000FB71FB791A4613465B0013441B011C3316
:1024100003F1804303F520433A6811461846FFF75D
:10242000B1FF034618460837BD4680BD80B582B06F
:1024300000AF03463960FB71FB791A4613465B0017
:1024400013441B010C3303F1804303F520433A6826
:10245000012101FA02F211461846FFF7BAFF00BF48
:102460000837BD4680BD80B582B000AF03463960F5
:10247000FB71FB791A4613465B0013441B010C33B6
:1024800003F1804303F520433A68012101FA02F287
:1024900011461846FFF78BFF00BF0837BD4680BDC9
:1024A00080B582B000AF78607B68052283F82E206B
:1024B0007B68082283F835207B68082283F82C206B
:1024C0007B68002283F833207B68022283F82F2068
:1024D0007B68042283F836207B68022283F8302050
:1024E0007B68052283F837207B68002283F832203E
:1024F0007B68002283F839207B68002283F8312032
:102500007B68002283F838207B68052283F82D2021
:102510007B68002283F834207B68052283F86E20D4
:102520007B680A2283F875207B68082283F86C2078
:102530007B68022283F873207B68022283F86F2075
:102540007B68082283F876207B68012283F870205C
:102550007B68092283F877207B68002283F8722049
:102560007B68002283F879207B68002283F8712041
:102570007B68002283F878207B68052283F86D2031
:102580007B68022283F874207B68052283F8AE20E2
:102590007B68092283F8B5207B68082283F8AC2089
:1025A0007B68012283F8B3207B68022283F8AF2086
:1025B0007B68062283F8B6207B68022283F8B0206D
:1025C0007B68072283F8B7207B68002283F8B2205B
:1025D0007B68002283F8B9207B68002283F8B12051
:1025E0007B68002283F8B8207B68052283F8AD2041
:1025F0007B68012283F8B4207B68052283F8EE20F3
:102600007B680C2283F8F5207B68092283F8EC2094
:102610007B680E2283F8F3207B68032283F8EF2087
:102620007B680C2283F8F6207B68032283F8F02075
:102630007B680D2283F8F7207B68032283F8F22061
:102640007B680B2283F8F9207B68022283F8F12053
:102650007B680A2283F8F8207B68052283F8ED2046
:102660007B68042283F8F4207B68052283F82E21FE
:102670007B680D2283F835217B68092283F82C21A1
:102680007B680F2283F833217B68002283F82F2197
:102690007B68042283F836217B68002283F830218E
:1026A0007B68052283F837217B68002283F832217A
:1026B0007B68082283F839217B68002283F8312166
:1026C0007B68092283F838217B68052283F82D2155
:1026D0007B68052283F834217B68052283F86E210C
:1026E0007B680E2283F875217B68052283F86C21B4
:1026F0007B680F2283F873217B680A2283F86F219D
:102700007B68002283F876217B680A2283F8702197
:102710007B68012283F877217B68002283F872218D
:102720007B68062283F879217B68002283F8712177
:102730007B68072283F878217B68052283F86D2166
:102740007B68062283F874217B68052283F8AE211A
:102750007B680B2283F8B5217B68082283F8AC21C3
:102760007B68032283F8B3217B68032283F8AF21BF
:102770007B680E2283F8B6217B68032283F8B021A0
:102780007B680F2283F8B7217B68022283F8B2218D
:102790007B68092283F8B9217B68022283F8B12182
:1027A0007B680B2283F8B8217B68052283F8AD2172
:1027B0007B68032283F8B4217B681749184600F030
:1027C00039F87B6840331549184600F033F87B68C8
:1027D00080331349184600F02DF87B68C033114947
:1027E000184600F027F87B6803F580730E491846F9
:1027F00000F020F87B6803F5A0730C49184600F040
:1028000019F87B6803F5C0730949184600F012F8FF
:1028100000BF0837BD4680BD2C15010030150100F2
:102820003815010040150100481501005015010040
:102830005815010090B583B000AF786039607868B2
:1028400000F042F87B6800221A727A6842F2107334
:102850004FF00004C2E904347B6800229A617B686F
:1028600000221A717B6800225A70786800F0B6F86E
:102870007B6842F21072DA617B6800221A627B6820
:1028800000229A707B680022DA707B6824333968F2
:1028900018460BF077FD00BF0C37BD4690BD80B5E4
:1028A00082B000AF78607B6893F82C207B6893F847
:1028B000333019461046FFF7B9FD7B6801221A70C4
:1028C00000BF0837BD4680BD80B582B000AF7860DC
:1028D0007B6893F82C207B6893F8333019461046B8
:1028E000FFF7C1FD7B6800221A7000BF0837BD46A4
:1028F00080BD80B582B000AF78600B46FB7097F961
:102900000330002B05D0012B11D0B3F1FF3F1CD0B9
:1029100029E07B6893F82E207B6893F835301946C0
:102920001046FFF783FD7B68FA781A7228E07B680F
:1029300093F82E207B6893F8353019461046FFF740
:1029400092FD7B68FA781A721AE07B6893F82E2061
:102950007B6893F8353019461046FFF767FD7B68B2
:10296000FA781A720CE07B6893F82E207B6893F853
:10297000353019461046FFF759FD7B6800221A7260
:1029800000BF0837BD4680BD80B582B000AF78601B
:10299000114B1B78002B1AD00F4B00221A707B684A
:1029A00003F5005324331B68184600F0CFF87B680A
:1029B00003F5005324331B68184600F049F87B6880
:1029C00003F5005324331B68184600F010F900BFCC
:1029D0000837BD4680BD00BF6C04002080B582B0C2
:1029E00000AF78607B6893F831207B6893F83830CB
:1029F00019461046FFF7FFFC0346002B14BF0123C6
:102A00000023DBB2002B03D07B6800229A7102E026
:102A10007B6801229A717B6893F832207B6893F877
:102A2000393019461046FFF7E6FC0346002B14BF69
:102A300001230023DBB2002B03D07B680022DA7174
:102A400002E07B680122DA7100BF0837BD4680BD15
:102A500080B582B000AF78607B68C0331846FFF75E
:102A6000BDFF7B6803F580731846FFF7B7FF7B68EF
:102A700003F5A0731846FFF7B1FF7B6803F5C07339
:102A80001846FFF7ABFF00BF0837BD4680BD2DE9F4
:102A9000904882B000AF78607B685B79002B05D0EE
:102AA000786800F092F87B6800225A717B681B7886
:102AB000002B46D07B689B69002B42D07B681B6A49
:102AC000002B05D07B681B6A5A1E7B681A6238E0AF
:102AD0007B681B79002B34D07B6893F90830012B7D
:102AE00003D17B68DB79002B09D07B6893F9083030
:102AF000B3F1FF3F22D17B689B79002B1ED1786810
:102B000000F051F87B68D3E904127B6893F9083030
:102B10004FFA83FB4FEAEB7C1BEB01034CEB020407
:102B20007A68C2E904347B689B697A6892F9082064
:102B30009A1A7B689A617B6801225A717B6800222D
:102B40001A7100BF0837BD46BDE8908880B582B0D5
:102B500000AF78607B681846FFF799FF7B684033C9
:102B60001846FFF794FF7B6880331846FFF78FFF06
:102B70007B68C0331846FFF78AFF7B6803F58073D4
:102B80001846FFF784FF7B6803F5A0731846FFF72C
:102B90007EFF7B6803F5C0731846FFF778FF00BF20
:102BA0000837BD4680BD80B582B000AF78607B68D5
:102BB00093F82D207B6893F8343019461046FFF7C0
:102BC00052FC00BF0837BD4680BD80B582B000AF63
:102BD00078607B6893F82D207B6893F83430194631
:102BE0001046FFF723FC00BF0837BD4680BD80B507
:102BF00082B000AF78607B68184600F025F87B68EB
:102C00004033184600F020F87B688033184600F007
:102C10001BF87B68C033184600F016F87B6803F594
:102C20008073184600F010F87B6803F5A07318460F
:102C300000F00AF87B6803F5C073184600F004F84A
:102C400000BF0837BD4680BD80B582B000AF786058
:102C50007B681B79002B3AD17B689B69002B36D0AF
:102C60007B68DB79002B13D07B6893F90830012B4C
:102C70000ED14FF0FF317868FFF73BFE7B680022F2
:102C80009A617B6824331A4613491448FDF786FE7F
:102C90007B689B79002B13D07B6893F90830B3F1E4
:102CA000FF3F0DD101217868FFF723FE7B680022EA
:102CB0009A617B6824331A4609490848FDF76EFE7D
:102CC0007B68DA697B681A627B6801221A7100BF2F
:102CD0000837BD4680BD00BF60150100C806002052
:102CE0007415010080B485B000AF786039607B68EE
:102CF00003F10473DA003B6813449B00FB60FB683C
:102D00001B6818461437BD465DF8047B704780B4D5
:102D100085B000AF786039607B6803F1C063FB6009
:102D2000FB683A681A6000BF1437BD465DF8047B43
:102D3000704780B485B000AF786039607B6803F17C
:102D40008063FB60FB683A681A6000BF1437BD46B9
:102D50005DF8047B704780B582B000AF03463960F0
:102D6000FB71FB791A4613465B0013441B011C33AD
:102D700003F1804303F520433A6811461846FFF7F4
:102D8000B1FF034618460837BD4680BD80B582B006
:102D900000AF03463960FB71FB791A4613465B00AE
:102DA00013441B010C3303F1804303F520433A68BD
:102DB000012101FA02F211461846FFF7BAFF00BFDF
:102DC0000837BD4680BD80B582B000AF034639608C
:102DD000FB71FB791A4613465B0013441B010C334D
:102DE00003F1804303F520433A68012101FA02F21E
:102DF00011461846FFF78BFF00BF0837BD4680BD60
:102E000080B584B000AFF860B9607A607B689BB22F
:102E10001946034807F074FD00BF1037BD4680BD5A
:102E2000C804002080B500AF09210320FFF793FFFD
:102E30000346DBB2184680BD80B500AF0A210320EF
:102E4000FFF7C1FF00BF80BD80B500AF0A2103209E
:102E5000FFF79CFF00BF80BD80B586B002AF7860F1
:102E60000B467B800023FB607B88072B02D8012365
:102E7000FB6004E07B88FA2B01D90123FB607B888F
:102E80001A4679680E480AF0BBFB0E4B18687A8820
:102E9000002301930C4B009313460C4A084901F0A0
:102EA0004BFD0346FB60FB68002B02D10123FB6056
:102EB00001E00023FB60002318461037BD4680BDAB
:102EC000C805002000000020012E0000C8040020DA
:102ED00080B500AF0B4B0A229A710A4B1D22DA71A2
:102EE000084B0A225A71074B0A221A71054B5822C5
:102EF0001A61054B1B680349184601F0A9FB00BF86
:102F000080BD00BF040000200000002080B582B01A
:102F100000AF78607B681233184607F04BFD02461D
:102F20007B6803F5805314331A607B6803F5805384
:102F300014331B68002B03D107F002FD002309E0C6
:102F40007B6803F5805314331B68002B01DD0123DC
:102F500000E0002318460837BD4680BD80B483B02A
:102F600000AF0346FB7197F9073003F01F020749D2
:102F700097F907305B09012000FA02F241F823209B
:102F800000BF0C37BD465DF8047B704700E100E0F0
:102F900080B483B000AF78607B68094A934203D065
:102FA0007B68084A934202D14FF0FF3301E04FF6AD
:102FB000FF7318460C37BD465DF8047B704700BFB1
:102FC00000A0014000A4014080B483B000AF78604D
:102FD00039607B683A685A6100BF0C37BD465DF8BE
:102FE000047B704780B483B000AF786039607B6841
:102FF0009A693B681A437B689A6100BF0C37BD46EB
:103000005DF8047B704780B582B000AF78603960AE
:103010007868FFF7BDFF7B683A68DA6100BF083760
:10302000BD4680BD80B582B000AF786000F004F886
:1030300000BF0837BD4680BD80B584B000AF012118
:103040000F4806F059F84FF47A710E48FFF7DBFF8E
:103050003B4600221A605A609A601A7301233B7043
:1030600001210848FFF7BEFF1320FFF777FF3B461B
:103070001946044807F00AF900BF1037BD4680BD65
:10308000001204000084014080B500AF0121044813
:10309000FFF79AFF034B01221A7000BF80BD00BFEB
:1030A000008401406C04002080B400AF044BDB6C52
:1030B0001B0EDBB21846BD465DF8047B704700BFAF
:1030C000B081E00F80B582B000AFFFF7EDFF03469F
:1030D000FB71FB79002B0CD1104B4AF6E8521A60B9
:1030E0000F4B1B680E4A43F0040313600B4B002286
:1030F0001A60FB79012B05D80A4B1B68094A43F477
:1031000000531360084B1B6A23F44413064A43F42C
:103110008813136200BF0837BD4680BD90310E4052
:1031200098310E4064310E4000400E4080B483B0B0
:1031300000AF78607B6800221A707B6818460C37F5
:10314000BD465DF8047B704780B483B000AF786003
:103150007B68243300221A605A607B6818460C375B
:10316000BD465DF8047B704780B582B000AF7860E3
:103170007B681846FFF7E8FF7B6840331846FFF787
:10318000E3FF7B6880331846FFF7DEFF7B68C033C0
:103190001846FFF7D9FF7B6803F580731846FFF7E1
:1031A000D3FF7B6803F5A0731846FFF7CDFF7B685C
:1031B00003F5C0731846FFF7C7FF7B68184608374A
:1031C000BD4680BD80B5ADF5087D00AF3B461846D5
:1031D000FFF7CAFFFFF776FF164B03F500532433C2
:1031E0003A461A60134B03F50053283307F5E07293
:1031F0001A60104B03F5005324331B68184600F087
:103200001DF80C4B03F5005324331B68194609487D
:1032100000F042F808490748FDF7C0FB07F078FCCA
:103220000448FDF717F90348FEF7D7F90148FEF700
:10323000E8F9F3E7C80600208815010080B582B0E0
:1032400000AF786000F00EF8FFF742FEFDF703FCD8
:10325000FDF70AF87868FFF7E5FE00BF0837BD46BE
:1032600080BD000080B500AF0121094805F044FF92
:103270000121084805F040FF0421112006F06AF9F9
:1032800000220021032006F0DBFA00BF80BD00BF52
:103290004041050000350A0080B582B000AF78607B
:1032A00039603868FFF7FCF87868FDF7BFFE78688A
:1032B000FDF77EF800BF0837BD4680BD80B582B0FF
:1032C00000AF786039607B68012B07D13B684FF60F
:1032D000FF72934202D10348FFF728FF00BF08376F
:1032E000BD4680BDC806002080B500AF4FF6FF7117
:1032F0000120FFF7E3FF80BD80B584B000AF7860A8
:103300003960214B1B7883F00103DBB2002B01D025
:103310001E4B34E07B68002B01D11D4B2FE006F0E3
:103320007DFCB8600023FB6022E01A4AFB681B01A9
:1033300013440C331B7883F00103DBB2002B14D051
:10334000FA687B681A60134AFB681B0113440C334C
:1033500001221A700F4AFB681B01134400221A60F5
:10336000B86806F06BFC002309E0FB680133FB60E2
:10337000FB68072BD9DDB86806F060FC064B1846E1
:103380001037BD4680BD00BF606A0320028000F098
:10339000018000F0646A0320048000F080B584B0EE
:1033A00000AF194B1B687B6000233B7106F036FCB5
:1033B000B860164B1B78002B04D0B86806F03EFCB2
:1033C000134B1CE0114B01221A70B86806F036FC52
:1033D0000023FB6009E00F4AFB681B0113440C3318
:1033E00000221A70FB680133FB60FB68072BF2DDDB
:1033F0000423FB713B1D184606F05EFD00231846B2
:103400001037BD4680BD00BF9C150100606A0320D7
:10341000038000F0646A032080B58CB008AFF860C8
:10342000B9607A603B60BB6A07937B6A069397F842
:1034300020300593FB6904933B7E039300230293A2
:103440003B6801937B680093BB68FA680021002009
:1034500000F08EF9034618461037BD4680BD80B592
:103460008CB008AFF860B9607A603B60BB6A0793C4
:103470007B6A069397F820300593FB6904933B7EA3
:103480000393002302933B6801937B680093BB681E
:10349000FA680121002000F06BF903461846103746
:1034A000BD4680BD80B582B000AF7860114B1B78FF
:1034B00083F00103DBB2002B01D00F4B16E07B68D9
:1034C000072B01D90D4B11E00D4A7B681B011344FA
:1034D0000C331B7883F00103DBB2002B01D0094BC6
:1034E00004E07B68184606F0CBFD00231846083739
:1034F000BD4680BD606A0320028000F0018000F0BC
:10350000646A0320078000F080B483B000AF786065
:1035100039601A4B1B7883F00103DBB2002B01D01A
:10352000174B25E07B68072B02D83B68002B01D1A5
:10353000144B1DE0144A7B681B0113440C331B78A9
:1035400083F00103DBB2002B01D0104B10E0104BD5
:103550001B6A01217A6801FA02F21340002B03D0A2
:103560003B6801221A7002E03B6800221A700023B7
:1035700018460C37BD465DF8047B7047606A03202F
:10358000028000F0018000F0646A0320078000F0F0
:1035900000200E4080B483B000AF786039601A4BD1
:1035A0001B7883F00103DBB2002B01D0174B25E021
:1035B0007B68072B02D83B68002B01D1144B1DE020
:1035C000144A7B681B0113440C331B7883F00103FE
:1035D000DBB2002B01D0104B10E0104B1B6E012111
:1035E0007A6801FA02F21340002B03D03B680122F3
:1035F0001A7002E03B6800221A70002318460C374C
:10360000BD465DF8047B7047606A0320028000F0CD
:10361000018000F0646A0320078000F000200E4063
:1036200080B582B000AF78603960154B1B7883F0AD
:103630000103DBB2002B01D0124B1DE07B68072B8E
:1036400002D83B68002B01D10F4B15E00F4A7B6875
:103650001B0113440C331B7883F00103DBB2002BF6
:1036600001D00B4B08E07B68184606F02DFD0346A1
:103670001A463B681A60002318460837BD4680BDCD
:10368000606A0320028000F0018000F0646A032079
:10369000078000F080B586B000AF324B1B6EFB6038
:1036A000304BDB6EFA681340FB60FB68002B00DADE
:1036B000FEE700237B6101233B614CE0FA683B6934
:1036C0001340002B41D0274A3B6993667B691B015D
:1036D000254A1344BB60BB681B68002B35D0BB6810
:1036E0009B685A1CBB689A60BB681B68BA68916883
:1036F000BA685268786998470346002B14BF0123C3
:103700000023DBB283F00103DBB2FB71FB7903F032
:103710000103FB71BB685B7B012B16D1FB79002B8E
:1037200013D0124A7B695B01134403F10802137939
:103730006FF3410313710D4A7B695B01134403F17D
:10374000180213796FF3410313717B6901337B61B5
:103750003B695B003B617B69072BAFD900BF183722
:10376000BD4680BD00200E40646A0320E46A032049
:1037700090B58BB000AFBA607B600346FB730B461D
:10378000BB737A4B1B7883F00103DBB2002B01D0B3
:10379000774BE7E0BB68072B0FD8BB6B002B0CD037
:1037A000FB6B002B09D0BB6CB3F5006F05DCFB7B1A
:1037B000012B04D13B6C002B01D16E4BD2E0BB68D6
:1037C0001B016D4A13447B627B6A1B7B83F0010300
:1037D000DBB2002B01D0694BC4E007F110030022DB
:1037E0001A605A609A60DA60BB685B01644A1344ED
:1037F0003B62BB7B002B1DD13B6A1A460023136042
:1038000053609360D3603A6A937843F010039370E7
:103810003A6AD37843F03003D37097F8443083F09A
:103820000103DBB2002B22D03A6AD37843F00303C2
:10383000D3701CE03B6A1A46002313605360936008
:10384000D3603A6A937843F0100393703A6AD3785E
:1038500043F00303D37097F8443083F00103DBB2E5
:10386000002B04D03A6AD37843F03003D3707B68DE
:103870003B61BB6C9BB2013B9BB2C3F30A0399B2A1
:103880003A6A138861F30E131380BA6B3B6A9A602D
:10389000FA6B3B6A5A6097F84C3003F00303D9B2D5
:1038A0003A6AD37861F38303D370FB7B012B3AD15F
:1038B0003A6A137B43F0010313733A6A137B43F0B4
:1038C000020313733A6AD368042161F39F03D36040
:1038D0002B4ABB685B01134403F110023B6A144698
:1038E0000FCB84E80F00264ABB685B01134403F149
:1038F000180253686FF0030161F39F0353603A6C41
:103900001F49BB685B010B4414331A60BB7B012B5E
:1039100009D1FA6B1A49BB685B010B4418331A6072
:103920003A6C3B6A5A603B6D002B07D1FB7B002B46
:1039300004D13A6A93786FF3041393707B6A3A6DFB
:103940001A607B6A7A6D5A607B6A00229A607B6A91
:10395000FA7B5A73BB6807F110013A6A184606F001
:10396000E5FA002318462C37BD4690BD606A032057
:10397000028000F0018000F0646A0320078000F0FC
:10398000E46A032080B483B000AF7860044A7B68A7
:10399000C2F8243400BF0C37BD465DF8047B704785
:1039A00000A0004080B483B000AF074BD3F82834A8
:1039B0007B60054BD3F81C247B68134018460C37FA
:1039C000BD465DF8047B704700A0004080B485B020
:1039D00000AF78607B68FB60FB6893FAA3F3BB6081
:1039E000BB68B3FA83F318461437BD465DF8047B11
:1039F0007047000080B584B000AF786019E0786847
:103A0000FFF7E4FFF8600122FB6802FA03F3DB43EF
:103A10001A467B6813407B60094AFB6852F82330E2
:103A2000BB60BB68002B04D0FB68DAB2BB681046F1
:103A300098477B68002BE2D100BF1037BD4680BDA0
:103A4000E46B032080B582B000AFFFF7ABFF024606
:103A500045F2555313407B607868FFF793FF786811
:103A6000FFF7C8FF00BF0837BD4680BD80B582B0F4
:103A700000AFFFF797FF02464AF6AA2313407B6088
:103A80007868FFF77FFF7868FFF7B4FF00BF08375B
:103A9000BD4680BD80B483B000AF0346FB71FB79A7
:103AA00003F01F02074997F907305B09012000FA6C
:103AB00002F241F8232000BF0C37BD465DF8047BBD
:103AC000704700BF00E100E080B483B000AF034660
:103AD000FB71FB7903F01F02074997F907305B0977
:103AE000012000FA02F2603341F8232000BF0C37B6
:103AF000BD465DF8047B704700E100E080B485B00E
:103B000000AF78607B68002B03D07B68B3F5004F73
:103B100000BF7B68B3FA83F3C3F11F03FB60FB684C
:103B200018461437BD465DF8047B704780B483B0F7
:103B300000AF7860064A7B6804331B0113440433EA
:103B40001B6818460C37BD465DF8047B704700BF04
:103B50000020044080B483B000AF78603960074A29
:103B60007B6804331B01134404333A681A6000BFB6
:103B70000C37BD465DF8047B704700BF0020044051
:103B800080B400AF034B9B681846BD465DF8047BCC
:103B9000704700BF0020044080B483B000AF78605D
:103BA000044A7B68136200BF0C37BD465DF8047B96
:103BB000704700BF0020044080B483B000AF78603D
:103BC000064B5A6A7B68DB43044913404B6200BFD3
:103BD0000C37BD465DF8047B704700BF00200440F1
:103BE00080B483B000AF7860054B5A6A04497B68A3
:103BF00013434B6200BF0C37BD465DF8047B704732
:103C00000020044080B483B000AF064B5B6A7B6049
:103C1000044B9A697B68134018460C37BD465DF823
:103C2000047B70470020044080B586B000AF786008
:103C300000237B6100233B6105F0F0FFF86002E0A8
:103C40007B6901337B617B69032B0ADC16497A6946
:103C500013469B001344DB000B441E331B78002BE0
:103C6000EED17B69042B02D1104B3B6114E07B68E1
:103C7000002B0FD00C497A6913469B001344DB00DC
:103C80000B441E3301221A707A697B681A60002384
:103C90003B6101E0064B3B61F86805F0CFFF3B69F3
:103CA00018461837BD4680BD286C0320011000F06F
:103CB000041000F080B500AF224B1B78002B01D020
:103CC00000233CE01F4B01221A7001211E4805F021
:103CD00013FA02211D4805F03DFC0820FFF70EFFF6
:103CE0000346DAB21A4B1A7101211A4805F004FA98
:103CF000174806F057FA1849012006F025FA40F255
:103D0000FF70FFF759FF40F2FF70FFF745FF134BBD
:103D100000229A601E20FFF7D7FE1E20FFF7BAFE92
:103D2000A02200210E4809F076FC0E4B00221A70EA
:103D30000D4B00221A700D4B00221A60002318460A
:103D400080BD00BFD26C032000250A0005002200C0
:103D500020000020A00914002C00002000200440B6
:103D6000286C0320D06C0320D16C0320CC6C032082
:103D700090B58FB000AFF8607A603B600B46FB7285
:103D800000233B63FB68032B01D9B64B65E105F0CB
:103D900045FFF862B449FA6813469B001344DB0000
:103DA0000B441E331B7883F00103DBB2002B04D0DD
:103DB000F86A05F043FFAD4B4FE17B68002B0BD158
:103DC0003B68002B03D03B68B96CF8689847F86AE9
:103DD00005F034FF002340E1FFF7D2FE7863A249EB
:103DE000FA6813469B001344DB000B4418333A680F
:103DF0001A607B6819464FF000024FF000034FF045
:103E00000004D40344EA5144CB0313F57A6044F12F
:103E100000014FF4FA524FF0000308F055F8034642
:103E20000C4619462246904CF86803469B00034412
:103E3000DB0023440833C3E90012FB7A012B28D1AD
:103E40007B684FF47A7202FB03F18748FA681346E5
:103E50009B001344DB0003440833D3E900341A46C3
:103E6000F42303FB02F3CB1A18467F49FA68134682
:103E70009B001344DB000B44103318607A49FA6846
:103E800013469B001344DB000B4414337A221A6060
:103E900013E07549FA6813469B001344DB000B449A
:103EA0000833D3E90012704CF86803469B000344C2
:103EB000DB0023440833C3E900126B49FA68134658
:103EC0009B001344DB000B440833D3E90034591C36
:103ED00044F10002644CF86803469B000344DB0095
:103EE0002344C3E900126049FA6813469B00134457
:103EF000DB000B441C3301221A705B49FA6813463D
:103F00009B001344DB000B441F33FA7A1A705649A6
:103F1000FA6813469B001344DB000B442033BA6C51
:103F20001A60534B1B78002B04D0F86A05F086FE0C
:103F3000002392E04F4B1B68B3F1FF3F04D04D4B81
:103F40001B6801334B4A13604B4B1B7883F0010312
:103F5000DBB2002B2ED0494A7B6B13600420FFF7A5
:103F60001BFE4149FA6813469B001344DB000B44D7
:103F7000D3E90034C7E906346FF064037B617B69E1
:103F800019464FF00002D7E90634A24208BF994211
:103F900001D20B4614463B617A6B3B6913441946C8
:103FA0000120FFF7D7FD0420FFF71AFE324B012254
:103FB0001A7045E02F4B1B68012B41D12A49FA6842
:103FC00013469B001344DB000B441C3300221A7081
:103FD0000420FFF7F1FD294B1B687A6BD31ABB62F3
:103FE000B86A00F0D7F800F03DFA3B6B002B09D11E
:103FF0001D49FA6813469B001344DB000B441C3335
:1040000001221A703B6B01333B63786B00F05CFA62
:10401000FFF7B6FD7863194B1B687A6BD31ABB6246
:104020000120FFF783FD0246144B1B68D31A7B6205
:10403000114B1B78002B03D0BA6A7B6A9A42C7D80F
:104040000C4B1B68002B04D00A4B1B68013B094A30
:104050001360F86A05F0F2FD002318463C37BD46B0
:1040600090BD00BF021000F0286C0320031000F088
:10407000D06C0320CC6C0320D16C0320C86C0320CF
:1040800080B584B000AF78607B68032B01D9154BF5
:1040900023E005F0C3FDF86013497A6813469B00DE
:1040A0001344DB000B441E331B7883F00103DBB2A7
:1040B000002B04D0F86805F0C1FD0C4B0DE00A4957
:1040C0007A6813469B001344DB000B441C33002228
:1040D0001A70F86805F0B2FD002318461037BD4687
:1040E00080BD00BF021000F0286C0320031000F018
:1040F00080B586B000AF05F091FD3861FFF782FD15
:10410000F860FB6823F005031846FFF745FDFB68E0
:1041100003F00403002B30D01B4B01221A70FFF771
:104120002FFD78610420FFF747FD184B1B687A6963
:10413000D31ABB60B86800F02DF800F093F97869E5
:1041400000F0C2F9FFF71CFD7861104B1B687A691B
:10415000D31ABB600120FFF7E9FC02460B4B1B683A
:10416000D31A7B600A4B1B78002B03D0BA687B689C
:104170009A42D7D8044B00221A70386905F05EFDC8
:1041800000BF1837BD4680BDD06C0320C86C03202B
:10419000D16C0320F0B587B000AF786000237B615D
:1041A00056E1AF497A6913469B001344DB000B4488
:1041B0001D3300221A70AA497A6913469B001344E2
:1041C000DB000B441C331B78002B00F03E81A4491C
:1041D0007A6913469B001344DB000B44D3E9003497
:1041E0007A6811464FF00002A24208BF99421AD2E3
:1041F0009B497A6913469B001344DB000B44D3E9C7
:1042000000567B684FF0000429463246C91A62EB1B
:104210000402934C786903469B000344DB0023446B
:10422000C3E9001211E18E497A6913469B001344D9
:10423000DB000B441F331B78002B0AD188497A69B5
:1042400013469B001344DB000B441C3300221A70FE
:10425000E6E07B6819464FF00002814C786903461E
:104260009B000344DB002344D3E900560B4614466D
:104270005B1B64EB0604C7E9023479497A6913468B
:104280009B001344DB000B440833D3E90045744919
:104290007A6913469B001344DB000B440833D3E9CF
:1042A0000023D7E9020107F00FFEA41A65EB03050E
:1042B00021462A466A4C786903469B000344DB008A
:1042C0002344C3E9001266497A6913469B001344EC
:1042D000DB000B4410331B68002B50DD60497A690A
:1042E00013469B001344DB000B44143319685C48ED
:1042F0007A6913469B001344DB00034410331B68A8
:10430000194457487A6913469B001344DB00034461
:104310001433196052497A6913469B001344DB0039
:104320000B4414331B68F32B7AD94D497A69134631
:104330009B001344DB000B44D3E90034591C44F1C7
:104340000002474C786903469B000344DB0023448A
:10435000C3E9001242497A6913469B001344DB000B
:104360000B4414331B68A3F1F4013D487A691346EA
:104370009B001344DB0003441433196050E03849B8
:104380007A6913469B001344DB000B44143319680D
:1043900033487A6913469B001344DB00034410330F
:1043A0001B68C91A2E487A6913469B001344DB0028
:1043B0000344143319602A497A6913469B00134455
:1043C000DB000B4414331B68F32B29D924497A6989
:1043D00013469B001344DB000B44D3E9003413F174
:1043E000FF3144F1FF321E4C786903469B000344C1
:1043F000DB002344C3E9001219497A6913469B0084
:104400001344DB000B4414331B68A3F1F40114487C
:104410007A6913469B001344DB000344143319608C
:104420000F497A6913469B001344DB000B44183391
:104430001B68002B09D00A497A6913469B00134474
:10444000DB000B441D3301221A707B6901337B6151
:104450007B69032B7FF7A5AE00BF1C37BD46F0BDBF
:10446000286C032090B583B000AF00237B6022E06E
:1044700014497A6813469B001344DB000B441D3338
:104480001B78002B14D00F497A6813469B00134405
:10449000DB000B4418331C6878680A497A681346B5
:1044A0009B001344DB000B4420331B681946A047D4
:1044B0007B6801337B607B68032BD9DD00BF0C3741
:1044C000BD4690BD286C032090B58BB000AF7860DE
:1044D0004FF0FF334FF0FF34C7E9063400237B620F
:1044E00027E031497A6A13469B001344DB000B44F2
:1044F0001C331B78002B19D02B497A6A13469B007A
:104500001344DB000B44D3E90012D7E90634A2427E
:1045100008BF99420AD224497A6A13469B00134481
:10452000DB000B44D3E90034C7E906347B6A01336E
:104530007B627B6A032BD4DD1C4B00221A70D7E907
:104540000634B4F1FF3F08BFB3F1FF3F27D0D7E9EE
:104550000634C7E904346FF06403FB60FB68194656
:104560004FF00002D7E90434A24208BF994201D2B9
:104570000B461446C7E906340D4A7B6813600420D5
:10458000FFF70AFBBA697B68134419460120FFF75D
:10459000E1FA064B01221A700420FFF721FB00BF4D
:1045A0002C37BD4690BD00BF286C0320D16C032082
:1045B000C86C032080B485B000AF786039607B6838
:1045C00003F10473DA003B6813449B00FB60FB6853
:1045D0001B6818461437BD465DF8047B704780B5EC
:1045E00082B000AF03463960FB71FB79002B1CD011
:1045F000FB79012B19D0FB79022B16D0FB79032B09
:1046000013D0FB79042B10D0FB79052B0DD0FB794F
:10461000062B0AD0FB79072B07D0FB79082B04D097
:10462000FB79092B01D0FB790A2BFA7913465B0041
:1046300013441B011C3303F1804303F52043396805
:104640001846FFF7B7FF034618460837BD4680BD3A
:10465000B0B58AB000AF78603960A04B07F10804AC
:104660001D460FCD0FC495E8030084E803007B6866
:10467000002B01D19A4B5AE13B68002B01D1994B99
:1046800055E158220021786808F0C5FF3B681B6897
:10469000954A93420AD17B68944ADA647B68944ACB
:1046A0005A627B684FF440229A6231E03B681B6893
:1046B000904A93420AD17B688F4ADA647B688F4ABA
:1046C0005A627B684FF450229A6221E03B681B6873
:1046D0008B4A93420AD17B688A4ADA647B688A4AA9
:1046E0005A627B684FF460229A6211E03B681B6853
:1046F000864A93420AD17B68854ADA647B68854A98
:104700005A627B684FF470229A6201E0754B0EE1A9
:104710007A683B6814461D460FCD0FC495E8070024
:1047200084E807003B685B7D012B01D10123BB7549
:104730003B689B7D002B02D100233B8319E03B6843
:104740009B7D012B03D14FF400733B8311E03B6849
:104750009B7D022B03D14FF480733B8309E03B68C0
:104760009B7D032B03D14FF440733B8301E05D4BF2
:10477000DDE03B681B7D012B05D100237B754FF4E9
:104780007A733B6102E03B689B683B6101216248B0
:1047900004F0B2FC0121614804F0AEFC7B68DB6CE4
:1047A0000121184604F0A8FC3B681B6807F10802C9
:1047B0001146184605F0F8FD3B681B7D002B0BD118
:1047C0003B68DB7D002B07D13B681B681A683B68A0
:1047D0001B6842F480321A603B68DB7D002B1CD1E1
:1047E0003B681B680F225A673B681B689B6F03F08E
:1047F000E0333A681279120213433A68527913434C
:104800003A68927912061A433B68DB791B04194611
:104810003B681B680A439A6719E03B681B680B22D8
:104820005A673B681B689B6F23F01F2323F01F030D
:104830003A681279120213433A6852791A433B6874
:104840009B791B0619463B681B680A439A6701213E
:10485000786800F0BBF878627B6A002B01D07B6A35
:1048600065E005F0DBF938622D4B1B7883F001031E
:10487000DBB2002B08D02A4B01221A70386A05F0EF
:10488000DDF9FFF717FA02E0386A05F0D7F93B685F
:104890001B7D012B09D17B6854331846FFF7C4F9FF
:1048A0000346002B01D01F4B41E0FEF777FD7B68EC
:1048B0001C3300211846FEF71FFD0346002B01D0D4
:1048C000194B34E07B68203300211846FEF714FDB5
:1048D0000346002B2AD0144B29E000BFA01501008D
:1048E000012000F0022000F000000140004204001E
:1048F00001000C00000401400052040001000D0002
:10490000000801400062040001000E00000C01409C
:104910000072040001000F004041050000350A004C
:10492000D36C0320042000F0092000F00023184677
:104930002837BD46B0BD00BF80B588B002AFF86073
:10494000B9607A603B60FB681B7D002B01D11C4B7A
:1049500031E03A68B968F86803F0C0FB78617B69B8
:10496000002B01D07B6926E07B68002B01D1154B21
:1049700021E07B6A002B08D0FB68586D7A6AFB68DF
:104980000093114B0021FFF7F3F9FB681B7E012B0D
:1049900008D1F86803F0DAFB78617B69002B01D05D
:1049A0007B6908E03B6A00933B687A68B968F868FD
:1049B00003F036FB002318461837BD4680BD00BF04
:1049C000082000F0022000F0757F000080B58AB05A
:1049D00000AF78600B46FB707B68FB607B681B68F0
:1049E000674A934240F07686FB681B79002B00F003
:1049F000C980FB681B79012B00F0C080FB681B7924
:104A0000022B00F0B980FB681B79032B00F0B28009
:104A1000FB681B79042B00F0AB80FB681B79052B2E
:104A200000F0A480FB681B79062B00F09D80FB68DA
:104A30001B79072B00F09680FB681B79082B00F090
:104A40008F80FB681B79092B00F08880FB681B793D
:104A50000A2B00F08180FB681B790B2B7AD0FB6856
:104A60001B790C2B74D0FB681B790D2B6ED0FB6867
:104A70001B790E2B68D0FB681B790F2B62D0FB686B
:104A80001B79102B5CD0FB681B79112B56D0FB686F
:104A90001B79122B50D0FB681B79132B4AD0FB6873
:104AA0001B79142B44D0FB681B79152B3ED0FB6877
:104AB0001B79162B38D0FB681B79172B32D0FB687B
:104AC0001B79182B2CD0FB681B79192B26D0FB687F
:104AD0001B791A2B20D0FB681B791B2B1AD0FB6883
:104AE0001B791C2B14D0FB681B791D2B0ED0FB6887
:104AF0001B791E2B08D0FB681B791F2B01D10523C6
:104B000041E04FF0FF333EE005233CE005233AE06F
:104B1000052338E0052336E0052334E0052332E0A1
:104B2000052330E003232EE003232CE003232AE0B7
:104B3000032328E0032326E0032324E0032322E0C9
:104B4000022320E002231EE002231CE002231AE0DD
:104B5000022318E0022316E0012314E0012312E0EF
:104B6000012310E001230EE001230CE000230AE002
:104B7000002308E0002306E0002304E0002302E015
:104B8000000001400023BB61FB685B79002B00F053
:104B9000C780FB685B79012B00F0C080FB685B7904
:104BA000022B00F0B980FB685B79032B00F0B28028
:104BB000FB685B79042B00F0AB80FB685B79052B0D
:104BC00000F0A480FB685B79062B00F09D80FB68F9
:104BD0005B79072B00F09680FB685B79082B00F06F
:104BE0008F80FB685B79092B00F08880FB685B791C
:104BF0000A2B00F08180FB685B790B2B7AD0FB6875
:104C00005B790C2B74D0FB685B790D2B6ED0FB6845
:104C10005B790E2B68D0FB685B790F2B62D0FB6849
:104C20005B79102B5CD0FB685B79112B56D0FB684D
:104C30005B79122B50D0FB685B79132B4AD0FB6851
:104C40005B79142B44D0FB685B79152B3ED0FB6855
:104C50005B79162B38D0FB685B79172B32D0FB6859
:104C60005B79182B2CD0FB685B79192B26D0FB685D
:104C70005B791A2B20D0FB685B791B2B1AD0FB6861
:104C80005B791C2B14D0FB685B791D2B0ED0FB6865
:104C90005B791E2B08D0FB685B791F2B01D10023A9
:104CA0003FE04FF0FF333CE005233AE0052338E0D6
:104CB000052336E0052334E0052332E0052330E008
:104CC00005232EE005232CE003232AE0032328E01C
:104CD000032326E0032324E0032322E0032320E030
:104CE00003231EE002231CE002231AE0022318E043
:104CF000022316E0022314E0022312E0012310E055
:104D000001230EE001230CE001230AE0012308E067
:104D1000002306E0002304E0002302E0002300E07B
:104D200000237B61FB689B79002B00F0C780FB6848
:104D30009B79012B00F0C080FB689B79022B00F06F
:104D4000B980FB689B79032B00F0B280FB689B79EC
:104D5000042B00F0AB80FB689B79052B00F0A4804E
:104D6000FB689B79062B00F09D80FB689B79072BE5
:104D700000F09680FB689B79082B00F08F80FB6821
:104D80009B79092B00F08880FB689B790A2B00F047
:104D90008180FB689B790B2B7AD0FB689B790C2B6D
:104DA00074D0FB689B790D2B6ED0FB689B790E2B22
:104DB00068D0FB689B790F2B62D0FB689B79102B26
:104DC0005CD0FB689B79112B56D0FB689B79122B2A
:104DD00050D0FB689B79132B4AD0FB689B79142B2E
:104DE00044D0FB689B79152B3ED0FB689B79162B32
:104DF00038D0FB689B79172B32D0FB689B79182B36
:104E00002CD0FB689B79192B26D0FB689B791A2B39
:104E100020D0FB689B791B2B1AD0FB689B791C2B3D
:104E200014D0FB689B791D2B0ED0FB689B791E2B41
:104E300008D0FB689B791F2B01D100233FE04FF086
:104E4000FF333CE000233AE0052338E0052336E059
:104E5000052334E0052332E0052330E005232EE06E
:104E600005232CE005232AE0032328E0032326E082
:104E7000032324E0032322E0032320E003231EE096
:104E800003231CE002231AE0022318E0022316E0A9
:104E9000022314E0022312E0022310E001230EE0BB
:104EA00001230CE001230AE0012308E0012306E0CE
:104EB000002304E0002302E0002300E000233B6124
:104EC000FB68DB79002B00F0C780FB68DB79012BE6
:104ED00000F0C080FB68DB79022B00F0B980FB6832
:104EE000DB79032B00F0B280FB68DB79042B00F048
:104EF000AB80FB68DB79052B00F0A480FB68DB79D5
:104F0000062B00F09D80FB68DB79072B00F0968074
:104F1000FB68DB79082B00F08F80FB68DB79092BBD
:104F200000F08880FB68DB790A2B00F08180FB6849
:104F3000DB790B2B7AD0FB68DB790C2B74D0FB6808
:104F4000DB790D2B6ED0FB68DB790E2B68D0FB680C
:104F5000DB790F2B62D0FB68DB79102B5CD0FB6810
:104F6000DB79112B56D0FB68DB79122B50D0FB6814
:104F7000DB79132B4AD0FB68DB79142B44D0FB6818
:104F8000DB79152B3ED0FB68DB79162B38D0FB681C
:104F9000DB79172B32D0FB68DB79182B2CD0FB6820
:104FA000DB79192B26D0FB68DB791A2B20D0FB6824
:104FB000DB791B2B1AD0FB68DB791C2B14D0FB6828
:104FC000DB791D2B0ED0FB68DB791E2B08D0FB682C
:104FD000DB791F2B01D100233FE04FF0FF333CE092
:104FE00000233AE0002338E0052336E0052334E0CF
:104FF000052332E0052330E005232EE005232CE0D5
:1050000005232AE0052328E0032326E0032324E0E8
:10501000032322E0032320E003231EE003231CE0FC
:1050200003231AE0022318E0022316E0022314E00F
:10503000022312E0022310E002230EE001230CE021
:1050400001230AE0012308E0012306E0012304E034
:10505000002302E0002300E000237A68D363FB68AA
:105060001B79002B00F0C780FB681B79012B00F037
:10507000C080FB681B79022B00F0B980FB681B79AC
:10508000032B00F0B280FB681B79042B00F0AB808F
:10509000FB681B79052B00F0A480FB681B79062BAD
:1050A00000F09D80FB681B79072B00F09680FB6861
:1050B0001B79082B00F08F80FB681B79092B00F00F
:1050C0008880FB681B790A2B00F08180FB681B79C4
:1050D0000B2B7AD0FB681B790C2B74D0FB681B79E7
:1050E0000D2B6ED0FB681B790E2B68D0FB681B79EB
:1050F0000F2B62D0FB681B79102B5CD0FB681B79EF
:10510000112B56D0FB681B79122B50D0FB681B79F2
:10511000132B4AD0FB681B79142B44D0FB681B79F6
:10512000152B3ED0FB681B79162B38D0FB681B79FA
:10513000172B32D0FB681B79182B2CD0FB681B79FE
:10514000192B26D0FB681B791A2B20D0FB681B7902
:105150001B2B1AD0FB681B791C2B14D0FB681B7906
:105160001D2B0ED0FB681B791E2B08D0FB681B790A
:105170001F2B01D107233FE04FF0FF333CE0062314
:105180003AE0052338E0042336E0032334E0022329
:1051900032E0012330E000232EE00F232CE00E2329
:1051A0002AE00D2328E00C2326E00B2324E00A2329
:1051B00022E0092320E00B231EE00A231CE0092340
:1051C0001AE0082318E0072316E0062314E00F2353
:1051D00012E00E2310E00D230EE00C230CE00B2355
:1051E0000AE0052308E0042306E0032304E0022389
:1051F00002E0012300E000237B62FB685B79002B67
:1052000000F0C780FB685B79012B00F0C080FB6871
:105210005B79022B00F0B980FB685B79032B00F00F
:10522000B280FB685B79042B00F0AB80FB685B7994
:10523000052B00F0A480FB685B79062B00F09D80B5
:10524000FB685B79072B00F09680FB685B79082B85
:1052500000F08F80FB685B79092B00F08880FB6889
:105260005B790A2B00F08180FB685B790B2B7AD08D
:10527000FB685B790C2B74D0FB685B790D2B6ED0CF
:10528000FB685B790E2B68D0FB685B790F2B62D0D3
:10529000FB685B79102B5CD0FB685B79112B56D0D7
:1052A000FB685B79122B50D0FB685B79132B4AD0DB
:1052B000FB685B79142B44D0FB685B79152B3ED0DF
:1052C000FB685B79162B38D0FB685B79172B32D0E3
:1052D000FB685B79182B2CD0FB685B79192B26D0E7
:1052E000FB685B791A2B20D0FB685B791B2B1AD0EB
:1052F000FB685B791C2B14D0FB685B791D2B0ED0EF
:10530000FB685B791E2B08D0FB685B791F2B01D1F2
:1053100000233FE04FF0FF333CE007233AE0062351
:1053200038E0052336E0042334E0032332E002238F
:1053300030E001232EE000232CE00F232AE00E238F
:1053400028E00D2326E00C2324E00B2322E00A238F
:1053500020E009231EE00B231CE00A231AE00923A6
:1053600018E0082316E0072314E0062312E00F23B9
:1053700010E00E230EE00D230CE00C230AE00B23BB
:1053800008E0052306E0042304E0032302E00223EF
:1053900000E001233B62FB689B79002B00F0C78093
:1053A000FB689B79012B00F0C080FB689B79022B86
:1053B00000F0B980FB689B79032B00F0B280FB689A
:1053C0009B79042B00F0AB80FB689B79052B00F0E8
:1053D000A480FB689B79062B00F09D80FB689B797D
:1053E000072B00F09680FB689B79082B00F08F80DC
:1053F000FB689B79092B00F08880FB689B790A2B5E
:1054000000F08180FB689B790B2B7AD0FB689B793D
:105410000C2B74D0FB689B790D2B6ED0FB689B79AD
:105420000E2B68D0FB689B790F2B62D0FB689B79B1
:10543000102B5CD0FB689B79112B56D0FB689B79B5
:10544000122B50D0FB689B79132B4AD0FB689B79B9
:10545000142B44D0FB689B79152B3ED0FB689B79BD
:10546000162B38D0FB689B79172B32D0FB689B79C1
:10547000182B2CD0FB689B79192B26D0FB689B79C5
:105480001A2B20D0FB689B791B2B1AD0FB689B79C9
:105490001C2B14D0FB689B791D2B0ED0FB689B79CD
:1054A0001E2B08D0FB689B791F2B01D101233FE005
:1054B0004FF0FF333CE000233AE0072338E00623B7
:1054C00036E0052334E0042332E0032330E00223F6
:1054D0002EE001232CE000232AE00F2328E00E23F6
:1054E00026E00D2324E00C2322E00B2320E00A23F6
:1054F0001EE009231CE00B231AE00A2318E009230D
:1055000016E0082314E0072312E0062310E00F231F
:105510000EE00E230CE00D230AE00C2308E00B2321
:1055200006E0052304E0042302E0032300E0022355
:10553000FB61FB68DB79002B00F0C780FB68DB793F
:10554000012B00F0C080FB68DB79022B00F0B980F2
:10555000FB68DB79032B00F0B280FB68DB79042B5E
:1055600000F0AB80FB68DB79052B00F0A480FB68C2
:10557000DB79062B00F09D80FB68DB79072B00F0C0
:105580009680FB68DB79082B00F08F80FB68DB7965
:10559000092B00F08880FB68DB790A2B00F0818002
:1055A000FB68DB790B2B7AD0FB68DB790C2B74D092
:1055B000FB68DB790D2B6ED0FB68DB790E2B68D096
:1055C000FB68DB790F2B62D0FB68DB79102B5CD09A
:1055D000FB68DB79112B56D0FB68DB79122B50D09E
:1055E000FB68DB79132B4AD0FB68DB79142B44D0A2
:1055F000FB68DB79152B3ED0FB68DB79162B38D0A6
:10560000FB68DB79172B32D0FB68DB79182B2CD0A9
:10561000FB68DB79192B26D0FB68DB791A2B20D0AD
:10562000FB68DB791B2B1AD0FB68DB791C2B14D0B1
:10563000FB68DB791D2B0ED0FB68DB791E2B08D0B5
:10564000FB68DB791F2B01D102233FE04FF0FF33D2
:105650003CE001233AE0002338E0072336E006234C
:1056600034E0052332E0042330E003232EE002235C
:105670002CE001232AE0002328E00F2326E00E235C
:1056800024E00D2322E00C2320E00B231EE00A235C
:105690001CE009231AE00B2318E00A2316E0092373
:1056A00014E0082312E0072310E006230EE00F2386
:1056B0000CE00E230AE00D2308E00C2306E00B2388
:1056C00004E0052302E0042300E003237A68136466
:1056D00002F075BB7B681B68674A934240F0768690
:1056E000FB681B79002B00F0C980FB681B79012B3C
:1056F00000F0C080FB681B79022B00F0B980FB68CA
:105700001B79032B00F0B280FB681B79042B00F09F
:10571000AB80FB681B79052B00F0A480FB681B792C
:10572000062B00F09D80FB681B79072B00F096800C
:10573000FB681B79082B00F08F80FB681B79092B15
:1057400000F08880FB681B790A2B00F08180FB68E1
:105750001B790B2B7AD0FB681B790C2B74D0FB6860
:105760001B790D2B6ED0FB681B790E2B68D0FB6864
:105770001B790F2B62D0FB681B79102B5CD0FB6868
:105780001B79112B56D0FB681B79122B50D0FB686C
:105790001B79132B4AD0FB681B79142B44D0FB6870
:1057A0001B79152B3ED0FB681B79162B38D0FB6874
:1057B0001B79172B32D0FB681B79182B2CD0FB6878
:1057C0001B79192B26D0FB681B791A2B20D0FB687C
:1057D0001B791B2B1AD0FB681B791C2B14D0FB6880
:1057E0001B791D2B0ED0FB681B791E2B08D0FB6884
:1057F0001B791F2B01D1052341E04FF0FF333EE021
:1058000005233CE005233AE0052338E0052336E094
:10581000052334E0052332E0052330E003232EE0A6
:1058200003232CE003232AE0032328E0032326E0BC
:10583000032324E0032322E0022320E002231EE0CE
:1058400002231CE002231AE0022318E0022316E0E0
:10585000012314E0012312E0012310E001230EE0F4
:1058600001230CE000230AE0002308E0002306E007
:10587000002304E0002302E0000401400023BB6198
:10588000FB685B79002B00F0C780FB685B79012B1C
:1058900000F0C080FB685B79022B00F0B980FB68E8
:1058A0005B79032B00F0B280FB685B79042B00F07E
:1058B000AB80FB685B79052B00F0A480FB685B790B
:1058C000062B00F09D80FB685B79072B00F096802B
:1058D000FB685B79082B00F08F80FB685B79092BF4
:1058E00000F08880FB685B790A2B00F08180FB6800
:1058F0005B790B2B7AD0FB685B790C2B74D0FB683F
:105900005B790D2B6ED0FB685B790E2B68D0FB6842
:105910005B790F2B62D0FB685B79102B5CD0FB6846
:105920005B79112B56D0FB685B79122B50D0FB684A
:105930005B79132B4AD0FB685B79142B44D0FB684E
:105940005B79152B3ED0FB685B79162B38D0FB6852
:105950005B79172B32D0FB685B79182B2CD0FB6856
:105960005B79192B26D0FB685B791A2B20D0FB685A
:105970005B791B2B1AD0FB685B791C2B14D0FB685E
:105980005B791D2B0ED0FB685B791E2B08D0FB6862
:105990005B791F2B01D100233FE04FF0FF333CE048
:1059A00005233AE0052338E0052336E0052334E0FB
:1059B000052332E0052330E005232EE005232CE00B
:1059C00003232AE0032328E0032326E0032324E023
:1059D000032322E0032320E003231EE002231CE034
:1059E00002231AE0022318E0022316E0022314E047
:1059F000022312E0012310E001230EE001230CE05A
:105A000001230AE0012308E0002306E0002304E06C
:105A1000002302E0002300E000237B61FB689B7908
:105A2000002B00F0C780FB689B79012B00F0C08041
:105A3000FB689B79022B00F0B980FB689B79032BF4
:105A400000F0B280FB689B79042B00F0AB80FB6810
:105A50009B79052B00F0A480FB689B79062B00F056
:105A60009D80FB689B79072B00F09680FB689B79F3
:105A7000082B00F08F80FB689B79092B00F0888051
:105A8000FB689B790A2B00F08180FB689B790B2BCC
:105A90007AD0FB689B790C2B74D0FB689B790D2B1B
:105AA0006ED0FB689B790E2B68D0FB689B790F2B1F
:105AB00062D0FB689B79102B5CD0FB689B79112B23
:105AC00056D0FB689B79122B50D0FB689B79132B27
:105AD0004AD0FB689B79142B44D0FB689B79152B2B
