:1000000000000420C56A0000F16A0000F16A0000E7
:10001000F16A0000F16A0000F16A0000F16A000074
:10002000F16A0000F16A0000F16A0000F16A000064
:10003000F16A0000F16A0000F16A0000F16A000054
:10004000F5670000F16A0000F16A0000F16A000043
:10005000F16A0000F16A0000F16A0000F16A000034
:10006000F16A0000611C0000112000008D6A000090
:10007000F16A0000F16A0000F16A00004903000023
:10008000F16A0000F16A00003920000065160000E6
:10009000F16A0000F16A0000F16A0000F16A0000F4
:1000A000F16A0000F16A0000F16A0000F16A0000E4
:1000B000F16A0000F16A0000BD260000F16A00004C
:1000C000F16A0000F16A0000F16A0000F16A0000C4
:1000D000F16A0000F16A0000F16A0000F16A0000B4
:1000E000F16A0000F16A0000F16A0000F16A0000A4
:1000F000F16A0000F16A0000F16A0000F16A000094
:10010000F16A0000F16A0000F16A000010B5054CC8
:10011000237833B9044B13B10448AFF300800123B3
:10012000237010BD280200200000000090F40000A1
:1001300008B5034B1BB103490348AFF3008008BD6A
:10014000000000002C02002090F40000154B002B52
:1001500008BF134B9D46A3F5803A00218B460F46FE
:100160001348144A121A0BF0A4F80F4B002B00D0BE
:1001700098470E4B002B00D0984700200021040028
:100180000D000D48002802D00C48AFF300800BF0A2
:1001900061F82000290001F001FB0BF047F800BFD7
:1001A0000000080000000420000000000000000023
:1001B00028020020CCD7032000000000000000002F
:1001C00080B483B000AF0346FB7197F9073003F0AA
:1001D0001F02074997F907305B09012000FA02F274
:1001E00041F8232000BF0C37BD465DF8047B704703
:1001F00000E100E080B483B000AF78607B68DB6C26
:1002000018460C37BD465DF8047B704780B483B058
:1002100000AF786039607B683A681A6400BF0C37B9
:10022000BD465DF8047B704780B483B000AF786052
:1002300039607B685A6C3B681A437B685A6400BF1C
:100240000C37BD465DF8047B704780B483B000AFC7
:1002500078600B46FB70FA787B689A6000BF0C37B9
:10026000BD465DF8047B704780B588B000AF0121C2
:10027000314807F027FA00233B7600237B761F23C3
:10028000BB760023FB7600233B7700237B773B463E
:1002900000221A605A609A60DA601A615A614FF05F
:1002A000FF337B6043F6E413FB60002006F068FF39
:1002B0000346BB760021214806F02AFF0346FB7661
:1002C00007F1180319461E4806F0EEFD0223BB7025
:1002D00005237B700123FB743B46682200211846EE
:1002E00006F044FE3B4669220021184606F03EFE19
:1002F0003B466A220021184606F038FE3B466B2238
:100300000021184606F032FE0E4B00221A703B46C2
:1003100019460B4806F076FE02210948FFF784FFD4
:100320000F20FFF74DFF04210548FFF78EFF00BFA8
:100330002037BD4680BD00BF00D20400A08601006A
:10034000002000404402002098B500AF022113486D
:10035000FFF75CFF124B1B781C461048FFF74AFF63
:100360000246104B43F824200D4B1B781A460E4BC7
:10037000012199540A4B1B78022B06D8084B1B7895
:100380000133DAB2064B1A7005E0054B00221A70F1
:10039000064B01221A7000BF98BD00BF002000402C
:1003A000440200204C020020480200205D02002090
:1003B00080B485B000AF78600023FB737B680022B7
:1003C0001A707B6800229A707B6803F56B3303F226
:1003D000F62300221A707B6803F56B3303F2F723D0
:1003E00000221A707B6803F56B3303F53E7300221D
:1003F0001A707B6803F50053153300221A707B686E
:1004000003F50053143300221A707B6803F5805300
:100410000D3300221A707B6803F580530C330022E1
:100420001A700023FB73FB7B0F2B0DD8FB7B7A68C4
:10043000DB02134403F54B3303F2F62300221A7058
:10044000FB7B0133FB73EEE700BF1437BD465DF85D
:10045000047B704780B582B000AF78607B6803F59D
:100460006B3303F53E731B78002B03D07B680122AE
:100470005A7102E07B6800225A717B681B78052B59
:1004800000F2168101A252F823F000BFA50400007B
:10049000DB040000E30400007B05000013060000FD
:1004A000A90600007B685B79002B03D07B680422DF
:1004B0001A7006E1786800F009F90346002B14BFB2
:1004C00001230023DBB2002B03D07B6801221A70CA
:1004D000F7E07B6800221A70F3E0786800F020F9FA
:1004E000EFE07B6803F5005314331B78002B14D026
:1004F00008F080FD0346002BCCBF01230023DBB2B4
:10050000002B00F0D9807B6803F5005314330022E0
:100510001A707B6800221A70CEE07B6803F5805366
:100520000E3301221A70786800F03CF97B6803F5FD
:1005300080520E327B6803F5005310331B689BB268
:100540001946104608F0F6FC0346002BCCBF0123E9
:100550000023DBB2002B06D07B6803F50053143375
:1005600001221A7005E07B6803F500531433002262
:100570001A707B6802221A709EE07B6803F50053B4
:1005800014331B78002B14D008F034FD0346002BE5
:10059000CCBF01230023DBB2002B00F08F807B68EF
:1005A00003F50053143300221A707B6800221A707E
:1005B00084E07B6803F580530E3300221A7078685C
:1005C00000F0E2F97B6803F580520E327B6803F598
:1005D000005310331B689BB21946104608F0AAFC62
:1005E0000346002BCCBF01230023DBB2002B06D037
:1005F0007B6803F50053143301221A7005E07B6811
:1006000003F50053143300221A707B6803221A701A
:1006100054E07B6803F5005314331B78002B13D090
:1006200008F0E8FC0346002BCCBF01230023DBB21B
:10063000002B45D07B6803F50053143300221A7059
:100640007B6800221A703BE07B6803F580530E3311
:1006500002221A70786800F035F97B6803F5805241
:100660000E327B6803F5005310331B689BB21946AA
:10067000104608F05FFC0346002BCCBF012300238B
:10068000DBB2002B06D07B6803F500531433012244
:100690001A7005E07B6803F50053143300221A70CA
:1006A0007B6804221A700BE07B6800221A7008E055
:1006B0007B6800221A7004E000BF02E000BF00E087
:1006C00000BF00BF0837BD4680BD00BF80B582B007
:1006D00000AF786008F08EFC7B680633184608F09F
:1006E0004FFC02467B6803F5805308331A607B6831
:1006F00003F5805308331B68002B03D108F006FC78
:10070000002309E07B6803F5805308331B68002B46
:1007100001DD012300E0002318460837BD4680BDF7
:1007200080B483B000AF78607B6800221A707B6869
:100730009B790F2B2AD801A252F823F07D070000E5
:100740008507000095070000950700009507000049
:100750009507000095070000950700009507000029
:100760009507000095070000950700009507000019
:100770009507000095070000950700007B6803229D
:100780001A7008E07B6802221A7004E07B6800227D
:100790001A7000E000BF00BF0C37BD465DF8047B57
:1007A000704700BFF0B595B00CAFF861FB6903F579
:1007B00080500F30FB6903F5065328331B6893F80C
:1007C00097309C46FB6903F5065328331B6893F862
:1007D00098309E46FB6903F5065328331B6893F84F
:1007E000C730BB61FB6903F5065328331B6893F8D8
:1007F000C8307B61FB6903F5065328331B6893F807
:10080000F7303B61FB6903F5065328331B6893F807
:10081000F830FB60FB6903F5065328331B6893F837
:100820002731BB60FB6903F5065328331B6893F837
:1008300028317B60FB6903F5065328331B68D3F826
:100840009C50FB6903F5065328331B68D3F8CC6032
:10085000FB6903F506532C331B68D3E90412FB69CB
:1008600003F506532C331B68D3E90A34CDE90A3467
:10087000CDE90812079606957A680592BA6804923F
:10088000FA6803923A6902927A690192BB6900930D
:10089000734662460A490BF099FBFB6903F58053E6
:1008A0000E3318460BF0C4FB03461A46FB6903F5EA
:1008B000005310331A6000BF2437BD46F0BD00BF9F
:1008C000A4F0000080B582B000AF78607B6803F5CB
:1008D00080520F327B6803F56B3303F2F6231B78EB
:1008E000DB0203F54B3303F53C7379680B440633A5
:1008F000194610460BF094FB7B6803F56B3303F24B
:10090000F6231B787A68DB02134403F54B3303F2BA
:10091000F62300221A707B6803F56B3303F2F6238B
:100920001B780E2B08D87B6803F56B3303F2F62394
:100930001B780133DAB200E000227B6803F56B33E9
:1009400003F2F6231A707B6803F56B3303F53E73ED
:100950001B78013BDAB27B6803F56B3303F53E731A
:100960001A707B6803F580530E3318460BF060FB5A
:1009700003461A467B6803F5005310331A6000BF24
:100980000837BD4680BD000080B584B002AF7860F6
:100990007B6803F580500F300023019301230093FF
:1009A000022300220A490BF011FB7B6803F58053F8
:1009B0000F3318460BF03CFB034601331A467B68A5
:1009C00003F5005310331A6000BF0837BD4680BDE1
:1009D000DCF000000EB480B5ADF6140D00AF3B1D89
:1009E000186007F50263C7F80C3807F10C00D7F858
:1009F0000C38D7F81C284FF400610CF0FFF93B1DB0
:100A00001B6803F56B3303F2F7231B783A1DDB02F7
:100A100003F54B3303F53C7312681344063307F1B7
:100A20000C02114618460BF0FBFA3B1D1B6803F540
:100A30006B3303F2F7231B780E2B09D83B1D1B6881
:100A400003F56B3303F2F7231B780133DAB200E0CE
:100A500000223B1D1B6803F56B3303F2F7231A706A
:100A60003B1D1B6803F56B3303F53E731B780133A5
:100A7000DAB23B1D1B6803F56B3303F53E731A7046
:100A800000BF07F61407BD46BDE8804003B07047BD
:100A900080B500AF002304220A21032008F0EEF8FD
:100AA000012302220921032008F0E8F80023022292
:100AB0000A21022008F0E2F8002302220B21032081
:100AC00008F0DCF8002302220921002008F0D6F803
:100AD000002302220821002008F0D0F8002302227F
:100AE0000721002008F0CAF8002302220621002076
:100AF00008F0C4F8002302220B21022008F0BEF8FF
:100B0000002302220921022008F0B8F80023042261
:100B100002210A2008F0B2F8002304220721052050
:100B200008F0ACF8002300220021002008F0A6F80D
:100B3000002300220121002008F0A0F80023002259
:100B40000221002008F09AF800230022032100204F
:100B500008F094F8002304220A21012008F08EF8FE
:100B6000002304220B21012008F088F8002304222E
:100B70000C21012008F082F8002304220D2101201D
:100B800008F07CF8012304220021082008F076F800
:100B9000002304220821052008F070F80023042215
:100BA0000021052008F06AF8002304220421022015
:100BB00008F064F8002304220521022008F05EF802
:100BC000012304220121082008F058F80023042200
:100BD0000921052008F052F80023042201210520F4
:100BE00008F04CF8002304220621022008F046F801
:100BF000002304220721022008F040F801230422E8
:100C00000221082008F03AF8002304220A210520D6
:100C100008F034F8002304220221052008F02EF801
:100C2000002304220821022008F028F800230422CF
:100C30000921012008F022F80123042203210820C1
:100C400008F01CF8002304220B21052008F016F8F8
:100C5000002304220321052008F010F800230422B9
:100C60000E21032008F00AF8002304220F2103209C
:100C700008F004F8012304220E21092007F0FEFFEA
:100C8000002304220C21052007F0F8FF0023042292
:100C90000421052007F0F2FF002304220C21032089
:100CA00007F0ECFF002304220D21032007F0E6FFEC
:100CB000012304220F21092007F0E0FF0023042272
:100CC0000D21052007F0DAFF00230422052105206D
:100CD00007F0D4FF002304220421002007F0CEFFF8
:100CE000002304220521002007F0C8FF012304226D
:100CF0000F21052007F0C2FF002304220E2105204A
:100D000007F0BCFF002304220621052007F0B6FFF0
:100D10000023042200210A2007F0B0FF0023042250
:100D200001210A2007F0AAFF00BF80BD80B584B072
:100D300000AF78600023FB607B6803F54B3303F55D
:100D40003D7300221A807B6803F54B3303F2F223D4
:100D500000221A807B6803F54B3303F53C730022B5
:100D60001A800023FB60FB68B3F5F97F10D8FB689D
:100D70004FF4C87202FB03F303F5065330337A686D
:100D80001344184600F008F8FB680133FB60EAE7FB
:100D900000BF1037BD4680BD90B482B000AF786010
:100DA0007B6800221A707B6800221A747A684FF000
:100DB00000034FF00004C2E9023400BF0837BD460B
:100DC00090BC704780B485B000AF786039607B68B4
:100DD00003F10473DA003B6813449B00FB60FB687B
:100DE0001B6818461437BD465DF8047B704780B415
:100DF00085B000AF786039607B6803F1C063FB6049
:100E0000FB683A681A6000BF1437BD465DF8047B82
:100E1000704780B582B000AF03463960FB71FB7943
:100E20001A4613465B0013441B011C3303F1804335
:100E300003F520433A6811461846FFF7C3FF0346FF
:100E400018460837BD4680BD80B582B000AF034666
:100E50003960FB71FB791A4613465B0013441B0192
:100E60000C3303F1804303F520433A68012101FA72
:100E700002F211461846FFF7BAFF00BF0837BD4619
:100E800080BD000080B582B000AF78607B6805222D
:100E900083F822207B68082283F829207B680822B7
:100EA00083F820207B68002283F827207B680222B9
:100EB00083F823207B68042283F82A207B6802229F
:100EC00083F824207B68052283F82B207B6800228E
:100ED00083F826207B68002283F82D207B6800227F
:100EE00083F825207B68002283F82C207B6805226C
:100EF00083F821207B68002283F828207B68052264
:100F000083F852207B68092283F859207B680822E5
:100F100083F850207B68012283F857207B680222E7
:100F200083F853207B68062283F85A207B680222CC
:100F300083F854207B68072283F85B207B680022BB
:100F400083F856207B68002283F85D207B680022AE
:100F500083F855207B68002283F85C207B6805229B
:100F600083F851207B68012283F858207B68052292
:100F700083F882207B680A2283F889207B68082214
:100F800083F880207B68022283F887207B68022216
:100F900083F883207B68082283F88A207B680122FB
:100FA00083F884207B68092283F88B207B680022E9
:100FB00083F886207B68002283F88D207B680022DE
:100FC00083F885207B68002283F88C207B680522CB
:100FD00083F881207B68022283F888207B680522C1
:100FE00083F8B2207B680B2283F8B9207B68082243
:100FF00083F8B0207B68032283F8B7207B68032244
:1010000083F8B3207B680E2283F8BA207B68032222
:1010100083F8B4207B680F2283F8BB207B6803220F
:1010200083F8B6207B680B2283F8BD207B68022200
:1010300083F8B5207B680A2283F8BC207B680522F0
:1010400083F8B1207B68032283F8B8207B680522EF
:1010500083F8E2207B680C2283F8E9207B68092270
:1010600083F8E0207B680E2283F8E7207B68032268
:1010700083F8E3207B680C2283F8EA207B68032254
:1010800083F8E4207B680D2283F8EB207B68002244
:1010900083F8E6207B68082283F8ED207B68002235
:1010A00083F8E5207B68092283F8EC207B68052221
:1010B00083F8E1207B68042283F8E8207B6805221E
:1010C00083F812217B680D2283F819217B6809229D
:1010D00083F810217B680F2283F817217B68002298
:1010E00083F813217B68042283F81A217B6800228D
:1010F00083F814217B68052283F81B217B6800227A
:1011000083F816217B68062283F81D217B68002264
:1011100083F815217B68072283F81C217B68052250
:1011200083F811217B68052283F818217B6805224A
:1011300083F842217B680E2283F849217B680522CF
:1011400083F840217B680F2283F847217B680A22BD
:1011500083F843217B68002283F84A217B680A22B6
:1011600083F844217B68012283F84B217B680222AB
:1011700083F846217B68092283F84D217B6802228F
:1011800083F845217B680B2283F84C217B6805227C
:1011900083F841217B68062283F848217B68164941
:1011A000184600F037F87B6830331449184600F0D1
:1011B00031F87B6860331249184600F02BF87B68E1
:1011C00090331049184600F025F87B68C0330E496B
:1011D000184600F01FF87B68F0330C49184600F001
:1011E00019F87B6803F590730949184600F012F866
:1011F00000BF0837BD4680BD08F100000CF10000BB
:1012000014F100001CF1000024F100002CF100009A
:1012100034F1000080B582B000AF78603960786842
:1012200000F027F87B6800225A727B6842F2107245
:10123000DA607B6800225A707B6800229A707868B6
:1012400000F02CF87B6842F210721A617B68002271
:101250005A617B680022DA707B6800221A717B6811
:101260001833396818460AF0DBFE00BF0837BD4660
:1012700080BD80B582B000AF78607B6893F8202095
:101280007B6893F8273019461046FFF7DDFD7B6831
:1012900000221A7000BF0837BD4680BD80B582B0FD
:1012A00000AF78607B6893F825207B6893F82C303A
:1012B00019461046FFF7ADFD0346002B14BF01236E
:1012C0000023DBB2002B03D07B680022DA7102E03E
:1012D0007B680122DA717B6893F826207B6893F89B
:1012E0002D3019461046FFF794FD0346002B14BF1E
:1012F00001230023DBB2002B03D07B6800221A728B
:1013000002E07B6801221A7200BF0837BD4680BD2B
:1013100080B485B000AF786039607B6803F10473F6
:10132000DA003B6813449B00FB60FB681B681846AF
:101330001437BD465DF8047B704780B485B000AFBC
:10134000786039607B6803F1C063FB60FB683A68D2
:101350001A6000BF1437BD465DF8047B704780B447
:1013600085B000AF786039607B6803F18063FB6013
:10137000FB683A681A6000BF1437BD465DF8047B0D
:10138000704780B582B000AF03463960FB71FB79CE
:101390001A4613465B0013441B011C3303F18043C0
:1013A00003F520433A6811461846FFF7B1FF03469C
:1013B00018460837BD4680BD80B582B000AF0346F1
:1013C0003960FB71FB791A4613465B0013441B011D
:1013D0000C3303F1804303F520433A68012101FAFD
:1013E00002F211461846FFF7BAFF00BF0837BD46A4
:1013F00080BD80B582B000AF03463960FB71FB79D8
:101400001A4613465B0013441B010C3303F180435F
:1014100003F520433A68012101FA02F21146184609
:10142000FFF78BFF00BF0837BD4680BD80B584B095
:1014300000AFF860B9607A607B689BB219460348D8
:1014400007F044FD00BF1037BD4680BDB802002044
:1014500080B500AF09210320FFF793FF0346DBB2FD
:10146000184680BD80B500AF0A210320FFF7C1FFF9
:1014700000BF80BD80B500AF0A210320FFF79CFFAD
:1014800000BF80BD80B586B002AF78600B467B8020
:101490000023FB607B88072B02D80123FB6004E05C
:1014A0007B88FA2B01D90123FB607B881A46796877
:1014B0000E4809F0F3FE0E4B18687A88002301935A
:1014C0000C4B009313460C4A084901F01BFD0346E0
:1014D000FB60FB68002B02D10123FB6001E00023CD
:1014E000FB60002318461037BD4680BDB8030020BE
:1014F000000000202D140000B802002080B500AFCD
:101500000B4B0A229A710A4B1D22DA71084B0A22F0
:101510005A71074B0A221A71054B58221A61054B62
:101520001B680349184601F079FB00BF80BD00BF6E
:10153000040000200000002080B483B000AF034608
:10154000FB7197F9073003F01F02074997F907303D
:101550005B09012000FA02F241F8232000BF0C379A
:10156000BD465DF8047B704700E100E080B483B0C5
:1015700000AF78607B68094A934203D07B68084AD1
:10158000934202D14FF0FF3301E04FF6FF7318464C
:101590000C37BD465DF8047B704700BF00A00140DA
:1015A00000A4014080B483B000AF786039607B68EC
:1015B0003A685A6100BF0C37BD465DF8047B70473E
:1015C00080B483B000AF786039607B689A693B680B
:1015D0001A437B689A6100BF0C37BD465DF8047BF7
:1015E000704780B582B000AF786039607868FFF7E7
:1015F000BDFF7B683A68DA6100BF0837BD4680BD31
:1016000080B582B000AF786000F004F800BF083702
:10161000BD4680BD80B584B000AF01210F4806F003
:1016200051F84FF47A710E48FFF7DBFF3B4600227A
:101630001A605A609A601A7301233B7001210848AE
:10164000FFF7BEFF1320FFF777FF3B46194604481C
:1016500007F002F900BF1037BD4680BD001204003C
:101660000084014080B500AF01210448FFF79AFFD4
:10167000034B01221A7000BF80BD00BF00840140EF
:101680005C02002080B400AF044BDB6C1B0EDBB2AD
:101690001846BD465DF8047B704700BFB081E00F7F
:1016A00080B582B000AFFFF7EDFF0346FB71FB7919
:1016B000002B0CD1104B4AF6E8521A600F4B1B68F6
:1016C0000E4A43F0040313600B4B00221A60FB79AF
:1016D000012B05D80A4B1B68094A43F400531360D9
:1016E000084B1B6A23F44413064A43F4881313621D
:1016F00000BF0837BD4680BD90310E4098310E4086
:1017000064310E4000400E4080B483B000AF78607A
:101710007B6800221A707B6818460C37BD465DF85E
:10172000047B704780B483B000AF78607B68183367
:1017300000221A605A607B6818460C37BD465DF877
:10174000047B704780B582B000AF78607B68184634
:10175000FFF7E8FF7B6830331846FFF7E3FF7B684D
:1017600060331846FFF7DEFF7B6890331846FFF7BB
:10177000D9FF7B68C0331846FFF7D4FF7B68F0338E
:101780001846FFF7CFFF7B6803F590731846FFF705
:10179000C9FF7B6818460837BD4680BD80B5ECB0F0
:1017A00000AF3B461846FFF7CDFFFFF779FF144B1C
:1017B00003F5065328333A461A60114B03F50653D6
:1017C0002C3307F5A8721A600D4B03F50653283326
:1017D0001B68184600F018F8094B03F50653283328
:1017E0001B681946064800F03DF806490448FFF713
:1017F000F1F807F073FC0248FEF72CFEF9E700BF92
:10180000B804002064F1000080B582B000AF7860B9
:1018100000F00EF8FFF772FEFFF73AF9FEF724FD2D
:101820007868FFF7EDFE00BF0837BD4680BD0000B9
:1018300080B500AF0121094805F044FF01210848A7
:1018400005F040FF0421112006F06AF90022002172
:10185000032006F0DBFA00BF80BD00BF4041050059
:1018600000350A0080B582B000AF78603960386812
:10187000FFF708FB7868FFF759FA7868FEF798FDDC
:1018800000BF0837BD4680BD80B582B000AF78602C
:1018900039607B68012B07D13B684FF6FF7293429A
:1018A00002D10348FFF730FF00BF0837BD4680BDB7
:1018B000B804002080B500AF4FF6FF710120FFF79C
:1018C000E3FF80BD80B584B000AF78603960214B04
:1018D0001B7883F00103DBB2002B01D01E4B34E0F8
:1018E0007B68002B01D11D4B2FE006F07DFCB8601A
:1018F0000023FB6022E01A4AFB681B0113440C33EF
:101900001B7883F00103DBB2002B14D0FA687B68EC
:101910001A60134AFB681B0113440C3301221A702E
:101920000F4AFB681B01134400221A60B86806F0D6
:101930006BFC002309E0FB680133FB60FB68072BAD
:10194000D9DDB86806F060FC064B18461037BD4676
:1019500080BD00BFB8B30320028000F0018000F01A
:10196000BCB30320048000F080B584B000AF194BF5
:101970001B687B6000233B7106F036FCB860164B99
:101980001B78002B04D0B86806F03EFC134B1CE01B
:10199000114B01221A70B86806F036FC0023FB6078
:1019A00009E00F4AFB681B0113440C3300221A7034
:1019B000FB680133FB60FB68072BF2DD0423FB713E
:1019C0003B1D184606F05EFD002318461037BD4645
:1019D00080BD00BF78F10000B8B30320038000F0A1
:1019E000BCB3032080B58CB008AFF860B9607A60F2
:1019F0003B60BB6A07937B6A069397F82030059398
:101A0000FB6904933B7E0393002302933B6801939D
:101A10007B680093BB68FA680021002000F08EF913
:101A2000034618461037BD4680BD80B58CB008AF60
:101A3000F860B9607A603B60BB6A07937B6A069383
:101A400097F820300593FB6904933B7E03930023B2
:101A500002933B6801937B680093BB68FA6801219D
:101A6000002000F06BF9034618461037BD4680BDD4
:101A700080B582B000AF7860114B1B7883F0010312
:101A8000DBB2002B01D00F4B16E07B68072B01D98E
:101A90000D4B11E00D4A7B681B0113440C331B787E
:101AA00083F00103DBB2002B01D0094B04E07B681B
:101AB000184606F0CBFD002318460837BD4680BD0A
:101AC000B8B30320028000F0018000F0BCB3032013
:101AD000078000F080B483B000AF786039601A4BA3
:101AE0001B7883F00103DBB2002B01D0174B25E0FC
:101AF0007B68072B02D83B68002B01D1144B1DE0FB
:101B0000144A7B681B0113440C331B7883F00103D8
:101B1000DBB2002B01D0104B10E0104B1B6A0121EF
:101B20007A6801FA02F21340002B03D03B680122CD
:101B30001A7002E03B6800221A70002318460C3726
:101B4000BD465DF8047B7047B8B30320028000F007
:101B5000018000F0BCB30320078000F000200E409D
:101B600080B483B000AF786039601A4B1B7883F083
:101B70000103DBB2002B01D0174B25E07B68072B5C
:101B800002D83B68002B01D1144B1DE0144A7B683E
:101B90001B0113440C331B7883F00103DBB2002BD1
:101BA00001D0104B10E0104B1B6E01217A6801FA36
:101BB00002F21340002B03D03B6801221A7002E0AE
:101BC0003B6800221A70002318460C37BD465DF8AA
:101BD000047B7047B8B30320028000F0018000F05E
:101BE000BCB30320078000F000200E4080B582B017
:101BF00000AF78603960154B1B7883F00103DBB2CE
:101C0000002B01D0124B1DE07B68072B02D83B68EC
:101C1000002B01D10F4B15E00F4A7B681B011344C9
:101C20000C331B7883F00103DBB2002B01D00B4B8C
:101C300008E07B68184606F02DFD03461A463B680F
:101C40001A60002318460837BD4680BDB8B303208C
:101C5000028000F0018000F0BCB30320078000F098
:101C600080B586B000AF324B1B6EFB60304BDB6E35
:101C7000FA681340FB60FB68002B00DAFEE70023E4
:101C80007B6101233B614CE0FA683B691340002B08
:101C900041D0274A3B6993667B691B01254A13445F
:101CA000BB60BB681B68002B35D0BB689B685A1CA7
:101CB000BB689A60BB681B68BA689168BA6852686A
:101CC000786998470346002B14BF01230023DBB239
:101CD00083F00103DBB2FB71FB7903F00103FB71BD
:101CE000BB685B7B012B16D1FB79002B13D0124A0A
:101CF0007B695B01134403F1080213796FF341031D
:101D000013710D4A7B695B01134403F118021379C7
:101D10006FF3410313717B6901337B613B695B00A6
:101D20003B617B69072BAFD900BF1837BD4680BD2B
:101D300000200E40BCB303203CB4032090B58BB010
:101D400000AFBA607B600346FB730B46BB737A4BF4
:101D50001B7883F00103DBB2002B01D0774BE7E067
:101D6000BB68072B0FD8BB6B002B0CD0FB6B002B79
:101D700009D0BB6CB3F5006F05DCFB7B012B04D1F4
:101D80003B6C002B01D16E4BD2E0BB681B016D4A4E
:101D900013447B627B6A1B7B83F00103DBB2002B65
:101DA00001D0694BC4E007F1100300221A605A60A9
:101DB0009A60DA60BB685B01644A13443B62BB7B98
:101DC000002B1DD13B6A1A460023136053609360B9
:101DD000D3603A6A937843F0100393703A6AD378E9
:101DE00043F03003D37097F8443083F00103DBB243
:101DF000002B22D03A6AD37843F00303D3701CE05F
:101E00003B6A1A460023136053609360D3603A6ABA
:101E1000937843F0100393703A6AD37843F0030346
:101E2000D37097F8443083F00103DBB2002B04D069
:101E30003A6AD37843F03003D3707B683B61BB6C64
:101E40009BB2013B9BB2C3F30A0399B23A6A13886F
:101E500061F30E131380BA6B3B6A9A60FA6B3B6AAC
:101E60005A6097F84C3003F00303D9B23A6AD3783A
:101E700061F38303D370FB7B012B3AD13A6A137B66
:101E800043F0010313733A6A137B43F002031373A5
:101E90003A6AD368042161F39F03D3602B4ABB687D
:101EA0005B01134403F110023B6A14460FCB84E834
:101EB0000F00264ABB685B01134403F11802536804
:101EC0006FF0030161F39F0353603A6C1F49BB68D5
:101ED0005B010B4414331A60BB7B012B09D1FA6BF5
:101EE0001A49BB685B010B4418331A603A6C3B6AB1
:101EF0005A603B6D002B07D1FB7B002B04D13A6A63
:101F000093786FF3041393707B6A3A6D1A607B6A5F
:101F10007A6D5A607B6A00229A607B6AFA7B5A73F8
:101F2000BB6807F110013A6A184606F0E5FA00238B
:101F300018462C37BD4690BDB8B30320028000F090
:101F4000018000F0BCB30320078000F03CB4032004
:101F500080B483B000AF7860044A7B68C2F8243450
:101F600000BF0C37BD465DF8047B704700A0004001
:101F700080B483B000AF074BD3F828347B60054BA7
:101F8000D3F81C247B68134018460C37BD465DF817
:101F9000047B704700A0004080B485B000AF78603B
:101FA0007B68FB60FB6893FAA3F3BB60BB68B3FA82
:101FB00083F318461437BD465DF8047B7047000074
:101FC00080B584B000AF786019E07868FFF7E4FF6F
:101FD000F8600122FB6802FA03F3DB431A467B68D0
:101FE00013407B60094AFB6852F82330BB60BB6832
:101FF000002B04D0FB68DAB2BB68104698477B68B8
:10200000002BE2D100BF1037BD4680BD3CB5032098
:1020100080B582B000AFFFF7ABFF024645F25553E3
:1020200013407B607868FFF793FF7868FFF7C8FF7D
:1020300000BF0837BD4680BD80B582B000AFFFF756
:1020400097FF02464AF6AA2313407B607868FFF7A1
:102050007FFF7868FFF7B4FF00BF0837BD4680BD3B
:1020600080B483B000AF0346FB71FB7903F01F021D
:10207000074997F907305B09012000FA02F241F89D
:10208000232000BF0C37BD465DF8047B704700BFBE
:1020900000E100E080B483B000AF0346FB71FB7940
:1020A00003F01F02074997F907305B09012000FA86
:1020B00002F2603341F8232000BF0C37BD465DF8C3
:1020C000047B704700E100E080B485B000AF786029
:1020D0007B68002B03D07B68B3F5004F00BF7B68A3
:1020E000B3FA83F3C3F11F03FB60FB681846143790
:1020F000BD465DF8047B704780B483B000AF786064
:10210000064A7B6804331B01134404331B681846DA
:102110000C37BD465DF8047B704700BF00200440CB
:1021200080B483B000AF78603960074A7B680433BD
:102130001B01134404333A681A6000BF0C37BD46D4
:102140005DF8047B704700BF0020044080B400AFFE
:10215000034B9B681846BD465DF8047B704700BF83
:102160000020044080B483B000AF7860044A7B68EC
:10217000136200BF0C37BD465DF8047B704700BF9B
:102180000020044080B483B000AF7860064B5A6AE8
:102190007B68DB43044913404B6200BF0C37BD46EC
:1021A0005DF8047B704700BF0020044080B483B01A
:1021B00000AF7860054B5A6A04497B6813434B6251
:1021C00000BF0C37BD465DF8047B7047002004401B
:1021D00080B483B000AF064B5B6A7B60044B9A69A6
:1021E0007B68134018460C37BD465DF8047B70478A
:1021F0000020044080B586B000AF786000237B618A
:1022000000233B6105F0F0FFF86002E07B690133D9
:102210007B617B69032B0ADC16497A6913469B00B4
:102220001344DB000B441E331B78002BEED17B697B
:10223000042B02D1104B3B6114E07B68002B0FD0C4
:102240000C497A6913469B001344DB000B441E3390
:1022500001221A707A697B681A6000233B6101E0F1
:10226000064B3B61F86805F0CFFF3B69184618370D
:10227000BD4680BD80B50320011000F0041000F0C1
:1022800080B500AF224B1B78002B01D000233CE02F
:102290001F4B01221A7001211E4805F013FA02217A
:1022A0001D4805F03DFC0820FFF70EFF0346DAB29B
:1022B0001A4B1A7101211A4805F004FA174806F062
:1022C00057FA1849012006F025FA40F2FF70FFF78F
:1022D00059FF40F2FF70FFF745FF134B00229A6051
:1022E0001E20FFF7D7FE1E20FFF7BAFEA022002116
:1022F0000E4808F0DEFF0E4B00221A700D4B002234
:102300001A700D4B00221A600023184680BD00BFD2
:102310002AB6032000250A00050022002000002024
:10232000A00914002C0000200020044080B50320E8
:1023300028B6032029B6032024B6032090B58FB019
:1023400000AFF8607A603B600B46FB7200233B6392
:10235000FB68032B01D9B64B65E105F045FFF86238
:10236000B449FA6813469B001344DB000B441E3348
:102370001B7883F00103DBB2002B04D0F86A05F070
:1023800043FFAD4B4FE17B68002B0BD13B68002B2B
:1023900003D03B68B96CF8689847F86A05F034FFD9
:1023A000002340E1FFF7D2FE7863A249FA681346A2
:1023B0009B001344DB000B4418333A681A607B68B7
:1023C00019464FF000024FF000034FF00004D40311
:1023D00044EA5144CB0313F57A6044F100014FF411
:1023E000FA524FF0000307F013FE03460C4619465D
:1023F0002246904CF86803469B000344DB002344CC
:102400000833C3E90012FB7A012B28D17B684FF413
:102410007A7202FB03F18748FA6813469B00134463
:10242000DB0003440833D3E900341A46F42303FBEA
:1024300002F3CB1A18467F49FA6813469B001344EF
:10244000DB000B44103318607A49FA6813469B008E
:102450001344DB000B4414337A221A6013E07549ED
:10246000FA6813469B001344DB000B440833D3E99E
:102470000012704CF86803469B000344DB002344C1
:102480000833C3E900126B49FA6813469B001344F2
:10249000DB000B440833D3E90034591C44F100023B
:1024A000644CF86803469B000344DB002344C3E903
:1024B00000126049FA6813469B001344DB000B448A
:1024C0001C3301221A705B49FA6813469B001344BF
:1024D000DB000B441F33FA7A1A705649FA68134628
:1024E0009B001344DB000B442033BA6C1A60534B3F
:1024F0001B78002B04D0F86A05F086FE002392E0DA
:102500004F4B1B68B3F1FF3F04D04D4B1B680133A9
:102510004B4A13604B4B1B7883F00103DBB2002B5B
:102520002ED0494A7B6B13600420FFF71BFE414904
:10253000FA6813469B001344DB000B44D3E90034D4
:10254000C7E906346FF064037B617B6919464FF07D
:102550000002D7E90634A24208BF994201D20B46D5
:1025600014463B617A6B3B69134419460120FFF71F
:10257000D7FD0420FFF71AFE324B01221A7045E006
:102580002F4B1B68012B41D12A49FA6813469B0047
:102590001344DB000B441C3300221A700420FFF7A5
:1025A000F1FD294B1B687A6BD31ABB62B86A00F045
:1025B000D7F800F03DFA3B6B002B09D11D49FA68B2
:1025C00013469B001344DB000B441C3301221A709A
:1025D0003B6B01333B63786B00F05CFAFFF7B6FDB1
:1025E0007863194B1B687A6BD31ABB620120FFF723
:1025F00083FD0246144B1B68D31A7B62114B1B7878
:10260000002B03D0BA6A7B6A9A42C7D80C4B1B686E
:10261000002B04D00A4B1B68013B094A1360F86A7F
:1026200005F0F2FD002318463C37BD4690BD00BFC3
:10263000021000F080B50320031000F028B603203C
:1026400024B6032029B6032020B6032080B584B029
:1026500000AF78607B68032B01D9154B23E005F0B0
:10266000C3FDF86013497A6813469B001344DB00EE
:102670000B441E331B7883F00103DBB2002B04D024
:10268000F86805F0C1FD0C4B0DE00A497A68134665
:102690009B001344DB000B441C3300221A70F868C3
:1026A00005F0B2FD002318461037BD4680BD00BFBF
:1026B000021000F080B50320031000F080B586B052
:1026C00000AF05F091FD3861FFF782FDF860FB680F
:1026D00023F005031846FFF745FDFB6803F00403EC
:1026E000002B30D01B4B01221A70FFF72FFD7861B1
:1026F0000420FFF747FD184B1B687A69D31ABB60AB
:10270000B86800F02DF800F093F9786900F0C2F98C
:10271000FFF71CFD7861104B1B687A69D31ABB6008
:102720000120FFF7E9FC02460B4B1B68D31A7B60C4
:102730000A4B1B78002B03D0BA687B689A42D7D823
:10274000044B00221A70386905F05EFD00BF18378F
:10275000BD4680BD28B6032020B6032029B603203D
:10276000F0B587B000AF786000237B6156E1AF49D8
:102770007A6913469B001344DB000B441D3300228F
:102780001A70AA497A6913469B001344DB000B4474
:102790001C331B78002B00F03E81A4497A69134654
:1027A0009B001344DB000B44D3E900347A681146E4
:1027B0004FF00002A24208BF99421AD29B497A699F
:1027C00013469B001344DB000B44D3E900567B689F
:1027D0004FF0000429463246C91A62EB0402934CBA
:1027E000786903469B000344DB002344C3E90012DD
:1027F00011E18E497A6913469B001344DB000B44B8
:102800001F331B78002B0AD188497A6913469B0035
:102810001344DB000B441C3300221A70E6E07B6893
:1028200019464FF00002814C786903469B0003442F
:10283000DB002344D3E900560B4614465B1B64EBD4
:102840000604C7E9023479497A6913469B001344A8
:10285000DB000B440833D3E9004574497A69134619
:102860009B001344DB000B440833D3E90023D7E972
:10287000020107F0CDFBA41A65EB030521462A46A9
:102880006A4C786903469B000344DB002344C3E998
:10289000001266497A6913469B001344DB000B441F
:1028A00010331B68002B50DD60497A6913469B008A
:1028B0001344DB000B44143319685C487A691346EF
:1028C0009B001344DB00034410331B681944574832
:1028D0007A6913469B001344DB00034414331960E8
:1028E00052497A6913469B001344DB000B441433AE
:1028F0001B68F32B7AD94D497A6913469B00134420
:10290000DB000B44D3E90034591C44F10002474C6E
:10291000786903469B000344DB002344C3E90012AB
:1029200042497A6913469B001344DB000B4414337D
:102930001B68A3F1F4013D487A6913469B001344D8
:10294000DB0003441433196050E038497A691346B8
:102950009B001344DB000B441433196833487A6935
:1029600013469B001344DB00034410331B68C91A51
:102970002E487A6913469B001344DB00034414334A
:1029800019602A497A6913469B001344DB000B4403
:1029900014331B68F32B29D924497A6913469B0009
:1029A0001344DB000B44D3E9003413F1FF3144F14D
:1029B000FF321E4C786903469B000344DB0023442E
:1029C000C3E9001219497A6913469B001344DB00DE
:1029D0000B4414331B68A3F1F40114487A691346BD
:1029E0009B001344DB000344143319600F497A69D8
:1029F00013469B001344DB000B4418331B68002B69
:102A000009D00A497A6913469B001344DB000B4442
:102A10001D3301221A707B6901337B617B69032BB3
:102A20007FF7A5AE00BF1C37BD46F0BD80B50320C3
:102A300090B583B000AF00237B6022E014497A6830
:102A400013469B001344DB000B441D331B78002B03
:102A500014D00F497A6813469B001344DB000B44E3
:102A600018331C6878680A497A6813469B00134437
:102A7000DB000B4420331B681946A0477B680133F9
:102A80007B607B68032BD9DD00BF0C37BD4690BD52
:102A900080B5032090B58BB000AF78604FF0FF3366
:102AA0004FF0FF34C7E9063400237B6227E0314949
:102AB0007A6A13469B001344DB000B441C331B78DB
:102AC000002B19D02B497A6A13469B001344DB0074
:102AD0000B44D3E90012D7E90634A24208BF994259
:102AE0000AD224497A6A13469B001344DB000B4444
:102AF000D3E90034C7E906347B6A01337B627B6A21
:102B0000032BD4DD1C4B00221A70D7E90634B4F134
:102B1000FF3F08BFB3F1FF3F27D0D7E90634C7E92D
:102B200004346FF06403FB60FB6819464FF0000249
:102B3000D7E90434A24208BF994201D20B46144699
:102B4000C7E906340D4A7B6813600420FFF70AFBCF
:102B5000BA697B68134419460120FFF7E1FA064B76
:102B600001221A700420FFF721FB00BF2C37BD465D
:102B700090BD00BF80B5032029B6032020B60320F6
:102B800080B485B000AF786039607B6803F104736E
:102B9000DA003B6813449B00FB60FB681B68184627
:102BA0001437BD465DF8047B704780B582B000AF36
:102BB00003463960FB71FB79002B1CD0FB79012B9C
:102BC00019D0FB79022B16D0FB79032B13D0FB799C
:102BD000042B10D0FB79052B0DD0FB79062B0AD0E6
:102BE000FB79072B07D0FB79082B04D0FB79092B45
:102BF00001D0FB790A2BFA7913465B0013441B01C1
:102C00001C3303F1804303F5204339681846FFF76E
:102C1000B7FF034618460837BD4680BDB0B58AB039
:102C200000AF78603960A04B07F108041D460FCD56
:102C30000FC495E8030084E803007B68002B01D1F2
:102C40009A4B5AE13B68002B01D1994B55E1582230
:102C50000021786808F02DFB3B681B68954A934279
:102C60000AD17B68944ADA647B68944A5A627B682A
:102C70004FF440229A6231E03B681B68904A9342CD
:102C80000AD17B688F4ADA647B688F4A5A627B6814
:102C90004FF450229A6221E03B681B688B4A9342B2
:102CA0000AD17B688A4ADA647B688A4A5A627B68FE
:102CB0004FF460229A6211E03B681B68864A934297
:102CC0000AD17B68854ADA647B68854A5A627B68E8
:102CD0004FF470229A6201E0754B0EE17A683B680E
:102CE00014461D460FCD0FC495E8070084E8070081
:102CF0003B685B7D012B01D10123BB753B689B7D4C
:102D0000002B02D100233B8319E03B689B7D012B04
:102D100003D14FF400733B8311E03B689B7D022B92
:102D200003D14FF480733B8309E03B689B7D032B09
:102D300003D14FF440733B8301E05D4BDDE03B6822
:102D40001B7D012B05D100237B754FF47A733B610A
:102D500002E03B689B683B610121624804F0B2FCE1
:102D60000121614804F0AEFC7B68DB6C0121184650
:102D700004F0A8FC3B681B6807F1080211461846DE
:102D800005F0F8FD3B681B7D002B0BD13B68DB7D1C
:102D9000002B07D13B681B681A683B681B6842F42C
:102DA00080321A603B68DB7D002B1CD13B681B68BE
:102DB0000F225A673B681B689B6F03F0E0333A6849
:102DC0001279120213433A68527913433A6892799E
:102DD00012061A433B68DB791B0419463B681B68E3
:102DE0000A439A6719E03B681B680B225A673B68E5
:102DF0001B689B6F23F01F2323F01F033A6812798F
:102E0000120213433A6852791A433B689B791B06B6
:102E100019463B681B680A439A670121786800F0ED
:102E2000BBF878627B6A002B01D07B6A65E005F015
:102E3000DBF938622D4B1B7883F00103DBB2002BEA
:102E400008D02A4B01221A70386A05F0DDF9FFF725
:102E500017FA02E0386A05F0D7F93B681B7D012BB1
:102E600009D17B6854331846FFF7C4F90346002B99
:102E700001D01F4B41E0FEF777FD7B681C3300213A
:102E80001846FEF71FFD0346002B01D0194B34E016
:102E90007B68203300211846FEF714FD0346002B03
:102EA0002AD0144B29E000BF7CF10000012000F083
:102EB000022000F0000001400042040001000C006C
:102EC000000401400052040001000D000008014010
:102ED0000062040001000E00000C014000720400BA
:102EE00001000F004041050000350A002BB6032009
:102EF000042000F0092000F0002318462837BD46C2
:102F0000B0BD00BF80B588B002AFF860B9607A602C
:102F10003B60FB681B7D002B01D11C4B31E03A6804
:102F2000B968F86803F0C0FB78617B69002B01D0B9
:102F30007B6926E07B68002B01D1154B21E07B6A81
:102F4000002B08D0FB68586D7A6AFB680093114B20
:102F50000021FFF7F3F9FB681B7E012B08D1F8680D
:102F600003F0DAFB78617B69002B01D07B6908E014
:102F70003B6A00933B687A68B968F86803F036FBEF
:102F8000002318461837BD4680BD00BF082000F05A
:102F9000022000F04165000080B58AB000AF786083
:102FA0000B46FB707B68FB607B681B68674A93423B
:102FB00040F07686FB681B79002B00F0C980FB6827
:102FC0001B79012B00F0C080FB681B79022B00F0FD
:102FD000B980FB681B79032B00F0B280FB681B797A
:102FE000042B00F0AB80FB681B79052B00F0A4805C
:102FF000FB681B79062B00F09D80FB681B79072B73
:1030000000F09680FB681B79082B00F08F80FB682E
:103010001B79092B00F08880FB681B790A2B00F0D4
:103020008180FB681B790B2B7AD0FB681B790C2BFA
:1030300074D0FB681B790D2B6ED0FB681B790E2BAF
:1030400068D0FB681B790F2B62D0FB681B79102BB3
:103050005CD0FB681B79112B56D0FB681B79122BB7
:1030600050D0FB681B79132B4AD0FB681B79142BBB
:1030700044D0FB681B79152B3ED0FB681B79162BBF
:1030800038D0FB681B79172B32D0FB681B79182BC3
:103090002CD0FB681B79192B26D0FB681B791A2BC7
:1030A00020D0FB681B791B2B1AD0FB681B791C2BCB
:1030B00014D0FB681B791D2B0ED0FB681B791E2BCF
:1030C00008D0FB681B791F2B01D1052341E04FF08D
:1030D000FF333EE005233CE005233AE0052338E0DA
:1030E000052336E0052334E0052332E0052330E0F4
:1030F00003232EE003232CE003232AE0032328E00C
:10310000032326E0032324E0032322E0022320E01C
:1031100002231EE002231CE002231AE0022318E02F
:10312000022316E0012314E0012312E0012310E042
:1031300001230EE001230CE000230AE0002308E055
:10314000002306E0002304E0002302E00000014029
:103150000023BB61FB685B79002B00F0C780FB6834
:103160005B79012B00F0C080FB685B79022B00F0DB
:10317000B980FB685B79032B00F0B280FB685B7958
:10318000042B00F0AB80FB685B79052B00F0A4807A
:10319000FB685B79062B00F09D80FB685B79072B51
:1031A00000F09680FB685B79082B00F08F80FB684D
:1031B0005B79092B00F08880FB685B790A2B00F0B3
:1031C0008180FB685B790B2B7AD0FB685B790C2BD9
:1031D00074D0FB685B790D2B6ED0FB685B790E2B8E
:1031E00068D0FB685B790F2B62D0FB685B79102B92
:1031F0005CD0FB685B79112B56D0FB685B79122B96
:1032000050D0FB685B79132B4AD0FB685B79142B99
:1032100044D0FB685B79152B3ED0FB685B79162B9D
:1032200038D0FB685B79172B32D0FB685B79182BA1
:103230002CD0FB685B79192B26D0FB685B791A2BA5
:1032400020D0FB685B791B2B1AD0FB685B791C2BA9
:1032500014D0FB685B791D2B0ED0FB685B791E2BAD
:1032600008D0FB685B791F2B01D100233FE04FF0B2
:10327000FF333CE005233AE0052338E0052336E040
:10328000052334E0052332E0052330E005232EE05A
:1032900005232CE003232AE0032328E0032326E070
:1032A000032324E0032322E0032320E003231EE082
:1032B00002231CE002231AE0022318E0022316E096
:1032C000022314E0022312E0012310E001230EE0A8
:1032D00001230CE001230AE0012308E0002306E0BB
:1032E000002304E0002302E0002300E000237B61D0
:1032F000FB689B79002B00F0C780FB689B79012B52
:1033000000F0C080FB689B79022B00F0B980FB685D
:103310009B79032B00F0B280FB689B79042B00F0B3
:10332000AB80FB689B79052B00F0A480FB689B7940
:10333000062B00F09D80FB689B79072B00F09680A0
:10334000FB689B79082B00F08F80FB689B79092B29
:1033500000F08880FB689B790A2B00F08180FB6875
:103360009B790B2B7AD0FB689B790C2B74D0FB6874
:103370009B790D2B6ED0FB689B790E2B68D0FB6878
:103380009B790F2B62D0FB689B79102B5CD0FB687C
:103390009B79112B56D0FB689B79122B50D0FB6880
:1033A0009B79132B4AD0FB689B79142B44D0FB6884
:1033B0009B79152B3ED0FB689B79162B38D0FB6888
:1033C0009B79172B32D0FB689B79182B2CD0FB688C
:1033D0009B79192B26D0FB689B791A2B20D0FB6890
:1033E0009B791B2B1AD0FB689B791C2B14D0FB6894
:1033F0009B791D2B0ED0FB689B791E2B08D0FB6898
:103400009B791F2B01D100233FE04FF0FF333CE0BD
:1034100000233AE0052338E0052336E0052334E0B5
:10342000052332E0052330E005232EE005232CE0C0
:1034300005232AE0032328E0032326E0032324E0D6
:10344000032322E0032320E003231EE003231CE0E8
:1034500002231AE0022318E0022316E0022314E0FC
:10346000022312E0022310E001230EE001230CE00E
:1034700001230AE0012308E0012306E0002304E021
:10348000002302E0002300E000233B61FB68DB79BE
:10349000002B00F0C780FB68DB79012B00F0C080B7
:1034A000FB68DB79022B00F0B980FB68DB79032B2A
:1034B00000F0B280FB68DB79042B00F0AB80FB6886
:1034C000DB79052B00F0A480FB68DB79062B00F08C
:1034D0009D80FB68DB79072B00F09680FB68DB7929
:1034E000082B00F08F80FB68DB79092B00F08880C7
:1034F000FB68DB790A2B00F08180FB68DB790B2B02
:103500007AD0FB68DB790C2B74D0FB68DB790D2B50
:103510006ED0FB68DB790E2B68D0FB68DB790F2B54
:1035200062D0FB68DB79102B5CD0FB68DB79112B58
:1035300056D0FB68DB79122B50D0FB68DB79132B5C
:103540004AD0FB68DB79142B44D0FB68DB79152B60
:103550003ED0FB68DB79162B38D0FB68DB79172B64
:1035600032D0FB68DB79182B2CD0FB68DB79192B68
:1035700026D0FB68DB791A2B20D0FB68DB791B2B6C
:103580001AD0FB68DB791C2B14D0FB68DB791D2B70
:103590000ED0FB68DB791E2B08D0FB68DB791F2B74
:1035A00001D100233FE04FF0FF333CE000233AE03D
:1035B000002338E0052336E0052334E0052332E01C
:1035C000052330E005232EE005232CE005232AE027
:1035D000052328E0032326E0032324E0032322E03D
:1035E000032320E003231EE003231CE003231AE04F
:1035F000022318E0022316E0022314E0022312E063
:10360000022310E002230EE001230CE001230AE074
:10361000012308E0012306E0012304E0002302E087
:10362000002300E000237A68D363FB681B79002B3A
:1036300000F0C780FB681B79012B00F0C080FB689D
:103640001B79022B00F0B980FB681B79032B00F07B
:10365000B280FB681B79042B00F0AB80FB681B7900
:10366000052B00F0A480FB681B79062B00F09D80E1
:10367000FB681B79072B00F09680FB681B79082BF1
:1036800000F08F80FB681B79092B00F08880FB68B5
:103690001B790A2B00F08180FB681B790B2B7AD0F9
:1036A000FB681B790C2B74D0FB681B790D2B6ED03B
:1036B000FB681B790E2B68D0FB681B790F2B62D03F
:1036C000FB681B79102B5CD0FB681B79112B56D043
:1036D000FB681B79122B50D0FB681B79132B4AD047
:1036E000FB681B79142B44D0FB681B79152B3ED04B
:1036F000FB681B79162B38D0FB681B79172B32D04F
:10370000FB681B79182B2CD0FB681B79192B26D052
:10371000FB681B791A2B20D0FB681B791B2B1AD056
:10372000FB681B791C2B14D0FB681B791D2B0ED05A
:10373000FB681B791E2B08D0FB681B791F2B01D15E
:1037400007233FE04FF0FF333CE006233AE0052338
:1037500038E0042336E0032334E0022332E001237F
:1037600030E000232EE00F232CE00E232AE00D236F
:1037700028E00C2326E00B2324E00A2322E009237F
:1037800020E00B231EE00A231CE009231AE0082393
:1037900018E0072316E0062314E00F2312E00E239F
:1037A00010E00D230EE00C230CE00B230AE00523B0
:1037B00008E0042306E0032304E0022302E00123DF
:1037C00000E000237B62FB685B79002B00F0C78080
:1037D000FB685B79012B00F0C080FB685B79022BF2
:1037E00000F0B980FB685B79032B00F0B280FB68C6
:1037F0005B79042B00F0AB80FB685B79052B00F054
:10380000A480FB685B79062B00F09D80FB685B79E8
:10381000072B00F09680FB685B79082B00F08F8007
:10382000FB685B79092B00F08880FB685B790A2BC9
:1038300000F08180FB685B790B2B7AD0FB685B79A9
:103840000C2B74D0FB685B790D2B6ED0FB685B7919
:103850000E2B68D0FB685B790F2B62D0FB685B791D
:10386000102B5CD0FB685B79112B56D0FB685B7921
:10387000122B50D0FB685B79132B4AD0FB685B7925
:10388000142B44D0FB685B79152B3ED0FB685B7929
:10389000162B38D0FB685B79172B32D0FB685B792D
:1038A000182B2CD0FB685B79192B26D0FB685B7931
:1038B0001A2B20D0FB685B791B2B1AD0FB685B7935
:1038C0001C2B14D0FB685B791D2B0ED0FB685B7939
:1038D0001E2B08D0FB685B791F2B01D100233FE032
:1038E0004FF0FF333CE007233AE0062338E005239E
:1038F00036E0042334E0032332E0022330E00123E6
:103900002EE000232CE00F232AE00E2328E00D23D5
:1039100026E00C2324E00B2322E00A2320E00923E5
:103920001EE00B231CE00A231AE0092318E00823F9
:1039300016E0072314E0062312E00F2310E00E2305
:103940000EE00D230CE00C230AE00B2308E0052316
:1039500006E0042304E0032302E0022300E0012345
:103960003B62FB689B79002B00F0C780FB689B796A
:10397000012B00F0C080FB689B79022B00F0B9801E
:10398000FB689B79032B00F0B280FB689B79042BCA
:1039900000F0AB80FB689B79052B00F0A480FB68EE
:1039A0009B79062B00F09D80FB689B79072B00F02C
:1039B0009680FB689B79082B00F08F80FB689B79D1
:1039C000092B00F08880FB689B790A2B00F081802E
:1039D000FB689B790B2B7AD0FB689B790C2B74D0FE
:1039E000FB689B790D2B6ED0FB689B790E2B68D002
:1039F000FB689B790F2B62D0FB689B79102B5CD006
:103A0000FB689B79112B56D0FB689B79122B50D009
:103A1000FB689B79132B4AD0FB689B79142B44D00D
:103A2000FB689B79152B3ED0FB689B79162B38D011
:103A3000FB689B79172B32D0FB689B79182B2CD015
:103A4000FB689B79192B26D0FB689B791A2B20D019
:103A5000FB689B791B2B1AD0FB689B791C2B14D01D
:103A6000FB689B791D2B0ED0FB689B791E2B08D021
:103A7000FB689B791F2B01D101233FE04FF0FF33FF
:103A80003CE000233AE0072338E0062336E0052334
:103A900034E0042332E0032330E002232EE001234C
:103AA0002CE000232AE00F2328E00E2326E00D233C
:103AB00024E00C2322E00B2320E00A231EE009234C
:103AC0001CE00B231AE00A2318E0092316E0082360
:103AD00014E0072312E0062310E00F230EE00E236C
:103AE0000CE00D230AE00C2308E00B2306E005237D
:103AF00004E0042302E0032300E00223FB61FB68EF
:103B0000DB79002B00F0C780FB68DB79012B00F02C
:103B1000C080FB68DB79022B00F0B980FB68DB79A1
:103B2000032B00F0B280FB68DB79042B00F0AB8044
:103B3000FB68DB79052B00F0A480FB68DB79062BA2
:103B400000F09D80FB68DB79072B00F09680FB6816
:103B5000DB79082B00F08F80FB68DB79092B00F004
:103B60008880FB68DB790A2B00F08180FB68DB79B9
:103B70000B2B7AD0FB68DB790C2B74D0FB68DB79DC
:103B80000D2B6ED0FB68DB790E2B68D0FB68DB79E0
:103B90000F2B62D0FB68DB79102B5CD0FB68DB79E4
:103BA000112B56D0FB68DB79122B50D0FB68DB79E8
:103BB000132B4AD0FB68DB79142B44D0FB68DB79EC
:103BC000152B3ED0FB68DB79162B38D0FB68DB79F0
:103BD000172B32D0FB68DB79182B2CD0FB68DB79F4
:103BE000192B26D0FB68DB791A2B20D0FB68DB79F8
:103BF0001B2B1AD0FB68DB791C2B14D0FB68DB79FC
:103C00001D2B0ED0FB68DB791E2B08D0FB68DB79FF
:103C10001F2B01D102233FE04FF0FF333CE0012393
:103C20003AE0002338E0072336E0062334E005239A
:103C300032E0042330E003232EE002232CE00123B2
:103C40002AE0002328E00F2326E00E2324E00D23A2
:103C500022E00C2320E00B231EE00A231CE00923B2
:103C60001AE00B2318E00A2316E0092314E00823C6
:103C700012E0072310E006230EE00F230CE00E23D2
:103C80000AE00D2308E00C2306E00B2304E00523E3
:103C900002E0042300E003237A68136402F075BB9A
:103CA0007B681B68674A934240F07686FB681B7905
:103CB000002B00F0C980FB681B79012B00F0C0804D
:103CC000FB681B79022B00F0B980FB681B79032B82
:103CD00000F0B280FB681B79042B00F0AB80FB681E
:103CE0001B79052B00F0A480FB681B79062B00F0E4
:103CF0009D80FB681B79072B00F09680FB681B7981
:103D0000082B00F08F80FB681B79092B00F088805E
:103D1000FB681B790A2B00F08180FB681B790B2B59
:103D20007AD0FB681B790C2B74D0FB681B790D2BA8
:103D30006ED0FB681B790E2B68D0FB681B790F2BAC
:103D400062D0FB681B79102B5CD0FB681B79112BB0
:103D500056D0FB681B79122B50D0FB681B79132BB4
:103D60004AD0FB681B79142B44D0FB681B79152BB8
:103D70003ED0FB681B79162B38D0FB681B79172BBC
:103D800032D0FB681B79182B2CD0FB681B79192BC0
:103D900026D0FB681B791A2B20D0FB681B791B2BC4
:103DA0001AD0FB681B791C2B14D0FB681B791D2BC8
:103DB0000ED0FB681B791E2B08D0FB681B791F2BCC
:103DC00001D1052341E04FF0FF333EE005233CE005
:103DD00005233AE0052338E0052336E0052334E0E7
:103DE000052332E0052330E003232EE003232CE0FB
:103DF00003232AE0032328E0032326E0032324E00F
:103E0000032322E0022320E002231EE002231CE021
:103E100002231AE0022318E0022316E0012314E033
:103E2000012312E0012310E001230EE001230CE046
:103E300000230AE0002308E0002306E0002304E05A
:103E4000002302E0000401400023BB61FB685B79B2
:103E5000002B00F0C780FB685B79012B00F0C0806D
:103E6000FB685B79022B00F0B980FB685B79032B60
:103E700000F0B280FB685B79042B00F0AB80FB683C
:103E80005B79052B00F0A480FB685B79062B00F0C2
:103E90009D80FB685B79072B00F09680FB685B795F
:103EA000082B00F08F80FB685B79092B00F088807D
:103EB000FB685B790A2B00F08180FB685B790B2B38
:103EC0007AD0FB685B790C2B74D0FB685B790D2B87
:103ED0006ED0FB685B790E2B68D0FB685B790F2B8B
:103EE00062D0FB685B79102B5CD0FB685B79112B8F
:103EF00056D0FB685B79122B50D0FB685B79132B93
:103F00004AD0FB685B79142B44D0FB685B79152B96
:103F10003ED0FB685B79162B38D0FB685B79172B9A
:103F200032D0FB685B79182B2CD0FB685B79192B9E
:103F300026D0FB685B791A2B20D0FB685B791B2BA2
:103F40001AD0FB685B791C2B14D0FB685B791D2BA6
:103F50000ED0FB685B791E2B08D0FB685B791F2BAA
:103F600001D100233FE04FF0FF333CE005233AE06E
:103F7000052338E0052336E0052334E0052332E04D
:103F8000052330E005232EE005232CE003232AE05F
:103F9000032328E0032326E0032324E0032322E075
:103FA000032320E003231EE002231CE002231AE087
:103FB000022318E0022316E0022314E0022312E099
:103FC000012310E001230EE001230CE001230AE0AD
:103FD000012308E0002306E0002304E0002302E0C0
:103FE000002300E000237B61FB689B79002B00F03D
:103FF000C780FB689B79012B00F0C080FB689B7930
:10400000022B00F0B980FB689B79032B00F0B28093
:10401000FB689B79042B00F0AB80FB689B79052B38
:1040200000F0A480FB689B79062B00F09D80FB6864
:104030009B79072B00F09680FB689B79082B00F09A
:104040008F80FB689B79092B00F08880FB689B7947
:104050000A2B00F08180FB689B790B2B7AD0FB68E0
:104060009B790C2B74D0FB689B790D2B6ED0FB6871
:104070009B790E2B68D0FB689B790F2B62D0FB6875
:104080009B79102B5CD0FB689B79112B56D0FB6879
:104090009B79122B50D0FB689B79132B4AD0FB687D
:1040A0009B79142B44D0FB689B79152B3ED0FB6881
:1040B0009B79162B38D0FB689B79172B32D0FB6885
:1040C0009B79182B2CD0FB689B79192B26D0FB6889
:1040D0009B791A2B20D0FB689B791B2B1AD0FB688D
:1040E0009B791C2B14D0FB689B791D2B0ED0FB6891
:1040F0009B791E2B08D0FB689B791F2B01D10023D5
:104100003FE04FF0FF333CE000233AE0052338E086
:10411000052336E0052334E0052332E0052330E0B3
:1041200005232EE005232CE005232AE0032328E0C5
:10413000032326E0032324E0032322E0032320E0DB
:1041400003231EE003231CE002231AE0022318E0ED
:10415000022316E0022314E0022312E0022310E0FF
:1041600001230EE001230CE001230AE0012308E013
:10417000012306E0002304E0002302E0002300E026
:1041800000233B61FB68DB79002B00F0C780FB68F4
:10419000DB79012B00F0C080FB68DB79022B00F09B
:1041A000B980FB68DB79032B00F0B280FB68DB7918
:1041B000042B00F0AB80FB68DB79052B00F0A480BA
:1041C000FB68DB79062B00F09D80FB68DB79072B11
:1041D00000F09680FB68DB79082B00F08F80FB688D
:1041E000DB79092B00F08880FB68DB790A2B00F073
:1041F0008180FB68DB790B2B7AD0FB68DB790C2B99
:1042000074D0FB68DB790D2B6ED0FB68DB790E2B4D
:1042100068D0FB68DB790F2B62D0FB68DB79102B51
:104220005CD0FB68DB79112B56D0FB68DB79122B55
:1042300050D0FB68DB79132B4AD0FB68DB79142B59
:1042400044D0FB68DB79152B3ED0FB68DB79162B5D
:1042500038D0FB68DB79172B32D0FB68DB79182B61
:104260002CD0FB68DB79192B26D0FB68DB791A2B65
:1042700020D0FB68DB791B2B1AD0FB68DB791C2B69
:1042800014D0FB68DB791D2B0ED0FB68DB791E2B6D
:1042900008D0FB68DB791F2B01D100233FE04FF0F2
:1042A000FF333CE000233AE0002338E0052336E00A
:1042B000052334E0052332E0052330E005232EE01A
:1042C00005232CE005232AE0052328E0032326E02C
:1042D000032324E0032322E0032320E003231EE042
:1042E00003231CE003231AE0022318E0022316E054
:1042F000022314E0022312E0022310E002230EE066
:1043000001230CE001230AE0012308E0012306E079
:10431000012304E0002302E0002300E000237A6888
:10432000D363FB681B79002B00F0C780FB681B7907
:10433000012B00F0C080FB681B79022B00F0B980D4
:10434000FB681B79032B00F0B280FB681B79042B00
:1043500000F0AB80FB681B79052B00F0A480FB68A4
:104360001B79062B00F09D80FB681B79072B00F062
:104370009680FB681B79082B00F08F80FB681B7907
:10438000092B00F08880FB681B790A2B00F08180E4
:10439000FB681B790B2B7AD0FB681B790C2B74D034
:1043A000FB681B790D2B6ED0FB681B790E2B68D038
:1043B000FB681B790F2B62D0FB681B79102B5CD03C
:1043C000FB681B79112B56D0FB681B79122B50D040
:1043D000FB681B79132B4AD0FB681B79142B44D044
:1043E000FB681B79152B3ED0FB681B79162B38D048
:1043F000FB681B79172B32D0FB681B79182B2CD04C
:10440000FB681B79192B26D0FB681B791A2B20D04F
:10441000FB681B791B2B1AD0FB681B791C2B14D053
:10442000FB681B791D2B0ED0FB681B791E2B08D057
:10443000FB681B791F2B01D107233FE04FF0FF33AF
:104440003CE006233AE0052338E0042336E003236A
:1044500034E0022332E0012330E000232EE00F237A
:104460002CE00E232AE00D2328E00C2326E00B236A
:1044700024E00A2322E0092320E00B231EE00A2384
:104480001CE009231AE0082318E0072316E006239E
:1044900014E00F2312E00E2310E00D230EE00C2396
:1044A0000CE00B230AE0052308E0042306E00323C5
:1044B00004E0022302E0012300E000237B62FB68AA
:1044C0005B79002B00F0C780FB685B79012B00F063
:1044D000C080FB685B79022B00F0B980FB685B79D8
:1044E000032B00F0B280FB685B79042B00F0AB80FB
:1044F000FB685B79052B00F0A480FB685B79062BD9
:1045000000F09D80FB685B79072B00F09680FB68CC
:104510005B79082B00F08F80FB685B79092B00F03A
:104520008880FB685B790A2B00F08180FB685B79EF
:104530000B2B7AD0FB685B790C2B74D0FB685B7912
:104540000D2B6ED0FB685B790E2B68D0FB685B7916
:104550000F2B62D0FB685B79102B5CD0FB685B791A
:10456000112B56D0FB685B79122B50D0FB685B791E
:10457000132B4AD0FB685B79142B44D0FB685B7922
:10458000152B3ED0FB685B79162B38D0FB685B7926
:10459000172B32D0FB685B79182B2CD0FB685B792A
:1045A000192B26D0FB685B791A2B20D0FB685B792E
:1045B0001B2B1AD0FB685B791C2B14D0FB685B7932
:1045C0001D2B0ED0FB685B791E2B08D0FB685B7936
:1045D0001F2B01D100233FE04FF0FF333CE00723C6
:1045E0003AE0062338E0052336E0042334E00323D1
:1045F00032E0022330E001232EE000232CE00F23E1
:104600002AE00E2328E00D2326E00C2324E00B23D0
:1046100022E00A2320E009231EE00B231CE00A23EA
:104620001AE0092318E0082316E0072314E0062304
:1046300012E00F2310E00E230EE00D230CE00C23FC
:104640000AE00B2308E0052306E0042304E003232B
:1046500002E0022300E001233B62FB689B79002B10
:1046600000F0C780FB689B79012B00F0C080FB68DD
:104670009B79022B00F0B980FB689B79032B00F03B
:10468000B280FB689B79042B00F0AB80FB689B79C0
:10469000052B00F0A480FB689B79062B00F09D8021
:1046A000FB689B79072B00F09680FB689B79082BB1
:1046B00000F08F80FB689B79092B00F08880FB68F5
:1046C0009B790A2B00F08180FB689B790B2B7AD0B9
:1046D000FB689B790C2B74D0FB689B790D2B6ED0FB
:1046E000FB689B790E2B68D0FB689B790F2B62D0FF
:1046F000FB689B79102B5CD0FB689B79112B56D003
:10470000FB689B79122B50D0FB689B79132B4AD006
:10471000FB689B79142B44D0FB689B79152B3ED00A
:10472000FB689B79162B38D0FB689B79172B32D00E
:10473000FB689B79182B2CD0FB689B79192B26D012
:10474000FB689B791A2B20D0FB689B791B2B1AD016
:10475000FB689B791C2B14D0FB689B791D2B0ED01A
:10476000FB689B791E2B08D0FB689B791F2B01D11E
:1047700001233FE04FF0FF333CE000233AE0072302
:1047800038E0062336E0052334E0042332E0032337
:1047900030E002232EE001232CE000232AE00F2347
:1047A00028E00E2326E00D2324E00C2322E00B2337
:1047B00020E00A231EE009231CE00B231AE00A2351
:1047C00018E0092316E0082314E0072312E006236B
:1047D00010E00F230EE00E230CE00D230AE00C2363
:1047E00008E00B2306E0052304E0042302E0032392
:1047F00000E00223FB61FB68DB79002B00F0C7803F
:10480000FB68DB79012B00F0C080FB68DB79022BB1
:1048100000F0B980FB68DB79032B00F0B280FB6805
:10482000DB79042B00F0AB80FB68DB79052B00F013
:10483000A480FB68DB79062B00F09D80FB68DB79A8
:10484000072B00F09680FB68DB79082B00F08F8047
:10485000FB68DB79092B00F08880FB68DB790A2B89
:1048600000F08180FB68DB790B2B7AD0FB68DB7969
:104870000C2B74D0FB68DB790D2B6ED0FB68DB79D9
:104880000E2B68D0FB68DB790F2B62D0FB68DB79DD
:10489000102B5CD0FB68DB79112B56D0FB68DB79E1
:1048A000122B50D0FB68DB79132B4AD0FB68DB79E5
:1048B000142B44D0FB68DB79152B3ED0FB68DB79E9
:1048C000162B38D0FB68DB79172B32D0FB68DB79ED
:1048D000182B2CD0FB68DB79192B26D0FB68DB79F1
:1048E0001A2B20D0FB68DB791B2B1AD0FB68DB79F5
:1048F0001C2B14D0FB68DB791D2B0ED0FB68DB79F9
:104900001E2B08D0FB68DB791F2B01D102233FE06F
:104910004FF0FF333CE001233AE0002338E0072367
:1049200036E0062334E0052332E0042330E003239D
:104930002EE002232CE001232AE0002328E00F23AD
:1049400026E00E2324E00D2322E00C2320E00B239D
:104950001EE00A231CE009231AE00B2318E00A23B7
:1049600016E0092314E0082312E0072310E00623D1
:104970000EE00F230CE00E230AE00D2308E00C23C9
:1049800006E00B2304E0052302E0042300E00323F8
:104990007A68136401F0F9BC7B681B68674A93422C
:1049A00040F07686FB681B79002B00F0C980FB681D
:1049B0001B79012B00F0C080FB681B79022B00F0F3
:1049C000B980FB681B79032B00F0B280FB681B7970
:1049D000042B00F0AB80FB681B79052B00F0A48052
:1049E000FB681B79062B00F09D80FB681B79072B69
:1049F00000F09680FB681B79082B00F08F80FB6825
:104A00001B79092B00F08880FB681B790A2B00F0CA
:104A10008180FB681B790B2B7AD0FB681B790C2BF0
:104A200074D0FB681B790D2B6ED0FB681B790E2BA5
:104A300068D0FB681B790F2B62D0FB681B79102BA9
:104A40005CD0FB681B79112B56D0FB681B79122BAD
:104A500050D0FB681B79132B4AD0FB681B79142BB1
:104A600044D0FB681B79152B3ED0FB681B79162BB5
:104A700038D0FB681B79172B32D0FB681B79182BB9
:104A80002CD0FB681B79192B26D0FB681B791A2BBD
:104A900020D0FB681B791B2B1AD0FB681B791C2BC1
:104AA00014D0FB681B791D2B0ED0FB681B791E2BC5
:104AB00008D0FB681B791F2B01D10A2341E04FF07E
:104AC000FF333EE00A233CE00A233AE0052338E0C6
:104AD000052336E0052334E0052332E0052330E0EA
:104AE00005232EE005232CE005232AE0052328E0FA
:104AF000052326E0052324E0052322E0052320E00A
:104B000005231EE005231CE001231AE0012318E021
:104B1000012316E0012314E0012312E0082310E032
:104B200008230EE008230CE008230AE0002308E035
:104B3000002306E0002304E0002302E00008014017
:104B40000023BB61FB685B79002B00F0C780FB682A
:104B50005B79012B00F0C080FB685B79022B00F0D1
:104B6000B980FB685B79032B00F0B280FB685B794E
:104B7000042B00F0AB80FB685B79052B00F0A48070
:104B8000FB685B79062B00F09D80FB685B79072B47
:104B900000F09680FB685B79082B00F08F80FB6843
:104BA0005B79092B00F08880FB685B790A2B00F0A9
:104BB0008180FB685B790B2B7AD0FB685B790C2BCF
:104BC00074D0FB685B790D2B6ED0FB685B790E2B84
:104BD00068D0FB685B790F2B62D0FB685B79102B88
:104BE0005CD0FB685B79112B56D0FB685B79122B8C
:104BF00050D0FB685B79132B4AD0FB685B79142B90
:104C000044D0FB685B79152B3ED0FB685B79162B93
:104C100038D0FB685B79172B32D0FB685B79182B97
:104C20002CD0FB685B79192B26D0FB685B791A2B9B
:104C300020D0FB685B791B2B1AD0FB685B791C2B9F
:104C400014D0FB685B791D2B0ED0FB685B791E2BA3
:104C500008D0FB685B791F2B01D100233FE04FF0A8
:104C6000FF333CE00A233AE00A2338E00A2336E027
:104C7000052334E0052332E0052330E005232EE050
:104C800005232CE005232AE0052328E0052326E060
:104C9000052324E0052322E0052320E005231EE070
:104CA00005231CE005231AE0052318E0012316E084
:104CB000012314E0012312E0012310E001230EE0A0
:104CC00008230CE008230AE0082308E0082306E094
:104CD000002304E0002302E0002300E000237B61C6
:104CE000FB689B79002B00F0C780FB689B79012B48
:104CF00000F0C080FB689B79022B00F0B980FB6854
:104D00009B79032B00F0B280FB689B79042B00F0A9
:104D1000AB80FB689B79052B00F0A480FB689B7936
:104D2000062B00F09D80FB689B79072B00F0968096
:104D3000FB689B79082B00F08F80FB689B79092B1F
:104D400000F08880FB689B790A2B00F08180FB686B
:104D50009B790B2B7AD0FB689B790C2B74D0FB686A
:104D60009B790D2B6ED0FB689B790E2B68D0FB686E
:104D70009B790F2B62D0FB689B79102B5CD0FB6872
:104D80009B79112B56D0FB689B79122B50D0FB6876
:104D90009B79132B4AD0FB689B79142B44D0FB687A
:104DA0009B79152B3ED0FB689B79162B38D0FB687E
:104DB0009B79172B32D0FB689B79182B2CD0FB6882
:104DC0009B79192B26D0FB689B791A2B20D0FB6886
:104DD0009B791B2B1AD0FB689B791C2B14D0FB688A
:104DE0009B791D2B0ED0FB689B791E2B08D0FB688E
:104DF0009B791F2B01D100233FE04FF0FF333CE0B4
:104E000000233AE00A2338E00A2336E00A2334E09C
:104E1000052332E0052330E005232EE005232CE0B6
:104E200005232AE0052328E0052326E0052324E0C6
:104E3000052322E0052320E005231EE005231CE0D6
:104E400005231AE0052318E0052316E0012314E0EA
:104E5000012312E0012310E001230EE001230CE006
:104E600008230AE0082308E0082306E0082304E0FA
:104E7000002302E0002300E000233B61FB68DB79B4
:104E8000002B00F0C780FB68DB79012B00F0C080AD
:104E9000FB68DB79022B00F0B980FB68DB79032B20
:104EA00000F0B280FB68DB79042B00F0AB80FB687C
:104EB000DB79052B00F0A480FB68DB79062B00F082
:104EC0009D80FB68DB79072B00F09680FB68DB791F
:104ED000082B00F08F80FB68DB79092B00F08880BD
:104EE000FB68DB790A2B00F08180FB68DB790B2BF8
:104EF0007AD0FB68DB790C2B74D0FB68DB790D2B47
:104F00006ED0FB68DB790E2B68D0FB68DB790F2B4A
:104F100062D0FB68DB79102B5CD0FB68DB79112B4E
:104F200056D0FB68DB79122B50D0FB68DB79132B52
:104F30004AD0FB68DB79142B44D0FB68DB79152B56
:104F40003ED0FB68DB79162B38D0FB68DB79172B5A
:104F500032D0FB68DB79182B2CD0FB68DB79192B5E
:104F600026D0FB68DB791A2B20D0FB68DB791B2B62
:104F70001AD0FB68DB791C2B14D0FB68DB791D2B66
:104F80000ED0FB68DB791E2B08D0FB68DB791F2B6A
:104F900001D100233FE04FF0FF333CE000233AE033
:104FA000002338E00A2336E00A2334E00A2332E003
:104FB000052330E005232EE005232CE005232AE01D
:104FC000052328E0052326E0052324E0052322E02D
:104FD000052320E005231EE005231CE005231AE03D
:104FE000052318E0052316E0052314E0012312E051
:104FF000012310E001230EE001230CE001230AE06D
:10500000082308E0082306E0082304E0082302E060
:10501000002300E000237A68D363FB681B79002B30
:1050200000F0C780FB681B79012B00F0C080FB6893
:105030001B79022B00F0B980FB681B79032B00F071
:10504000B280FB681B79042B00F0AB80FB681B79F6
:10505000052B00F0A480FB681B79062B00F09D80D7
:10506000FB681B79072B00F09680FB681B79082BE7
:1050700000F08F80FB681B79092B00F08880FB68AB
:105080001B790A2B00F08180FB681B790B2B7AD0EF
:10509000FB681B790C2B74D0FB681B790D2B6ED031
:1050A000FB681B790E2B68D0FB681B790F2B62D035
:1050B000FB681B79102B5CD0FB681B79112B56D039
:1050C000FB681B79122B50D0FB681B79132B4AD03D
:1050D000FB681B79142B44D0FB681B79152B3ED041
:1050E000FB681B79162B38D0FB681B79172B32D045
:1050F000FB681B79182B2CD0FB681B79192B26D049
:10510000FB681B791A2B20D0FB681B791B2B1AD04C
:10511000FB681B791C2B14D0FB681B791D2B0ED050
:10512000FB681B791E2B08D0FB681B791F2B01D154
:1051300002233FE04FF0FF333CE001233AE000233D
:1051400038E00F2336E00E2334E00D2332E00C2349
:1051500030E00B232EE00A232CE009232AE0082369
:1051600028E0072326E0062324E0052322E0042389
:1051700020E003231EE001231CE000231AE00A23A1
:1051800018E0092316E0082314E0072312E00623A1
:1051900010E003230EE002230CE001230AE00023C9
:1051A00008E0092306E0082304E0072302E00623C1
:1051B00000E005237B62FB685B79002B00F0C78071
:1051C000FB685B79012B00F0C080FB685B79022BE8
:1051D00000F0B980FB685B79032B00F0B280FB68BC
:1051E0005B79042B00F0AB80FB685B79052B00F04A
:1051F000A480FB685B79062B00F09D80FB685B79DF
:10520000072B00F09680FB685B79082B00F08F80FD
:10521000FB685B79092B00F08880FB685B790A2BBF
:1052200000F08180FB685B790B2B7AD0FB685B799F
:105230000C2B74D0FB685B790D2B6ED0FB685B790F
:105240000E2B68D0FB685B790F2B62D0FB685B7913
:10525000102B5CD0FB685B79112B56D0FB685B7917
:10526000122B50D0FB685B79132B4AD0FB685B791B
:10527000142B44D0FB685B79152B3ED0FB685B791F
:10528000162B38D0FB685B79172B32D0FB685B7923
:10529000182B2CD0FB685B79192B26D0FB685B7927
:1052A0001A2B20D0FB685B791B2B1AD0FB685B792B
:1052B0001C2B14D0FB685B791D2B0ED0FB685B792F
:1052C0001E2B08D0FB685B791F2B01D105233FE023
:1052D0004FF0FF333CE002233AE0012338E00023A3
:1052E00036E00F2334E00E2332E00D2330E00C23B0
:1052F0002EE00B232CE00A232AE0092328E00823D0
:1053000026E0072324E0062322E0052320E00423EF
:105310001EE003231CE001231AE0002318E00A2307
:1053200016E0092314E0082312E0072310E0062307
:105330000EE003230CE002230AE0012308E000232F
:1053400006E0092304E0082302E0072300E0062327
:105350003B62FB689B79002B00F0C780FB689B7960
:10536000012B00F0C080FB689B79022B00F0B98014
:10537000FB689B79032B00F0B280FB689B79042BC0
:1053800000F0AB80FB689B79052B00F0A480FB68E4
:105390009B79062B00F09D80FB689B79072B00F022
:1053A0009680FB689B79082B00F08F80FB689B79C7
:1053B000092B00F08880FB689B790A2B00F0818024
:1053C000FB689B790B2B7AD0FB689B790C2B74D0F4
:1053D000FB689B790D2B6ED0FB689B790E2B68D0F8
:1053E000FB689B790F2B62D0FB689B79102B5CD0FC
:1053F000FB689B79112B56D0FB689B79122B50D000
:10540000FB689B79132B4AD0FB689B79142B44D003
:10541000FB689B79152B3ED0FB689B79162B38D007
:10542000FB689B79172B32D0FB689B79182B2CD00B
:10543000FB689B79192B26D0FB689B791A2B20D00F
:10544000FB689B791B2B1AD0FB689B791C2B14D013
:10545000FB689B791D2B0ED0FB689B791E2B08D017
:10546000FB689B791F2B01D106233FE04FF0FF33F0
:105470003CE005233AE0022338E0012336E0002334
:1054800034E00F2332E00E2330E00D232EE00C2316
:105490002CE00B232AE00A2328E0092326E0082336
:1054A00024E0072322E0062320E005231EE0042356
:1054B0001CE003231AE0012318E0002316E00A236E
:1054C00014E0092312E0082310E007230EE006236E
:1054D0000CE003230AE0022308E0012306E0002396
:1054E00004E0092302E0082300E00723FB61FB68D6
:1054F000DB79002B00F0C780FB68DB79012B00F023
:10550000C080FB68DB79022B00F0B980FB68DB7997
:10551000032B00F0B280FB68DB79042B00F0AB803A
:10552000FB68DB79052B00F0A480FB68DB79062B98
:1055300000F09D80FB68DB79072B00F09680FB680C
:10554000DB79082B00F08F80FB68DB79092B00F0FA
:105550008880FB68DB790A2B00F08180FB68DB79AF
:105560000B2B7AD0FB68DB790C2B74D0FB68DB79D2
:105570000D2B6ED0FB68DB790E2B68D0FB68DB79D6
:105580000F2B62D0FB68DB79102B5CD0FB68DB79DA
:10559000112B56D0FB68DB79122B50D0FB68DB79DE
:1055A000132B4AD0FB68DB79142B44D0FB68DB79E2
:1055B000152B3ED0FB68DB79162B38D0FB68DB79E6
:1055C000172B32D0FB68DB79182B2CD0FB68DB79EA
:1055D000192B26D0FB68DB791A2B20D0FB68DB79EE
:1055E0001B2B1AD0FB68DB791C2B14D0FB68DB79F2
:1055F0001D2B0ED0FB68DB791E2B08D0FB68DB79F6
:105600001F2B01D107233FE04FF0FF333CE006237F
:105610003AE0052338E0022336E0012334E000239A
:1056200032E00F2330E00E232EE00D232CE00C237C
:105630002AE00B2328E00A2326E0092324E008239C
:1056400022E0072320E006231EE005231CE00423BC
:105650001AE0032318E0012316E0002314E00A23D4
:1056600012E0092310E008230EE007230CE00623D4
:105670000AE0032308E0022306E0012304E00023FC
:1056800002E0092300E008237A68136400F07DBE7D
:105690007B681B68674A934240F07586FB681B79FC
:1056A000002B00F0C980FB681B79012B00F0C08043
:1056B000FB681B79022B00F0B980FB681B79032B78
:1056C00000F0B280FB681B79042B00F0AB80FB6814
:1056D0001B79052B00F0A480FB681B79062B00F0DA
:1056E0009D80FB681B79072B00F09680FB681B7977
:1056F000082B00F08F80FB681B79092B00F0888055
:10570000FB681B790A2B00F08180FB681B790B2B4F
:105710007AD0FB681B790C2B74D0FB681B790D2B9E
:105720006ED0FB681B790E2B68D0FB681B790F2BA2
:1057300062D0FB681B79102B5CD0FB681B79112BA6
:1057400056D0FB681B79122B50D0FB681B79132BAA
:105750004AD0FB681B79142B44D0FB681B79152BAE
:105760003ED0FB681B79162B38D0FB681B79172BB2
:1057700032D0FB681B79182B2CD0FB681B79192BB6
:1057800026D0FB681B791A2B20D0FB681B791B2BBA
:105790001AD0FB681B791C2B14D0FB681B791D2BBE
:1057A0000ED0FB681B791E2B08D0FB681B791F2BC2
:1057B00001D10A2341E04FF0FF333EE00A233CE0F1
:1057C0000A233AE0052338E0052336E0052334E0D8
:1057D000052332E0052330E002232EE002232CE0F3
:1057E00002232AE0022328E0022326E0022324E009
:1057F000092322E0092320E001231EE001231CE00D
:1058000001231AE0012318E0012316E0012314E02C
:10581000082312E0082310E003230EE003230CE02A
:1058200003230AE0032308E0032306E0032304E044
:10583000032302E0000C01400323BB61FB685B799A
:10584000002B00F0C780FB685B79012B00F0C08063
:10585000FB685B79022B00F0B980FB685B79032B56
:1058600000F0B280FB685B79042B00F0AB80FB6832
:105870005B79052B00F0A480FB685B79062B00F0B8
:105880009D80FB685B79072B00F09680FB685B7955
:10589000082B00F08F80FB685B79092B00F0888073
:1058A000FB685B790A2B00F08180FB685B790B2B2E
:1058B0007AD0FB685B790C2B74D0FB685B790D2B7D
:1058C0006ED0FB685B790E2B68D0FB685B790F2B81
:1058D00062D0FB685B79102B5CD0FB685B79112B85
:1058E00056D0FB685B79122B50D0FB685B79132B89
:1058F0004AD0FB685B79142B44D0FB685B79152B8D
:105900003ED0FB685B79162B38D0FB685B79172B90
:1059100032D0FB685B79182B2CD0FB685B79192B94
:1059200026D0FB685B791A2B20D0FB685B791B2B98
:105930001AD0FB685B791C2B14D0FB685B791D2B9C
:105940000ED0FB685B791E2B08D0FB685B791F2BA0
:1059500001D103233FE04FF0FF333CE00A233AE05C
:105960000A2338E00A2336E0052334E0052332E039
:10597000052330E005232EE005232CE002232AE056
:10598000022328E0022326E0022324E0022322E06F
:10599000022320E009231EE009231CE001231AE072
:1059A000012318E0012316E0012314E0012312E093
:1059B000012310E008230EE008230CE003230AE093
:1059C000032308E0032306E0032304E0032302E0AB
:1059D000032300E003237B61FB689B79002B00F02D
:1059E000C780FB689B79012B00F0C080FB689B7926
:1059F000022B00F0B980FB689B79032B00F0B2808A
:105A0000FB689B79042B00F0AB80FB689B79052B2E
:105A100000F0A480FB689B79062B00F09D80FB685A
:105A20009B79072B00F09680FB689B79082B00F090
:105A30008F80FB689B79092B00F08880FB689B793D
:105A40000A2B00F08180FB689B790B2B7AD0FB68D6
:105A50009B790C2B74D0FB689B790D2B6ED0FB6867
:105A60009B790E2B68D0FB689B790F2B62D0FB686B
:105A70009B79102B5CD0FB689B79112B56D0FB686F
:105A80009B79122B50D0FB689B79132B4AD0FB6873
:105A90009B79142B44D0FB689B79152B3ED0FB6877
:105AA0009B79162B38D0FB689B79172B32D0FB687B
:105AB0009B79182B2CD0FB689B79192B26D0FB687F
:105AC0009B791A2B20D0FB689B791B2B1AD0FB6883
:105AD0009B791C2B14D0FB689B791D2B0ED0FB6887
