S00E00006D616368696E652E73333711
S113000000000420DD450000094600000946000008
S113001009460000094600000946000009460000A0
S11300200946000009460000094600000946000090
S11300300946000009460000094600000946000080
S1130040BD450000094600000946000009460000BD
S11300500946000009460000094600000946000060
S113006009460000E126000069270000C1450000A0
S11300700946000009460000094600008D02000000
S11300800946000009460000AD2700005D2100007C
S11300900946000009460000094600000946000020
S11300A00946000009460000094600000946000010
S11300B00946000009460000392C000009460000EA
S11300C009460000094600000946000009460000F0
S11300D009460000094600000946000009460000E0
S11300E009460000094600000946000009460000D0
S11300F009460000094600000946000009460000C0
S113010009460000094600000946000010B5054CE8
S1130110237833B9044B13B10448AFF300800123AF
S1130120237010BD280200200000000080C90000D8
S113013008B5034B1BB103490348AFF3008008BD66
S1130140000000002C02002080C90000154B002B89
S113015008BF134B9D46A3F5803A00218B460F46FA
S11301601348144A121A07F09AFA0F4B002B00D0C6
S113017098470E4B002B00D0984700200021040024
S11301800D000D48002802D00C48AFF3008007F0A2
S113019057FA2000290002F015F807F03DFA00BFD5
S11301A0000008000000042000000000000000001F
S11301B02802002020B302200000000000000000FC
S11301C030B5012189B000242B482C4D04F082FC69
S11301D04FF0FF3243F6E4131F21204603920593A8
S11301E0ADF802108DF800408DF801408DF8044000
S11301F08DF8054002940494CDE9064404F0E6FB2E
S113020021468DF802001E4804F0C0FB69468DF8B3
S11302100300284604F000FB0223052221468DF842
S11302200A308DF80920012302A868228DF81B30BA
S113023004F044FB214602A8692204F03FFB214656
S113024002A86A2204F03AFB21466B2202A804F0B9
S113025035FB0C4B02A928461C7004F04DFB6B6C5B
S1130260094943F002034FF4004004226B64086020
S1130270AA6009B030BD00BF00D2040000200040D5
S1130280A08601005402002000E100E010B40B49F4
S11302900B4A0C4C0C4802230B641378C96C44F8C9
S11302A02310022B4FF00101C15489BF07485B188A
S11302B00023017013705DF8044B70470020004068
S11302C05402002044020020580200206D04002043
S11302D010B400F52A34002200F52833027082702D
S11302E004F5A77103F5A773A4F84E2184F85021EF
S11302F003F8802B8B42FBD15DF8044B704700BFA1
S113030000F52A3393F850310BB943717047012338
S1130310437170470EB430B5A2B025AB00F52A3452
S113032053F8042B01930546802102A809F036F8FE
S113033094F84F0105EBC01000F5283002A900F530
S1130340A77008F02CF994F84F3194F850210E2B33
S11303509ABF0133DBB2002384F84F31531C84F875
S1130360503122B0BDE8304003B0704710B50123CE
S113037002220A21032004F0A5F900230422092102
S1130380032004F09FF90222104600230A2104F0FE
S113039099F9002302220B21032004F093F900238E
S11303A018460222092104F08DF90023184602227E
S11303B0082104F087F9002318460222072104F0DB
S11303C081F9002318460222062104F07BF9022257
S11303D0104600230B2104F075F902221046002375
S11303E0092104F06FF90023042202210A2004F0F9
S11303F069F9002304220721052004F063F900238E
S11304001A461946184604F05DF900231A461846A0
S1130410012104F057F900231A461846022104F07A
S113042051F900231A461846032104F04BF900231E
S113043004220A21012004F045F9002304220B219F
S1130440012004F03FF9002304220C21012004F0D0
S113045039F9002304220D21012004F033F901238A
S113046004220021082004F02DF90023042208218D
S1130470052004F027F9002319460422052004F07E
S113048021F9042211460023022004F01BF9002361
S113049004220521022004F015F90123194604223F
S11304A0082004F00FF9002304220921052004F098
S11304B009F9002304220121052004F003F9002393
S11304C004220621022004F0FDF80023042207215F
S11304D0022004F0F7F8012304220221082004F08A
S11304E0F1F8002304220A21052004F0EBF800238C
S11304F004220221052004F0E5F800230422082147
S1130500022004F0DFF8002304220921012004F072
S1130510D9F8012304220321082004F0D3F800238E
S113052004220B21052004F0CDF80023042203212A
S1130530052004F0C7F8002304220E21032004F050
S1130540C1F8002304220F21032004F0BBF8012387
S113055004220E21092004F0B5F8002304220C2102
S1130560052004F0AFF8042211460023052004F00E
S1130570A9F8002304220C21032004F0A3F800238B
S113058004220D21032004F09DF8012304220F21ED
S1130590092004F097F8002304220D21052004F01B
S11305A091F8052108460023042204F08BF8002367
S11305B004221846114604F085F800231846042244
S11305C0052104F07FF8012304220F21052004F003
S11305D079F8002304220E21052004F073F8002387
S11305E004220621052004F06DF800231946042294
S11305F00A2004F067F80023042201210A20BDE840
S1130600104004F05FB800BF03480449044A0023C3
S113061003600B601360704710881442048814420E
S11306200088144203480449044A012303600B6010
S113063013607047108814420488144200881442DE
S11306402DE9F84F44490B78002B54D0434D444ACC
S1130650DFF81CC100230B709E462846118850F811
S1130660046B3E2901EB831401F1010703F101033B
S113067094BF1780A2F800E0042B2CF8146002F158
S11306800202EBD1374A1368C72B36D9364C002601
S11306904FF0000A4FF0000B271D166004F8016BA1
S11306A055F8040B05F028F923A3D3E9002305F03A
S11306B09DF923A3D3E9002305F0C2FA02460B46B1
S11306C021A1D1E9000105F0BBFA21A3D3E900235C
S11306D004F0D4FF52465B468046894605F016FC7A
S11306E042464B4668B9A742D8D1204A1368312BF9
S11306F003D900231360BDE8F88F01331360BDE80C
S1130700F88F13A1D1E9000105F09AFA52465B462D
S11307108046894605F004FC52465B460028E2D137
S11307204046494605F0F2FB0028DCD140464946E4
S113073006F012FDD7E700BF6666666666660A4085
S11307400000000000FEAF400000000040241441FF
S113075000000000006AF8406D04002044020020FC
S11307605C04002068040020580200206404002077
S11307705C02002000F5283310B4002200F5273471
S1130780C3F84821A3F84C2104F57C7400F5B47334
S1130790002100201A70C3E902011A76C3E904019A
S11307A003F5AC73A342F5D15DF8044B704700BF69
S11307B0037A002B00F0BD8070B590F82030044619
S11307C00F2B00F2B380DFE813F08500850085006D
S11307D08500B10085008500100085001701B50073
S11307E086018600B100B100820190F88C20D0F817
S11307F06031002A40F03F8283F89120D0F86031C4
S113080094F8A820002A40F0278283F8C120D4F865
S1130810603194F8C420002A40F00F8283F8F1205C
S1130820D4F8603194F8E020002A40F0F78183F88E
S11308302121D4F8603194F85420002A40F0B48186
S113084083F83120D4F8603194F87020002A40F005
S11308509E8183F86120D4F8603194F83850002DDB
S113086040F089815D7094F8385094F80431D4F8DC
S11308706461002B40F0728194F81C31002B40F02D
S1130880AD8194F83431002B40F09B8194F84C31C5
S1130890002B40F04B8194F8701094F8543094F885
S11308A08C2094F8A8000B43134394F8C42094F8C4
S11308B0E0100343134394F8012194F819010B4306
S11308C0134394F8311194F8492103430B43134320
S11308D02B43237270BDCE49FFF71CFD94F82830DA
S11308E0002B40F0DD8194F82930002B40F0D281B8
S11308F094F82A30002B40F0858194F82B30002B9B
S113090040F0798194F82C30002B40F01C8194F84D
S11309102D305BB1D4F86001603000F03BFC94F8FA
S11309202C301BB1D4F8600100F034FC0023237296
S113093070BD7047D0F8603193F8942072B193F889
S11309409820012A0AD1002283F89120D0F860313E
S113095083F89420D0F8603180F88C2093F8C42078
S113096072B193F8C820012A0AD1002283F8C12069
S1130970D4F8603183F8C420D4F8603184F8A82016
S113098093F8F42072B193F8F820012A0AD10022D6
S113099083F8F120D4F8603183F8F420D4F860317E
S11309A084F8C42093F8242122B193F82821012A41
S11309B000F0A18194F8E02094F8540094F83830C1
S11309C094F8701094F88C5003430B4394F8A810D7
S11309D094F8C4002B430B4394F8011194F8195173
S11309E003430B4394F8310194F849112B43034317
S11309F00B431343237270BDD0F8603193F89320F6
S1130A00B2B193F89720012A12D183F89220D0F83A
S1130A1060310022C3F89C20D0F8603183F8912023
S1130A20D0F8603183F89320D0F8603180F88C20BE
S1130A3093F8C320B2B193F8C720012A12D183F8E6
S1130A40C220D4F860310022C3F8CC20D4F860313D
S1130A5083F8C120D4F8603183F8C320D4F860311E
S1130A6084F8A82093F8F320B2B193F8F720012A70
S1130A7012D183F8F220D4F860310022C3F8FC20AC
S1130A80D4F8603183F8F120D4F8603183F8F3208E
S1130A90D4F8603184F8C42093F82321002A89D043
S1130AA093F82721012A85D183F82221D4F86021E3
S1130AB00023C2F82C31D4F8602182F82131D4F813
S1130AC060111A4681F8233184F8E03074E7514903
S1130AD0FFF720FC2AE75049FFF71CFC94F821306B
S1130AE0002B40F0028194F82230002B40F0F78074
S1130AF094F82330002B40F0EC8094F82430002B41
S1130B0040F0E08094F82530002B40F0D58094F834
S1130B102630002B40F0CA8094F82730002B3FF495
S1130B2005AFD4F8600100F021FBFFE6D6E91623F7
S1130B30D4E9540105F0C2F900283FF4ACAE012316
S1130B4084F84C31A7E6D4F86001303000F022FB81
S1130B5094F82D30002B3FF4E2AEDBE6D6E9042313
S1130B60D4E9420105F0AAF900283FF485AE012337
S1130B7084F8043180E6216CDA6891427FF475AE22
S1130B80002284F838205A7094F838506DE6A16F2A
S1130B90DA6E91427FF461AE002284F8702083F80B
S1130BA06120D4F8603158E6E16DDA6B91427FF44C
S1130BB04BAE002284F8542083F83120D4F86031FD
S1130BC042E6D6E91023D4E94E0105F077F900286E
S1130BD03FF45CAE012384F8343157E6D6E90A23A6
S1130BE0D4E9480105F06AF900283FF44AAE01232C
S1130BF084F81C3145E6D4F8600100F5907000F0EB
S1130C00C9FA7FE6D4F86001F03000F0C3FA74E664
S1130C10B8C40000CCC40000A4C40000D4F8E81098
S1130C20D3F82C2191427FF406AE002284F8E02010
S1130C3083F82121D4F86031FDE5D4F8CC10D3F841
S1130C40FC2091427FF4EEAD002284F8C42083F8A6
S1130C50F120D4F86031E5E5D4F8B010D3F8CC2015
S1130C6091427FF4D6AD002284F8A82083F8C120F5
S1130C70D4F86031CDE5D0F89410D3F89C2091429B
S1130C807FF4BEAD002280F88C2083F89120D0F848
S1130C906031B5E5D4F86001C03000F07BFA27E696
S1130CA0D4F86001903000F075FA1CE6D4F86001C5
S1130CB0603000F05BFA2FE7D4F86001303000F0C8
S1130CC055FA24E7D4F8600100F5907000F04EFA6C
S1130CD018E7D4F86001F03000F048FA0DE7D4F8D2
S1130CE06001C03000F042FA02E7D4F860019030AD
S1130CF000F03CFAF7E6002183F82111D4F86031C2
S1130D000A4683F8241184F8E01055E638B5D0E992
S1130D100223C1E9022303780B70D0E90423C1E95B
S1130D200423037E0B76437E4B76837E8B7690F88A
S1130D30203081F820300C4690F8213081F82130A1
S1130D40054600F1270104F1270007F028FC05F10E
S1130D502B0104F12B0007F022FC6A6CAB6BA3633C
S1130D60626495F8493084F8493095F8483084F83D
S1130D7048302B6C236495F8303084F8303095F883
S1130D804A3084F84A3095F84B3084F84B306B6D18
S1130D902A6E2266636595F8653084F8653095F8A7
S1130DA0643084F86430EB6DE36595F84C3084F876
S1130DB04C3095F8663084F8663095F8673084F8DE
S1130DC06730EA6F2B6F2367E26795F8813084F808
S1130DD0813095F8803084F88030AB6FA36795F844
S1130DE0683084F8683095F8823084F8823095F859
S1130DF0833084F88330D5F88C30D5F89820C4F843
S1130E009820C4F88C3095F89D3084F89D3095F87E
S1130E109C3084F89C30D5F89430C4F8943095F81C
S1130E20843084F8843095F89E3084F89E3095F8A8
S1130E309F3084F89F30D5F8B420D5F8A830C4F892
S1130E40A830C4F8B42095F8B93084F8B93095F8CE
S1130E50B83084F8B830D5F8B030C4F8B03095F86C
S1130E60A03084F8A03095F8BA3084F8BA3095F8F8
S1130E70BB3084F8BB30D5F8C430D5F8D020C4F8E2
S1130E80D020C4F8C43095F8D53084F8D53095F81E
S1130E90D43084F8D430D5F8CC30C4F8CC3095F8BC
S1130EA0BC3084F8BC3095F8D63084F8D63095F848
S1130EB0D73084F8D730D5F8EC20D5F8E030C4F832
S1130EC0E030C4F8EC2095F8F13084F8F13095F86E
S1130ED0F03084F8F030D5F8E830C4F8E83095F80C
S1130EE0D83084F8D83095F8F23084F8F23095F898
S1130EF0F33084F8F330D5E94223C4E9422395F86A
S1130F00F83084F8F83095F8FB3084F8FB3095F825
S1130F10FA3084F8FA30D5E94023C4E9402395F83F
S1130F20FC3084F8FC30D5E94823C4E9482395F81B
S1130F30103184F8103195F8133184F8133195F891
S1130F40123184F81231D5E94623C4E9462395F8D1
S1130F50143184F81431D5E94E23C4E94E2395F8AD
S1130F60283184F8283195F82B3184F82B3195F801
S1130F702A3184F82A31D5E94C23C4E94C2395F865
S1130F802C3184F82C31D5E95423C4E9542395F841
S1130F90403184F8403195F8433184F8433195F871
S1130FA0423184F84231D5E95223C4E9522395F8F9
S1130FB0443184F8443138BDF8B5067804461EB986
S1130FC04378002B3AD1F8BD00F528354FF4AC72C4
S1130FD0B5F84A31017902FB0303012993F868212A
S1130FE044D0002A4FD1B5F84C31F92B9CBF0123D2
S1130FF02371267A56B9B5F848014FF4AC7707FB4C
S113100000F0231893F86831002B41D1E37833B909
S113101094F82030042BD6D1237A002BD3D0002689
S1131020E67029492046FFF775F9C5F84861A5F827
S11310304C6184F8686126722670F8BD012300F5BE
S11310402835467003702149FFF764F9B5F8483133
S11310504FF4AC7202FB0344B3F5F97F84F8686182
S11310609CBF5E1CB6B2A5F84861F8BD1AB193F8EE
S11310708031042B04D0B5F84C31B3F5F97FB8D3E3
S113108000232371B5E793F88031042BABD1F7E744
S113109000F5B470204404F10801FFF737FEB5F8F9
S11310A0483107FB0347B3F5F97F87F8686198BFB8
S11310B05E1CB5F84C3198BFB6B2013BA5F8486147
S11310C0A5F84C31A2E700BF8CC4000074C4000032
S11310D070B5037A04461BB190F90930012B25D071
S11310E0E3791BB194F90930013304D023696361B6
S11310F00123637170BD94F82230174A94F8295083
S11311001649174803EB43031B011A440126002325
S113111006FA05F515606370667204F11802FFF7AC
S1131120F9F8236963610123637170BD90F822208B
S11311300C4894F829500C4902EB42021201104465
S1131140AB40FF260025036004F118026672657047
S11311500348FFF7DFF8C3E70CA0004628C50000EA
S1131160C80400200CA0004414C5000090F82030EE
S1131170074A90F8271003EB43031B0110B41A44E9
S1131180012404FA01F1116004705DF8044B704706
S11311900CA0004490F82030064A90F8271003EB86
S11311A043031B011A4401238B4000211360017087
S11311B0704700BF0CA0004690F82520114B90F812
S11311C02C1002EB4202D20113440B449B001B6817
S11311D08BB10023C37190F826200A4B90F82D1090
S11311E002EB4202D20113440B449B001B682BB94F
S11311F00123037270470123C371ECE700230372D8
S1131200704700BFE0008510F8B590F820300F4A11
S113121090F8275003EB43031B011A440123AB400E
S113122042F2107600251360457205808570C66011
S11312300F46FFF7C1FFC0E90465C5700571394663
S11312401830BDE8F84007F0AAB900BF0CA000466A
S11312502DE9F84F4FF0060104460522002302252C
S11312604FF00A0C4FF0080E092601274FF0040A2C
S113127080F85A104FF007014FF0030B80F822203A
S113128080F82B2080F8212080F8522080F851200B
S113129080F8822080F829E080F820E080F850E08F
S11312A080F880E080F8273080F8263080F82D30F0
S11312B080F8253080F82C3080F8283080F85630BB
S11312C080F85D3080F8553080F85C3080F8235029
S11312D080F8245080F8535080F8545080F8875098
S11312E080F82AA080F8596080F8577080F8587008
S11312F080F85B1080F889C0714680F8812080F8FE
S1131300B22080F8835080F88AE080F8847080F8F6
S11313108B6080F8863080F88D3080F8853080F8D6
S11313208C3080F8885084F8B0E04FF00B0E4FF00A
S11313300E094FF00F0880F8B9E080F8BDE080F89E
S1131340B7B080F8B3B080F8B4B080F8B6B080F825
S1131350B8B080F8E3B080F8E4B04FF00C0E4FF072
S11313600D0B80F8BCC080F8B12080F8E22080F832
S1131370B55080F8E06080F8E63080F8BA9080F8E4
S1131380E79080F8BB8080F8E9E080F8EAE080F834
S1131390EBB04FF0070E80F8ED1080F8E53080F8E0
S11313A0E8A080F8133180F81AA180F8143180F88D
S11313B016314FF0060A80F8153180F84A312A496F
S11313C080F81CE14FF00B0380F84C3180F8E120E9
S11313D080F8122180F81B2180F8112180F818214F
S11313E080F8422180F8402180F843C180F844C14C
S11313F080F8412180F8EC6080F819B180F8106120
S113140080F8178180F81DA180F8499180F8478100
S113141080F84B7180F8465180F84D6180F8455151
S113142080F848A1FFF7F0FE04F130000F49FFF700
S1131430EBFE04F160000E49FFF7E6FE04F19000B4
S11314400C49FFF7E1FE04F1C0000B49FFF7DCFE95
S113145004F1F0000949FFF7D7FE04F5907008493C
S1131460BDE8F84FFFF7D0BEE0C40000E4C40000BC
S1131470ECC40000F4C40000FCC4000004C5000077
S11314800CC5000010B504469030FFF795FE04F13A
S1131490C000FFF791FE04F1F000FFF78DFE04F5A4
S11314A09070BDE81040FFF787BE00BF83796BB131
S11314B090F821301F4A90F8281003EB43031B01D6
S11314C01A4401238B40002113608171037883B196
S11314D0437873B143696BB9437953B10389B3F565
S11314E0807F0DD090F90930013306D00023437179
S11314F070477047013B43617047C379002BF5D1B6
S113150090F821300C4A90F8281003EB43031B0198
S113151010B41A44012404FA01F11160C36890F96B
S1131520092084711344C360002343715DF8044BA4
S1131530704700BF0CA000440CA0004610B5044640
S1131540FFF7B4FF3030FFF7B1FF04F16000FFF79D
S1131550ADFF04F19000FFF7A9FF04F1C000FFF70D
S1131560A5FF04F1F000FFF7A1FF04F59070BDE8BA
S11315701040FFF79BBF00BF03784BB14B7843B1DA
S11315800B792BB9CB781BB98268CB689A4250D0BF
S1131590704770B4C37E0B71857ECD70B3B965B3EB
S11315A091F82240294B91F82950012204EB44047C
S11315B04A70240100690861234402FA05F403F126
S11315C08063FF201C60487270BC704791F8222031
S11315D01E4B91F82940012602EB42024E70120183
S11315E000690861134406FA04F4002DE7D103F1FD
S11315F0C0631C604E7270BC7047CC688368A342A1
S11316001BD001254D7002690A6191F82230866869
S11316100E4A91F8290003EB43031B01B4421A4418
S113162005FA00F30DD302F18062FF2013604872C3
S1131630CAE7002303704B70AAE7002303704B70C2
S1131640C2E702F1C06213604D72BDE70CA0004016
S113165010B504463830D4F86011FFF78DFFD4F884
S1131660601104F154003031FFF786FFD4F86011A3
S113167004F170006031FFF77FFFD4F8601104F1CA
S11316808C009031FFF778FFD4F8601104F1A800C2
S1131690C031FFF771FFD4F8601104F1C400F031D8
S11316A0FFF76AFFD4F8601104F1E00001F59071CE
S11316B0BDE81040FFF760BF10B5437904460BB98D
S11316C0437853BB94F8353013B994F831303BBBAD
S11316D094F8653013B994F8613033BB94F89530BD
S11316E013B994F891302BBB94F8C53013B994F81E
S11316F0C13023BB94F8F53013B994F8F1301BBB17
S113170094F8253113B994F8213103B910BD04F5C7
S11317109070BDE81040FFF7DBBCFFF7D9FCD1E7C0
S113172004F13000FFF7D4FCD2E704F16000FFF7C6
S1131730CFFCD3E704F19000FFF7CAFCD4E704F12F
S1131740C000FFF7C5FCD5E704F1F000FFF7C0FCCB
S1131750D6E700BF0B4B1A7802B9704710B50446A0
S113176000221A70FFF774FFD4F86001FFF7E6FE59
S1131770D4F86001FFF786FED4F86001BDE810409C
S1131780FFF79ABF6C040020014B01225A71704785
S113179020AE0220014B01229A71704720AE022034
S11317A038B50D4A0D4B00248470C4704470047025
S11317B00471C4718460047305461068084A5A6051
S11317C019461C6102F0B2FC10B12C70012038BD26
S11317D001232B7038BD00BF00000020040000204E
S11317E00A0A0A1D70B5837882B0044683B18379EE
S11317F063B1002600F20D158671062228461249AF
S113180006F0DDFEB0B90223A070237002B070BDF3
S1131810C278002AFAD00279002AF7D00B4A009342
S113182010680B4B062204F20D1102F08FFD012308
S1131830A370EBE7054B00961868054B2946062272
S113184002F084FDE2E700BFB4C500000000002000
S11318509517000030B5437883B063B1437943B141
S1131860124900234FF40074032243710C60437047
S1131870027003B030BD0E4A0E49958804461068C4
S1131880C4F80D0008689279009304F10D010A4B25
S11318908D808A71062202F097FD084A4FF4007188
S11318A001231160637003B030BD00BF9CA00044ED
S11318B0ACC5000000000020891700009CA0004671
S11318C030B5837883B004461BB18379FBB903B088
S11318D030BD417869B14279002AF8D0164A437183
S11318E04FF400710320A36020701160637003B093
S11318F030BD8268114B063218680091104B04F217
S11319000D1102F023FD0123A37003B030BD8268E2
S11319100A4B00251868A57104F20D11094B0095B6
S1131920063202F051FD084AA5704FF400710123FC
S11319301160637003B030BD9CA00044000000201F
S113194095170000891700009CA00046F0B501F52A
S1131950283790F80D21B7F84A3189B00024B3F53F
S1131960F97F8DF81F40A2F1040298BF5C1C064663
S11319700D4698BFA4B200F20D100C2A29D8DFE856
S113198012F02801280028005E0028007800C0001A
S11319900B013000280028000D000D004FF4AC723C
S11319A002FB0454002284F88021B3F5F97F15D892
S11319B001339BB21A464FF4AC7101FB025501226C
S11319C0A7F84A3185F86821B7F84C311344A7F8D1
S11319D04C31002386F80D3109B0F0BD00221346C6
S11319E0E9E74FF4AC7303FB04F404F5C77104F2A4
S11319F08D1229442A4404F5C67CAC4404F28B13AA
S1131A000591049204F5C57104F28912CDF80CC055
S1131A102B4429442A4404F5C47CCDE901130092E3
S1131A2005EB0C030DF11F028E492C4406F048FD12
S1131A309DF81F3084F88031B7F84A31B5E74FF488
S1131A40AC7202FB0454072284F8802196F80E013C
S1131A5004F5B8720021C2E9000196F81621C4F811
S1131A60F42196F81D21C4F8FC21012284F8EC210C
S1131A709BE74FF4AC7303FB0453092283F88021E2
S1131A8096F81A2196F81611002A00F0E680012231
S1131A90C3F8FC11A3F8062283F8EC2196F81B3155
S1131AA0002B00F0D1804FF4AC7303FB04530122EC
S1131AB0C3F81812A3F8222283F8082296F81C31DE
S1131AC0002B00F0B8804FF4AC7303FB04530122E5
S1131AD0C3F83412A3F83E2283F8242296F81D3169
S1131AE0002B00F086804FF4AC7303FB04540123F5
S1131AF0C4F85012A4F85A3284F84032B7F84A3184
S1131B0053E74FF4AC7303FB04530A2283F8802198
S1131B1096F81A2196F81611002A7ED04FF4807098
S1131B200122C3F8FC11A3F8060283F8EC2196F80D
S1131B301B31002B68D04FF4AC7303FB04534FF4F8
S1131B4080700122C3F81812A3F8220283F8082235
S1131B5096F81C31002B65D04FF4AC7303FB04538F
S1131B604FF480700122C3F83412A3F83E0283F8C4
S1131B70242296F81D31E3B34FF4AC7303FB0454F1
S1131B804FF480720123C4F85012A4F85A2284F846
S1131B904032B7F84A3108E74FF4AC7303FB04F45E
S1131BA004F2871104F5C37229442A4404F2851C03
S1131BB0AC4404F5C2730591049204F2831104F554
S1131BC0C172CDF80CC02B4429442A4404F2811C70
S1131BD023E70DF11F02244906F072FC4FF4AC73A5
S1131BE003FB04549DF81F3084F88031B7F84A3160
S1131BF0DBE64FF4AC7202FB0454A4F85A3284F8C6
S1131C004032B7F84A31D0E64FF4AC7202FB0452CA
S1131C10A2F8223282F808329AE7A3F8062283F85F
S1131C20EC2184E74FF4AC7202FB0452A2F83E327A
S1131C3082F824329DE74FF4AC7202FB0452A2F8FE
S1131C403E3282F8243249E74FF4AC7202FB04526C
S1131C50A2F8223282F8083230E7A3F8062283F889
S1131C60EC211BE7C0C50000BCC5000030B582787C
S1131C7083B004461AB18379D3B903B030BD437835
S1131C80FBB14379002BF8D01D4942711D4B4FF431
S1131C90007008606270186800921B4B4FF48072E9
S1131CA004F20D1102F052FB0123A37003B030BD06
S1131CB000258571FFF74AFE0323A570237003B046
S1131CC030BD02460821417302F80E3FFA2040FA63
S1131CD003F10833B3F5FA6F02F8011FF7D1094A8B
S1131CE00A4B10680022009204F10D01062202F052
S1131CF06BFB074A4FF40071012311606370BCE76A
S1131D009CA00044000000209517000089170000E3
S1131D109CA00046F0B5D1F86451D5E90A670446A1
S1131D20D1F860011E4990F8983090F89720CDB012
S1131D30CDE90A67D5E90467CDE90867D0F8CC5046
S1131D400795D0F89C50069590F82851059590F881
S1131D502751049590F8F850039590F8F7500295A0
S1131D6090F8C850019590F8C70000900DA806F0AF
S1131D7087FB224609210023617302F80E3FFA20F3
S1131D8040FA03F10833B3F5FA6F02F8011FF7D1F3
S1131D900DA904F1130006F002FC4DB0F0BD00BF24
S1131DA03CC50000024638B50A240023447302F8F7
S1131DB00E3F0D46FA2444FA03F10833B3F5FA6FE3
S1131DC002F8011FF7D105F52A34133094F84E11A7
S1131DD005EBC11101F5283101F5A77106F0DFFB10
S1131DE094F84E2105EBC21303F52833002183F840
S1131DF04E110E2A94F850319CBF0132D1B2013BEE
S1131E0084F84E1184F8503138BD00BF30B5837862
S1131E1083B00BB1837973B9457895B1437943B1F4
S1131E20124900234FF40074032243710C60437081
S1131E30027003B030BD4578002383718370002D98
S1131E40ECD10446FFF766FF094B009504F10D0140
S1131E501868084B4FF4807202F0B6FA064A4FF441
S1131E60007101231160637003B030BD9CA0004475
S1131E7000000020891700009CA0004630B583783C
S1131E8083B004460BB1837983B96378A3B16379D2
S1131E9053B1E3790025657183BB21494FF4007088
S1131EA0032208606370227003B030BD0023837185
S1131EB083706378002BEAD122460A21617302F809
S1131EC00E3FFA2040FA03F10833B3F5FA6F02F833
S1131ED0011FF7D1134A144B106800210622A26097
S1131EE0009104F10D0102F06FFA104A01234FF43E
S1131EF0007111606370E37103B030BD2046E57179
S1131F00FFF750FF074B0095FA22A2601868064BB2
S1131F1004F10D014FF4807202F056FA03B030BDA3
S1131F209CA0004400000020891700009CA00046EB
S1131F3002390A2939D8DFE801F00B1038151A1FC5
S1131F4024292E33060005220C23027003737047E4
S1131F5001220223027003737047042203230270D8
S1131F600373704709220523027003737047052227
S1131F70062302700373704705220723027003735C
S1131F807047052208230270037370470722092350
S1131F9002700373704705220A23027003737047AB
S1131FA005220B230270037370470322002302707F
S1131FB003737047F0B5837883B004460D461BB1B4
S1131FC08379F3B903B0F0BDC27842B96B7973BBBE
S1131FD02B79002BF6D00623237003B0F0BD0279D1
S1131FE0002AF3D0144A00931068144B062204F21A
S1131FF00D1102F0ABF9124806F0F2F90123A370B7
S1132000E0E700268671022100F20D1000F04CF981
S11320100421074604F20F1000F046F9F9B2A0605B
S11320202A462046FFF784FFA67003B0F0BD0823BC
S1132030237003B0F0BD00BF00000020951700001E
S113204074C5000038B5037B063B04460D46062BD9
S11320500DD8DFE803F01B160C0C0C0D0400FEF782
S1132060E1FA28460C49FEF755F90323237038BDDD
S1132070FEF7CAFA28460949FEF74CF903232370F0
S113208038BD01220323CA70037038BD0122032323
S11320904A70037038BD00BF98C5000084C50000B5
S11320A0184B1B687BB901220371C2700378092B9A
S11320B006D8DFE803F00717191B1D1F212325107D
S11320C0002303707047837801220271002BEDD046
S11320D00023C370EAE70C4A4FF400710023116037
S11320E04370FEE7FFF77EBBFFF7B4BBFFF762BFA9
S11320F0FFF7E6BBFFF7A6BFFFF7B8BDFFF786BE45
S1132100FFF7BCBEA81514429CA0004430B50121C1
S113211085B00E480E4C02F0DDFC0E484FF47A7385
S1132120C36182690023CDE9003302938DF80C303A
S113213042F001024FF4002301258DF80050694656
S11321408261236003F0E6F905B030BD001204009B
S113215000E100E000840140FFF7D8BF0249034AD0
S113216001234B6113707047008401406C0400200C
S113217008B50121084802F0ADFC0121074802F02E
S1132180A9FC0421112002F01BFF002211460320A8
S1132190BDE8084002F08CBE4041050000350A004D
S11321A038B505460C46FFF7E3FF2846FFF7F8FA73
S11321B0FEF7DCF8FEF704F82046BDE83840FFF7E8
S11321C0CBBF00BF30B50023EDB0CDE91E33CDE960
S11321D02A332A4A369342934E935A9366933793FB
S11321E043934F935B936793D36C1B0E42D1244963
S11321F024484AF6E8520A60026842F00402026087
S11322000B60214A136843F4005313601F49204CA8
S11322100B6A204823F4441318AA43F488130B626E
S11322201146C4F860210546C4F864D1FFF7B8FF2D
S1132230D4F86001FFF70CF82046FEF79BFA20461D
S1132240FEF746F820461449FEF764F82046FEF7E8
S113225057F821462846FFF723FF2046FEF7A8FA41
S11322602046FEF7A9FE2046FFF774FA6846FEF7FB
S1132270E7F9EBE7012BC9D1C3E700BFB081E00F59
S113228090310E4098310E4064310E4000400E40B3
S1132290C804002020AE0220D4C50000014B002257
S11322A01A707047C80400204B1ED1B130B4441ECC
S11322B0DBB20C44E41A00224318013B1D789C4213
S11322C045EA0222F9D14FF0FF33C35CDB0905D0A4
S11322D0C9004FF0FF3303FA01F10A43104630BC42
S11322E07047C35CDB090A4605D0C9004FF0FF33D1
S11322F003FA01F10A431046704700BF2DE9F04F7D
S1132300594C85B025789DF844A09DF84CE0002DEB
S113231066D0072A14465FD80E9A002A5CD00F9A1A
S1132320002A59D0129AB2F5006F55DC01280646EE
S11323300F464ED0DFF844914FEA041809EB080227
S1132340127B002A50D0494A00216501CDE90111D0
S1132350039102EB050C002F48D157519CF8020061
S11323609CF80310CCF8047040F0100041F03001E8
S1132370CCE902778CF802008CF80310BAF1000F54
S113238065D00093129B515B013B63F30E115153D3
S113239015440E99EB78A9606EF383030F99696075
S11323A0012EEB703CD0149B002B56D009EB080394
S11323B02046149C49F80840159D5D60002462463F
S11323C069465E739C6002F0D1FF204605B0BDE80B
S11323D0F08F109A002AADD1254805B0BDE8F08FE2
S11323E0244805B0BDE8F08F2348F6E751519CF826
S11323F002B09CF80300CCF804104BF0100B40F032
S11324000300CCE902118CF802B08CF80300BAF195
S1132410000FB6D1C1B241F030018CF80310B0E71F
S11324201323EB6095E80F0005F1100E8EE80F0002
S1132430EA69109B6B616FF0030161F39F02012F46
S1132440EA61B3D10F9BAB61109B6B60AEE7C9B27D
S113245041F003018CF8031093E7AB78149A62F30C
S11324600413AB70A2E700BFB0B10220B0B00220E9
S1132470018000F0028000F0078000F030B00220FC
S113248038B5114B1B7883B188B1054602F0D8FEEC
S11324900E4900220B461C7B103354B10132082A2A
S11324A0F9D102F0D1FE0A4838BD0A4838BD0A48BD
S11324B038BD13012A60CA180125CC50157302F0E7
S11324C0C3FE204638BD00BFB0B1022030B00220A8
S11324D0048000F0028000F0018000F010B5174A7B
S11324E082B00023126801928DF8043002F0A8FE35
S11324F0134B1C78E4B901221A7002F0A5FE114BAB
S113250004220DEB02001C731C7783F82C4083F823
S11325103C4083F84C4083F85C4083F86C4083F87B
S11325207C408DF8072002F0F5FE204602B010BD75
S113253002F08AFE044802B010BD00BFE8C50000E6
S1132540B0B1022030B00220038000F0F0B589B0B1
S11325509DF838500F9C9DF84070119E039504948B
S1132560129D0193002400920B460246CDE90576A4
S11325700795029421462046FFF7C0FE09B0F0BD3E
S1132580F0B589B09DF838500F9C9DF84070119EAD
S113259003950494129D0193002400920B46024675
S11325A0CDE905760795029420460121FFF7A6FEA2
S11325B009B0F0BD08B50A4B1A7862B1072808D8EB
S11325C0084A02EB00131B7B3BB102F01FFF002003
S11325D008BD054808BD054808BD054808BD00BF3D
S11325E0B0B1022030B00220018000F0028000F07F
S11325F0078000F00D4B1B78A3B1072810D879B1E0
S11326000B4B03EB00131B7B73B10A4B01221B6AB8
S113261002FA00F018401ABF00200A7008707047D0
S1132620054870470548704705487047B0B1022017
S113263030B0022000200E40018000F0028000F043
S1132640078000F00D4B1B78A3B1072810D879B18F
S11326500B4B03EB00131B7B73B10A4B01221B6E64
S113266002FA00F018401ABF00200A700870704780
S1132670054870470548704705487047B0B10220C7
S113268030B0022000200E40018000F0028000F0F3
S1132690078000F00D4B1A7892B107280DD861B16C
S11326A00B4A02EB00131B7B6BB110B50C4602F016
S11326B0C3FE00232060184610BD064B1846704721
S11326C0054B18467047054B18467047B0B10220B9
S11326D030B00220018000F0028000F0078000F09A
S11326E02DE9F8431D4E326EF36E12EA030834D41A
S11326F01B4CDFF870900127002506E00135082DFA
S11327004FEA470704F1100425D018EA070F2846BA
S1132710F4D02368B766002BF0D0D4E9012101314D
S1132720A1609847637B012BE8D109EB451303F1C2
S1132730080218330028E1D1117960F341011171C5
S11327401A79013560F34102082D1A714FEA4707DF
S113275004F11004D9D1BDE8F883FEE700200E404F
S113276030B00220B0B002200E4B70B5D3F828442C
S1132770D3F81C1445F255520C401440C3F82444B9
S11327807CB1094E012594FAA4F0B0FA80F005FA60
S113279000F256F8203024EA020403B19847002CD2
S11327A0F1D170BD00A00040B4B102200E4B70B551
S11327B0D3F82844D3F81C144AF6AA220C40144037
S11327C0C3F824447CB1094E012594FAA4F0B0FA6C
S11327D080F005FA00F256F8203024EA020403B12E
S11327E09847002CF1D170BD00A00040B4B1022084
S11327F02DE9F84F2C4C4FF0000A04F1A0050646D1
S113280000274FF0010B237F84F81DA073B1D4E996
S113281000239F4208BF9642104619460BD2921BD2
S113282063EB070310461946C4E900012834AC429F
S1132830E9D1BDE8F88FE37F33B92377A369002B8F
S1132840F4D084F81DB0F1E7D4E90289301A67EBBB
S1132850010142464B4603F079FB21696069B8EBFC
S1132860020869EB030942464B460029C4E90023E8
S11328700CDD0144F3296161E0D918F1010249F149
S11328800003F439C4E900236161D7E7411AF3294D
S11328906161D3D918F1FF3249F1FF33F439C4E946
S11328A000236161CAE700BF08B202201A4BF0B4EA
S11328B003F1A0014FF0FF344FF0FF351A7F3AB116
S11328C0D3E90067AF4208BFA6423CBF34463D4649
S11328D028339942F2D1114A002313706B1C08BFAC
S11328E0B4F1FF3F16D00E490E4B086000276FF07D
S11328F06406AF424FF0040108BFA642196238BF14
S11329003446084B20445865012111705A6A42F03C
S113291004025A62F0BC704708B20220FCB10220E3
S1132920F8B102200020044070B5114C054602F0B5
S113293087FC00232246917F283239B10133042BCE
S1132940F9D10C4C02F080FC204670BD5DB103EB64
S1132950830204EBC20201260C4696772B6002F038
S113296073FC204670BD044C02F06EFC204670BD22
S113297008B20220011000F0041000F01D4B70B5E5
S11329801C78002C33D1012529461B481D701B4E91
S113299002F0A0F802211A4802F012FB0323294690
S11329A01848337102F096F8304602F081FD28464B
S11329B0154902F061FD154A1549536A154823F477
S11329C0FF6323F00703536240F2FF754FF0804327
S11329D015629460C1F88031A0220B60214604F096
S11329E05EFE0D490D4A0E4B0C7014701C600020E5
S11329F070BD00BFFDB1022000250A0020000020A8
S1132A0005002200A00914002C000020002004402E
S1132A1000E100E008B20220F4B10220FCB102207F
S1132A2000B20220032823D82DE9F04F04464FEAD0
S1132A308009694D83B009EB040A05EBCA0A0193C6
S1132A4090468B4602F0FCFB9AF81E20019B06463A
S1132A50002A6DD0B8F1000F0CD113B120460C99A7
S1132A609847304602F0F0FB002003B0BDE8F08F39
S1132A705A4870475A4F4FF400424FF47A6000218D
S1132A80BF68CAF81830E2FB080100234FF4FA5279
S1132A90019703F05BFABBF1010F02460B46CAE94A
S1132AA0022349D04F4A0C9F127809EB040305EB2B
S1132AB0C303013041F100014FF0010C83F81FB052
S1132AC0C3E900011F6283F81CC0002AC9D1DFF8E2
S1132AD02481D8F80030013304D0D8F80030013311
S1132AE0C8F80030404B1B788BBB404A019C3C4BE0
S1132AF0146004221A6200238B426FF0640208BF40
S1132B00824238BF1046019A354B104458655A6AC0
S1132B1042F004025A62344B01211970D8F8003093
S1132B20002B9ED0D8F80030013BC8F8003098E75D
S1132B3002F08AFB2E4898E74FF47A7202FB08F8F9
S1132B40F42202FB10827A23CAE90423AAE7D8F804
S1132B500030012BE2D14C44244B019F1868DFF86C
S1132B6080900196E4002B194FF0000A83F81CA012
S1132B705646381AA246D9F82430174C23F00403D9
S1132B80C9F82430FFF734FE4FF0000B637F58463A
S1132B900BF1010B13B1A369216A9847BBF1040F30
S1132BA004F12804F2D11EB905EB0A0301221A77B5
S1132BB03846FFF77BFE0D4B0B491A68D9F80870AD
S1132BC00978D9F854300136B81A9B1A09B19842D9
S1132BD0D1D8019EA2E700BF08B20220021000F083
S1132BE000200440F4B10220FCB10220F8B102201C
S1132BF0031000F000B20220032810D838B50446B0
S1132C0002F01EFB094B04EB840403EBC404A37F12
S1132C103BB10025257702F017FB284638BD044850
S1132C20704702F011FB034838BD00BF08B2022010
S1132C30021000F0031000F02DE9F84F204D02F0CF
S1132C40FFFA6B6AAA69134023F005025B07814609
S1132C502A6230D51B4FDFF874A03A68AE68DFF8FB
S1132C60708001238AF80030B01A6B6A164C23F086
S1132C7004036B62FFF7BCFD4FF0000B637F584603
S1132C800BF1010B13B1A369216A9847BBF1040F3F
S1132C9004F12804F2D13046FFF708FEAE683A6822
S1132CA06B6D98F80010B01A9B1A09B19842DCD8E1
S1132CB000238AF800304846BDE8F84F02F0C4BA51
S1132CC000200440F8B1022008B20220F4B102202E
S1132CD0FCB1022090F83C200A4B016C02EB42024A
S1132CE0D20113440B449B0002E090F8482012B137
S1132CF01A68002AF9D090F848300BB9406C704734
S1132D0000207047E00085102DE9F8430268464C26
S1132D10A2420DD0454B9A420AD0454B9A4200F04C
S1132D20C282444B9A4200F076824348BDE8F8835D
S1132D300279052A19D9931F042B40F25487A2F172
S1132D400B03052B40F2E887A2F11103062B41F295
S1132D505E80A2F11803062B41F25D801F2A14BF86
S1132D604FF0FF0C4FF0050C01E04FF0000C4679DA
S1132D70042E19D9731F042B40F2DA86A6F10A0334
S1132D80052B40F2A387A6F11003062B41F219800C
S1132D90A6F11703072B41F2C5801F2E14BF4FF075
S1132DA0FF084FF0000801E04FF000088479032C7D
S1132DB019D9231F042B40F2AC86A4F10903052B77
S1132DC040F26887A4F10F03062B40F2F787A4F1C1
S1132DD01603072B41F253801E2C04D01F2C14BF62
S1132DE0FF27002700E00027C379022B26D9DD1E28
S1132DF0042D40F27A86A3F10805052D40F22D87B3
S1132E00A3F10E05062D40F2C987A3F11505072D80
S1132E1041F27580A3F11D05012D0FD9B3F11F05F2
S1132E2018BF4FF0FF350AE00000014000040140E4
S1132E3000080140000C0140022000F00025C56399
S1132E40002A59D0012A57D0022A55D0032A53D038
S1132E50042A51D0052A4FD0062A00F0BA86072A40
S1132E6000F0D686082A00F0F286092A00F00787C7
S1132E700A2A00F024870B2A00F047870C2A00F066
S1132E805F870D2A00F07F870E2A00F079870F2ACA
S1132E9000F09B87102A00F09C86112A00F07087AE
S1132EA0122A00F09287132A00F09386142A00F065
S1132EB0AF86152A00F0CB86162A00F0E086172A82
S1132EC000F0FD86182A01F04280192A01F03C80A6
S1132ED01A2A01F048801B2A01F042801C2A01F0C2
S1132EE03C801D2A01F036801E2A00F00E871F2A1E
S1132EF014BF4FF0FF320722002E00F02181012E73
S1132F0000F0CD81022E00F0ED85032E00F02C861A
S1132F10042E00F0FB85052E00F03D86062E00F001
S1132F205F86072E00F07186082E00F09386092E26
S1132F3000F0A2860A2E00F0CD860B2E00F0E28669
S1132F400C2E00F003870D2E00F014870E2E00F0D7
S1132F5014870F2E00F01F86102E00F00B87112E01
S1132F6000F00B87122E00F01686132E00F0388620
S1132F70142E00F04A86152E00F06C86162E00F0F2
S1132F807B86172E00F0CB87182E00F0D980192EDF
S1132F9000F085811A2E00F0A5851B2E00F0E48533
S1132FA01C2E00F0B3851D2E00F094861E2E00F01A
S1132FB0A9861F3E18BF4FF0FF36002C00F0C480D6
S1132FC0012C00F06981022C00F08885032C00F0AC
S1132FD0C785042C00F09685052C00F0DF85062CAF
S1132FE000F0FA85072C00F01686082C00F02B86DA
S1132FF0092C00F049860A2C00F064860B2C00F0A2
S113300087860C2C00F08C860D2C00F0A2860E2CEA
S113301000F078850F2C00F08386102C00F0998640
S1133020112C00F06F85122C00F0B885132C00F0E1
S1133030D385142C00F0EF85152C00F00486162C93
S113304000F0ED86172C00F00E87182C7CD0192C7C
S113305000F022811A2C00F041851B2C00F08085A1
S11330601C2C00F011861D2C00F02C861E2C00F068
S1133070D6861F2C14BF4FF0FF394FF00109002BE7
S113308066D0012B00F00681022B00F02485032B6F
S113309000F02781042B00F00481052B00F03C850F
S11330A0062B00F06B85072B00F07C85082B00F0C5
S11330B0B685092B00F0C4850A2B00F009850B2B7B
S11330C000F016850C2B00F015860D2B00F00981FD
S11330D00E2B00F00D850F2B00F00C86102B00F04A
S11330E00081112B00F0DD80122B00F01585132BCD
S11330F000F04485142B00F05585152B00F048850D
S1133100162B00F05E85172B00F04F85182B1FD06F
S1133110192B00F0BF801A2B00F0DD841B2B00F06C
S11331207E851C2B00F08C851D2B00F031851E2B19
S113313000F047851F2B14BF4FF0FF33022308E034
S11331400126002C7FF43CAF4FF00209002B98D1EC
S1133150032303640D46044600293BD0057D114634
S11331606046EDB92B46042201F0ACFA2B463146F9
S11331704046012201F0A6FAA37D012B73D94946EA
S113318038460123042201F09DFAE57DFDB994F847
S11331903C00216C0123042201F094FA284617E034
S11331A00023012201F08EFA314640460023042216
S11331B001F088FAA37D012B4946384694BF0023C9
S11331C00123022201F07EFAE57D002D59D0002072
S11331D0BDE8F883114660462B46022201F072FADC
S11331E02B4631464046022201F06CFAA37D012BA6
S11331F040D9494638460123022201F063FAE57DAD
S1133200002DE4D194F83C00216C2B462A4601F0B1
S113321059FA2846DCE70279072A64D9A2F108039F
S1133220012B40F29984A2F10A03052B40F2958503
S1133230A2F11003012B40F2D685A2F11203052B53
S113324040F24B86A2F11803042B40F24286A2F10D
S11332501D03012B40F203861F2A14BF4FF0FF0CFD
S11332604FF00A0C41E02B4649463846042201F04F
S113327029FA8AE72B4649463846022201F022FA07
S1133280BDE794F83C00216C0123022201F01AFAF4
S113329028469DE704235CE74FF00309EFE6022686
S11332A08BE60C2355E70279042A40F22B82531F44
S11332B0032B40F24884A2F10903042B40F2438516
S11332C0A2F10E030E2B40F29985A2F11D03012BEE
S11332D040F218861F2A14BF4FF0FF0C4FF00A0C5F
S11332E012E20B2335E74FF0030C4579062D23D961
S11332F0EB1F012B40F22C84A5F10903052B40F2AE
S11333001385A5F10F03012B40F27185A5F111037B
S1133310052B40F2EA85A5F11703042B40F2E18561
S1133320A5F11C03022B40F296851F2D14BF4FF00C
S1133330FF084FF0030801E04FF003088479052CDF
S113334023D9A31F012B40F20184A4F10803052B08
S113335040F2C884A4F10E03012B40F25585A4F178
S11333601003052B40F24D85A4F11603042B40F203
S1133370A385A4F11B03022B40F2CE851E2C04D09E
S11333801F2C14BFFF27032700E00327C379042B56
S113339025D95E1F012E40F2D483DE1F052E40F294
S11333A07F84A3F10D06012E40F20585A3F10F06DB
S11333B0052E40F22085A3F11506042E40F29985CE
S11333C0A3F11A06022E40F24385A3F11D06012E35
S11333D005D91F2B14BF4FF0FF36032600E0032648
S11333E0C663002A00F08781012A00F0C283022A02
S11333F000F09583032A00F0DB83042A00F0FC83A9
S1133400052A00F01484062A00F02C84072A00F010
S11334104C84082A00F06B84092A00F089840A2A63
S113342000F0A5840B2A00F0BF840C2A00F063810D
S11334300D2A00F09E830E2A00F071830F2A00F0FB
S1133440B783102A00F00E84112A00F02E84122A69
S113345000F0E984132A00F0EC84142A00F0478475
S1133460152A00F06584162A00F0E084172A00F07B
S11334706185182A00F09C83192A00F0BD831A2A5A
S113348000F0D5831B2A00F0ED831C2A00F00D8484
S11334901D2A00F0C8841E2A00F0CB841F2A14BF02
S11334A04FF0FF320222002D00F02781012D00F0A1
S11334B05E83022D00F03583032D00F07B83042D01
S11334C000F09883052D00F0AD83062D00F0C8832D
S11334D0072D00F0E883082D00F00784092D00F083
S11334E02D840A2D00F040840B2D00F051840C2D06
S11334F000F003810D2D00F03A830E2D00F01183AE
S11335000F2D00F08F83102D00F0AA83112D00F0F1
S1133510F384122D00F0CD84132D00F0C483142DF8
S113352000F0E383152D00F0C184162D00F005850D
S1133530172D00F0F682182D00F03C83192D00F0B1
S113354059831A2D00F06E831B2D00F089831C2DE6
S113355000F0D2841D2D00F0AC841E2D00F0A38356
S11335601F2D14BF4FF0FF360826002C00F0C78033
S1133570012C00F00083022C00F0D582032C00F013
S11335801B83042C00F03383052C00F04D83062CA0
S113359000F06A83072C00F08083082C00F09F83DE
S11335A0092C00F0C8830A2C00F0DB830B2C00F0FC
S11335B0F8830C2C00F0A3800D2C00F0DC820E2C80
S11335C000F015830F2C00F02F83102C00F00884DA
S11335D0112C00F05084122C00F04683132C00F0C0
S11335E05C83142C00F04384152C00F09F84162C6B
S11335F000F0C182172C00F09682182C00F0DC82B7
S1133600192C00F0F4821A2C00F00E831B2C00F00D
S1133610E7831C2C00F02F841D2C00F025831E2C26
S113362000F09F831F2C14BF4FF0FF394FF009099E
S1133630002B3FF456AE012B3FF433AE022B00F0C7
S11336406B82032B00F09A82042B00F0AB82052BD3
S113365000F0AB82062B3FF47BAD072B00F0DF823A
S1133660082B00F0ED82092B00F032820A2B00F0C7
S11336703F820B2B00F03E830C2B3FF432AE0D2B1C
S113368000F07C820E2B00F08D820F2B00F08082E4
S1133690102B00F09682112B00F08782122B3FF43E
S11336A057AD132B3FF4F6AD142B00F01482152BF9
S11336B03FF417AE162B3FF4F4AD172B00F02C8219
S11336C0182B00F05B82192B00F06C821A2B00F08F
S11336D05F821B2B00F075821C2B00F066821D2B71
S11336E000F0F6811E2B00F003821F2B14BF4FF055
S11336F0FF330A232DE50822D5E6092635E74FF0E6
S11337000A0995E74FF0000C4579032D19D92B1FB1
S1133710032B40F21382A5F10803042B40F2EF823D
S1133720A5F10D030E2B40F25583A5F11C03022BCA
S113373040F206841F2D14BF4FF0FF084FF000081D
S113374001E04FF000088479022C18D9E31E032B02
S113375040F2F281E31F042B40F2BF82A4F10C0378
S11337600E2B40F22683A4F11B03022B40F2D283DA
S11337701E2C04D01F2C14BFFF27002700E00027B5
S1133780C379012B1BD99E1E032E40F2CF819E1FAD
S1133790042E40F27782A3F10B060E2E40F2F6823D
S11337A0A3F11A06022E40F26D83A3F11D06012E29
S11337B005D9B3F11F0618BF4FF0FF3600E000260D
S11337C0C663002A00F07D81012A00F09981022A53
S11337D000F0D781032A00F0F281042A00F00E825F
S11337E0052A00F02682062A00F04482072A00F007
S11337F06482082A00F08182092A00F081810A2A61
S113380000F0BF810B2A00F0DA810C2A00F0F68167
S11338100D2A00F0DD820E2A00F00B820F2A00F040
S11338202982102A00F06982112A00F05083122A9A
S113383000F04781132A00F06381142A00F0A1816B
S1133840152A00F0BC81162A00F0D881172A00F04E
S1133850BF82182A00F03983192A00F034831A2A07
S113386000F02F831B2A00F053831C2A00F04E83A0
S11338701D2A00F0DE811E2A00F0FC811F2A14BFDD
S11338804FF0FF320222002D00F01D81012D00F0C7
S11338903581022D00F07A81032D00F09581042DED
S11338A000F0AE81052D00F0C681062D00F0F081F8
S11338B0072D00F0FD81082D00F00581092D00F091
S11338C01D810A2D00F062810B2D00F07D810C2DED
S11338D000F06D820D2D00F093810E2D00F0AB8170
S11338E00F2D00F0E581102D00F0E982112D00F07C
S11338F0DB82122D00F0E780132D00F0FF80142DE1
S113390000F04481152D00F05F81162D00F04F82E8
S1133910172D00F0C782182D00F0C282192D00F077
S1133920BD821A2D00F0B8821B2D00F0B3821C2D2D
S113393000F066811D2D00F07E811E2D00F0A8810F
S11339401F2D14BF4FF0FF360526002C00F0BD805C
S1133950012C00F0D080022C00F01581032C00F023
S11339603581042C00F04E81052C00F06681062C74
S113397000F07D81072C00F09D81082C00F0A580CB
S1133980092C00F0B8800A2C00F0FD800B2C00F00C
S113399002820C2C00F01A810D2C00F033810E2CC5
S11339A000F065810F2C00F01882102C00F04D827D
S11339B0112C00F07F81122C00F08780132C00F072
S11339C09A80142C00F0DF80152C00F0E481162C72
S11339D000F03882172C00F03282182C00F02C8270
S11339E0192C00F054821A2C00F04E821B2C00F08B
S11339F0ED801C2C00F006811D2C00F01E811E2C75
S1133A0000F023821F2C14BF4FF0FF394FF006093A
S1133A10002B5DD0012B6BD0022B00F0B980032B5F
S1133A2000F0CF80042B00F0C080052B3FF490AB56
S1133A30062B3FF48EAB072B3FF48BAB082B3FF4E4
S1133A4088AB092B54D00A2B3FF483AB0B2B00F02B
S1133A509F800C2B00F0B5800D2B3FF479AB0E2B1F
S1133A603FF418AC0F2B36D0102B00F0D880112B5C
S1133A7000F0E680122B2BD0132B39D0142B00F03E
S1133A803981152B3FF42DAC162B3FF40AAC172BC0
S1133A9042D0182B72D0192B00F084801A2B77D0C7
S1133AA01B2B00F08E801C2B7FD01D2B13D01E2BC4
S1133AB000F0B5801F2B14BF4FF0FF330723FFF72F
S1133AC048BB0522DFE606263FE74FF007099FE7DC
S1133AD00823FFF73EBB0523FFF73BBB4FF0040968
S1133AE0FFF7CDBA0326FFF768BA0125FFF7A7B998
S1133AF00923FFF72EBB4FF0080989E7072624E7BF
S1133B000622C0E64FF00B09FFF7B9BA0526FFF706
S1133B1054BA0127FFF768B90D23FFF71ABB0A222D
S1133B20C1E40B2621E54FF00C0981E5082647E6A0
S1133B304FF00108FFF73AB9082721E64FF00808CB
S1133B4001E608264CE44FF0080CDDE508271DE4E7
S1133B504FF00808FFF7F2BB4FF0080CFFF7C5BBA6
S1133B604FF00509FFF78BBA0426FFF726BA0A2699
S1133B70FBE4092297E44FF00B0959E50E23FFF704
S1133B80E8BA07227FE64FF0090941E70826DCE698
S1133B900023FFF7DEBA0B26FFF70FBA4FF00C092C
S1133BA0FFF76DBA0F23FFF7D4BA0223FFF7D1BA98
S1133BB00B2278E40C26D8E44FF00D0938E50822EE
S1133BC061E60123FFF7C5BA0926BEE64FF00009F6
S1133BD01EE70B22FFF790B94FF00D09FFF74FBA1C
S1133BE00C26FFF7EAB94FF0010CFFF7C0B84FF00D
S1133BF00E091DE50D26B8E40C2254E4092242E620
S1133C000026A2E64FF0010902E70D26FFF7D5B919
S1133C100C22FFF771B94FF00E09FFF730BA0623F3
S1133C20FFF797BA0E26A0E44FF00F0900E50D2226
S1133C3039E4002227E6012687E64FF00209E7E689
S1133C400723FFF786BA4FF00F09FFF718BA0D22C2
S1133C50FFF752B90E26FFF7B0B90225FFF7EFB808
S1133C600F2682E40E221EE44FF00209E0E44FF036
S1133C700309CDE6012206E60F26FFF79EB90E22C0
S1133C80FFF73AB901269BE54FF00609FFF7F7B9AC
S1133C9002265AE60227FFF7A7B84FF00309C7E444
S1133CA00126FFF79DBB02265FE40F22FFF7FBBB53
S1133CB003264AE64FF00609AAE60222E3E50F22AC
S1133CC0FFF71AB94FF00709FFF7D9B94FF0020807
S1133CD0FFF76CB80626FFF770B9012750E54FF0DF
S1133CE00609A5E40127FFF751BB03263DE40222A0
S1133CF0FFF7D9BB0A23FFF72CBA0322C3E54FF021
S1133D00010820E50726FFF758B90622FFF7F4B8A3
S1133D104FF00809FFF7B3B94FF0020CFFF727B8CB
S1133D204FF00909FFF7ABB94FF00108FFF706BBE5
S1133D300322FFF7B8BB4FF0070979E4062614E421
S1133D400722FFF7D9B84FF0010CDDE40826FFF78E
S1133D5034B94FF00A09FFF792B94FF0010CFFF79D
S1133D60C4BA4FF0080963E40726FFF7FEBB062236
S1133D70FFF799BB0926FFF720B90A26FFF71DB9FB
S1133D800922FFF7B9B80822FFF7B6B8052617E5E8
S1133D900826FFF7EABB4FF00A0939E60325FFF7C7
S1133DA04EB84FF0090943E40722FFF77CBB0A260B
S1133DB0CBE50527E4E40926FFF712BB0327FFF749
S1133DC013B84FF00308FEF7F1BF0A22FFF794B8C7
S1133DD00A2258E54FF00508B5E44FF0040917E648
S1133DE04FF0000924E44FF0090CFFF77EBA4FF0BE
S1133DF00908FFF7A3BA0226FFF7F2BA4FF0050C41
S1133E0082E40227FFF7C2BA0927FFF7BFBA4FF0CF
S1133E10030CFEF7ACBF4FF0050CFEF7A8BF4FF044
S1133E200009FFF72CB90022FFF73DBB0422FFF77E
S1133E303ABB0122FFF737BB4FF00D09E8E54FF01D
S1133E400C09E5E54FF00B09E2E54FF00509DFE564
S1133E500A26FFF7C5BA4FF00A08FFF76FBA4FF00A
S1133E600A0CFFF742BA4FF00109FFF708B94FF007
S1133E700409FFF7DDBB4FF00109FFF7D9BB0527A4
S1133E80FEF7B2BF0A269BE44FF00F09C0E54FF0DE
S1133E900E09BDE50F2658E50E2656E50D2654E518
S1133EA00C2652E50B2650E505264EE50426FFF7C1
S1133EB05CBB0126FFF759BB0527FFF767BA042649
S1133EC043E50D22DFE40C22DDE40B22DBE40422D3
S1133ED0D9E44FF0050CFFF708BA4FF0020CFFF7D6
S1133EE004BA4FF00508FFF729BA4FF00208FFF7AC
S1133EF025BA0526FFF774BA0026FFF736BB052559
S1133F00FEF79DBF4FF00A0CFFF7FEBB0F22BAE489
S1133F100E22B8E40A2733E40A27FFF737BA00264B
S1133F20FFF74BB84FF00508FEF740BF4FF0050907
S1133F30FFF77EBB0522FFF7B6BA0526FFF715BBD0
S1133F404FF00A08FFF7FFBB0122FEF7D5BF00229E
S1133F50FEF7D2BF0522FEF7CFBF0422FEF7CCBF87
S1133F600322FEF7C9BF0222FEF7C6BF38B51446C6
S1133F7001F066F9227D0023012A0546636484F872
S1133F804830A3630AD0E36A1BB1626B2046002168
S1133F909847284601F058F9012038BD606DFEF7B6
S1133FA02BFEF0E7F0B504460068E568626300267E
S1133FB04FF4406C082D174684F8506087B0C0F861
S1133FC00CC00A46E36222D900F1240300F13C0547
S1133FD00126DFF844E0A16A206ACDF80CE04FF036
S1133FE0010CCDE90176CDF800C00494FEF7C8FABF
S1133FF0616AE0690296002601972A4604F11003DB
S1134000CDE903660096FEF7A1FA07B0F0BD00F112
S11340101C0300F13405DCE76D3F00002DE9F0439B
S1134020044690460268C068C4F8348000264FF401
S11340304065082884F8506087B0D5608946E362FB
S113404021D902F1240302F13C0501260027104A7C
S1134050A16A206A04940392CDE9018604F1300236
S11340600097FEF78DFA616AE06904970124CDE9AF
S11340700267CDF804804B462A460094FEF766FAA0
S113408007B0BDE8F08302F11C0302F13405DDE75B
S11340906D3F000091F84830012B00D0704710B5F7
S11340A00C4682B00DF10601206AFEF7A3FA9DF8D2
S11340B00630BBB90DF10701E069FEF7C3FA9DF8BC
S11340C007306BB9636BA363E36A0C496164002234
S11340D084F8482023B1D4E90D02821A2046984777
S11340E002B010BD206AFEF765FAE069FEF762FAD5
S11340F004F13801206AFEF7CDFAE5E7052000F067
S113410038B5054601F09CF895F8483043B903F0FA
S1134110FF04012385F8483001F096F8204638BDA5
S113412001F092F8004838BD032000F0F0B5734E5A
S113413007460C460FCE87B06D460FC596E80300C0
S113414085E80300002F00F0B080ACB158220021B4
S1134150384603F0A4FA2368694A93423D460ED0D8
S1134160684A934200F0A480674A934200F0A88012
S1134170664A934200F08580654807B0F0BD654B00
S1134180654AFB644FF44023C7E9092327460FCF50
S11341902E460FC697E8070086E80700637D012BCB
S11341A008BF8DF80E30A37D4BB1012B00F0908039
S11341B0022B00F09580032BDED14FF44073ADF851
S11341C01030237D5548012B05BF00224FF47A732C
S11341D0A3688DF80D200121029300F07BFC0121DE
S11341E04F4800F077FC0121E86C00F073FC69464D
S11341F0206801F0F5F96369226823F47F0323F44E
S11342007F431BB9136843F4803313602379A17986
S1134210E07D66791B02090600283AD10F20506719
S11342200B43E079916F334343EA004301F0E031FB
S11342300B43936701212846FEF766FD00289CD1B5
S113424000F0FEFF374B1A78002A46D101221A707B
S113425000F0FAFFFEF792FB237D012B45D0FEF719
S11342603DF9002105F11C00FEF70AF938B90146B1
S113427005F12000FEF704F900283FF47EAF2A4838
S11342807BE72A4B2A4AFB644FF47023C7E90923CE
S11342907CE70B205067906F0B4320F01F213343C2
S11342A021F01F010B439367C4E7224807B0F0BD18
S11342B0214B224AFB644FF45023C7E9092365E7E5
S11342C01F4B204AFB644FF46023C7E909235DE7D1
S11342D04FF40073ADF8103073E700F0B5FFBBE79F
S11342E04FF48073ADF810306BE705F15400FEF71E
S11342F01BFB0028B3D014483FE700BFECC5000007
S1134300000001400004014000080140000C01408D
S1134310022000F00042040001000C0040410500AE
S113432000350A00A8B20220092000F0007204003F
S113433001000F00012000F00052040001000D00F4
S11343400062040001000E00042000F02DE9F04199
S1134350057D82B0EDB1B9B1B2B1B2F5006F13DC35
S11343600446984616460F46FFF7CAFE054660B94E
S1134370089BD3B9237E012B10D0434632463946DD
S11343802046FFF70FFE00E00C4D284602B0BDE8C2
S1134390F0810B4D284602B0BDE8F0812046FEF7BF
S11343A099FC0028E9D00546EFE7606D054B0094C1
S11343B0089A2946FEF736FBDCE700BF022000F02E
S11343C0082000F0954000002DE9F041057D82B001
S11343D0EDB1B9B1B2B1B2F5006F13DC0446984641
S11343E016460F46FFF78CFE054660B9089BD3B905
S11343F0237E012B10D04346324639462046FFF730
S11344000DFE00E00C4D284602B0BDE8F0810B4DD6
S1134410284602B0BDE8F0812046FEF75BFC002888
S1134420E9D00546EFE7606D054B0094089A2946EC
S1134430FEF7F8FADCE700BF022000F0082000F0E5
S113444095400000F0B4314F314B3E6803F1280031
S11344503146002553F8042C3AB10A681AB11C7885
S11344600A79944201D9191F012508338342F1D1F5
S1134470002D47D13368002B3BD0264BDA6922F05C
S1134480FF02DA61D96932790A43DA611A6B42F0C0
S113449080421A63204F214B3E6803F128003146C5
S11344A0002553F8042C3AB10A681AB11C780A7929
S11344B0944201D2191F012508338342F1D1F5B981
S11344C033687BB1134BDA6922F47F42DA613179C4
S11344D0DA6942EA0122DA611A6B42F000421A6395
S11344E0F0BC70470B4A136B23F000431363F0BC1A
S11344F07047084A136B23F080431363CAE739609B
S11345000E46DDE739600E46B4E700BFB0B20220C4
S1134510BCB2022000300E40B4B20220E4B2022049
S1134520214A136B516A0B4010B51FD45B0019D597
S11345301E4B1B681C688CB1002119605960106AFD
S11345401B4B1C4A1B68C0B2C00082FB0020A3EBBB
S1134550500000F3070040B20121A047124B4FF076
S11345608042DA62BDE81040FFF76CBF124B1B6853
S11345701C6884B1002119605960106A0C4B0D4A03
S11345801B68C0B2C00082FB0020A3EB500000F304
S1134590070040B2A047044B4FF00042DA62BDE886
S11345A01040FFF74FBF00BF00300E40B0B20220F2
S11345B0ACB2022067666666B4B20220FFF7B0BFF1
S11345C0044BDA68D20604D5034A1020012158614D
S11345D0117070470080014008B3022006488047EC
S11345E00649074A074B9A42BEBF51F8040B42F8EA
S11345F0040BF8E7FBF7AAFD9546000040CB00004A
S11346000000002028020020FEE700BF0048704799
S1134610005A62020F4BD3F8943003F00703032BC4
S113462014D0042B0FD0022B0AD00B4B1868094B63
S1134630D3F80031C3F304230133B0FBF3F0704724
S1134640064B1868F3E7064B1868F0E74FF4004090
S1134650EDE700BF00400E403C0000203800002081
S11346604000002008B5FFF7D5FF054B054AD3F8F5
S11346700831C3F308230133B0FBF3F0106008BD25
S113468000400E4034000020014B1868704700BF02
S113469038000020034AD2F8883043F47003C2F88B
S11346A08830704700ED00E04FF40040704700BFD1
S11346B04FF47A70704700BF014B1868704700BF11
S11346C040000020F0B444004AB12718214D3F01B6
S11346D001263D448E40A3B305F1C0652E60251824
S11346E02D0105F18045072905F5204519D88F00CE
S11346F06E684FF00F0C0CFA07FC26EA0C0602FA5F
S113470007F73E436E6052B90444124A2401012063
S1134710224400FA01F1C3B902F180621160F0BCD5
S1134720704701F18046083EAF68B6004FF00F0CA9
S11347300CFA06FC27EA0C0702FA06F63E43AE60C2
S1134740E1E705F180652E60C9E702F1C062F0BCC3
S1134750116070470CA0004070B4294D294C2A4BBD
S1134760466B002A16BF2B4600221022A04201D01D
S113477070BC7047022903EA06031FD009D9062931
S113478032D081291AD003292AD01E4A536370BC1F
S1134790704739B30129F8D11C48016804680068DE
S11347A0090C000C00F0F00001F4FE410143C4F3D5
S11347B00340014301FA02F21343E6E7144908688F
S11347C00C68096800F4FE4004F00F04204301F073
S11347D0F001014301FA02F213430A4A5363D6E794
S11347E00B48DAE70949EAE70A480168006801F07A
S11347F00F0100F0F000014301FA02F21343C4E791
S1134800FFFF0080002000400080FFFF1082E00FC7
S11348101482E00F1882E00F70B5CB780D4606467F
S1134820002B31D002681B02120603F4FE441CD58F
S11348300A23B360AA7828786B782979120402F4E1
S1134840FE0243EA00631343234309B143F0100318
S113485006F1806006F1C06269793360C0230360A9
S1134860116033681B0607D470BD104800F028FAA5
S11348700E4800F025FADBE70D4800F021FA0B485A
S1134880BDE8704000F01CBA08480A4C00F018FA61
S1134890094B0444A3FB0434A40DC9D0631E7F2B2D
S11348A028BF7F231B0203F4FE44C1E740410500F7
S11348B0B8003000FF23F40083DE1B4330B44568A6
S11348C0C90025FA01F40346E4B20020FF2C187451
S11348D007D18C40D00825EA040405468D402C43BA
S11348E05C6002F0070250189A68012181400A4373
S11348F09A6030BC704700BF38B50C4608238978ED
S1134900836001220546FFF727FFE3786178627C24
S1134910DB0043EA01630AB143F00053A27C0AB10D
S113492043F00403227C0AB143F00203E27C0AB19F
S113493043F00103A27811061BD443EA4213AB618E
S1134940EB6923F4F21323F007032178627D43EA31
S113495041430AB143F480436A0102F18442217D58
S1134960EB61D160D4E90112E36869622A62AB6247
S113497038BD43F0E003AB61E96921F4F21122F0A0
S1134980800321F007010B43DFE700BFB0F5FA4FC6
S113499010B50C4C38BF4FF4FA40844228BF04468B
S11349A051B1631E1944B1FBF4F020B101387F28E2
S11349B028BF7F20C0B210BD034800F081F9014632
S11349C0EFE700BF0024F4004041050008B550B1F2
S11349D0084B00F5742000F23F20A3FB0030800C4C
S11349E00138C0B208BD044800F06AF90028EFD1CC
S11349F008BD00BF83DE1B434041050010B4134BC8
S1134A00134A5B680024C9B28C42234608D00133A0
S1134A10052B02F1080215D012F8084C8C42F6D18D
S1134A2052F80C4C8442F2D30A4A02EBC3035B797A
S1134A301A0606495DF8044B4B6823F04073134390
S1134A404B6070474FF04072F3E700BF00000E4028
S1134A501CC6000010C6000038B5074C41F671337F
S1134A60256C2364FFF7D2FD0021FFF7C7FF0DB1CA
S1134A700023236438BD00BF00000E400C4A0D4BD8
S1134A80D2F89010516A21F0300141F0100110B4B5
S1134A905162146BC0F3C311033123400F2928BFA3
S1134AA00F21034343EA017313635DF8044B70471A
S1134AB000400E4000F8FF0F38B5054C41F6713345
S1134AC0256C2364FFF79AFF0DB10023236438BDDE
S1134AD000000E40C0F30323013B30B4092B0CD873
S1134AE0DFE803F00D110B0B152D190B2705164CE0
S1134AF0C0F3043020448000016030BC7047C0F330
S1134B000430124CF6E7C0F30430114CF2E7C0F362
S1134B100430104CEEE7104CC0F3043010250F4B5A
S1134B20D3F84421D207E5D4D3F840212A42FBD15B
S1134B30E0E7C0F304300A4C4FF48035EFE7C0F3EC
S1134B400430084C0125EAE7800AF2100000F21054
S1134B500006F2108005F2104007F21000400E40EB
S1134B608007F2100007F21000F00F000138072848
S1134B7047D8DFE800F0121D3346283E4604264B92
S1134B80D3F85C3103F03003202B40D0302B40D0DD
S1134B90102B0CBF0720012070471F4BD3F8943013
S1134BA003F00703023B022B2FD81C4AD05C70474A
S1134BB0194BD3F8803003F00703013B032B22D8B1
S1134BC0174AD05C7047144BD3F8883003F00703BE
S1134BD0013B032B17D8134AD05C70470E4BD3F814
S1134BE0843003F00703013B032B0CD80E4AD05C3E
S1134BF07047094B1B6F13F0010F14BF09200720E6
S1134C00704700207047012070470520704704203A
S1134C1070470820704700BF00400E4004C60000E3
S1134C2008C6000008C600000CC6000008B501460E
S1134C30FFF79AFF1E4B99422FD01E4B994226D064
S1134C401D4B99421DD00138032803D8DFE800F03A
S1134C501511042B002008BDFFF704FD174BD3F8F2
S1134C600031C3F300635A1C01239340B0FBF3F0FB
S1134C7008BDBDE80840FFF71FBDBDE80840FFF7C9
S1134C8013BD0E4BD3F8800000F00700DBE70B4B9D
S1134C90D3F8880000F00700D5E7084BD3F8840068
S1134CA000F00700CFE7BDE80840FFF701BD00BFF3
S1134CB003001E000500220002001C0000400E40FC
S1134CC000F47810B0F5A01F00F0BD8008B51BD922
S1134CD0B0F5F01F33D054D9B0F5301F34D066D9B5
S1134CE0B0F5381F6BD0B0F5401F1AD15748FFF705
S1134CF03BFF072842D0082800F09B80042810D1ED
S1134D00BDE80840FFF7C0BCB0F5202F13D00AD986
S1134D10B0F5602F2DD0B0F5801F2FD0B0F5402F07
S1134D201CD0002008BDB0F5003F73D0B0F5802F33
S1134D3065D00028F5D1BDE80840FFF76BBC4448B6
S1134D40BDE80840FFF772BF4248FFF76FFF424BD0
S1134D50D3F82031C3F30113D84008BDFFF75AFC40
S1134D603D4BD3F81431C3F304230133B0FBF3F008
S1134D7008BD3A48FFF7F8FE072856D1384B1868A3
S1134D8008BDB0F5C01F2DD0B0F5E01F25D0B0F59B
S1134D90B01FC6D12F48FFF749FF2F4BD3F820216E
S1134DA0012302F00F029340B0FBF3F008BDB0F50D
S1134DB0081FB6D12B48BDE80840FFF737BF244889
S1134DC0FFF734FF244BD3F82831C3F301231A1D12
S1134DD001239340B0FBF3F008BD1E48BDE8084032
S1134DE0FFF724BF1A48FFF721FF1B4BD3F82821F4
S1134DF00123C2F301129340B0FBF3F008BDFFF7A7
S1134E0009FC154BD3F80C31C3F308230133B0FB71
S1134E10F3F008BDFFF7FEFB0F4BD3F80831C3F3E3
S1134E2008230133B0FBF3F008BD09287FF479AF00
S1134E3081E7FFF7EFFB084BD3F80031C3F30423FA
S1134E4003FB000008BD0748FFF7F0BEB8003000C0
S1134E5003001E0002001C0000400E4006000E006D
S1134E6044000020050022000F4B5B6A13F0300F52
S1134E7006D0202914D0302902D009B10B4A01E010
S1134E804FF440020849D1F8903032EA0303FAD1D2
S1134E90530246BFD1F8A000C0F380200120704720
S1134EA04FF40002EEE700BF00400E40FF33E1077D
S1134EB0F8B5042815D8DFE800F021152D432800A3
S1134EC00021374C26661C68002CFCD04AB1354CB6
S1134ED02C44A4002368002BFCD0022801D1002913
S1134EE03CD1F8BD304B8024402607250029E7D16A
S1134EF02B4A14661A68002AFCD1F8BD2B4B4FF4D8
S1134F0000744FF480760925F0E7294B20241026FD
S1134F100525EBE700293FD0214C636A13F0300FDD
S1134F2013D1244BDB6B636ADB0713D5656A224B11
S1134F3025F0300545F01005656204260325C0E719
S1134F40012635461D4B0224D0E71B4B04260325BE
S1134F500021B6E7184B04260325B2E7104A104D8A
S1134F60516A11F001011FBF20214FF48063C2F880
S1134F70A8305166FFF778FFD5F89C700122002114
S1134F800220FFF795FFC7F30A00FFF777FD2E66AF
S1134F902368002BFCD0F8BD074B0824A8E700BF0A
S1134FA000400E408004F2101812C8432012C84377
S1134FB01012C84300300E400812C8430012C84300
S1134FC01128F8B50C460DD000F00F000138072861
S1134FD007D8DFE800F00B5052062B4706150423D0
S1134FE02B60F8BD04297CD0052948D00025023C5B
S1134FF0032CF6D8DFE814F0E1007C00C800D500EB
S11350004C1E072CEDD801A353F824F0D551000011
S1135010E34F0000E34F0000E7510000E34F0000BE
S1135020E34F0000D9510000C1510000754D013C0F
S1135030092CD6D801A353F824F000BFDF50000098
S1135040D1500000C3500000E34F0000E34F0000C4
S113505093500000E34F0000E34F0000E34F0000D3
S1135060DF4F0000072900F0C8800929B9D1664B39
S113507001221A67F8BD654DD9E7654DD7E7654A42
S1135080654B15689D42B1D90021284600F01AF9F4
S1135090ADE7FFF7E7FA614B98426CD800231C4652
S11350A05F49594A0C60D2F8000101F5AE5108314C
S11350B020F0807018430124C2F8000103230C601F
S11350C08EE7012211461046FFF7F2FE012387E71F
S11350D0012211460020FFF7EBFE022380E70023A4
S11350E07EE7FFF7D1FA054600283FF47FAFCBE710
S11350F00120032401221146FFF7DAFEFFF7ACFC7E
S11351001DB1484A1368002BFCD13F4B46485C67ED
S1135110FFF7D6FD414B98426CD9444B0124984289
S11351208CBF4FF000734FF080733D49364A0C60DA
S1135130D2F8000120F080701843C2F80001FFF794
S113514091FA384B1C68002CFCD1394B394E596804
S1135150376C41F67133C1F301413364FFF74EFC00
S113516007B13464002D7FF43CAF28460121BDE82B
S1135170F84000F0A7B82D4B012498428CBF4FF0A3
S113518000734FF080738BE7254B1F4A0121196090
S1135190D2F80031022043F08073C2F80031044693
S11351A0A8E71F4B184A01241C60D2F8003143F0D1
S11351B08073C2F8003103209CE70020042499E79F
S11351C03021114AD2F85C3123F030030B43C2F88A
S11351D05C31F8BD0021F4E7012211460420FFF7F9
S11351E067FE1021EDE7012211460220FFF760FE61
S11351F02021E6E700231C4697E7034B00221A67A9
S1135200F8BD00BF88400E4000400E4080400E4074
S113521084400E403C000020002D31010048E8018C
S11352204000C843C800C64300250A000090D003CC
S113523000300E4000000E4000B962B6704700BF57
S1135240EFF3108072B67047FFF7F6BF1A4B2DE9E3
S1135250F041D3F8003104460E46FFF7DBF9174A54
S113526007461368002BFCD1DFF85480D8F80430CB
S1135270C3F301439C420ED0C4F102031025022C57
S113528005FA03F50FD0C8F810501EB10B4A136885
S1135290002BFCD10CB1BDE8F08121463846BDE8B5
S11352A0F041FFF709BC21463846FFF705FCC8F872
S11352B01050002EEFD0E9E700400E40C800C6436E
S11352C000300E4010B5104B82B0D3F8004158B1F5
S11352D00E4B1B7813B10E4B98420ED9002002B02E
S11352E0BDE81040FFF7B2BF0191FFF793F9C4F393
S11352F0042404FB00000199EAE7022002B0BDE89F
S11353001040FFF7A3BF00BF00400E400CB30220C3
S1135310FF2C310138B5044601211148FFF7DAFBAF
S113532063782578A0780F4A0F491B0243EA056386
S11353300343002013604FF0004510624FF0FF3329
S1135340D06250634FF40070D5669366C1F8800153
S1135350E3785B01DBB281F80933086038BD00BF34
S113536000550A0000200E4000E100E0F8B5CB7AB9
S11353708E7A0D7B234F1B050C4643EA064300EB54
S1135380400607EB061643EA4553C0B20125497BA4
S113539022F0030285402068C6F88000C6F8881011
S11353A0C6F88430C6F89820BD66FFF749FFFB6E47
S11353B0227A2B43FB6612B17B6B2B437B63637AAC
S11353C01BB1104AD36A2B43D3620E4B22791B685C
S11353D022B1D243120262F47F42134062790AB1CD
S11353E043EA0223A2790AB123EA0203E27902B171
S11353F01343044A044913600D60D563BDE8F840C3
S1135400FFF722BF00200E4028200E4410B5C0B282
S113541001248440FFF714FF054A0649D36E23EAAA
S11354200403D3660C60BDE81040FFF70DBF00BF56
S113543000200E4020200E44F8B5C3B201259D4043
S11354400446FFF7FDFE0B4B04EB44041F6E9E6AFB
S113545003EB0414D4F88C40FFF7F6FE354206D172
S1135460C4F30A1008B93D4200D10130F8BD002050
S1135470F8BD00BF00200E4030B48B784C780A7819
S1135480CD789B0143EA840313430C794A798979E3
S113549043EA051343EAC423043043EA0233000118
S11354A0024A43EA4143135030BC70470020044091
S11354B0437941780278F0B40479C7798678C5785D
S11354C01B0343EA0423002943EA02030CBF00211F
S11354D004218479027A002E43EA074343EA010354
S11354E00CBF00211021002D43EA01030CBF002151
S11354F02021002C43EA01030CBF00214FF400419A
S11355000B430AB143F40033014AF0BC1360704703
S1135510002004400A7870B40AB902234360CB78AF
S11355208D780C7A8E791B0443EA05632343CD7985
S11355304C7843EA862343EA0523002545620CB1EF
S113554043F040034C7A0CB143F080038C7A0CB1E5
S113555043F02003CC7A0CB143F010030C790CB166
S113556043F400534C790CB143F08053097B09B1E7
S113557043F0080303600AB10123436070BC704721
S1135580154A1649002330B4904240F6AA6541F208
S11355900504C5600360446083604361C36481643F
S11355A043678367C36714D002F5806290420AD0D0
S11355B002F5806290420CD002F58062904202D0E3
S11355C0836530BC7047036583650023C36530BCC5
S11355D0704700230365F3E700000140F9FF010071
S11355E070B50C460546FFF7CBFF228AA07B2B68DB
S11355F0217D42F00102002843EA02030CBF00228D
S11356004FF4806213432B602B6809B143F00053BD
S1135610A27C2B601AB1E37C43F08003AB65237B4F
S1135620D4E9010643F480536B60E0B1637B013835
S11356307600B0FBF6F0000268610BB11023EB605A
S1135640637D1BB12B6843F480332B60A37DE27D23
S113565021781B07120503F0E04302F4E002134330
S11356602B66E96070BD0248FFF72AFBDEE700BF46
S11356704041050081F0004102E000BF83F0004397
S113568030B54FEA41044FEA430594EA050F08BFD9
S113569090EA020F1FBF54EA000C55EA020C7FEA9D
S11356A0645C7FEA655C00F0E2804FEA5454D4EB1A
S11356B05555B8BF6D420CDD2C4480EA020281EAE4
S11356C0030382EA000083EA010180EA020281EA1C
S11356D00303362D88BF30BD11F0004F4FEA01316E
S11356E04FF4801C4CEA113102D0404261EB41017D
S11356F013F0004F4FEA03334CEA133302D0524203
S113570063EB430394EA050F00F0A780A4F10104BE
S1135710D5F1200E0DDB02FA0EFC22FA05F28018F8
S113572041F1000103FA0EF2801843FA05F35941DE
S11357300EE0A5F120050EF1200E012A03FA0EFC5D
S113574028BF4CF0020C43FA05F3C01851EBE37187
S113575001F0004507D54FF0000EDCF1000C7EEBA4
S113576000006EEB0101B1F5801F1BD3B1F5001FE2
S11357700CD349085FEA30004FEA3C0C04F1010401
S11357804FEA445212F5800F80F09A80BCF1004F2A
S113579008BF5FEA500C50F1000041EB045141EAAC
S11357A0050130BD5FEA4C0C404141EB010111F4AD
S11357B0801FA4F10104E9D191F0000F04BF014658
S11357C00020B1FA81F308BF2033A3F10B03B3F136
S11357D020020CDA0C3208DD02F1140CC2F10C02C6
S11357E001FA0CF021FA02F10CE002F11402D8BF24
S11357F0C2F1200C01FA02F120FA0CFCDCBF41EAF0
S11358000C019040E41AA2BF01EB0451294330BDBE
S11358106FEA04041F3C1CDA0C340EDC04F114049B
S1135820C4F1200220FA04F001FA02F340EA030072
S113583021FA04F345EA030130BDC4F10C04C4F1B8
S1135840200220FA02F001FA04F340EA0300294698
S113585030BD21FA04F0294630BD94F0000F83F4E2
S1135860801306BF81F480110134013D4EE77FEAC5
S1135870645C18BF7FEA655C29D094EA050F08BF11
S113588090EA020F05D054EA000C04BF19461046F2
S113589030BD91EA030F1EBF0021002030BD5FEA36
S11358A0545C05D14000494128BF41F0004130BD5E
S11358B014F580043CBF01F5801130BD01F00045B2
S11358C045F0FE4141F470014FF0000030BD7FEA25
S11358D0645C1ABF194610467FEA655C1CBF0B4620
S11358E0024650EA013406BF52EA033591EA030F37
S11358F041F4002130BD00BF90F0000F04BF00212F
S1135900704730B54FF4806404F132044FF0000561
S11359104FF0000150E700BF90F0000F04BF0021DA
S1135920704730B54FF4806404F1320410F0004540
S113593048BF40424FF000013EE700BF42004FEA3B
S1135940E2014FEA31014FEA02701FBF12F07F43B8
S113595093F07F4F81F06051704732F07F4208BF6F
S1135960704793F07F4F04BF41F40021704730B576
S11359704FF4607401F0004521F000411CE700BFC2
S113598050EA010208BF704730B54FF000050AE045
S113599050EA010208BF704730B511F0004502D546
S11359A0404261EB41014FF4806404F132045FEA48
S11359B0915C3FF4D8AE4FF003025FEADC0C18BFF1
S11359C003325FEADC0C18BF033202EBDC02C2F1E3
S11359D0200300FA03FC20FA02F001FA03FE40EA75
S11359E00E0021FA02F11444BDE600BF70B54FF079
S11359F0FF0C4CF4E06C1CEA11541DBF1CEA135557
S1135A0094EA0C0F95EA0C0F00F0DEF82C4481EABE
S1135A10030621EA4C5123EA4C5350EA013518BFDE
S1135A2052EA033541F4801143F4801338D0A0FBCB
S1135A3002CE4FF00005E1FB02E506F00042E0FB78
S1135A4003E54FF00006E1FB03569CF0000F18BF7E
S1135A504EF0010EA4F1FF04B6F5007F64F5407426
S1135A6004D25FEA4E0E6D4146EB060642EAC621B9
S1135A7041EA55514FEAC52040EA5E504FEACE2E26
S1135A80B4F1FD0C88BFBCF5E06F1ED8BEF1004F29
S1135A9008BF5FEA500E50F1000041EB045170BDA5
S1135AA006F0004646EA010140EA020081EA0301E9
S1135AB0B4EB5C04C2BFD4EB0C0541EA045170BDE5
S1135AC041F480114FF0000E013C00F3AB8014F15F
S1135AD0360FDEBF002001F0004170BDC4F10004A8
S1135AE0203C35DA0C341BDC04F11404C4F1200529
S1135AF000FA05F320FA04F001FA05F240EA020084
S1135B0001F0004221F0004110EBD37021FA04F6B9
S1135B1042EB06015EEA430E08BF20EAD37070BD73
S1135B20C4F10C04C4F1200500FA04F320FA05F0D2
S1135B3001FA04F240EA020001F0004110EBD370D4
S1135B4041F100015EEA430E08BF20EAD37070BD44
S1135B50C4F1200500FA05F24EEA020E20FA04F31D
S1135B6001FA05F243EA020321FA04F001F00041CC
S1135B7021FA04F220EA020000EBD3705EEA430E3D
S1135B8008BF20EAD37070BD94F0000F0FD101F06C
S1135B900046400041EB010111F4801F08BF013CA5
S1135BA0F7D041EA060195F0000F18BF704703F0E3
S1135BB00046520043EB030313F4801F08BF013D6A
S1135BC0F7D043EA0603704794EA0C0F0CEA135526
S1135BD018BF95EA0C0F0CD050EA410618BF52EAE0
S1135BE04306D1D181EA030101F000414FF00000E6
S1135BF070BD50EA410606BF1046194652EA4306F4
S1135C0019D094EA0C0F02D150EA013613D195EA67
S1135C100C0F05D152EA03361CBF104619460AD1AF
S1135C2081EA030101F0004141F0FE4141F47001B9
S1135C304FF0000070BD41F0FE4141F4780170BDA9
S1135C4070B54FF0FF0C4CF4E06C1CEA11541DBF0E
S1135C501CEA135594EA0C0F95EA0C0F00F0A7F810
S1135C60A4EB050481EA030E52EA03354FEA01313D
S1135C7000F088804FEA03334FF0805545EA131350
S1135C8043EA12634FEA022245EA111545EA106518
S1135C904FEA00260EF000419D4208BF964244F1AF
S1135CA0FD0404F5407402D25B084FEA3202B61ACE
S1135CB065EB03055B084FEA32024FF480104FF4A2
S1135CC0002CB6EB020E75EB030E22BFB61A754616
S1135CD040EA0C005B084FEA3202B6EB020E75EBA9
S1135CE0030E22BFB61A754640EA5C005B084FEA11
