:100000000C94A1010C94D2010C94D2010C94D20155
:100010000C94D2010C94D2010C94D2010C94D20114
:100020000C94D2010C94D2010C94D2010C94D20104
:100030000C94D2010C94D2010C94D2010C94D201F4
:100040000C94D2010C94BC2F0C94D2010C94D201CC
:100050000C94D2010C94D2010C94D2010C94E33292
:100060000C94D2010C9498310C949F300C94D201D2
:100070000C94D2010C94D2010C94D2010C94D201B4
:100080000C94822F0C94D2010C94D2010C94D201C6
:100090000C945A310C9460300C94D2010C94D2011F
:1000A0000C94D2010C94D2010C94D2010C94D20184
:1000B0000C94D2010C94D2010C94D2010C94D20174
:1000C0000C94D2010C94D2010C94D2010C941C31EA
:1000D0000C9421300C94D2010C94DE300C94E22F5D
:1000E0000C94D2017C06CB1890183A18FF17AC1765
:1000F00072170F17BC1669161616BF155715B10DD6
:10010000CB14F913E213B10D1813B10DB10D951203
:1001100053143C14B4147C122B12E831EC31F0313E
:10012000F631E731FC31023208320E3214321A3223
:1001300020322632E7312C323232E2310763423646
:10014000B79BD8A71A39685618AEBAAB558C1D3C68
:10015000B7CC5763BD6DEDFD753EF6177231BF002C
:100160000000803F0C94CB180C9408320C94BC1601
:100170000C94FC310C9414320C9490180C94E731CC
:100180000C94F0310C9495120C94F9130C947C128D
:100190000C94B4140C94192C0C947C060C940F172A
:1001A0000C94EC310C9469160C9472170C94E213B5
:1001B0000C942C320C94BF150C94F6310C94203214
:1001C0000C94532C0C94AC170C94B10D0C942B1272
:1001D0000C9416160C9426320C9402320C940E2CAD
:1001E0000C943C140C94E2310C94552B0C941A3260
:1001F0000C94FF170C94E8310C940E320C945314A9
:100200000C94CB140C942D330C9418130C943A2C9E
:100210000C949C2B0C943A180C9457150C94323275
:10022000000020002300260029002C002F003200AF
:100230000001000003010601090100002100240063
:1002400027002A002D0030003300010100000401C6
:1002500007010A0100002200250028002B002E00C3
:100260003100340002010000050108010B01050501
:100270000505070508080808020202020A0A08081C
:10028000040404040101010101010101030303034A
:1002900003030303040707070C0C0C0C0C0C0C0CD9
:1002A0000202020206060606060606060B0B0B0BEA
:1002B0000B0B0B0B0102102020080810204010200F
:1002C000408002010201080402010102040810201A
:1002D0004080804020100804020180040201804018
:1002E0002010080402010804020101020408102081
:1002F000408001020408102040800000090A020822
:100300000B0C0D07060304010000000000000000B4
:1003100000000000000000000000000000000000DD
:1003200000000000000011100F000000000000009D
:1003300000000000000000000000000000000000BD
:100340002D3311241FBECFEFD1E2DEBFCDBF00E0C1
:100350000CBF12E0A0E0B2E0E8EAF6E700E00BBF75
:1003600002C007900D92A03DB107D9F72CE1A0ED96
:10037000B2E001C01D92A935B207E1F711E0C1EA70
:10038000D1E000E006C021970109802FFE010E9404
:10039000413BC03AD10780E00807A9F70E943934F1
:1003A0000C949C340C940000CF93DF93CDB7DEB750
:1003B00068970FB6F894DEBF0FBECDBF81EA91E11A
:1003C0009093DA138093D9138FE093E09093DC132A
:1003D0008093DB1381ED92E09093E0138093DF1321
:1003E0008EE080931B038FE08093900380E18093E5
:1003F000050481E180937A0482E180931D0383E107
:100400008093920384E18093070485E180937C04C8
:1004100010921F0381E08093940382E0809309048B
:1004200083E080937E0410920F03109211031092C8
:1004300010030FE013E0E12CF12CD80117961C9269
:10044000179718961C92189713961C921397149648
:100450001C92149759961C9259971A961C921A97A7
:1004600019961C92199716961C921697F801E05946
:10047000FF4F1082118212821382349610821182F1
:1004800012821382F801118A128A138A148A5596ED
:100490001D921D921D921C925897E559FF4F108294
:1004A000F801128EE45AFF4F1182108232961082A8
:1004B0001182128213823496108211821282138268
:1004C0001482158216821782389610823296118213
:1004D00010823296118210821C962C9130E0F90124
:1004E000E650FD4F8491F901EC54FD4FC490F901A1
:1004F000E259FD4FD490DD2091F081110E94D63158
:10050000ED2DF0E0EE0FFF1FEC5AFD4FA591B491D9
:100510009FB7F8948C91C0948C218C939FBFF80165
:10052000268530E0F901E650FD4F8491F901EC5445
:10053000FD4FC490F901E259FD4FD490DD2091F0B8
:1005400081110E94D631ED2DF0E0EE0FFF1FEC5A25
:10055000FD4FA591B4919FB7F8948C91C0948C21D4
:100560008C939FBFFFEFEF1AFF0A0B581F4F24E039
:10057000E216F10409F061CFE091DF13F091E0138E
:10058000108281E081839AE39583148286839BE3C2
:100590009287118683879CE397871686808B9DE3DD
:1005A000948B138A858B9EE3918F108E828F9FE3AD
:1005B000968F158E878F90E493A312A284A391E463
:1005C00090A717A281A792E495A714A686A793E403
:1005D00092AB11AA83AB94E497AB16AA80AF85E4E3
:1005E00084AF13AE15AE7F013FEFE31AF30A8F011C
:1005F000035C1F4FCC24C394D7018C91811128C573
:10060000F7011182F5E0EF0EF11CE016F106A1F7FB
:100610000BE9A02E03E1B02E8091DF139091E0133F
:100620000091D9131091DA13F801E25BFF4F2FE22A
:10063000208332972EE22083339620E32083319665
:1006400021E3208333972AE0208340E050E060E2FA
:1006500073E4D8019B964D935D936D937C939E9725
:1006600040E050E060E87FE3F80147A750AB61ABA2
:1006700072ABD3964D935D936D937C93D6979C010B
:10068000235C3F4F57963C932E93569759963C9335
:100690002E935897EC56FF4F47E24083329746E23D
:1006A0004083339648E24083319649E24083339752
:1006B00048E04083B29747EDC42E42E3D42E49E38D
:1006C000E42E42E4F42EC082D182E282F382349698
:1006D00044E35FEE60EB7CE340835183628373838A
:1006E000349640835183628373837D973183208363
:1006F000329631832083E458FF4FABE2A0833297D8
:10070000AAE2A0833396ACE2A0833196ADE2A08347
:100710003397A9E0A083B297C082D182E282F382AC
:10072000349640835183628373833496408351832C
:10073000628373837D973183208332963183208354
:10074000E458FF4F27E12083329726E12083339638
:1007500028E12083319629E12083339724E0208308
:10076000B297C12CD12C58E4E52E53E4F52EC0826B
:10077000D182E282F38234964AE057ED63EA7BE36A
:1007800040835183628373833496408351836283B1
:1007900073837D979C012E5F3F4F31832083329678
:1007A0002B5F3F4F31832083E458FF4F2BE12083A1
:1007B00032972AE1208333962CE1208331962DE174
:1007C0002083339725E02083B297C082D182E282D2
:1007D000F3823496408351836283738334964083DB
:1007E0005183628373837D979C01245F3F4F3183E4
:1007F000208332962B5F3F4F31832083E458FF4F95
:100800002FE1208332972EE12083339620E220834C
:10081000319621E22083339726E02083B297C0826D
:10082000D182E282F3823496408351836283738360
:10083000349640835183628373837D979C012A5E43
:100840003F4F3183208332962B5F3F4F318320838C
:10085000E458FF4F23E22083329722E2208333962D
:1008600024E22083319625E22083339727E02083FA
:10087000B297C082D182E282F38234964083518360
:1008800062837383349640835183628373837D973D
:100890009C01205E3F4F3183208332968596918361
:1008A0008083F801108288EE93E0A0E0B0E08483BA
:1008B0009583A683B78313821282118260E172E06E
:1008C000C80140960E946C3264E172E0C8018A5A05
:1008D0009F4F0E946C326BE172E0C80184569F4FBB
:1008E0000E946C3262E272E0C8018E519F4F0E94FA
:1008F0006C3267E272E0C801885D9E4F0E946C32E4
:100900006CE272E0C80182599E4F0E946C3262E331
:1009100072E0C8018C549E4F0E946C320E94D62C0B
:1009200080918B1490918C140E94112D8CED94E188
:100930000E94112D8DE894E10E94112D8BE295E12A
:100940000E94112D10929C1310929B131092E11390
:1009500010922D1A10922E1A10922F1A10922B16F6
:1009600010922A161092D5151092D41510922C16AA
:1009700010922D1610926D161092AD161092ED1663
:1009800010922D1710926D171092AD171092ED174F
:1009900010922D1810926D181092AD181092ED183B
:1009A00010922D1910926D191092AD191092ED1927
:1009B00061E08DE00E94A43262E08AE30E94A432EA
:1009C00062E08BE30E94A43262E08CE30E94A432D6
:1009D00062E08DE30E94A43262E08EE30E94A432C2
:1009E00062E08FE30E94A43262E080E40E94A432BD
:1009F00062E081E40E94A43262E082E40E94A432B8
:100A000062E083E40E94A43262E084E40E94A432A3
:100A100062E085E40E94A43261E082E00E94A43298
:100A200061E087E00E94A43261E08EE00E94A4327F
:100A300061E08FE00E94A43261E080E10E94A43274
:100A400061E081E10E94A43261E082E10E94A4326F
:100A500061E083E10E94A43261E084E10E94A4325B
:100A600061E085E10E94A43261E086E10E94A43247
:100A700061E087E10E94A43261E084E00E94A43238
:100A800061E088E10E94A43261E089E10E94A43221
:100A900061E08AE10E94A43261E08BE10E94A4320D
:100AA00061E085E00E94A43261E08CE10E94A43202
:100AB00061E08DE10E94A43261E08EE10E94A432E7
:100AC00061E08FE10E94A43261E086E00E94A432DE
:100AD00061E080E20E94A43261E081E20E94A432DF
:100AE00061E082E20E94A43261E083E20E94A432CB
:100AF00061E087E00E94A43261E084E20E94A432B7
:100B000061E085E20E94A43261E086E20E94A432A4
:100B100061E087E20E94A43261E088E00E94A43292
:100B200061E088E20E94A43261E089E20E94A4327E
:100B300061E08AE20E94A43261E08BE20E94A4326A
:100B400061E089E00E94A43261E08CE20E94A4325C
:100B500061E08DE20E94A43261E08EE20E94A43244
:100B600061E08FE20E94A43261E08AE00E94A43238
:100B700061E080E30E94A43261E081E30E94A4323C
:100B8000F8941092800010928100109285001092CB
:100B9000840083E294EF9093890080938800809191
:100BA00081008860809381008091810084608093BF
:100BB000810080916F00826080936F00109290009E
:100BC00010929100109295001092940087EE93E09D
:100BD0009093990080939800809191008860809311
:100BE00091008091910081608093910080917100CB
:100BF0008260809371007894E0916005F0916105C6
:100C000081E090E09C0100906C0502C0220F331F30
:100C10000A94E2F72083E0915C05F0915D05108273
:100C2000E0915E05F0915F0520E1208310926D0553
:100C3000E0916205F091630540819C010090680598
:100C400002C0220F331F0A94E2F7242B2083E09185
:100C50006205F091630540819C010090690502C026
:100C6000220F331F0A94E2F7242B2083E0916205C0
:100C7000F091630540819C0100906A0502C0220F3B
:100C8000331F0A94E2F7242B2083E0916205F09150
:100C90006305208100906B0502C0880F991F0A949C
:100CA000E2F780958223808388E392E09F938F937D
:100CB000BF92AF920E94942C0F900F900F900F90C4
:100CC0009E012B5F3F4F3E832D834DE854E15C8BAB
:100CD0004B8B409172055091730560917405709132
:100CE000750541328EE458076105710508F431C776
:100CF0001092710510927005109277051092780588
:100D00001092790510927A0580E092E0ABE7B5E0A9
:100D1000FC011D923197E9F7ABE7B7E0FC011D92AA
:100D20003197E9F710928B1110928C1110928D115E
:100D300010928E1110928F111092901110929111A9
:100D40001092921110929311109294111092951189
:100D500010929611ABE7B9E0FC011D923197E9F7CB
:100D6000ABE7BBE0FC011D923197E9F7ABE7BDE0D3
:100D7000FC011D923197E9F7ABE7BFE0FC011D9242
:100D80003197E9F7109297111092981110929911DA
:100D900010929A1110929B1110929C1110929D1119
:100DA00010929E1110929F111092A0111092720534
:100DB00010927305109274051092750510927605C5
:100DC00010926F05E0916005F091610580916D05CD
:100DD000882319F0808186FFFDCF10926D058091E8
:100DE0006E0581110C94A71E84E090E0909371052C
:100DF0008093700580919B1390919C138230910594
:100E000011F40C94FE1D10F40C949A198430910581
:100E100011F40C94E21910F40C94761D059711F05E
:100E20000C94A1198CE08093D61521E030E040E0CD
:100E300050E020932616309327164093281650939F
:100E4000291690917705911113C020939711309333
:100E500098114093991150939A1180937B0581E0EA
:100E60008093770510922C1610929C1310929B136E
:100E7000A0908B14B0908C14D50112968C9112977F
:100E8000882309F409C18D919C91009711F00C946D
:100E90004319912C612C712CE6E48E2E29C0D801C7
:100EA0005896ED91FC9159979081992341F0549671
:100EB0001C92549751961C92F201108A80E0869CF5
:100EC000F001879CF00D1124EC0DFD1D938991110B
:100ED0000C94A00FA0908B14B0908C14982ABFEFA4
:100EE0006B1A7B0AE7E06E16710411F40C94C50FBF
:100EF0007301EE0CFF1CEE0CFF1CEE0CFF1CC70177
:100F0000860D971D2501480E591EF2018089882300
:100F100029F3C090D913D090DA13869C8001879C66
:100F2000100D11240C0D1D1DD80154969C91549741
:100F30009111B5CF53969C9191110C94A00FD801AB
:100F400092962D913D914D915C9195972F83388785
:100F500049875A875A962D913D914D915C915D97A5
:100F60002B873C874D875E876F81788589859A8539
:100F70000E9417359F77F80123A934A945A956A9DE
:100F80000E94843587FF02C00C94C61E2B853C85C9
:100F90004D855E856F81788589859A850E94843527
:100FA00087FF22C0D8015896ED91FC915997808116
:100FB0008823D1F0F201108A92968D919D910D9027
:100FC000BC91A02DF801828F938FA48FB58F118AC9
:100FD00022A133A144A155A12F83388749875A877D
:100FE0002B873C874D875E872B853C854D855E85AD
:100FF0006F81788589859A850E949137181614F03B
:101000000C94DC1E869CD001879CB00D1124AC0D85
:10101000BD1D5696ED91FC9157978081882311F460
:101020000C94DC1EF701E60DF71DEA0DFB1D108A7E
:1010300092964D915D916D917C9195975A964D93B5
:101040005D936D937C935D9751961C92808942CFFE
:10105000D70114962C9130E0F901E650FD4F8491B0
:10106000F901EC54FD4FB490F901E259FD4FD490D1
:10107000DD2079F081110E94D631ED2DF0E0EE0FE8
:10108000FF1FE05EFD4FA591B4918C91B82209F04D
:10109000B7CAF701C182B6CA80918F14882311F4B0
:1010A0000C9468192B893C8930938C1420938B14F1
:1010B0004DE854E15C8B4B8B7A01F7018081918183
:1010C000009709F0F1C10091D9131091DA138085CE
:1010D0009185A285B385F80180879187A287B38720
:1010E000D8011486158616861786F701808988230D
:1010F00011F40C948F20818981110C943122458840
:1011000056886788708CA3019201F80162A173A1CF
:1011100084A195A10E9417354B015C01E894B7F8B2
:10112000D8015E968D929D92AD92BC929197F801F6
:10113000428E538E648E758E81E0818B20E030E08C
:10114000A901C501B4010E949137181614F00C943E
:101150006120F80184869586A686B786D7015996C0
:101160008C91882311F40C946A20F701828D8111EF
:101170000C946B21268D378D40A151A12F83388788
:1011800049875A876801B6E5CB0ED11CF601628902
:101190007389848995890E9417352B013C01E89455
:1011A00077F8D6011E964D925D926D927C92519782
:1011B0002F81388549855A851A962D933D934D93F5
:1011C0005C931D9781E011968C93A3019201C50158
:1011D000B4010E94843587FF09C0D8011C964D9246
:1011E0005D926D927C921F9753014201F70182A19B
:1011F000882311F40C94BB2083A181110C94462107
:1012000027A130A541A552A52F83388749875A8742
:101210006801BCE9CB0ED11CF6016289738984890F
:1012200095890E9417352B013C01E89477F8D60187
:101230001E964D925D926D927C9251972F813885CA
:1012400049855A851A962D933D934D935C931D972E
:1012500081E011968C93A3019201C501B4010E9413
:10126000843587FF09C0D8011C964D925D926D921E
:101270007C921F9753014201F70183A5882311F443
:101280000C94B22084A581110C940C2220A931A9C0
:1012900042A953A92F83388749875A876801B2EE3C
:1012A000CB0ED11CF60162897389848995890E94CD
:1012B00017352B013C01E89477F8D6011E964D9224
:1012C0005D926D927C9251972F81388549855A8520
:1012D0001A962D933D934D935C931D9781E0119643
:1012E0008C93A3019201C501B4010E94843587FF4C
:1012F00009C0D8011C964D925D926D927C921F9709
:1013000053014201F70184A9882311F40C94A92008
:1013100085A981110C94E62121AD32AD43AD54ADC8
:101320002F83388749875A876801B8EDCB1ABEEFFB
:10133000DB0AF60162897389848995890E941735D1
:101340002B013C01E89477F8D6011E964D925D92F0
:101350006D927C9251972F81388549855A851A96CE
:101360002D933D934D935C931D9781E011968C9343
:10137000A3019201C501B4010E94843587FF09C011
:10138000D8011C964D925D926D927C921F975301ED
:101390004201F70185AD882311F40C94A02086AD9D
:1013A000F701FD96258136814781508581110C9486
:1013B00050222F83388749875A87680182E9C81AE3
:1013C0008EEFD80AD60152966D917D918D919C91A8
:1013D00055970E9417352B013C01E89477F8F601E8
:1013E00046865786608A718A2F81388549855A8555
:1013F000228733874487558781E08183A301920147
:10140000C501B4010E94843587FF07C0F8014486F6
:1014100055866686778653014201F701EA5BFF4FE6
:101420008081882311F40C94972081812581368155
:101430004781508581110C9490212F8338874987EB
:101440005A8768018CE4C81A8EEFD80AD6015296E2
:101450006D917D918D919C9155970E9417352B012F
:101460003C01E89477F8F60146865786608A718ACF
:101470002F81388549855A85228733874487558748
:1014800081E08183A3019201C501B4010E948435EA
:1014900087FF07C0D8011C964D925D926D927C9299
:1014A0001F97F701808191818130910511F40C948F
:1014B000301F029711F40C944C1F0091D913109116
:1014C000DA138091E113882391F08091E213811166
:1014D0000EC08091EB13882311F40C94B91E8091F7
:1014E0007E1590917F15029710F40C94D9201092DC
:1014F000EB13D8018C91882339F01C9212968C91B1
:10150000129781110C949A1BD80113968C91139702
:10151000882309F457C5E091DB13F091DC13808137
:10152000882309F4D6CB108220E030E015E76091E3
:10153000DB137091DC13129FD001139FB00D1124A7
:10154000A60FB71F50968C91863308F08653909162
:101550007B00482F4870977F942B90937B00877077
:10156000806480937C0080917A00806480937A000C
:1015700080917A0086FDFCCF80917800F09179000F
:10158000129FA001139F500D1124460F571F90E08A
:101590009F2B092E000CAA0BBB0BFA01818B928B9F
:1015A000A38BB48B2F5F3F4F2430310509F0BFCFA1
:1015B0002090DB133090DC136BE170E040E050E0F2
:1015C00015E701E090E2E92EF12C20E533EC149FC1
:1015D000F001159FF00D1124E20DF31D828D88237B
:1015E00009F442C0128EDF01A55ABF4F1C9211961A
:1015F00011961C921E9212961D921D921D921C9283
:10160000139714961C9211961C92119712961C9285
:10161000129713961C92139714961C921497159672
:101620001C92159716961C92169717961C92179750
:1016300018961C9211960C931196ED92FC92E25919
:10164000FF4F11821082F101E60FF71FCB01805C82
:101650009F4F280E391E219331932E163F06D9F73E
:101660002090DB133090DC134F5F5F4F6B587F4F40
:101670004430510509F0ABCF0BE110E0812C912CE7
:101680003801F5E7F89D8001F99D100D1124020D38
:10169000131D780124E7E20EF11CD80151966D91DB
:1016A0007D918D919C9154970E946A36F7016083D9
:1016B000718382839383D80113968C911397811140
:1016C00075C0D80115968C91159781110CC2EFEF5A
:1016D0008E1A9E0AF5E76F0E711C14E081169104B4
:1016E00081F600E010E055E7F52EEE24E394F09E3D
:1016F000F001F19EF00D1124E20DF31D8481882389
:10170000A9F08781882309F4BBC190858091D0021C
:10171000891708F090C10F5F1F4F0430110509F4BD
:101720003AC02090DB133090DC13E1CF818992899D
:10173000A389B4898C319140A105B10508F477C122
:1017400087818111E8CFE782268530E0F901E650F4
:10175000FD4F8491F901EC54FD4FD490F901E25909
:10176000FD4FC490CC20B9F281110C947822EC2D5D
:10177000F0E0EE0FFF1FEC5AFD4FA591B4919FB71B
:10178000F8948C91D82ADC929FBF0F5F1F4F0430D2
:10179000110509F0C6CF8091D0028F5F8093D002EF
:1017A000843608F496CA1092D00293CA51962D91AD
:1017B0003C91529755968D919C9156972901481AC4
:1017C000590A789780819181F201E81BF90BF8871B
:1017D000EF83F801E559FF4F808181111CC03997D3
:1017E0009201952D990F990B492F592F692F792F18
:1017F000892FA080B180C280D380E480F5800681EB
:1018000017810E94493B2083318342835383648341
:10181000758386839783F5E7F89DC001F99D900D48
:101820001124D101A80FB91FA55ABF4F2C91E22F47
:10183000F0E03C96EE0FFF1F8E0F9F1FF101E80FA7
:10184000F91F548243822F5F203208F0FCC52C938D
:10185000F101E60DF71DC301805C9F4F820D931DC2
:10186000C12CD12C760141915191052E000C660BB3
:10187000770BC40ED51EE61EF71E8E179F0799F72D
:10188000B201052C000C880B990B0E946C366B87FB
:101890007C878D879E8725E7289D8001299D100DD7
:1018A0001124020D131DF801EE59FF4F20813181E3
:1018B0004281538164817581868197810E9464365B
:1018C00020E030E0A9010E940C386F87788B898B6B
:1018D0009A8B2DEC3CEC4CE45DE36B857C858D852F
:1018E0009E850E940C389B01AC016F85788989899F
:1018F0009A890E9418356F87788B898B9A8B4F81D4
:101900005885BA01550F880B990B0E946C3620E060
:1019100030E040E05FE30E940C389B01AC016F8532
:10192000788989899A890E9418356F837887898791
:101930009A8720E030E0A9010E948435D8011C96E6
:101940002C9130E0F901E650FD4F87FF02C00C9466
:10195000A7198491F901EC54FD4F1491F901E25952
:10196000FD4F0491002391F081110C94E81EE02FAB
:10197000F0E0EE0FFF1FEC5AFD4FA591B4919FB719
:10198000F8948C91109518231C939FBFB5E7B89DD0
:10199000F001B99DF00D1124E20DF31D1582E259FD
:1019A000FF4F80819181181619061CF401979183CD
:1019B0008083E5E7E89DC001E99D900D1124820D2B
:1019C000931DFC01E459FF4F208131812115310520
:1019D00009F4E1C42150310931832083319780819A
:1019E000882309F40EC525E7289DF001299DF00DF7
:1019F0001124E20DF31D118635E7389DC001399D94
:101A0000900D1124280E391EF101E45AFF4F518226
:101A1000408232968F819885A985BA85808391838B
:101A2000A283B3832090DB133090DC1350CE8781E8
:101A3000882309F470CE1782268530E0F901E6503C
:101A4000FD4F8491F901EC54FD4FD490F901E25916
:101A5000FD4FC490CC2009F45ECE81110C948B20F4
:101A6000EC2DF0E0EE0FFF1FEC5AFD4FA591B49165
:101A70009FB7F8948C91D094D822DC929FBF4BCE24
:101A80008091D002811147CE268530E0F901E650E1
:101A9000FD4F8491F901EC54FD4FD490F901E259C6
:101AA000FD4FC490CC20A9F081110C947422EC2D30
:101AB000F0E0EE0FFF1FEC5AFD4FA591B4919FB7D8
:101AC000F8948C91D82ADC929FBF2090DB13309041
:101AD000DC13F09EC001F19E900D1124F101E80F7E
:101AE000F91FE78218CE1C962C9130E0F901E650E0
:101AF000FD4F8491F901EC54FD4F1491F901E25925
:101B0000FD4F04910023B1F081110C94291FE02FA7
:101B1000F0E0EE0FFF1FEC5AFD4FA591B4919FB777
:101B2000F8948C91109518231C939FBF2090DB1381
:101B30003090DC13B5E7B89DC001B99D900D11241C
:101B4000F101E80FF91F15822090DB133090DC13B0
:101B5000BECDE0917005F0917105EB31F10508F40F
:101B600074C41092710510927005C0908B11D090C2
:101B70008C11E0908D11F0908E11C114D104E1040C
:101B8000F10409F437C98090931190909411A090BA
:101B90009511B0909611F401EE0FFF1FEE0FFF1F8D
:101BA000E558FE4E4080518062807380B401762FEC
:101BB0006627770F6558764FA20180E895E10E946D
:101BC0009F34F3E08F169104A104B10410F00C943B
:101BD000C6201FEF811A910AA10AB10A80929311BF
:101BE00090929411A0929511B092961121E0C21A90
:101BF000D108E108F108C0928B11D0928C11E092CB
:101C00008D11F0928E114092D0155092D1156092A4
:101C1000D2157092D31580918015853010F00C94F8
:101C2000EC1E833008F0E6C8882311F40C94F81DEC
:101C3000813011F00C94CB1D81E090E090939C13C7
:101C400080939B1381E08093D615E091D913F09196
:101C5000DA1382A193A1A4A1B5A18093A9139093B3
:101C6000AA13A093AB13B093AC13DF01A859BF4FD5
:101C70008D919D910D90BC91A02D8093AD1390936B
:101C8000AE13A093AF13B093B013DF01A255BF4FB3
:101C90008D919D910D90BC91A02D8093B113909347
:101CA000B213A093B313B093B413DF01AC50BF4F82
:101CB0008D919D910D90BC91A02D8093B513909323
:101CC000B613A093B713B093B813DF01A65CBE4F51
:101CD0008D919D910D90BC91A02D8093B9139093FF
:101CE000BA13A093BB13B093BC13DF01A058BE4F2F
:101CF0008D919D910D90BC91A02D8093BD139093DB
:101D0000BE13A093BF13B093C013EA53FE4F80815C
:101D10009181A281B3818093C1139093C213A09348
:101D2000C313B093C413E091DF13F091E013B280BA
:101D3000B0929D13A780A0929E13948490929F13BB
:101D400071897093A01366896093A113538D50938A
:101D5000A21340A14093A31335A13093A41322A54D
:101D60002093A51397A59093A61384A98093A713F6
:101D700001AD0093A813E091DB13F091DC137F0118
:101D8000A4E7EA0EF11CD701CD90DD90ED90FC9018
:101D9000C092C513D092C613E092C713F092C81335
:101DA000F184F092D5137F01B9EEEB0EF11CD7014F
:101DB000CD90DD90ED90FC90C092C913D092CA13E3
:101DC000E092CB13F092CC137F01BEE7EB0EF11C37
:101DD000D701FC90F092D6137F01B2EAEB1ABEEF66
:101DE000FB0AD701CD90DD90ED90FC90C092CD1311
:101DF000D092CE13E092CF13F092D0137F01B3EFC5
:101E0000EB0EF11CD701FC90F092D7137F01BDE2DD
:101E1000EB1ABEEFFB0AD701CD90DD90ED90FC9060
:101E2000C092D113D092D213E092D313F092D41374
:101E3000E859FE4FE081E093D813B092D715A092F5
:101E4000D8159092D9157093DA156093DB155093DD
:101E5000DC154093DD153093DE152093DF1590934C
:101E6000E0158093E1150093E215E3EEF5E1AFEFA5
:101E7000B5E1AD01CF018A539240DC012D913C9137
:101E800011973183208312968D919C9113979383A0
:101E9000828334964E175F0769F7DA012FE036E147
:101EA000FD01EA53F2408081918111969C938E93BB
:101EB0008281938113969C938E93129714962A177E
:101EC0003B0771F78091D51380930F168091D6133D
:101ED000809310168091D713809311168091D81398
:101EE000809312162DE330E040E050E02093261658
:101EF0003093271640932816509329168091770522
:101F000081110C9438078DE390E0A0E0B0E080935D
:101F1000971190939811A0939911B0939A11E6EDAF
:101F2000F5E1ABE7B5E001900D928A95E1F781E02C
:101F30008093770510929C1310929B130C94380792
:101F4000869CF001879CF00D1124EC0DFD1DA689E7
:101F5000B7899C91992311F40C946A07138A118A0A
:101F6000E60CF71CF501EE0DFF1D108AA0908B14F6
:101F7000B0908C1480E0982ABFEF6B1A7B0AE7E0E0
:101F80006E16710411F00C947807D5018D919C9117
:101F9000019711F40C94481E91108FCAD501129626
:101FA0001C92129713968C9181110C945019809168
:101FB0007E1590917F15019790937F1580937E15E4
:101FC0000C94531951968C915197882341F1549652
:101FD0008C9181110C94511DD80153968C9153977B
:101FE00081110C94511D5E962D913D914D915C9106
:101FF000919718966D917D918D919C911B970E9460
:102000000C38F80124853585468557850E94893529
:10201000D80197966D937D938D939C939A97F80131
:10202000E95AFF4F8081882369F1339680818111BD
:102030000C945C1DF801E75AFF4F808181110C94CC
:102040005C1D7801FDE6EF0EF11CF801EC59FF4F25
:102050002081318142815381D80118966D917D9103
:102060008D919C911B970E940C38F8012485358531
:10207000468557850E948935D7016D937D938D9351
:102080009C931397F801E356FF4F8081882369F1F1
:102090003396808181110C94691DF801E156FF4F40
:1020A000808181110C94691D7801F3EBEF0EF11C16
:1020B000F801E655FF4F2081318142815381D801DB
:1020C00018966D917D918D919C911B970E940C3873
:1020D000F80124853585468557850E948935D701C5
:1020E0006D937D938D939C931397F801ED51FF4F62
:1020F0008081882369F13396808181110C94661B5D
:10210000F801EB51FF4F808181110C94661B78011F
:10211000F9EFEF0EF11CF801E051FF4F2081318102
:1021200042815381D80118966D917D918D919C913A
:102130001B970E940C38F801248535854685578504
:102140000E948935D7016D937D938D939C9313974E
:10215000F801E75DFE4F8081882371F1339680811D
:1021600081110C94731BF801E55DFE4F8081811194
:102170000C94731B7801F1ECEF1AFEEFFF0AF801E3
:10218000EA5CFE4F2081318142815381D80118964B
:102190006D917D918D919C911B970E940C38F80157
:1021A00024853585468557850E948935D7016D93ED
:1021B0007D938D939C931397F801E159FE4F808195
:1021C000882371F13396808181110C94801BF80172
:1021D000EF58FE4F808181110C94801B7801FBE742
:1021E000EF1AFEEFFF0AF801E458FE4F208131811B
:1021F00042815381D80118966D917D918D919C916A
:102200001B970E940C38F801248535854685578533
:102210000E948935D7016D937D938D939C9313977D
:10222000F801EB54FE4F8081882371F13396808151
:1022300081110C948D1BF801E954FE4F80818111AE
:102240000C948D1B7801F5E3EF1AFEEFFF0AF801FD
:10225000EE53FE4F2081318142815381D80118967F
:102260006D917D918D919C911B970E940C38F80186
:1022700024853585468557850E948935D7016D931C
:102280007D938D939C93139728EE33E040E050E0CC
:10229000D80114962D933D934D935C931797780135
:1022A000B1E1EB0EF11C6801E5E0CE1AEEEFDE0ABB
:1022B000712C88248A94982C5401662463942801F4
:1022C000172DD7018C91882309F451C096968C91D3
:1022D000969781113FC056962D913D914D915C91FD
:1022E00059975A966D917D918D919C915D970E9421
:1022F0000C389B01AC0160E074E284E799E40E9431
:10230000893520E030E040E851E40E940C380E941A
:102310003536F70167A770AB81AB92AB67A370A7A7
:1023200081A792A766A223A534A545A556A5211588
:1023300031054105510571F0DC01CB01820F931F7E
:10234000A41FB51F87A390A7A1A7B2A713A614A681
:1023500015A616A6F70187A190A5A1A5B2A5881676
:102360009906AA06BB0618F04C015D0111E0F6E4DF
:10237000EF0EF11CEC14FD0409F0A3CF712E7110C7
:102380000C94D619F2011382E091D913F091DA136B
:1023900081E08383C0C88C0105591F4FD8012C915F
:1023A000222379F1FC01E45AFF4F60817181072EED
:1023B000000C880B990B0E946C3620E030E0A901DC
:1023C0000E94913720E030E0A901181614F00C9417
:1023D000CB206B857C858D859E850E94843587FF0B
:1023E00002CBEEE9F2E0FF93EF934BE953E15F9309
:1023F0004F930E94942CD8011C920F900F900F9035
:102400000F90F7FE02C00C94732085E0F594E794DA
:10241000D794C7948A95D1F712E1C10ED11CE11C63
:10242000F11C25E2C216D104E104F10408F0DBCA74
:10243000B5E7B89DF001B99DF00D1124E20DF31D33
:1024400011E01187D9CA1C9203CA8827EE58FF4FA2
:102450008F4F0C94413B80918F1190919011A091DE
:102460009111B0919211FC01EE0FFF1FEE0FFF1FB3
:10247000E558FE4E40919711509198116091991135
:1024800070919A114083518362837383C0908B1142
:10249000D0908C11E0908D11F0908E11EFEFCE1A4C
:1024A000DE0AEE0AFE0AC0928B11D0928C11E092E5
:1024B0008D11F0928E110196A11DB11D84309105F0
:1024C000A105B10510F40C94E52510928F1110921E
:1024D0009011109291111092921110927205109217
:1024E0007305109274051092750587E090E0909343
:1024F00071058093700541CB10927705109272059B
:1025000010927305109274051092750587E090E0A3
:102510009093710580937005C0908B11D0908C11B1
:10252000E0908D11F0908E1128CBC0909B11D0902F
:102530009C11E0909D11F0909E1140919711509147
:1025400098116091991170919A112A013B014C18D0
:102550005D086E087F0880915805909159059C018F
:10256000205C3F4FB0E24B1651046104710410F43B
:102570000C942925F9014081518132966081718145
:10258000461B570B4F7355274032510514F40C94DA
:102590007A2040918F11440F4E8B1D8A4D895E89A0
:1025A0004C0D5D1DDA01A558B64FAD01405E5F4F81
:1025B0008C0169017F015D0102C09601F701D9011B
:1025C0006D917C91208131816217730711F40C9415
:1025D000272B20813181820F931FDC012C91808178
:1025E000918101968F73992791838083822FF501C2
:1025F00081935F01C801E417F507F9F680919B11FB
:1026000090919C11A0919D11B0919E118096A11D59
:10261000B11D80939B1190939C11A0939D11B09339
:102620009E1186E190E0909371058093700593C1AF
:1026300010929711109298111092991110929A116C
:102640002091580530915905A901405C5F4FFA016E
:1026500080819181329660817181861B970B8F7387
:10266000992704970CF4A5C0DA016D917C918081C3
:1026700091816817790711F40C944E2BA081B181D8
:10268000A20FB31F8C91608171816F5F7F4F6F7359
:10269000772771836083482E512C612C712CDA01CD
:1026A0000D911C91608171810617170711F40C942C
:1026B000482B60817181620F731FDB01CC906081B8
:1026C00071816F5F7F4F6F73772771836083D12C28
:1026D000E12CF12CFE2CED2CDC2CCC24DA010D911C
:1026E0001C91608171810617170711F40C94422B1D
:1026F00060817181620F731FDB018C906081718139
:102700006F5F7F4F6F73772771836083912CA12C4C
:10271000B12C540199248824DA016D917C91408177
:1027200051816417750711F40C943C2B4081518141
:10273000240F351FD9014C91208131812F5F3F4FEC
:102740002F7333273183208350E060E070E0742FD3
:10275000662755274427D301C2018C299D29AE291C
:10276000BF29882A992AAA2ABB2A482959296A29CD
:102770007B2940939711509398116093991170930E
:102780009A111092A01110929B1110929C1110920C
:102790009D1110929E111092720510927305109265
:1027A00074051092750585E190E090937105809312
:1027B0007005C0908B11D0908C11E0908D11F0902D
:1027C0008E11DBC989E190E09093710580937005CB
:1027D000109272051092730510927405109275058F
:1027E000C0908B11D0908C11E0908D11F0908E11D3
:1027F000C4C960915805709159059B01205C3F4FF9
:10280000D9018D919C91119712964D915C911197E0
:10281000841B950B8F739927892B11F40C947A20C4
:10282000F901208131818D919C91119728173907E9
:10283000A1F08D919C911197FB01E80FF91F208168
:102840008D919C91119701968F73992711969C9366
:102850008E932B3011F40C94F32688E190E0909342
:10286000710580937005C0908B11D0908C11E09011
:102870008D11F0908E1181C910927205109273051E
:1028800010927405109275058AE190E0909371059D
:1028900080937005C0908B11D0908C11E0908D11B9
:1028A000F0908E116AC940915A0550915B05DA018A
:1028B000A05CBF4F2D913C9111972F5F3F4F2F731D
:1028C0003327FA01EE5BFF4F80819181281739078A
:1028D000D9F38D919C911197FA01E80FF91F8BE0C4
:1028E000808311963C932E93E0916205F0916305ED
:1028F000208181E090E000906B0502C0880F991F55
:102900000A94E2F7822B808381E080936D05E09149
:102910006005F091610580818064808340919B1106
:1029200050919C1160919D1170919E118091971111
:1029300090919811A0919911B0919A114817590747
:102940006A077B0710F40C944C2487E190E0909385
:1029500071058093700510927205109273051092A4
:1029600074051092750525CF1092720510927305AB
:10297000109274051092750587E090E090937105B0
:1029800080937005C0908B11D0908C11E0908D11C8
:10299000F0908E11F2C8409197115091981160916A
:1029A000991170919A1180919B1190919C11A09115
:1029B0009D11B0919E118A019B01081B190B2A0BD6
:1029C0003B0B0D96003211052105310510F40C94D6
:1029D0005424DC01A259BA4F8D01005E1F4F61E003
:1029E00070E0DD24D394CD90E0905A05F0905B0523
:1029F000A701405C5F4FFA01208131812F5F3F4F7B
:102A00002F73332732968081918182179307D9F3F0
:102A1000FA0180819181F701E80FF91FC082FA0164
:102A200031832083E0916205F09163052081CB0121
:102A300000906B0502C0880F991F0A94E2F7822B61
:102A40008083D0926D05E0916005F09161058081F1
:102A5000806480830A171B0731F680919B11909147
:102A60009C11A0919D11B0919E118096A11DB11D48
:102A700080939B1190939C11A0939D11B0939E11F4
:102A800010927205109273051092740510927505DC
:102A90008FE090E09093710580937005C0908B114A
:102AA000D0908C11E0908D11F0908E1166C830910D
:102AB0009711209198119091991180919A113983D1
:102AC0002A839B838C8310929F11DE01119641E033
:102AD00050E0FF24F394ED9000915A0510915B05AE
:102AE000B801605C7F4FFB01208131812F5F3F4F38
:102AF0002F73332732968081918182179307D9F300
:102B0000FB0180819181F801E80FF91FE082FB0150
:102B100031832083E0916205F09163052081CA0131
:102B200000906B0502C0880F991F0A94E2F7822B70
:102B30008083F0926D05E0916005F09161058081E0
:102B4000806480832D813E812A173B0721F61092F5
:102B50009B1110929C1110929D1110929E118EE06B
:102B600090E09093710580937005C0908B11D09088
:102B70008C11E0908D11F0908E110C94BD0D609130
:102B80005805709159059B01205C3F4FD9018D91EB
:102B90009C91119712964D915C911197841B950B06
:102BA0008F739927892B11F40C947A20F9012081D5
:102BB00031818D919C9111972817390709F4DCCE4A
:102BC0008D919C911197FB01E80FF91F20818D9148
:102BD0009C91119701968F73992711969C938E93D0
:102BE000263011F40C94BB27283009F4C5CE2530CB
:102BF00009F0C2CE80916E05C0908B11D0908C11DF
:102C0000E0908D11F0908E1181110C94BD0DB4E007
:102C1000CB16D104E104F10408F45CC189E090E032
:102C200090937105809370050C94C30D40915A05E3
:102C300050915B05DA01A05CBF4F2D913C9111973B
:102C40002F5F3F4F2F733327FA01EE5BFF4F8081D9
:102C5000918128173907D9F38D919C911197FA0129
:102C6000E80FF91F86E0808311963C932E93E09144
:102C70006205F0916305208181E090E000906B0592
:102C800002C0880F991F0A94E2F7822B808381E0AB
:102C900080936D05E0916005F0916105808180640D
:102CA0008083109272051092730510927405109231
:102CB000750582E190E09093710580937005C09056
:102CC0008B11D0908C11E0908D11F0908E110C949E
:102CD000BD0D40915A0550915B05DA01A05CBF4FD4
:102CE0002D913C9111972F5F3F4F2F733327FA019E
:102CF000EE5BFF4F8081918128173907D9F38D91C1
:102D00009C911197FA01E80FF91F88E080831196D2
:102D10003C932E93E0916205F0916305208181E060
:102D200090E000906B0502C0880F991F0A94E2F7AB
:102D3000822B808381E080936D05E0916005F091A6
:102D40006105808180648083109272051092730502
:102D5000109274051092750587E090E090937105CC
:102D600080937005C0908B11D0908C11E0908D11E4
:102D7000F0908E110C94BD0D40915A0550915B0559
:102D8000DA01A05CBF4F2D913C9111972F5F3F4F0F
:102D90002F733327FA01EE5BFF4F80819181281753
:102DA0003907D9F38D919C911197FA01E80FF91F1A
:102DB00085E0808311963C932E93E0916205F0911B
:102DC0006305208181E090E000906B0502C0880FD0
:102DD000991F0A94E2F7822B808381E080936D052E
:102DE000E0916005F091610580818064808310929C
:102DF00072051092730510927405109275058BE0A0
:102E000090E09093710580937005C0908B11D090E5
:102E10008C11E0908D11F0908E110C94BD0D1092DC
:102E200072051092730510927405109275056091E9
:102E30005805709159059B01205C3F4FF901808135
:102E40009181DB01AE5BBF4F4D915C911197841B6B
:102E5000950B8F739927892B11F40C943624F90163
:102E6000208131818D919C9111972817390709F4A0
:102E700083CD8D919C911197FB01E80FF91F208163
:102E80008D919C91119701968F73992711969C9320
:102E90008E93213011F40C94B10D253009F06CCDD6
:102EA00080916E05882311F40C94FC28809177059D
:102EB00081110C943C24C0908B11D0908C11E09027
:102EC0008D11F0908E11F4E0CF16D104E104F104DD
:102ED00008F0A4CE8AE090E090937105809370058D
:102EE0000C94BD0D60915805709159059B01205CB3
:102EF0003F4FD9018D919C91119712964D915C9104
:102F00001197841B950B8F739927892B09F423CD77
:102F1000F901208131818D919C91119728173907F2
:102F2000A1F08D919C911197FB01E80FF91F208171
:102F30008D919C91119701968F73992711969C936F
:102F40008E93223011F40C94112784E090E090933A
:102F5000710580937005FFCC40915A0550915B0537
:102F6000DA01A05CBF4F2D913C9111972F5F3F4F2D
:102F70002F733327FA01EE5BFF4F80819181281771
:102F80003907D9F38D919C911197FA01E80FF91F38
:102F900084E0808311963C932E93E0916205F0913A
:102FA0006305208181E090E000906B0502C0880FEE
:102FB000991F0A94E2F7822B808381E080936D054C
:102FC000E0916005F09161058081806480831092BA
:102FD000720510927305109274051092750586E0C3
:102FE00090E09093710580937005C0908B11D09004
:102FF0008C11E0908D11F0908E110C94BD0D6091AC
:103000005805709159059B01205C3F4FF901808163
:103010009181DB01AE5BBF4F4D915C911197841B99
:10302000950B8F739927892B09F495CCF901208191
:1030300031818D919C9111972817390709F485CF1B
:103040008D919C911197FB01E80FF91F20818D91C3
:103050009C91119701968F73992711969C938E934B
:10306000213009F072CF85E090E090937105809354
:10307000700571CC81E080936F0587E090E09093BC
:1030800071058093700540915A0550915B05DA01F6
:10309000A05CBF4F2D913C9111972F5F3F4F2F7335
:1030A0003327FA01EE5BFF4F8081918128173907A2
:1030B000D9F38D919C911197FA01E80FF91F82E0E5
:1030C000808311963C932E93E0916205F091630505
:1030D000208181E090E000906B0502C0880F991F6D
:1030E0000A94E2F7822B808381E080936D05E09162
:1030F0006005F09161058081806480831092720583
:10310000109273051092740510927505C0908B1182
:10311000D0908C11E0908D11F0908E110C94BD0D1B
:10312000E0905805F09059059701205C3F4FD90178
:103130008D919C91119712960D911C911197801B66
:10314000910B8F739927892B11F40C949826F90110
:10315000208131818D919C91119728173907A1F019
:103160008D919C911197F701E80FF91F20818D91A6
:103170009C91119701968F73992711969C938E932A
:10318000243011F40C942C2B81E090E09093710585
:1031900080937005E0CBE0915805F0915905DF016F
:1031A000A05CBF4F8D919C911197EE5BFF4F14C0B7
:1031B0002D913C911197808191812817390749F011
:1031C000808191818081918101968F73992791836C
:1031D00080838D919C91119720813181821B930B6B
:1031E0008F739927892B21F720915A0530915B0520
:1031F000F901E05CFF4F8081918101968F739927DF
:10320000D901AE5BBF4F4D915C9111978417950723
:10321000D1F340815181D901A40FB51F41E04C93F6
:1032200091838083E0916205F0916305208181E0C4
:1032300090E000906B0502C0880F991F0A94E2F796
:10324000822B808340936D05E0916005F0916105CC
:1032500080818064808310927205109273051092B1
:1032600074051092750582E090E09093710580934B
:103270007005C0908B11D0908C11E0908D11F09062
:103280008E110C94BD0D019709F401C5D50112965C
:103290001C92129713968C91882311F40C94D70FDB
:1032A00081E080932C16F5011282138234968BE410
:1032B000DF011D928A95E9F7EBE2F5E1F0938C14BA
:1032C000E0938B140091D9131091DA130C94610AD6
:1032D00080917E1590917F15892B11F40C945D0AD5
:1032E00080917A1590917B154FE4489F9001499FFA
:1032F000300D1124D901A351BC4E7D01B0938C1423
:10330000A0938B1421E030E0009711F020E030E032
:1033100030937B1520937A152FE4289FF001299F85
:10332000F00D1124E151FC4E808181110C945D0857
:103330000C945D0A009709F432C4019711F40C94BF
:10334000220E10929C1310929B130C9438078491B8
:10335000F901EC54FD4F0491F901E259FD4F14912C
:10336000112389F081110C947022E12FF0E0EE0F0F
:10337000FF1FEC5AFD4FA591B4919FB7F8948C9123
:10338000082B0C939FBFB5E7B89DF001B99DF00DD8
:103390001124E20DF31D11E01583E259FF4F8081E6
:1033A00091810196918380830C94D90CD20114965B
:1033B0008D929D92AD92BC92179781E013968C935B
:1033C0000C94C4118BE08093D615E091D913F09141
:1033D000DA1382A193A1A4A1B5A18093A91390931C
:1033E000AA13A093AB13B093AC13DF01A859BF4F3E
:1033F0008D919D910D90BC91A02D8093AD139093D4
:10340000AE13A093AF13B093B013DF01A255BF4F1B
:103410008D919D910D90BC91A02D8093B1139093AF
:10342000B213A093B313B093B413DF01AC50BF4FEA
:103430008D919D910D90BC91A02D8093B51390938B
:10344000B613A093B713B093B813DF01A65CBE4FB9
:103450008D919D910D90BC91A02D8093B913909367
:10346000BA13A093BB13B093BC13DF01A058BE4F97
:103470008D919D910D90BC91A02D8093BD13909343
:10348000BE13A093BF13B093C013EA53FE4F8081C5
:103490009181A281B3818093C1139093C213A093B1
:1034A000C313B093C413E091DF13F091E013B28023
:1034B000B0929D13A780A0929E13948490929F1324
:1034C00071897093A01366896093A113538D5093F3
:1034D000A21340A14093A31335A13093A41322A5B6
:1034E0002093A51397A59093A61384A98093A7135F
:1034F00001AD0093A813E091DB13F091DC137F0181
:10350000A4E7EA0EF11CD701CD90DD90ED90FC9080
:10351000C092C513D092C613E092C713F092C8139D
:10352000F184F092D5137F01B9EEEB0EF11CD701B7
:10353000CD90DD90ED90FC90C092C913D092CA134B
:10354000E092CB13F092CC137F01BEE7EB0EF11C9F
:10355000D701FC90F092D6137F01B2EAEB1ABEEFCE
:10356000FB0AD701CD90DD90ED90FC90C092CD1379
:10357000D092CE13E092CF13F092D0137F01B3EF2D
:10358000EB0EF11CD701FC90F092D7137F01BDE246
:10359000EB1ABEEFFB0AD701CD90DD90ED90FC90C9
:1035A000C092D113D092D213E092D313F092D413DD
:1035B000E859FE4FE081E093D813B092D715A0925E
:1035C000D8159092D9157093DA156093DB15509346
:1035D000DC154093DD153093DE152093DF159093B5
:1035E000E0158093E1150093E215E3EEF5E1AFEF0E
:1035F000B5E1AD01CF018A539240DC012D913C91A0
:1036000011973183208312968D919C911397938308
:1036100082833496B5E1EF3FFB0761F7DA012FE0D3
:1036200036E1FD01EA53F2408081918111969C932D
:103630008E938281938113969C938E931297149606
:103640002A173B0771F78091D51380930F1680914D
:10365000D613809310168091D71380931116809102
:10366000D813809312162DE330E040E050E0209311
:1036700026163093271640932816509329168091CA
:10368000770581110C9438078DE390E0A0E0B0E05D
:103690008093971190939811A0939911B0939A11D8
:1036A000E6EDF5E1ABE7B5E001900D928A95E1F723
:1036B00081E080937705E091DF13F091E0131082B1
:1036C00010929C1310929B130C943807F80180857C
:1036D0009185A285B385E750FF4F80839183A283B4
:1036E000B3830C94A810F80180859185A285B385D9
:1036F000E15CFE4F80839183A283B3830C94DC1042
:10370000F80180859185A285B385EB57FE4F8083B4
:103710009183A283B3830C941011F8018085918565
:10372000A285B385E553FE4F80839183A283B38343
:103730000C94441113961C92139712961C927801C4
:103740006801B6E1CB1ABEEFDB0A2224239467C0DE
:1037500082A093A0A4A0B5A0428C538C648C758CDD
:10376000A3019201C501B4010E94913718160CF40F
:1037700068C1D70153963C90332009F4ECC2D701BD
:1037800054968C91811169C1D70196961C92A30120
:103790009201C501B4010E94843587FD57C1A30180
:1037A0009201C501B4010E9417359F77D701D396C6
:1037B0002D913D914D915C91D6970E9491371816AD
:1037C00024F0F7013388332021F1F70180AD91AD6A
:1037D000A2ADB3ADF8014481558166817781841B28
:1037E000950BA60BB70BF70180AF91AFA2AFB3AFAC
:1037F00085369105A105B10508F046C1F701258A76
:1038000084AF95AFA6AFB7AF17AA10AE11AE12AE88
:1038100013AEF6E4EF0EF11CEC14FD0461F0F701B9
:103820008189811195CFF701158AF6E4EF0EF11C1D
:10383000EC14FD04A1F7C090D913D090DA138601DF
:103840000F5E1F4F760124E4E20EF11C35E0C31A2F
:103850003EEFD30AAA24A39409C00A5B1F4FB6E423
:10386000EB0EF11C0C151D0509F47EC0D8018C91DE
:10387000882399F314968C911497882371F31496E6
:103880001C921497DC962C9130E0F901E650FD4F24
:103890008491F901EC54FD4F9490F901E259FD4FE8
:1038A000B490BB2081F0811127C6EB2DF0E0EE0F24
:1038B000FF1FEC5AFD4FA591B4919FB7F8948C91DE
:1038C000982A9C929FBFF8018589813009F4B6C47B
:1038D0000580F681E02D808181119DC460E0D801D2
:1038E000DD968C910E943832F801158A268D378D2D
:1038F00040A151A161897289838994890E941735F9
:10390000D80151966D937D938D939C935497DC963B
:103910002C9130E0F901E650FD4F8491F901EC540F
:10392000FD4F9490F901E259FD4FB490BB2009F48A
:1039300094CF81110C949426EB2DF0E0EE0FFF1F35
:10394000EC5AFD4FA591B4919FB7F8948C91909447
:1039500089218C939FBF0A5B1F4FB6E4EB0EF11CCD
:103960000C151D0509F082CF00E010E09924939416
:1039700022C0F80131966F01C701800F911FF50138
:10398000E80FF91F1282A091DF13B091E0138C9120
:10399000E00EF11EFD01EE0DFF1D9281992321F035
:1039A00091E02381211190E0892B8C9386010C30CA
:1039B000110509F470C0A090DF13B090E0137801F6
:1039C000EE0CFF1CEE0CFF1CF701E00FF11FEA0DDF
:1039D000FB1D828183838181882359F26801FFEF77
:1039E000CF1ADF0AF601EE0FFF1FEE0FFF1FEC0DDF
:1039F000FD1DEA0DFB1D208130E0F901E650FD4F71
:103A00008491F901EC54FD4F8490F901E259FD4F86
:103A10007490772071F0811120C2E72DF0E0EE0F55
:103A2000FF1FE05EFD4FA591B4918C91882209F0B3
:103A3000A3CFC701800F911FF501E80FF91F9282F4
:103A4000A2CFF7018489882309F49ECEF701338839
:103A5000311003C0D70196962C92A3019201C501A3
:103A6000B4010E9417359F77F70123A934A945A90E
:103A700056A90E94913718160CF4A7CED701549678
:103A80008C918111A2CE9FCEF701158A14AE15AE8E
:103A900016AE17AEBECE0091D9131091DA130C9466
:103AA000840AF80180859185A285B38587A390A7B4
:103AB000A1A7B2A70C940F10F80180859185A2856B
:103AC000B385E359FF4F80839183A283B3830C9422
:103AD0004210F80180859185A285B385ED54FF4F92
:103AE00080839183A283B3830C94751083E08093C9
:103AF000D61560912D1AF0E46F9FB0011124635D1B
:103B0000794E87ED95E10E94A83480912D1A10E43A
:103B1000819FF0011124E35DF94E10828F3008F08F
:103B200033C38F5F80932D1A80912F1A8150809319
:103B30002F1AE6EDF5E101900020E9F7AF01475DAE
:103B4000554160E070E04F5F5F4F6F4F7F4F409394
:103B50002616509327166093281670932916809185
:103B6000770581110C943807409397115093981161
:103B70006093991170939A1166ED75E18BE795E06A
:103B80000E949F3481E08093770510929C131092DD
:103B90009B130C94380710929C1310929B138091E6
:103BA0002F1A882351F080917705811106C08091EA
:103BB000EC13882311F40C948C2680912C16882306
:103BC00031F085E090E090939C1380939B13E091FB
:103BD000DF13F091E0138081882311F40C943807EF
:103BE00084E090E090939C1380939B130C9438078F
:103BF00082E090E090939C1380939B131092D615D3
:103C00001F921F921F9211E01F931F9282E08F93C9
:103C10001F921F928EE592E09F938F9387ED95E11F
:103C20009F938F930E94AF34E7EDF5E10190002060
:103C3000E9F7AF01475D5541CA01A0E0B0E08093CC
:103C4000261690932716A0932816B09329160FB620
:103C5000F894DEBF0FBECDBF2091770521110C94E3
:103C600038078093971190939811A0939911B0936E
:103C70009A1166ED75E18BE795E00E949F341093F1
:103C8000770510929C1310929B130C943807912C7B
:103C9000E091DB13F091DC13D50114968C9114970D
:103CA000882381F015969C911597911159C314960C
:103CB0001C92E091DB13F091DC13A0908B14B09078
:103CC0008C1480E0D5011F962C911F97222381F040
:103CD00050969C915097911153C31F961C92A0909F
:103CE0008B14B0908C14E091DB13F091DC1320E086
:103CF0008929D5015A969C915A97992381F05B9610
:103D00003C915B9731114FC35A961C92A0908B1433
:103D1000B0908C14E091DB13F091DC1390E0822BD7
:103D2000D50195962C919597222361F096963C911A
:103D3000969731119DC295961C92A0908B14B090CD
:103D40008C1420E0892B982E922A0C94CC0F81E0C1
:103D500090E00C94F606A3019201C501B4010E9403
:103D6000843587FD77CEF7018489882309F417CD40
:103D700071CE80917E1590917F15029710F00C9472
:103D8000790A81E08093EB130C94790AD201509662
:103D90001C92F801828D938DA48DB58D82A393A37F
:103DA000A4A3B5A3118AD20150968C91A0908B1434
:103DB000B0908C140C946E07E60CF71CF501EE0D18
:103DC000FF1D8089A0908B14B0908C140C946E070A
:103DD0000E94D6310C94B70C853009F0DCCE80916E
:103DE00081158093DE14809182158093DF14809179
:103DF000831590E09093DD148093DC14009709F410
:103E000026C743E050E08130910509F4E8C60297E7
:103E100009F4A4C58091DE14882311F40C94FA06E9
:103E20008091DF14882309F4B4C680918F1488230D
:103E300011F40C942F29E090DC14F090DD14B2E022
:103E4000EB16F10411F40C940E291092DE140C946C
:103E5000FA060E94D6310C94870D0E94D631DDCD32
:103E60000091DB131091DC13D70114968C911497F9
:103E7000811194C4F7018785811121C4F701828DD6
:103E80008111AEC3F70185A1811139C38081918170
:103E9000029711F00C945D0AD70114968D919C91B4
:103EA00015978D30910509F4C7C708F4BFC5803157
:103EB000910511F40C9463288131910511F40C944F
:103EC000CB270F9711F00C945D0AE091D913F09174
:103ED000DA1387010B5B1F4FD8014D915D916D91F6
:103EE0007C914087518762877387D7015B968C915D
:103EF0005B9781110C94E92992968C91882369F043
:103F0000D8014D915D916D917C9147A350A761A718
:103F100072A781E0848B138A818BD7015C968C9188
:103F20005C9781110C94352993968C9181110C9496
:103F3000142A9F01275A3F4F3901D7015D968C9172
:103F40005D9781110C945B2994968C9181110C944E
:103F5000F829BF0161567F4FD7015E968C915E971D
:103F600081110C94802995968C9181110C940B2BC6
:103F7000AF014B515F4FD7015F968C915F978111D5
:103F80000C94A52996968C9181110C94EE2A9F0190
:103F9000255D3E4FD70190968C91909781110C949E
:103FA000CF2997968C9181110C94CF2ACF018F58ED
:103FB0009E4FD7019196DC909197D1100C94B22A24
:103FC0009896DC90D1100C94912ADF01A954BE4F31
:103FD0004D01D7011D921C92D388D1100C948D2ACB
:103FE000DD24D394C488C11001C0D12CD7015096D0
:103FF000DC92D3011C9111110C944E2A11E06F0137
:10400000BAE5CB0ED11CD6010C91011101C010E014
:10401000D70159961C93DB016C9161110C944B2ACA
:1040200061E08F0100561F4FD8017C91711101C0D2
:1040300060E0D70192966C93DA014C9141110C9497
:10404000482A41E0BF016A517F4FDB015C91511169
:1040500001C040E0D7019B964C93D9012C912111CE
:104060000C94312A21E0AF01445D5E4FDA013C91AE
:10407000311101C020E0D701D4962C93DC018C9142
:1040800081110C943B2A81E09F012E583E4FD901AB
:104090009C91911101C080E0D701DD968C93D401F1
:1040A0008C9181110C94452AE854FE4F81E0908157
:1040B000911101C080E0F701EA5BFF4F80830C940F
:1040C0005D0A812C912C5401D70159968C91811154
:1040D0000C94B508F801EC59FF4F40805180628084
:1040E00073800C94E508FFE1CF0ED11CE11CF11C9C
:1040F0000C940512C0908B11D0908C11E0908D1112
:10410000F0908E11C114D104E104F10411F00C946B
:10411000C30D0C94FA060E94D6310C94300D5E96B5
:104120008D909D90AD90BC9091970C949E08F80155
:10413000EE53FE4F40805180628073800C94420A9F
:10414000F801E458FE4F40805180628073800C94E7
:10415000FE09F801EA5CFE4F408051806280738066
:104160000C94B809F801E051FF4F40805180628003
:1041700073800C947109F801E655FF4F408051801F
:10418000628073800C942B0980E0CCCC812C912C24
:1041900054010C94EE0D6B857C858D859E850E9467
:1041A0009137181614F00C94F30CE7EBF2E00C9432
:1041B000F3118091EC1381110C94790A80919B1377
:1041C00090919C13892B11F00C94790A85E08093CF
:1041D000D61521E030E040E050E0209326163093E1
:1041E0002716409328165093291690917705911120
:1041F0000C94790A20939711309398114093991158
:1042000050939A1180937B0581E08093770580938A
:10421000EC130C94790AFF92EF92E3E9F2E0FF933A
:10422000EF934BE953E15F934F930E94942C0F90CF
:104230000F900F900F900F900F900FCB0780F0858D
:10424000E02D8081882309F465C4FF92EF9228E86D
:1042500032E03F932F938BE993E19F938F930E94DA
:10426000942C0F900F900F900F900F900F90F5CA15
:10427000E859FE4F3081332309F464CDF50115A2CE
:10428000A0908B14B0908C1420E05CCDF70127A196
:1042900030A541A552A529013A01E89477F86801B3
:1042A000FCE9CF0ED11CD6011E964D925D926D9207
:1042B0007C92519752966D917D918D919C915597DD
:1042C0000E941835F601628773878487958781E09D
:1042D00081830C942B09F701268D378D40A151A1C4
:1042E00029013A01E89477F86801F6E5CF0ED11C70
:1042F000D6011E964D925D926D927C925197529688
:104300006D917D918D919C9155970E941835F60184
:10431000628773878487958781E081830C94E508A1
:1043200029013A01E89477F86801BCE4CB1ABEEFA2
:10433000DB0AF60146865786608A718A628973892C
:10434000848995890E941835D6011A966D937D93BC
:104350008D939C931D9781E011968C930C94420A47
:104360009185992309F4AECCF5011482E091DB1319
:10437000F091DC13A0908B14B0908C1480E0A2CC50
:10438000DF01A258BF4F9C91992309F4B1CCF501EC
:104390001786A0908B14B0908C14E091DB13F091F1
:1043A000DC1320E0A5CCDF01AD50BF4F3C9133239F
:1043B00009F4B5CCF501128EA0908B14B0908C143A
:1043C000E091DB13F091DC1390E0A9CCF70121AD73
:1043D00032AD43AD54AD29013A01E89477F8680154
:1043E000F8EDCF1AFEEFDF0AD6011E964D925D92D0
:1043F0006D927C92519752966D917D918D919C9189
:1044000055970E941835F6016287738784879587D0
:1044100081E081830C94B809F70120A931A942A950
:1044200053A929013A01E89477F86801F2EECF0E1A
:10443000D11CD6011E964D925D926D927C92519741
:1044400052966D917D918D919C9155970E94183552
:10445000F601628773878487958781E081830C9456
:104460007109258936894789508D49015A01E89497
:10447000B7F8F801868E978EA0A2B1A262A173A1AF
:1044800084A195A10E941835D8015A966D937D9309
:104490008D939C935D9781E051968C930C949E082C
:1044A00029013A01E89477F86801B2E9CB1ABEEF26
:1044B000DB0AF60146865786608A718A62897389AB
:1044C000848995890E941835D6011A966D937D933B
:1044D0008D939C931D9781E011968C930C94FE090B
:1044E0000E94D6310C94B5190E94D6310C94570D08
:1044F0000E94D6310C94B70B0E94D631D6C9680100
:10450000FEE9CF1AFEEFDF0A81E0D60117968C9301
:10451000F70190A5992311F0F6018083D7019996B0
:104520008C91882311F0D6011C92F70182A5882373
:1045300019F081E0F6018183D7019B968C91882345
:1045400019F0D60111961C92F70164A575A586A5F0
:1045500097A5F801E153FE4F6083718382839383B3
:10456000D70196962C919697F601238397962C91D6
:10457000258321E0278B23E333E948E853E40E94B5
:1045800018359B01AC0160E070EE86E795E40E946F
:1045900089352EE439EF43E551E40E9417350E9436
:1045A000033620E030E543EC57E40E940C3820E06D
:1045B00030EE4BEA56E40E9418359B01AC0168E0EE
:1045C00075EB8BEA9BE40E9489350E943536D60153
:1045D00052966D937D938D939C935597F70156CC8E
:1045E0006801FDEECF0ED11C81E0D60117968C93A9
:1045F000F701958D992311F0D6018C93D7015E9622
:104600008C91882311F0F6011082F701878D8823A1
:1046100021F081E0D60111968C93D70190968C9170
:10462000882311F0F6011182F70161A172A183A123
:1046300094A1F801E65AFE4F6083718382839383CD
:10464000D7015B962C915B97F60123835C962C91A6
:10465000258321E0278B23E333E948E853E40E94D4
:1046600018359B01AC0160E070EE86E795E40E948E
:1046700089352EE439EF43E551E40E9417350E9455
:10468000033620E030E543EC57E40E940C3820E08C
:1046900030EE4BEA56E40E9418359B01AC0168E00D
:1046A00075EB8BEA9BE40E9489350E943536D60172
:1046B00052966D937D938D939C935597E3CB6801B0
:1046C000F8E7CF0ED11C81E0D60117968C93F70145
:1046D0009289992311F0D6018C93D70153968C912E
:1046E000882311F0F6011082F7018489882321F0D4
:1046F00081E0D60111968C93D70155968C91882331
:1047000011F0F6011182F70166897789808D918D0C
:10471000F801EB51FF4F6083718382839383D7014C
:1047200050962C915097F601238351962C91258316
:1047300021E0278B23E333E948E853E40E9418354E
:104740009B01AC0160E070EE86E795E40E9489353C
:104750002EE439EF43E551E40E9417350E940336F9
:1047600020E030E543EC57E40E940C3820E030EEC6
:104770004BEA56E40E9418359B01AC0168E075EBEA
:104780008BEA9BE40E9489350E943536D601529609
:104790006D937D938D939C93559770CB81E0F80139
:1047A000828717969C9191118383D70118968C91DB
:1047B000882311F0F8011382F7018185882321F005
:1047C00081E0D80114968C93D7011A968C91882396
:1047D00011F0F8011482F70163857485858596854B
:1047E000F801E059FF4F6083718382839383D7017F
:1047F00015962C911597F801268316962C912087F3
:1048000021E0228F23E333E948E853E40E9418357E
:104810009B01AC0160E070EE86E795E40E9489356B
:104820002EE439EF43E551E40E9417350E94033628
:1048300020E030E543EC57E40E940C3820E030EEF5
:104840004BEA56E40E9418359B01AC0168E075EB19
:104850008BEA9BE40E9489350E943536D801559633
:104860006D937D938D939C93589704CB809177059E
:10487000882311F40C94BC1488E090E090937105A7
:1048800080937005C0908B11D0908C11E0908D11A9
:10489000F0908E110C94BD0D85E190E09093710520
:1048A000809370050C94AB1482599A4F0115110531
:1048B00009F44AC0DC01BC01600F711F01E010E087
:1048C000DD24D394CD90E0905A05F0905B05A701CC
:1048D000405C5F4FFA01208131812F5F3F4F2F7382
:1048E000332732968081918182179307D9F3FA0199
:1048F00080819181F701E80FF91FC082FA013183AD
:104900002083E0916205F09163052081C801009049
:104910006B0502C0880F991F0A94E2F7822B8083EF
:10492000D0926D05E0916005F09161058081806411
:104930008083A617B70731F64091971150919811CF
:104940006091991170919A1140939B1150939C1111
:1049500060939D1170939E110C944015FA01EF57CE
:10496000FA4E808190E09093E1148093E014CA01A4
:1049700085569C4EF2EEEF2EF4E1FF2E09EE14E187
:1049800060EF74E1A7EFAA2EA4E1BA2EBEEF8B2E42
:10499000B4E19B2E20E030E0FC01E951FE4FE081C4
:1049A000D701ED937D01FC01E851FE4FE081D80174
:1049B000ED938D01FC01E751FE4FE081DB01ED93AA
:1049C000BD01FC01E651FE4FE081D501ED935D0193
:1049D000FC01E551FE4FE081D401ED934D01F90159
:1049E000EB5FFA4EDC01A451BE4FCD90DC901197E5
:1049F000D182C08212960D90BC91A02DB383A28368
:104A000009962C5F3F4F2C31310531F6FA01EF53F7
:104A1000FA4E808191819093221580932115828195
:104A200093819093241580932315F4C983309105C5
:104A300009F494C1069711F00C945D0A81E080930B
:104A4000E2131092E1130091D9131091DA130C9430
:104A5000770AD9016D917C9111971296ED91FC9195
:104A600011974B018E1A9F0AEFE38E229924092C8D
:104A7000000CAA08BB0884149504A604B70408F423
:104A800039CB411451046104710411F40C94D9130D
:104A900040918F11440F488F1F8A4F89588D4C0DBC
:104AA0005D1DFA01E558F64FAF01440D551D8C010F
:104AB00069017D015F0102C09601D701F9016081A2
:104AC00071812D913C9111976217730709F4C2C54A
:104AD0002D913C911197820F931FFC0120818D91A4
:104AE0009C91119701968F73992711969C938E93A1
:104AF000822FD5018D935D01C8014A175B07E1F64E
:104B00008091971190919811A0919911B0919A115B
:104B10000C940913F80125AD30E0F901E650FD4F82
:104B20008491F901EC54FD4F9490F901E259FD4F45
:104B3000B490BB2089F081110E94D631EB2DF0E0BA
:104B4000EE0FFF1FEC5AFD4FA591B4919FB7F8945B
:104B50008C9189298C939FBFD8015596AC9255971B
:104B60005E962D913D914D915C91919751966D91ED
:104B70007D918D919C9154970E941835F801618B1D
:104B8000728B838B948B60E084AD0E9438320C94DE
:104B90002D1C1092EC138091E113811182C480913D
:104BA000DC149091DD14029709F04FC98091E01454
:104BB0009091E114039709F048C90E94D62C1092F5
:104BC000E21381E08093E11340C980938F119093A9
:104BD0009011A0939111B09392110C946D12DA017F
:104BE000AF57BA4EE0EEF4E18C91868311968C912A
:104BF0001197848312968C911297858313968C91CA
:104C00001397838314968C911497828315968C91B5
:104C10001597808316968D919C911797908787831F
:104C200018968D919C911997928781871A968C91ED
:104C30001A9781831B963B9615E1EC30F107A1F69C
:104C4000445D5F4F8091DC149091DD14E0C8809149
:104C50008415909185159093E1148093E0148091D0
:104C60008615909187159093E3148093E2148091B8
:104C70008815909189159093E5148093E4148091A0
:104C80008A1590918B159093E7148093E614809188
:104C90008C1590918D159093E9148093E814809170
:104CA0008E1590918F159093EB148093EA14E0E9A0
:104CB000F5E1ACEEB4E14FEC55E1BD018081DB01E3
:104CC0008C93818111968C931197828112968C938B
:104CD000CF018F59910923813481DC0111963C93D6
:104CE0002E932581368113963C932E9312978781BC
:104CF000DB0114968C931497808513968C933996C8
:104D0000675F7F4F4E175F07C9F68091DC14909163
:104D1000DD144EE450E077C883E090E090939C135C
:104D200080939B130C9438070E94D6310C949C1CE2
:104D30004F5F5F4F6F4F7F4F4093720550937305E6
:104D40006093740570937505C0908B11D0908C1191
:104D5000E0908D11F0908E110C94BD0D1092E21325
:104D60001092E3131092E4131092E5131092E613DD
:104D70001092E7131092E8131092E9131092EA13BD
:104D800010927F1510927E1510927D1510927C1551
:104D900010927B1510927A151092EF131092F01367
:104DA0008BE4A1EFB3E1E82F1D92EA95E9F71092A9
:104DB0003E1410923F14A0E4B4E11D928A95E9F7E5
:104DC000EBE2F5E1F0938C14E0938B141092EC136A
:104DD0001092EB1381E08093E1130091D9131091AD
:104DE000DA130C94690A40919B1150919C116091C7
:104DF0009D1170919E118091971190919811A091A1
:104E00009911B0919A11481759076A077B0708F062
:104E10002BC48EE090E090937105809370050C9404
:104E2000AB1481E080936F0587E090E0909371056B
:104E3000809370050C94AB14F70184890091D91309
:104E40001091DA13882371F0F70181A592A5A3A52B
:104E5000B4A5F80182A393A3A4A3B5A3828F938FD3
:104E6000A48FB58FD70155968C915597882391F0D3
:104E70009D968D919D910D90BC91A02DF801E859C2
:104E8000FF4F80839183A283B3833897808391837C
:104E9000A283B383F7018689882381F081A992A92F
:104EA000A3A9B4A9F801E255FF4F80839183A2839F
:104EB000B383389780839183A283B383D7015796B6
:104EC0008C915797882391F0D5968D919D910D9057
:104ED000BC91A02DF801EC50FF4F80839183A283F9
:104EE000B383389780839183A283B383F701808D46
:104EF000882381F081AD92ADA3ADB4ADF801E65C3D
:104F0000FE4F80839183A283B383389780839183FC
:104F1000A283B383D70159968C91882391F0F7012E
:104F2000FD9680819181A281B381F801E058FE4F06
:104F300080839183A283B383389780839183A283F4
:104F4000B383F701828D882311F40C94610AEF5B1F
:104F5000FF4F80819181A281B381F801EA53FE4F16
:104F600080839183A283B383389780839183A283C4
:104F7000B3830C94610A8CE090E090937105809368
:104F80007005C0908B11D0908C11E0908D11F09035
:104F90008E110C94BD0DD7011D968C91882369F05C
:104FA0000091D9131091DA13F801E45BFF4F61E02F
:104FB00080810E943832F801108AE0918B14F091C0
:104FC0008C148685882391F00091D9131091DA13FF
:104FD0000A5A1F4F61E0D801DC968C910E9438324A
:104FE000F8011082E0918B14F0918C14878588234E
:104FF00091F00091D9131091DA1304561F4F61E01C
:10500000D801DC968C910E943832F8011082E09130
:105010008B14F0918C148089882391F00091D9131E
:105020001091DA130E511F4F61E0D801DC968C917C
:105030000E943832F8011082E0918B14F0918C14A8
:105040008189882391F00091D9131091DA13085DBA
:105050001E4F61E0D801DC968C910E943832F80135
:105060001082E0918B14F0918C148289882391F046
:105070000091D9131091DA1302591E4F61E0D80143
:10508000DC968C910E943832F8011082E0918B14EA
:10509000F0918C1483890091D9131091DA1388232D
:1050A00011F40C94610A0C541E4F61E0D801DC9697
:1050B0008C910E943832F80110820091D91310911E
:1050C000DA130C94610AF7018681882379F0009144
:1050D000D9131091DA13F801E45BFF4F60E080818F
:1050E0000E94383281E0D80150968C93E0918B1465
:1050F000F0918C148781882391F00091D91310913D
:10510000DA130A5A1F4F60E0F80184AD0E9438326A
:1051100081E0D8018C93E0918B14F0918C14808500
:10512000882391F00091D9131091DA1304561F4F80
:1051300060E0F80184AD0E94383281E0D8018C93A0
:10514000E0918B14F0918C148185882391F000916B
:10515000D9131091DA130E511F4F60E0F80184AD9E
:105160000E94383281E0D8018C93E0918B14F09149
:105170008C148285882391F00091D9131091DA1351
:10518000085D1E4F60E0F80184AD0E94383281E076
:10519000D8018C93E0918B14F0918C148385882333
:1051A00091F00091D9131091DA1302591E4F60E06B
:1051B000F80184AD0E94383281E0D8018C93E091EF
:1051C0008B14F0918C1484850091D9131091DA130B
:1051D000882311F40C94610A0C541E4F60E0F8010E
:1051E00084AD0E94383281E0D8018C930091D913AC
:1051F0001091DA130C94610AC0908B11D0908C112D
:10520000E0908D11F0908E1114E0C116D104E104EC
:10521000F10410F40C946A170C940E160091E0142B
:105220001091E1140A31110511F00C94251F8FE43F
:1052300092E09F938F93EBE9F3E1FF93EF930E944A
:10524000942CF0928E14E0928D141093921400938B
:1052500091140F900F900F900F900C94251F8DE8D4
:1052600094E10E941F2D0C94251FD8014D915D9152
:105270006D917C91CF0183599F4FDC014D935D93DC
:105280006D937C9313973F01B9E56B0E711C81E020
:10529000D3018C939F01265A3F4FD9011C92235072
:1052A0003109D9018C93D7015D968C915D97882344
:1052B00011F40C94A41FD8014D915D916D917C91D6
:1052C000CF018D549F4FDC014D935D936D937C9383
:1052D0001397BF0161567F4F81E0DB018C939F01E3
:1052E00020563F4FD9011C9223503109D9018C938C
:1052F000D7015E968C915E97882311F40C94B31FAE
:10530000D8018D909D90AD90BC90CF0187509F4F5C
:10531000DC018D929D92AD92BC921397AF014B51DF
:105320005F4F81E0DA018C939F012A513F4FD901F1
:105330001C9223503109D9018C93D7015F968C912F
:105340005F97882311F40C94C21FD8018D909D9013
:10535000AD90BC90CF01815C9E4FDC018D929D92FF
:10536000AD92BC9213979F01255D3E4F81E0D9011C
:105370008C936F01B4EDCB1ABEEFDB0AD6011C9201
:105380006F01B7EDCB1ABEEFDB0AD6018C93D701C4
:1053900090968C919097882311F40C94D11FD8018A
:1053A0008D909D90AD90BC90CF018B579E4FDC01AE
:1053B0008D929D92AD92BC9213974497DD24D39425
:1053C000DC01DC925F01BEE8AB1ABEEFBB0AD5017F
:1053D000FBC0D8014D915D916D917C9147A350A781
:1053E00061A772A781E0838B148A818B0C948D1F37
:1053F000D8014D915D916D917C91CF018D549F4F5E
:10540000DC014D935D936D937C93139721E043975B
:10541000DC012C93BF0161567F4FDB011C92039787
:10542000DC012C930C94AC1FD8014D915D916D91D2
:105430007C91CF0183599F4FDC014D935D936D9318
:105440007C93139721E04397DC012C933F01B9E54E
:105450006B0E711CD3011C920397DC012C930C94EE
:105460009D1F21E0D701D4962C93DC018C918823D9
:1054700011F40C94432081E0D701DD968C93D40184
:105480008C91882311F40C94542081E00C945B20BF
:1054900041E00C942A2061E00C94192011E00C9456
:1054A000082020917C1530917D154FE4429FC0016A
:1054B000439F900D112483519C4E0E941F2D81E02B
:1054C00090E020917C1530917D15232B11F080E028
:1054D00090E090937D1580937C1580917E1590913E
:1054E0007F15019690937F1580937E158091DC1433
:1054F0009091DD14029711F00C94251F8091E01417
:105500009091E114069711F00C94251F81E080938F
:10551000E2131092E1130C94251FDD24D3940C9414
:10552000F61FD8018D909D90AD90BC90DF01A553E2
:10553000BE4F8D929D92AD92BC921397DD24D39471
:105540005397DC924F01B9E48B1ABEEF9B0AD4014A
:105550001C925F01BBE4AB1ABEEFBB0AD501DC9223
:105560000C94E91FD8018D909D90AD90BC90DF0107
:10557000A553BE4F8D929D92AD92BC9213974F0151
:10558000B9E48B1ABEEF9B0ADD24D394D401DC92DC
:105590005F01B8E4AB1ABEEFBB0AD501D9CFD80181
:1055A0008D909D90AD90BC90CF018B579E4FDC01AC
:1055B0008D929D92AD92BC921397DD24D394439724
:1055C000DC01DC920197DC011C925F01B1E9AB1AAE
:1055D000BEEFBB0AD501DC920C94D91FD8018D9087
:1055E0009D90AD90BC90CF01815C9E4FDC018D926F
:1055F0009D92AD92BC921397DD24D3944397DC0126
:10560000DC929F01255D3E4FD9011C920397DC017E
:10561000DC920C94CA1FD8018D909D90AD90BC90E7
:10562000CF0187509F4FDC018D929D92AD92BC922D
:10563000139721E04397DC012C93AF014B515F4F4F
:10564000DA011C920397DC012C930C94BB1F8FEFA3
:105650000C94F7128FEF4DCA83E090E090937105A0
:10566000809370050C94AB1480E190E090937105E9
:10567000809370050C94AB1440E050E060E07FEF45
:105680000C94AB13812C912C5401AA940C948C1380
:10569000C12CD12C7601DA940C946E13412C512C30
:1056A00032014A940C944F130895CF93DF93DC0199
:1056B0001E96CD91DC911F97CE01805C9F4FFC011F
:1056C000408151814F5F5F4F4F7355273296208144
:1056D000318124173507D9F3FC0180819181FE01C6
:1056E000E80FF91F60831E96ED91FC911F97E05C17
:1056F000FF4F518340835696ED91FC91579720813F
:1057000081E090E05F960C905F9702C0880F991F30
:105710000A94E2F7822B808381E091968C93919793
:105720005496ED91FC91559780818064808381E04F
:1057300090E0DF91CF9108959F92AF92BF92CF9268
:10574000DF92EF92FF920F931F93CF93DF93411558
:10575000510509F460C0EC017B018A01C12CD12CF8
:10576000AA24A394B12C99249394E881F9810190FF
:10577000F081E02DD7016D917D01BBE2E535FB079E
:1057800009F046C04E855F85DA01A05CBF4F8D9160
:105790009C91119701968F739927FA01EE5BFF4F49
:1057A0002081318128173907D9F32D913C91FA01D5
:1057B000E20FF31F6083EE85FF85E05CFF4F91836E
:1057C0008083EE89FF892081C5010F8C02C0880F7C
:1057D000991F0A94E2F7822B808399A2EC89FD89B4
:1057E00080818064808381E090E0C80ED91E0150E2
:1057F000110909F0BACFC601DF91CF911F910F9126
:10580000FF90EF90DF90CF90BF90AF909F90089562
:10581000CE011995EACFC12CD12CEDCFFC0181A18D
:10582000882329F0A489B5899C9196FFFDCF11A208
:105830000895FC0184859585FC01E05CFF4F408163
:1058400051813296208131814217530781F02081A6
:105850003181DC01A20FB31F8C91208131812F5F38
:105860003F4F2F7333273183208390E008958FEFCC
:105870009FEF0895FC0184859585FC01E05CFF4F56
:10588000408151813296208131814217530741F086
:1058900020813181FC01E20FF31F808190E00895A7
:1058A0008FEF9FEF0895FC0124853585F901E05CB9
:1058B000FF4F80819181329620813181821B930B31
:1058C0008F73992708958091580590915905FC018F
:1058D000E05CFF4F208131813296808191818091FF
:1058E000360590913705FC01E05CFF4F2081318146
:1058F0003296808191818091140590911505FC016B
:10590000E05CFF4F208131813296808191818091CE
:10591000F2049091F304FC01E05CFF4F208131819F
:105920003296808191810895CF93DF93CDB7DEB712
:10593000C054D1090FB6F894DEBF0FBECDBF809121
:105940002F1A803150F0C05CDF4F0FB6F894DEBFE5
:105950000FBECDBFDF91CF9108959E01265B3F4FD3
:105960002A964EAD5FAD2A9760E470E0CE010196B5
:105970000E94DE3480912E1A20E4829FC0011124FF
:10598000BE016F5F7F4F835D994E0E94A834809166
:105990002E1A8F3048F080E080932E1A80912F1AB3
:1059A0008F5F80932F1ACFCF8F5FF6CF1092E113C6
:1059B0001092E213E3EEF3E110821182128213825D
:1059C000148215821682178210927F1510927E150E
:1059D00010927D1510927C1510927B1510927A15FD
:1059E0001092EF131092F0138BE4E1EFF3E1DF017B
:1059F000982F1D929A95E9F710923E1410923F1439
:105A0000E0E4F4E1DF011D928A95E9F78BE295E18C
:105A100090938C1480938B141092EC131092EB13D0
:105A20000895DC0112961C92129713961C92FC01A9
:105A300034962BE4DF011D922A95E9F70895FC01C5
:105A40008091DF1483838091DC149091DD14918325
:105A500080832091DE142283009709F0F0C08091AA
:105A6000E8149091E914A091EA14B091EB148487A2
:105A70009587A687B7878091E0149091E114A09153
:105A8000E214B091E31484839583A683B783809155
:105A9000E4149091E514A091E614B091E714808786
:105AA0009187A287B3878091EE14828B8091ED1449
:105AB000818B8091F1149091F214A091F314B09124
:105AC000F414858B968BA78BB08F8091EC14808B10
:105AD0008091F014848B8091EF14838B8091F71464
