:100000000C94D8000C9409010C9409010C9409017A
:100010000C9409010C9409010C9409010C94090138
:100020000C9409010C9409010C9409010C94090128
:100030000C9409010C9409010C9409010C94090118
:100040000C9409010C9409010C9409010C94090108
:100050000C9409010C9409010C9409010C94FC0303
:100060000C9409010C94C9030C94F1020C9409013D
:100070000C9409010C9409010C9409010C940901D8
:100080000C9409010C9409010C9409010C940901C8
:100090000C9496030C94B2020C9409010C9409017F
:1000A0000C9409010C9409010C9409010C940901A8
:1000B0000C9409010C9409010C9409010C94090198
:1000C0000C9409010C9409010C9409010C9463032C
:1000D0000C9473020C9409010C9430030C943402B8
:1000E0000C9409012F069306AD06DC06F6062807D8
:1000F000560741077D078C07DC07F007FC0710084F
:100100004F0874089208E30816091B0932097D0993
:1001100089099D09FE092C0A820A370A3A0A0C94B9
:100120002C0A0C9489090C9446040C94370A0C94FC
:100130003A0A0C94AD060C948C070C941B090C9491
:1001400093060C9492080C94FC070C94820A0C946D
:100150007D070C94DC060C9456070C947D090C94D6
:10016000CF010C944D010C9458010C9494010C9403
:10017000E3080C9428070C944F080C9441070C9446
:100180009D090C9410080C942F060C9416090C94DD
:10019000FE090C94DC070C9478010C940B010C9470
:1001A000F6060C94F0070C9474080C94320946047B
:1001B00011241FBECFEFD1E2DEBFCDBF00E00CBFE8
:1001C00012E0A0E0B2E0E0EDF6E100E00BBF02C01B
:1001D00007900D92A032B107D9F72DE0A0E2B2E06E
:1001E00001C01D92A030B207E1F710E0C8EDD0E0E9
:1001F00000E006C021970109802FFE010E945E0BDE
:10020000C73DD10780E00807A9F70E941D050C949F
:10021000520B0C9400000F931F93CF93DF93FC01BC
:10022000A685B7858D01005C1F4FE8018881998103
:1002300001968F739927AD014E5B5F4FEA012881CC
:10024000398128173907D1F3E80128813981A20FB4
:10025000B31F6C93A685B785A05CBF4F11969C9386
:100260008E93A689B7892C9181E090E0078C02C01B
:10027000880F991F0A94E2F7822B8C9381E081A367
:100280000488F589E02D80818064808381E090E09E
:10029000DF91CF911F910F910895FC0181A18823D7
:1002A00029F0A489B5898C9186FFFBCF11A208950E
:1002B000FC01A485B585FD01E05CFF4F2081318103
:1002C0003296808191812817390779F08081918158
:1002D000A80FB91F8C91208131812F5F3F4F2F7361
:1002E00033273183208390E008958FEF9FEF0895A7
:1002F000DC011C96ED91FC911D97DF01A05CBF4FC6
:100300002D913C91119712968D919C9111972817E0
:10031000390739F08D919C91E80FF91F808190E0A9
:1003200008958FEF9FEF0895FC0124853585F9012D
:10033000E05CFF4F80819181329620813181821B68
:10034000930B8F739927089583EB94E00E94940197
:1003500089E094E00E9494018FE593E00E9494016B
:1003600085EB92E00C949401FB01E05CFF4F20814F
:100370003181DB01AE5BBF4F4D915C912F5F3F4FF1
:100380002F7333274217530741F040815181DB011E
:10039000A40FB51F8C933183208308950895CF92C5
:1003A000DF92EF92FF920F931F93CF93DF936C0135
:1003B000EB017B01E40EF51E00E010E0CE15DF0539
:1003C00061F06991D601ED91FC910190F081E02DF1
:1003D000C6011995080F191FF1CFC801DF91CF9100
:1003E0001F910F91FF90EF90DF90CF9008958F9223
:1003F0009F92AF92BF92CF92DF92EF92FF92CF93F4
:10040000DF936B017C01EA0183EB94E00E9494018D
:10041000092E000CAA0BBB0B8C159D05AE05BF0564
:1004200098F0812C912C5401C814D904EA04FB04DF
:1004300071F083EB94E00E94580189938FEF881A42
:10044000980AA80AB80AF0CFC12CD12C7601C701AE
:10045000B601DF91CF91FF90EF90DF90CF90BF90EA
:10046000AF909F908F9008951F920F920FB60F92AA
:1004700011240BB60F922F933F938F939F93EF937B
:10048000FF9320916D0230916E0280916F029091E6
:1004900070022817390731F4809131018F7D8093E4
:1004A000310114C0E0916F02F0917002E35DFD4FE5
:1004B000208180916F029091700201968F7399272D
:1004C0009093700280936F0220933601FF91EF9119
:1004D0009F918F913F912F910F900BBE0F900FBE68
:1004E0000F901F9018951F920F920FB60F92112424
:1004F0000BB60F922F933F938F939F93EF93FF939E
:1005000020911703309118038091190390911A03D9
:100510002817390731F48091D1008F7D8093D10065
:1005200014C0E0911903F0911A03E952FD4F2081A4
:100530008091190390911A0301968F7399279093D4
:100540001A03809319032093D600FF91EF919F9196
:100550008F913F912F910F900BBE0F900FBE0F9078
:100560001F9018951F920F920FB60F9211240BB681
:100570000F922F933F938F939F93EF93FF9320912D
:10058000C1033091C2038091C3039091C403281723
:10059000390731F48091C9008F7D8093C90014C060
:1005A000E091C303F091C403EF57FC4F2081809189
:1005B000C3039091C40301968F7399279093C4034A
:1005C0008093C3032093CE00FF91EF919F918F9171
:1005D0003F912F910F900BBE0F900FBE0F901F9069
:1005E00018951F920F920FB60F9211240BB60F920F
:1005F0002F933F938F939F93EF93FF9320916B04DF
:1006000030916C0480916D0490916E042817390725
:1006100031F48091C1008F7D8093C10014C0E091BE
:100620006D04F0916E04E55DFB4F208180916D04B7
:1006300090916E0401968F73992790936E04809326
:100640006D042093C600FF91EF919F918F913F9190
:100650002F910F900BBE0F900FBE0F901F9018950B
:100660001F920F920FB60F9211240BB60F922F9379
:100670003F934F935F936F937F938F939F93AF932A
:10068000BF93EF93FF938091300182FD07C080916B
:10069000360161E772E00E94B40102C08091360128
:1006A000FF91EF91BF91AF919F918F917F916F914A
:1006B0005F914F913F912F910F900BBE0F900FBE06
:1006C0000F901F9018951F920F920FB60F92112442
:1006D0000BB60F922F933F934F935F936F937F933C
:1006E0008F939F93AF93BF93EF93FF938091D0002D
:1006F00082FD07C08091D6006BE173E00E94B401D7
:1007000002C08091D600FF91EF91BF91AF919F9170
:100710008F917F916F915F914F913F912F910F90AA
:100720000BBE0F900FBE0F901F9018951F920F9247
:100730000FB60F9211240BB60F922F933F934F9346
:100740005F936F937F938F939F93AF93BF93EF9339
:10075000FF938091C80082FD07C08091CE0065ECB8
:1007600073E00E94B40102C08091CE00FF91EF912E
:10077000BF91AF919F918F917F916F915F914F91B9
:100780003F912F910F900BBE0F900FBE0F901F90B7
:1007900018951F920F920FB60F9211240BB60F925D
:1007A0002F933F934F935F936F937F938F939F9379
:1007B000AF93BF93EF93FF938091C00082FD07C07A
:1007C0008091C6006FE674E00E94B40102C080917F
:1007D000C600FF91EF91BF91AF919F918F917F9153
:1007E0006F915F914F913F912F910F900BBE0F90A2
:1007F0000FBE0F901F9018951F920F920FB60F9279
:1008000011242F933F938F939F93AF93BF93809126
:10081000290290912A02A0912B02B0912C023091D2
:10082000280223E0230F2D3720F40196A11DB11DCE
:1008300005C026E8230F0296A11DB11D20932802B2
:100840008093290290932A02A0932B02B0932C024A
:100850008091240290912502A0912602B091270256
:100860000196A11DB11D8093240290932502A093AF
:100870002602B0932702BF91AF919F918F913F9134
:100880002F910F900FBE0F901F901895CF92DF926F
:10089000EF92FF92E3EBF4E01382128288EEC82E0F
:1008A00083E0D82EE12CF12CC482D582E682F78237
:1008B00064E172E0718360838FE694E095878487BA
:1008C0008BE294E09787868785EC90E0918B808B14
:1008D00084EC90E0938B828B80EC90E0958B848B02
:1008E00081EC90E0978B868B82EC90E0918F808FEB
:1008F00086EC90E0938F828F44E0448F33E0358F15
:1009000027E0268F95E0978F81E080A3E9E0F4E06F
:1009100013821282C482D582E682F7827183608359
:10092000A5ECB3E0B587A487A1E8B3E0B787A687B5
:10093000ADECB0E0B18BA08BACECB0E0B38BA28B94
:10094000A8ECB0E0B58BA48BA9ECB0E0B78BA68B7C
:10095000AAECB0E0B18FA08FAEECB0E0B38FA28F65
:10096000448F358F268F978F80A3EFE5F3E01382B6
:100970001282C482D582E682F78271836083ABE102
:10098000B3E0B587A487A7EDB2E0B787A687A5ED4A
:10099000B0E0B18BA08BA4EDB0E0B38BA28BA0ED47
:1009A000B0E0B58BA48BA1EDB0E0B78BA68BA2ED28
:1009B000B0E0B18FA08FA6EDB0E0B38FA28F448FCF
:1009C000358F268F978F80A3E5EBF2E0138212829A
:1009D000C482D582E682F7827183608361E772E028
:1009E000758764876DE272E07787668765E371E0FB
:1009F000718B608B64E371E0738B628B60E371E0F9
:100A0000758B648B61E371E0778B668B62E371E0D9
:100A1000718F608F66E371E0738F628F448F358FC3
:100A2000268F978F80A3E5EDF4E013821282108267
:100A3000FF90EF90DF90CF900895CF93DF93CDB7E5
:100A4000DEB7AA970FB6F894DEBF0FBECDBF78947D
:100A500084B5826084BD84B5816084BD85B58260C3
:100A600085BD85B5816085BD80916E008160809374
:100A70006E001092810080918100826080938100DD
:100A800080918100816080938100809180008160ED
:100A9000809380008091B10084608093B100809148
:100AA000B00081608093B00080919100826080935B
:100AB00091008091910081608093910080919000DD
:100AC0008160809390008091A10082608093A1005A
:100AD0008091A10081608093A1008091A00081603D
:100AE0008093A000809121018260809321018091F8
:100AF0002101816080932101809120018160809398
:100B0000200180917A00846080937A0080917A003D
:100B1000826080937A0080917A00816080937A006D
:100B200080917A00806880937A001092C1008CE0F6
:100B3000E0E0F2E0DE01519601900D928A95E1F736
:100B4000FE017D9684E0DF011D928A95E9F7E09130
:100B5000C704F091C8041082E091C304F091C4046A
:100B60001082E091C504F091C60480E18083109268
:100B7000D404E091C904F091CA04408181E090E07E
:100B80009C010090CF0402C0220F331F0A94E2F7A9
:100B9000242B2083E091C904F091CA0440819C0178
:100BA0000090D00402C0220F331F0A94E2F7242BD6
:100BB0002083E091C904F091CA0440819C01009017
:100BC000D10402C0220F331F0A94E2F7242B2083A2
:100BD000E091C904F091CA0420810090D20402C0BF
:100BE000880F991F0A94E2F780958223808309E099
:100BF00010E0F8E12F2E312C33E1E32EF12C45E10A
:100C0000442E512C54E1652E712C6BE1862E912CD3
:100C10007AE1A72EB12CE2E1CE2ED12C8091D9041D
:100C20009091DA04A091DB04B091DC040196A11D3F
:100C3000B11D8093D9049093DA04A093DB04B093A0
:100C4000DC04E091D704F091D804ED31F10508F00F
:100C500066C48827EE58FF4F8F4F0C945E0B10929E
:100C6000DE041092DF041092E0041092E104E2EE40
:100C7000F4E082EE96E01192DF01A150BE4F1C928B
:100C80008E179F07C1F71092EA0C1092EB0C10928E
:100C9000EC0C1092ED0C1092EE0C1092EF0C1092E6
:100CA000F00C1092F10C1092F20C1092F30C1092C6
:100CB000F40C1092F50CA2EEB8E0E2EEFAE01D9210
:100CC0002AE0A23EB207D9F782EE9CE011928E177D
:100CD0009F07E1F71092F60C1092F70C1092F80CA7
:100CE0001092F90C1092FA0C1092FB0C1092FC0C62
:100CF0001092FD0C1092FE0C1092FF0C1092D90471
:100D00001092DA041092DB041092DC041092DD04DD
:100D10001092D60483EB94E00E944D018091D5049B
:100D2000811147C0E7C081E089A341E050E0BE01E6
:100D30006F5D7F4F83EB94E00E94CF011092D90446
:100D40001092DA041092DB041092DC0482E090E04E
:100D50009093D8048093D704E6C3AE014F5D5F4FF4
:100D600061E070E080E090E00E94F701672B682B63
:100D7000692B49F089A1833019F483E090E060C3C6
:100D800081E090E05DC38091D9049091DA04A09154
:100D9000DB04B091DC0481329E44A105B10508F466
:100DA000DBC31092D9041092DA041092DB04109283
:100DB000DC0481E090E0CCCF84E090E09093D80414
:100DC0008093D70482E089A341E050E0BE016F5DCB
:100DD0007F4F83EB94E00E94CF011092D9041092D0
:100DE000DA041092DB041092DC049DC3AE014F5D67
:100DF0005F4F61E070E080E090E00E94F701672BB8
:100E0000682B692B61F089A1843009F0B4CF81E0AF
:100E10008093D6041093D8040093D704DECF80913A
:100E2000D9049091DA04A091DB04B091DC04813202
:100E30009E44A105B10508F48FC31092D904109205
:100E4000DA041092DB041092DC0483E090E080CF9F
:100E5000AE014F5D5F4F61E070E080E090E00E9486
:100E6000F701672B682B692B09F4B7CF89A1813073
:100E700019F486E090E0E4C28230A9F488E090E0C2
:100E8000DFC2AE014F5D5F4F61E070E080E090E057
:100E90000E94F701672B682B692BB1F089A1823082
:100EA00069F3813031F385E090E0CAC283E089A321
:100EB00041E050E0BE016F5D7F4F83EB94E00E9404
:100EC000CF0187E090E0BCC28091D9049091DA0410
:100ED000A091DB04B091DC0481329E44A105B105F0
:100EE00008F43AC31092D9041092DA041092DB0489
:100EF0001092DC0485E090E02BCF84E089A341E0F0
:100F000050E0BE016F5D7F4F83EB94E00E94CF0104
:100F100081E08093D604F6C21092D9041092DA04CC
:100F20001092DB041092DC048091D504882371F1C7
:100F30008091DE04882319F08AE090E009CFAE01A9
:100F40004F5D5F4F61E070E080E090E00E94F7014C
:100F5000672B682B692B09F4DDC289A1843009F461
:100F6000D9C2853009F0DBC28091EA0C9091EB0C7C
:100F7000A091EC0CB091ED0C0297A105B10518F011
:100F80008BE090E0E5CE8CE090E0E2CEAE014F5DEC
:100F90005F4F61E070E080E090E00E94F701672B16
:100FA000682B692B21F089A18230D9F6B3C28091D8
:100FB000DE048111C1CFAEC285E089A341E050E0DB
:100FC000BE016F5D7F4F83EB94E00E94CF011092D2
:100FD000D9041092DA041092DB041092DC0443C0AE
:100FE00088E089A341E050E0BE016F5D7F4F83EB55
:100FF00094E00E94CF0186C286E089A341E050E0E0
:10100000BE016F5D7F4F83EB94E00E94CF01109291
:10101000D9041092DA041092DB041092DC0488C127
:101020008091D504AE014F5D5F4F882311F161E0DF
:1010300070E080E090E00E94F701672B682B692B3D
:1010400009F471C289A1863009F469C0883009F4B5
:1010500061C2853009F05EC28091DD04811106C055
:1010600081E08093DD048DE090E072CE1092DD048B
:1010700051C261E070E080E090E00E94F701672BD0
:10108000682B692B09F44FC289A1863009F447C047
:10109000883009F43FC2853009F03CC265CF87E053
:1010A00089A34091F60C3091F70C2091F80C9091A7
:1010B000F90C4AA33BA32CA39DA38EA31092FE0C74
:1010C00046E050E0BE016F5D7F4F83EB94E00E94ED
:1010D000CF011092FA0C1092FB0C1092FC0C1092A3
:1010E000FD0C8FE090E034CEAE014F5D5F4F61E0CC
:1010F00070E080E090E00E94F701672B682B692B7D
:1011000009F411C289A1893019F480E190E020CE60
:101110008A3009F004C283EB94E00E944D018EE016
:1011200090E016CE8091FA0C9091FB0CA091FC0CF3
:10113000B091FD0C4091F60C5091F70C6091F80CB9
:101140007091F90C481B590B6A0B7B0B0D964031C3
:10115000510561057105A8F0BC016B527B4F40E160
:1011600050E083EB94E00E94CF018091FA0C9091C3
:10117000FB0CA091FC0CB091FD0C4096A11DB11D83
:101180000FC08B529B4FBC0183EB94E00E94CF01B8
:101190008091F60C9091F70CA091F80CB091F90C9D
:1011A0008093FA0C9093FB0CA093FC0CB093FD0C75
:1011B0001092D9041092DA041092DB041092DC042D
:1011C00081E190E0C5CDAE014F5D5F4F61E070E021
:1011D00080E090E00E94F701672B682B692B09F4EF
:1011E000A2C189A18B30E9F44091FA0C5091FB0C1B
:1011F0006091FC0C7091FD0C8091F60C9091F70CB5
:10120000A091F80CB091F90C481759076A077B07B1
:1012100018F480E190E014C1D092D804C092D704B1
:10122000DCCDB092D804A092D7047DC19092D804AE
:101230008092D704D2CDAE014F5D5F4F61E070E088
:1012400080E090E00E94F701672B682B692B09F47E
:101250006AC189A1873009F06BC07092D80460928E
:10126000D70461C11092F60C1092F70C1092F80C92
:101270001092F90CAE014F5D5F4F65E070E080E0C9
:1012800090E00E94F701672B682B692B09F44BC192
:101290008DA1873079F529A18091F60C9091F70CFA
:1012A000A091F80CB091F90C822B2AA1922B2BA1C2
:1012B000A22B2CA1B22B8093F60C9093F70CA09349
:1012C000F80CB093F90C1092FF0C1092FA0C1092DB
:1012D000FB0C1092FC0C1092FD0C1092D904109291
:1012E000DA041092DB041092DC045092D80440928D
:1012F000D70419C186E190E02BCD89E089A341E0B4
:1013000050E0BE016F5D7F4F83EB94E00E94CF0100
:101310009CC08AE089A383EB94E00E944D0141E0E8
:1013200050E0BE016F5D7F4F83EB94E00E94CF01E0
:10133000F092D804E092D704F6C02091FA0C3091D4
:10134000FB0C4091FC0C5091FD0C8091F60C90919F
:10135000F70CA091F80CB091F90CBC01CD01621B07
:10136000730B840B950BE091EE0CEE0F6031710561
:1013700081059105F8F0E8A71FA24FA158A5420FDB
:10138000531F4E51574F60E170E080E090E00E94A3
:10139000F701672B682B692B09F4C5C08091FA0C03
:1013A0009091FB0CA091FC0CB091FD0C4096A11DFE
:1013B000B11D17C0EAA719A649A55AA5420F531F88
:1013C0004E51574F0E94F701672B682B692B09F488
:1013D000AAC08091F60C9091F70CA091F80CB091F6
:1013E000F90C8093FA0C9093FB0CA093FC0CB09337
:1013F000FD0C3092D8042092D704EFCC8BE089A367
:1014000041E050E0BE016F5D7F4F83EB94E00E94AE
:10141000CF014091FA0C5091FB0C6091FC0C709143
:10142000FD0C8091F60C9091F70CA091F80CB09106
:10143000F90C481759076A077B0738F089E190E0F3
:101440009093D8048093D704C8CCA7E1B0E0B093C0
:10145000D804A093D704C1CC1092D9041092DA0416
:101460001092DB041092DC048CE190E071CC1092BD
:10147000DE0448C08091EE0C9091EF0CA091F00C2E
:10148000B091F10CFC01EE0FFF1FEE0FFF1FEE51AC
:10149000F34F4091F60C5091F70C6091F80C70915D
:1014A000F90C40835183628373834091EA0C50911D
:1014B000EB0C6091EC0C7091ED0C4F5F5F4F6F4F38
:1014C0007F4F4093EA0C5093EB0C6093EC0C7093BD
:1014D000ED0C0196A11DB11D82309105A105B1054C
:1014E00048F48093EE0C9093EF0CA093F00CB09323
:1014F000F10C08C01092EE0C1092EF0C1092F00C50
:101500001092F10C1092D9041092DA041092DB04BC
:101510001092DC041093D8040093D70404C01092F6
:10152000D8041092D7048091D9049091DA04A09144
:10153000DB04B091DC0481329E44A105B10560F06A
:101540001092D9041092DA041092DB041092DC0499
:101550001092D8041092D7048091D604882309F4FD
:101560005DCBC090EA0CD090EB0CE090EC0CF090CE
:10157000ED0CC114D104E104F10409F455C08090CC
:10158000F20C9090F30CA090F40CB090F50CF401D8
:10159000EE0FFF1FEE0FFF1FEE51F34F4080518003
:1015A00062807380B401762F6627770F6E51774F74
:1015B000A201CE0101960E94550B81E090E0A0E0CF
:1015C000B0E089288A288B2819F080E090E0DC01BF
:1015D0008093F20C9093F30CA093F40CB093F50C61
:1015E00081E0C81AD108E108F108C092EA0CD09253
:1015F000EB0CE092EC0CF092ED0C452846284728C5
:1016000099F08091DE048111F7CA80E190E0A0E0BA
:10161000B0E08093F60C9093F70CA093F80CB09385
:10162000F90CFE01319634C08091DE048111E4CAC8
:101630008091200290912102A0912202B091230278
:10164000883E23E09207A105B10520F40196A11D73
:10165000B11D03C080E090E0DC01809320029093F4
:101660002102A0932202B0932302892B8A2B8B2B79
:1016700009F0C2CA80E190E0A0E0B0E08093F60CEF
:101680009093F70CA093F80CB093F90CFE017196AF
:10169000A2EEB4E001900D928A95E1F781E080938B
:1016A000DE04AACAF8940C94660BFB01DC0102C0AC
:1016B00001900D9241505040D8F70895EE0FFF1F52
:1016C000881F8BBF0790F691E02D1994F894FFCFF7
:1016D0004D6963726F20686572652100000000002B
:1016E000000000000B01CF019401580178014D0169
:00000001FF
