:100000000C94A1010C94D2010C94D2010C94D20155
:100010000C94D2010C94D2010C94D2010C94D20114
:100020000C94D2010C94D2010C94D2010C94D20104
:100030000C94D2010C94D2010C94D2010C94D201F4
:100040000C94D2010C94772E0C94D2010C94D20112
:100050000C94D2010C94D2010C94D2010C949E31D8
:100060000C94D2010C9453300C945A2F0C94D2015E
:100070000C94D2010C94D2010C94D2010C94D201B4
:100080000C943D2E0C94D2010C94D2010C94D2010C
:100090000C9415300C941B2F0C94D2010C94D201AB
:1000A0000C94D2010C94D2010C94D2010C94D20184
:1000B0000C94D2010C94D2010C94D2010C94D20174
:1000C0000C94D2010C94D2010C94D2010C94D72F31
:1000D0000C94DC2E0C94D2010C94992F0C949D2E30
:1000E0000C94D2013806CD1692163C160116AE15A8
:1000F00074151115BE146C141A14C5135E13030D78
:10010000D2128F127812030DB611030D030D3311A5
:10011000CA10B3109C1083103210A330A730AB303C
:10012000B130A230B730BD30C330C930CF30D53058
:10013000DB30E130A230E730ED309D3007634236EE
:10014000B79BD8A71A39685618AEBAAB558C1D3C68
:10015000B7CC5763BD6DEDFD753EF6177231BF002C
:100160000000803F0C9478120C94922A0C94A330D7
:100170000C94BD300C94042B0C94C9300C94E831D1
:100180000C94AE150C94B1300C94B7300C9411153E
:100190000C944B2A0C9474150C949C100C94CF3036
:1001A0000C94ED300C943C160C94302B0C940F2BCB
:1001B0000C94E7300C9433110C94D5300C94BE148D
:1001C0000C94A2300C94CD160C945E130C94B310C6
:1001D0000C94CA100C94C5130C9438060C9483101C
:1001E0000C94B6110C94030D0C941A140C949D30BD
:1001F0000C94DB300C948F120C94492B0C94AB3084
:100200000C9401160C946C140C94C3300C94E130D3
:100210000C9432100C94D2120C9492160C94A730B9
:10022000000020002300260029002C002F003200AF
:100230000001000003010601090100002100240063
:1002400027002A002D0030003300010100000401C6
:1002500007010A0100002200250028002B002E00C3
:100260003100340002010000050108010B01050501
:100270000505070508080808020202020A0A08081C
:10028000040404040101010101010101030303034A
:1002900003030303040707070C0C0C0C0C0C0C0CD9
:1002A0000202020206060606060606060B0B0B0BEA
:1002B0000B0B0B0B0102102020080810204010200F
:1002C000408002010201080402010102040810201A
:1002D0004080804020100804020180040201804018
:1002E0002010080402010804020101020408102081
:1002F000408001020408102040800000090A020822
:100300000B0C0D07060304010000000000000000B4
:1003100000000000000000000000000000000000DD
:1003200000000000000011100F000000000000009D
:1003300000000000000000000000000000000000BD
:10034000E83111241FBECFEFD1E2DEBFCDBF00E008
:100350000CBF13E0A0E0B2E0EAE3F4E700E00BBF7B
:1003600002C007900D92A83AB107D9F72CE1A8EA8C
:10037000B3E001C01D92A53BB207E1F711E0C1EA6D
:10038000D1E000E006C021970109802FFE010E9404
:100390000A3AC03AD10780E00807A9F70E94F43270
:1003A0000C9457330C940000CF93DF93CDB7DEB796
:1003B00066970FB6F894DEBF0FBECDBF89E792E116
:1003C000909336148093351487EE93E0909338140D
:1003D0008093371489EA93E090933C1480933B1404
:1003E0008EE08093F3038FE08093680480E1809334
:1003F000DD0481E18093520582E18093F50383E17E
:1004000080936A0484E18093DF0485E1809354053E
:100410001092F70381E080936C0482E08093E10402
:1004200083E0809356051092E7031092E90310923F
:10043000E80307EE13E0E12CF12CD80117961C928B
:10044000179718961C92189713961C921397149648
:100450001C92149759961C9259971A961C921A97A7
:1004600019961C92199716961C921697F801E05946
:10047000FF4F1082118212821382349610821182F1
:1004800012821382F801118A128A138A148A5596ED
:100490001D921D921D921C925897E559FF4F108294
:1004A000F801128EE45AFF4F1182108232961082A8
:1004B0001182128213823496108211821282138268
:1004C0001482158216821782389610823296118213
:1004D00010823296118210821C962C9130E0F90124
:1004E000E650FD4F8491F901EC54FD4FC490F901A1
:1004F000E259FD4FD490DD2091F081110E9491309E
:10050000ED2DF0E0EE0FFF1FEC5AFD4FA591B491D9
:100510009FB7F8948C91C0948C218C939FBFF80165
:10052000268530E0F901E650FD4F8491F901EC5445
:10053000FD4FC490F901E259FD4FD490DD2091F0B8
:1005400081110E949130ED2DF0E0EE0FFF1FEC5A6B
:10055000FD4FA591B4919FB7F8948C91C0948C21D4
:100560008C939FBFFFEFEF1AFF0A0B581F4F24E039
:10057000E216F10409F061CFE0913B14F0913C14D4
:10058000108281E081839AE39583148286839BE3C2
:100590009287118683879CE397871686808B9DE3DD
:1005A000948B138A858B9EE3918F108E828F9FE3AD
:1005B000968F158E878F90E493A312A284A391E463
:1005C00090A717A281A792E495A714A686A793E403
:1005D00092AB11AA83AB94E497AB16AA80AF85E4E3
:1005E00084AF13AE15AE7F013FEFE31AF30A8F011C
:1005F000035C1F4FCC24C394D7018C918111DCC4C0
:10060000F7011182F5E0EF0EF11CE016F106A1F7FB
:100610009BEFE92E93E1F92E80913B1490913C14CD
:1006200000913514109136142FE2D801D6962C93F0
:10063000D6972EE2D4962C93D49720E3D7962C937A
:10064000D79721E3D8962C93D8972AE0D5962C9368
:10065000D5979C01235C3F4F1F963C932E931E978A
:1006600051963C932E935097F801E459FF4F47E27F
:100670004083329746E24083339648E24083319686
:1006800049E24083339748E04083B7973183208322
:10069000329631832083E45AFF4F4BE240833297F6
:1006A0004AE2408333964CE2408331964DE24083E8
:1006B000339749E04083B797318320833296318363
:1006C0002083E45AFF4F27E12083329726E12083DD
:1006D000339628E12083319629E12083339724E063
:1006E0002083B7979C012E5F3F4F31832083329642
:1006F0002B5F3F4F31832083E45AFF4F2BE1208350
:1007000032972AE1208333962CE1208331962DE124
:100710002083339725E02083B7979C01245F3F4FC8
:100720003183208332962B5F3F4F31832083E45AFD
:10073000FF4F2FE1208332972EE12083339620E272
:100740002083319621E22083339726E02083B797D8
:100750009C012A5E3F4F3183208332962B5F3F4FAF
:1007600031832083E45AFF4F23E22083329722E231
:100770002083339624E22083319625E22083339729
:1007800027E02083B7979C01205E3F4F3183208371
:100790003296859691838083F801108288EE93E0EB
:1007A000A0E0B0E084839583A683B783138212828E
:1007B000118260E172E0C80108960E94273164E16D
:1007C00072E0C801CE960E9427316BE172E0C80149
:1007D0008C589F4F0E94273162E272E0C801865513
:1007E0009F4F0E94273167E272E0C80180529F4FFD
:1007F0000E9427316CE272E0C8018A5E9E4F0E941F
:10080000273162E372E0C801845B9E4F0E9427316A
:1008100088E392E09F938F93FF92EF920E948A2B3E
:1008200010923D1410923E1410923F1410924014F6
:1008300010924114109242141092431410924414D6
:1008400010924514109246141092DB151092DA158E
:100850001092D9151092D8151092D7151092D6155E
:1008600010924B1410924C148BE4ADE4B4E1E82FD9
:100870001D92EA95E9F710929A1410929B14ACE934
:10088000B4E11D928A95E9F7E7E8F5E1F093E81401
:10089000E093E7141092481410924714CF010E947D
:1008A0002F2E88E395E10E942F2E89EE94E10E947D
:1008B0002F2E87E895E10E942F2E1092FC131092A4
:1008C000FB1310923D141092891A10928A1A1092FA
:1008D0008B1A10928716109286161092311610926B
:1008E000301610928816109289161092C91610921E
:1008F000091710924917109289171092C917109270
:10090000091810924918109289181092C91810925B
:10091000091910924919109289191092C919109247
:10092000091A1092491A61E08DE00E945F3162E07D
:100930008AE30E945F3162E08BE30E945F3162E0F4
:100940008CE30E945F3162E08DE30E945F3162E0E0
:100950008EE30E945F3162E08FE30E945F3162E0CC
:1009600080E40E945F3162E081E40E945F3162E0D6
:1009700082E40E945F3162E083E40E945F3162E0C2
:1009800084E40E945F3162E085E40E945F3161E0AF
:1009900082E00E945F3161E087E00E945F3161E0A8
:1009A0008EE00E945F3161E08FE00E945F3161E084
:1009B00080E10E945F3161E081E10E945F3161E08E
:1009C00082E10E945F3161E083E10E945F3161E07A
:1009D00084E10E945F3161E085E10E945F3161E066
:1009E00086E10E945F3161E087E10E945F3161E052
:1009F00084E00E945F3161E088E10E945F3161E044
:100A000089E10E945F3161E08AE10E945F3161E02B
:100A10008BE10E945F3161E085E00E945F3161E01F
:100A20008CE10E945F3161E08DE10E945F3161E005
:100A30008EE10E945F3161E08FE10E945F3161E0F1
:100A400086E00E945F3161E080E20E945F3161E0F8
:100A500081E20E945F3161E082E20E945F3161E0E9
:100A600083E20E945F3161E087E00E945F3161E0D4
:100A700084E20E945F3161E085E20E945F3161E0C3
:100A800086E20E945F3161E087E20E945F3161E0AF
:100A900088E00E945F3161E088E20E945F3161E09E
:100AA00089E20E945F3161E08AE20E945F3161E089
:100AB0008BE20E945F3161E089E00E945F3161E07A
:100AC0008CE20E945F3161E08DE20E945F3161E063
:100AD0008EE20E945F3161E08FE20E945F3161E04F
:100AE0008AE00E945F3161E080E30E945F3161E053
:100AF00081E30E945F31F89410928000109281008F
:100B0000109285001092840083E294EF9093890004
:100B1000809388008091810088608093810080911B
:100B2000810084608093810080916F008260809357
:100B30006F00109290001092910010929500109208
:100B4000940087EE93E090939900809398008091B1
:100B500091008860809391008091910081608093E2
:100B60009100809171008260809371007894E0918F
:100B70003806F091390681E090E09C01009044062F
:100B800002C0220F331F0A94E2F72083E09134065B
:100B9000F09135061082E0913606F091370620E19B
:100BA000208310924506E0913A06F0913B06408181
:100BB0009C010090400602C0220F331F0A94E2F706
:100BC000242B2083E0913A06F0913B0640819C0162
:100BD0000090410602C0220F331F0A94E2F7242B33
:100BE0002083E0913A06F0913B0640819C01009001
:100BF000420602C0220F331F0A94E2F7242B2083FF
:100C0000E0913A06F0913B0620810090430602C035
:100C1000880F991F0A94E2F780958223808386E5E6
:100C200092E09F938F93FF92EF920E948A2B0FB6D0
:100C3000F894DEBF0FBECDBFAE014B5F5F4F5E834A
:100C40004D8389EE94E19A8B898B40914A065091AD
:100C50004B0660914C0670914D0641329EE4590757
:100C60006105710508F4C7C610924906109248063E
:100C700010924F0610925006109251061092520692
:100C800080E092E0A3E5B6E0FC011D923197E9F720
:100C9000A3E5B8E0FC011D923197E9F710926312C9
:100CA00010926412109265121092661210926712DE
:100CB000109268121092691210926A1210926B12BE
:100CC00010926C1210926D1210926E12A3E5BAE09F
:100CD000FC011D923197E9F7A3E5BCE0FC011D92F0
:100CE0003197E9F7A3E5BEE0FC011D923197E9F7E2
:100CF000A3E5B0E1FC011D923197E9F710926F1264
:100D0000109270121092711210927212109273124D
:100D1000109274121092751210927612109277122D
:100D20001092781210924A0610924B0610924C06BE
:100D300010924D0610924E0610924706E09138062A
:100D4000F091390680914506882319F0808186FF4D
:100D5000FDCF109245068091460681110C940A1C25
:100D600084E090E090934906809348068091FB13BD
:100D70009091FC138230910511F40C94941B10F4A3
:100D80000C94B1178430910511F40C94E81910F407
:100D90000C94391B059711F00C94B8178CE08093D4
:100DA000321621E030E040E050E02093821630938C
:100DB0008316409384165093851690914F06911197
:100DC00013C020936F12309370124093711250939E
:100DD00072128093530681E080934F06109288161A
:100DE0001092FC131092FB13A090E714B090E8143B
:100DF000D50112968C911297882309F401C18D9127
:100E00009C91009711F00C944517912C612C712C3A
:100E1000A6E38A2E22C0D6015096ED91FC915197FF
:100E2000908191110C941D1C869CF001879CF00D03
:100E30001124EE0DFF1D938591110C94BA0EA09014
:100E4000E714B090E814982ABFEF6B1A7B0AE7E02A
:100E50006E16710411F40C94FD0E8301000F111F26
:100E6000000F111F000F111FC801860D971D2501CE
:100E7000480E591EF2018089882329F3E090351429
:100E8000F0903614869C9001879C300D11246701E8
:100E9000C20ED31ED6011C969C911C979111BBCFFC
:100EA0001B969C91911166C7D60156962D913D9146
:100EB0004D915C9159972F83388749875A8752966D
:100EC0002D913D914D915C9155972B873C874D8796
:100ED0005E876F81788589859A850E94D9339F774F
:100EE0002AE037ED43EA5BE30E944634181614F01B
:100EF0000C944A1C2B853C854D855E856F817885D9
:100F000089859A850E94463487FF22C0D601509673
:100F1000ED91FC91519780818823D1F0F201108AE4
:100F200056968D919D910D90BC91A02DF601828BCE
:100F3000938BA48BB58B118626893789408D518D73
:100F40002F83388749875A872B873C874D875E8751
:100F50002B853C854D855E856F81788589859A8551
:100F60000E945A36181614F00C943E1C869CD00130
:100F7000879CB00D1124AE0DBF1D1E96ED91FC9106
:100F80001F978081882311F40C943E1CF801E60D14
:100F9000F71DEA0DFB1D108A56964D915D916D91DE
:100FA0007C91599752964D935D936D937C93559791
:100FB00019961C92808943CFD70114962C9130E06A
:100FC000F901E650FD4F8491F901EC54FD4FB490C6
:100FD000F901E259FD4FD490DD2079F081110E9492
:100FE0009130ED2DF0E0EE0FFF1FE05EFD4FA5917B
:100FF000B4918C91B82209F003CBF701C18202CBE6
:101000008091EB14882311F40C94F91729893A89FB
:101010003093E8142093E71449EE54E15A8B498B3E
:101020008A01D8018D919C911197009709F02AC1EE
:10103000E0903514F090361450968C915097882398
:10104000D9F051968C91519781110C949524559615
:101050008D919D910D90BC91A02DF701828B938B6A
:10106000A48BB58B81E08187E0903514F090361425
:101070000091E7141091E814F80180859185A2850C
:10108000B385F701838F948FA58FB68FD8015996BA
:101090008C9159978823C9F05A968C915A9781114F
:1010A0000C94B5235E968D919D910D90BC91A02DD1
:1010B000E85BFF4F80839183A283B38381E0F701D4
:1010C00087AF0091E7141091E814F80180859185AD
:1010D000A285B385F701EF5AFF4F80839183A283E6
:1010E000B383D80192968C9192978823C1F09396FE
:1010F0008C91939781110C94D72397968D919D9104
:101100000D90BC91A02DBD9680839183A283B38363
:1011100081E0399780830091E7141091E814F80179
:1011200080859185A285B385F701E957FF4F8083BC
:101130009183A283B383D8019B968C919B9788233C
:10114000C1F09C968C919C9781110C94F623D096BB
:101150008D919D910D90BC91A02DBD968083918322
:10116000A283B38381E0399780830091E7141091C3
:10117000E814F80180859185A285B385F701E354D1
:10118000FF4F80839183A283B383D801D4968C913F
:10119000D4978823C1F0D5968C91D59781110C9462
:1011A0001524D9968D919D910D90BC91A02DBD9641
:1011B00080839183A283B38381E0399780830091F8
:1011C000E7141091E814F80180859185A285B38514
:1011D000F701ED50FF4F80839183A283B383D80141
:1011E000DD968C91DD978823B1F0DE968C9181118C
:1011F0000C947C23F801EE5BFF4F80819181A281EA
:10120000B381F701E05EFE4F80839183A283B383B5
:1012100081E039978083F80180859185A285B38527
:10122000F701E75DFE4F80839183A283B383F801CA
:10123000EA5BFF4F80818823B1F0D801A95BBF4FE3
:101240008C9181110C949A23359680819181A28191
:10125000B381F701EA5AFE4F80839183A283B3835F
:1012600081E039978083F80180859185A285B385D7
:10127000F701E15AFE4F80839183A283B383D801A3
:101280008D919C918130910511F40C94B21E0297BE
:1012900011F40C94CC1E80913D14882309F4BEC136
:1012A00080913E148111BAC1809147148111B6C159
:1012B0008091DA159091DB15892B11F40C94A820FC
:1012C0000091351410913614D8018C91882339F08F
:1012D0001C9212968C91129781110C943018D8019F
:1012E00013968C911397882309F4BDC5E0913714A8
:1012F000F09138148081882309F4A7CC108220E073
:1013000030E015E76091371470913814129FD001C6
:10131000139FB00D1124A60FB71F50968C918633E2
:1013200008F0865390917B00482F4870977F942B4C
:1013300090937B008770806480937C0080917A001A
:10134000806480937A0080917A0086FDFCCF809142
:101350007800F0917900129FA001139F500D112485
:10136000460F571F90E09F2B092E000CAA0BBB0BBA
:10137000FA01818B928BA38BB48B2F5F3F4F24306C
:10138000310509F0BFCF20903714309038148BE12D
:10139000E82EF12C00E010E095E7B92EAA24A394E2
:1013A00020E2C22ED12CB09EF001B19EF00D11248E
:1013B000E20DF31D828D8823F1F1128EDF01A55A13
:1013C000BF4F1C92119611961C921E9212961D925E
:1013D0001D921D921C92139714961C9211961C92AA
:1013E000119712961C92129713961C9213971496AB
:1013F0001C92149715961C92159716961C92169788
:1014000017961C92179718961C921196AC921196EB
:10141000CD92DC92E259FF4F1182108240E450E0FD
:101420006FEF70E0C1018E0D9F1D0E94633320900D
:101430003714309038140F5F1F4FB5E7EB0EF11CD7
:101440000430110509F0AFCF812C912CE5E7E89D20
:101450008001E99D100D1124020D131D7801F4E7A0
:10146000EF0EF11CD80151966D917D918D919C915B
:1014700054970E943335F70160837183828393838D
:10148000D80113968C9113978111CBC0D801159672
:101490008C911597811179C2EFEF8E1A9E0AF4E0B4
:1014A0008F16910499F600E010E065E7F62EEE2421
:1014B000E394F09EF001F19EF00D1124E20DF31D76
:1014C00084818823A9F08781882309F42BC2908521
:1014D0008091A803891708F000C20F5F1F4F0430E6
:1014E000110509F43AC02090371430903814E1CF38
:1014F00081899289A389B4898C319140A105B10574
:1015000008F4E7C187818111E8CFE782268530E0C2
:10151000F901E650FD4F8491F901EC54FD4FD49050
:10152000F901E259FD4FC490CC20B9F281110C941D
:101530003621EC2DF0E0EE0FFF1FEC5AFD4FA59188
:10154000B4919FB7F8948C91D82ADC929FBF0F5F1B
:101550001F4F0430110509F0C6CF8091A8038F5F9B
:101560008093A803843608F470CB1092A8036DCB47
:101570008330910511F40C946228069709F08BCE04
:1015800010923E1410923D1488E392E09F938F9343
:101590002BEF33E13F932F930E948A2B10923D143F
:1015A00010923E1410923F14109240141092411465
:1015B0001092421410924314109244141092451445
:1015C000109246141092DB151092DA151092D9156C
:1015D0001092D8151092D7151092D61510924B1460
:1015E00010924C148BE4ADE4B4E1E82F1D92EA951F
:1015F000E9F710929A1410929B14ACE9B4E11D9291
:101600008A95E9F7E7E8F5E1F093E814E093E71449
:10161000109248140F900F900F900F901092471453
:101620004FCE51966D907C90529755968D919C918E
:101630005697681A790A7897808191812301481A10
:10164000590A3F96808181111CC039979301972DCB
:10165000990F990B492F592F692F792F892FA08026
:10166000B180C280D380E480F580068117810E941A
:10167000123A208331834283538364837583868344
:101680009783B5E7B89DC001B99D900D1124D10194
:10169000A80FB91FA55ABF4F2C91E22FF0E03C963E
:1016A000EE0FFF1F8E0F9F1FF101E80FF91F7482CD
:1016B00063822F5F203208F0B7C42C93B301072C4C
:1016C000000C880B990B0E9435356F8378878987CA
:1016D0009A87E5E7E89D8001E99D100D1124020D30
:1016E000131DF801EE59FF4F208131814281538152
:1016F00064817581868197810E942D3527E137EBC2
:1017000041ED58E30E94D5366B017C012DEC3CEC99
:101710004CE45DE36F81788589859A850E94D53692
:101720009B01AC01C701B6010E94DA336B017C0159
:10173000B201052C000C880B990B0E94353520E076
:1017400030E040E05FE30E94D5369B01AC01C70169
:10175000B6010E94DA336B017C0120E030E0A90180
:101760000E944634D8011C962C9130E0F901E650D5
:10177000FD4F87FF02C00C94C5178491F901EC540A
:10178000FD4F1491F901E259FD4F0491002391F0AE
:1017900081110C946A1EE02FF0E0EE0FFF1FEC5A4F
:1017A000FD4FA591B4919FB7F8948C911095182393
:1017B0001C939FBFB5E7B89DF001B99DF00D1124B2
:1017C000E20DF31D1582E259FF4F008111811016C1
:1017D000110624F40150110911830083E5E7E89D07
:1017E0005001E99DB00C1124A20CB31CF501E45981
:1017F000FF4F80819181009709F024C495012559FC
:101800003F4F388B2F87D901BC91BB87BB2311F485
:101810000C94F517F501E45AFF4F60817181072E92
:10182000000C880B990B0E94353520E030E0A901AF
:101830000E945A3620E030E0A901181614F00C94EA
:1018400069206F81788589859A850E94463487FF53
:1018500002C00C944321EB858E2F90E09F938F93D1
:101860001F930F93C701B6010E94F7347F936F93C4
:101870005F924F9225E7289DF001299DF00D1124DC
:101880002E0E3F1EF101EE59FF4F81818F93808113
:101890008F937F926F9241E953E05F934F93ABEF49
:1018A000B3E1BF93AF930E948A2BF101E45AFF4F3B
:1018B000718260823296C082D182E282F38220906D
:1018C0003714309038140FB6F894DEBF0FBECDBF7A
:1018D000E3CD8781882309F400CE1782268530E086
:1018E000F901E650FD4F8491F901EC54FD4FD4907D
:1018F000F901E259FD4FC490CC2009F4EECD8111DD
:101900000C949D20EC2DF0E0EE0FFF1FEC5AFD4FE4
:10191000A591B4919FB7F8948C91D094D822DC9281
:101920009FBFDBCD8091A8038111D7CD268530E004
:10193000F901E650FD4F8491F901EC54FD4FD4902C
:10194000F901E259FD4FC490CC20A9F081110C940B
:101950003A21EC2DF0E0EE0FFF1FEC5AFD4FA59160
:10196000B4919FB7F8948C91D82ADC929FBF2090B5
:10197000371430903814F09EC001F19E900D112460
:10198000F101E80FF91FE782A8CD1C962C9130E0F9
:10199000F901E650FD4F8491F901EC54FD4F04919B
:1019A000F901E259FD4F14911123B1F081110C940A
:1019B000AE1EE12FF0E0EE0FFF1FEC5AFD4FA59198
:1019C000B4919FB7F8948C91009508230C939FBF16
:1019D0002090371430903814B5E7B89DC001B99DF8
:1019E000900D1124F101E80FF91F15822090371492
:1019F0003090381451CDE0914806F0914906EB3112
:101A0000F10508F429C31092490610924806C090C7
:101A10006312D0906412E0906512F0906612C114C7
:101A2000D104E104F10409F4A1C980906B129090F3
:101A30006C12A0906D12B0906E12F401EE0FFF1FA9
:101A4000EE0FFF1FED5AFD4E408051806280738083
:101A5000B401762F6627770F6D5A754FA2018CED72
:101A600095E10E945A33F3E08F169104A104B1046A
:101A700010F00C94A3202FEF821A920AA20AB20A45
:101A800080926B1290926C12A0926D12B0926E12B4
:101A900031E0C31AD108E108F108C0926312D09274
:101AA0006412E0926512F092661240922C165092E7
:101AB0002D1660922E1670922F168091DC158530AF
:101AC00010F00C94711E833008F050C9882311F473
:101AD0000C948E1B813011F00C94DD1B81E090E0A2
:101AE0009093FC138093FB1381E080933216E09176
:101AF0003514F091361486899789A08DB18D809325
:101B0000091490930A14A0930B14B0930C14DF01E2
:101B1000A45BBF4F8D919D910D90BC91A02D8093A2
:101B20000D1490930E14A0930F14B0931014DF01B2
:101B3000AE57BF4F8D919D910D90BC91A02D80937C
:101B4000111490931214A0931314B0931414DF0182
:101B5000A854BF4F8D919D910D90BC91A02D809365
:101B6000151490931614A0931714B0931814DF0152
:101B7000A251BF4F8D919D910D90BC91A02D80934E
:101B8000191490931A14A0931B14B0931C14DF0122
:101B9000AC5DBE4F8D919D910D90BC91A02D809319
:101BA0001D1490931E14A0931F14B0932014E65A92
:101BB000FE4F80819181A281B38180932114909303
:101BC0002214A0932314B0932414E0913B14F091B9
:101BD0003C14E280E092FD13F780F092FE1304853E
:101BE0000093FF13118910930014B689B093011468
:101BF000A38DA093021470A17093031465A1609348
:101C0000041452A55093051447A54093061434A913
:101C10003093071421AD20930814809137149091CC
:101C20003814FC01EC58FF4F80809180A280B38073
:101C30008092251490922614A0922714B092281412
:101C4000EB58FF4F80809180A280B380809229144E
:101C500090922A14A0922B14B0922C14EB58FF4FA0
:101C600080809180A280B38080922D1490922E1457
:101C7000A0922F14B0923014EB58FF4F80809180C7
:101C8000A280B3808092311490923214A0923314C7
:101C9000B0923414E0923316F09234160093351655
:101CA00010933616B0933716A093381670933916E2
:101CB00060933A1650933B1640933C1630933D1672
:101CC00020933E16EFE3F6E1ABE5B6E1AD01CF01BF
:101CD00086539240DC012D913C91119731832083F2
:101CE00012968D919C9113979383828334964E170D
:101CF0005F0769F7DA012BE636E1FD01E653F240B2
:101D00008081918111969C938E9382819381139609
:101D10009C938E93129714962A173B0771F729E329
:101D200030E040E050E020938216309383164093D9
:101D300084165093851680914F0681110C94F406F9
:101D400020936F123093701240937112509372125D
:101D500089E3E2E3F6E1A3E5B6E001900D928A950E
:101D6000E1F781E080934F061092FC131092FB1371
:101D70000C94F406869C9001879C300D1124670119
:101D8000C20ED31ED6011E96ED91FC911F97908135
:101D9000992311F40C941F07245D3F4FE20EF31EAC
:101DA000FF92EF92E2E0F3E0FF93EF934BEF53E10A
:101DB0005F934F930E948A2BD6011B961C921B9710
:101DC00019961C92060D171DF501E00FF11F108AE0
:101DD000A090E714B090E8140F900F900F900F9020
:101DE0000F900F9080E0982ABFEF6B1A7B0AE7E014
:101DF0006E16710411F00C942D07D5018D919C91F4
:101E00008130910511F40C944B17911044CA9F93A3
:101E10008F9382E193E09F938F93EBEFF3E1FF9336
:101E2000EF930E948A2BE091E714F091E81412825C
:101E30000F900F900F900F900F900F908381882339
:101E400019F081E0809388161282138234968BE415
:101E5000DF011D928A95E9F7E7E8F5E1F093E814D0
:101E6000E093E71418CA28EE33E040E050E01496FF
:101E70002D933D934D935C93179719968C911997D9
:101E8000882311F40C94BE175F968C91882311F46B
:101E90000C948F1DF801C0A0D1A0E2A0F3A0BB2438
:101EA000B394F80187AD8823D1F04801F5E58F0E92
:101EB000911CD4018C91882311F40C94431DF801DA
:101EC000EA5AFF4F80819181A281B381C816D90659
:101ED000EA06FB0620F06C017D01BB24B394F801F7
:101EE000EB58FF4F80818823C1F04801BBE88B0E7F
:101EF000911CF4018081882311F40C94D21D319639
:101F000080819181A281B381C816D906EA06FB06B9
:101F100020F06C017D01BB24B394F801E555FF4F1F
:101F200080818823C1F04801B1EC8B0E911CF40133
:101F30008081882311F40C941E1E3196808191813A
:101F4000A281B381C816D906EA06FB0620F06C010F
:101F50007D01BB24B394F801EF51FF4F80818823AA
:101F6000C1F04801B7EF8B0E911CF40180818823EA
:101F700011F40C945F1C319680819181A281B38110
:101F8000C816D906EA06FB0620F06C017D01BB24C9
:101F9000B394F801E95EFE4F8081882309F446C0BE
:101FA0004801B3ED8B1ABEEF9B0AF40180818823B0
:101FB00011F40C94F71C319680819181A281B38138
:101FC000C816D906EA06FB0688F1F801E35BFE4F66
:101FD00020812223C9F06C017D01BB24B394480108
:101FE000BDE98B1ABEEF9B0AF4018081882311F4AE
:101FF0000C94AA1C319680819181A281B381C8166C
:10200000D906EA06FB06C0F06C017D01F801C48226
:10201000D582E682F78281E08383E0913514F091E6
:10202000361481E0838362C91C9248CBF801E35BDC
:10203000FE4F80818111D3CFB110E8CFD801139624
:102040001C92EBCF0197918380833197808190E040
:1020500033960081118102CC8827EE58FF4F8F4FB5
:102060000C940A3A8091671290916812A0916912BB
:10207000B0916A12FC01EE0FFF1FEE0FFF1FED5A29
:10208000FD4E40916F1250917012609171127091DB
:1020900072124083518362837383C0906312D09025
:1020A0006412E0906512F0906612EFEFCE1ADE0A2D
:1020B000EE0AFE0AC0926312D0926412E092651298
:1020C000F09266120196A11DB11D84309105A10503
:1020D000B10510F40C943526109267121092681214
:1020E0001092691210926A1210924A0610924B06D0
:1020F00010924C0610924D0687E090E090934906AE
:10210000809348068CCC10924F0610924A0610928B
:102110004B0610924C0610924D0687E090E090938B
:10212000490680934806C0906312D0906412E090F4
:102130006512F090661273CC10924A0610924B060C
:1021400010924C0610924D0687E090E0909349065D
:1021500080934806C0906312D0906412E09065129C
:10216000F09066125CCC10924A0610924B061092C8
:102170004C0610924D068AE190E0909349068093B8
:102180004806C0906312D0906412E0906512F090FF
:10219000661245CC4091320650913306DA01A05CBC
:1021A000BF4F2D913C9111972F5F3F4F2F733327D6
:1021B000FA01EE5BFF4F8081918128173907D9F32F
:1021C0008D919C911197FA01E80FF91F8BE08083A4
:1021D00011963C932E93E0913A06F0913B062081B4
:1021E00081E090E00090430602C0880F991F0A9496
:1021F000E2F7822B808381E080934506E0913806E8
:10220000F0913906808180648083409173125091EF
:102210007412609175127091761280916F12909184
:102220007012A0917112B0917212481759076A0783
:102230007B0710F40C94742387E190E09093490697
:102240008093480610924A0610924B0610924C0654
:1022500010924D06C0906312D0906412E090651207
:10226000F0906612DCCBC0907312D0907412E090A4
:102270007512F090761240916F1250917012609129
:102280007112709172122A013B014C185D086E08A0
:102290007F0880913006909131069C01205C3F4F71
:1022A000B0E24B1651046104710410F40C94342410
:1022B000F90140815181329660817181461B570B33
:1022C0004F7355274032510514F40C948C204091E3
:1022D0006712440F4C8B1B8A4B895C894C0D5D1D2A
:1022E000DA01AD5AB54FAD01405E5F4F8C01690117
:1022F0007F015D0102C09601F701D9016D917C91CA
:10230000208131816217730711F40C940A2920810E
:102310003181820F931FDC012C9180819181019684
:102320008F73992791838083822FF50181935F01B9
:10233000C801E417F507F9F68091731290917412B1
:10234000A0917512B09176128096A11DB11D809357
:10235000731290937412A0937512B093761286E163
:1023600090E090934906809348066CCF10926F12CC
:102370001092701210927112109272122091300607
:1023800030913106A901405C5F4FFA018081918153
:10239000329660817181861B970B8F739927049702
:1023A0000CF458CFDA016D917C918081918168178E
:1023B000790711F40C94442AA081B181A20FB31FB4
:1023C0008C91608171816F5F7F4F6F73772771830D
:1023D0006083482E512C612C712CDA010D911C91D7
:1023E000608171810617170711F40C943E2A6081F1
:1023F0007181620F731FDB01CC90608171816F5F0F
:102400007F4F6F73772771836083D12CE12CF12C80
:10241000FE2CED2CDC2CCC24DA010D911C9160817A
:1024200071810617170711F40C94382A60817181A5
:10243000620F731FDB018C90608171816F5F7F4F32
:102440006F73772771836083912CA12CB12C540179
:1024500099248824DA016D917C914081518164171F
:10246000750711F40C94322A40815181240F351FD5
:10247000D9014C91208131812F5F3F4F2F7333273A
:102480003183208350E060E070E0742F6627552789
:102490004427D301C2018C299D29AE29BF29882A4E
:1024A000992AAA2ABB2A482959296A297B294093B3
:1024B0006F12509370126093711270937212109297
:1024C0007812109273121092741210927512109268
:1024D000761210924A0610924B0610924C061092F9
:1024E0004D0685E190E09093490680934806B2CE70
:1024F00089E190E0909349068093480610924A063D
:1025000010924B0610924C0610924D06C09063122A
:10251000D0906412E0906512F090661280CA6091CB
:102520003006709131069B01205C3F4FD9018D919F
:102530009C91119712964D915C911197841B950B6C
:102540008F739927892B11F40C948C20F901208129
:1025500031818D919C91119728173907A1F08D91A8
:102560009C911197FB01E80FF91F20818D919C919F
:10257000119701968F73992711969C938E932B3008
:1025800011F40C945D2688E190E0909349068093C5
:102590004806C0906312D0906412E0906512F090EB
:1025A00066123DCA40916F12509170126091711283
:1025B000709172128091731290917412A0917512A1
:1025C000B09176128A019B01081B190B2A0B3B0B59
:1025D0000D96003211052105310510F40C941A23D3
:1025E000DC01AA5BB94F8D01005E1F4F61E070E016
:1025F000DD24D394CD90E0903206F0903306A7010D
:10260000405C5F4FFA01208131812F5F3F4F2F7374
:10261000332732968081918182179307D9F3FA018B
:1026200080819181F701E80FF91FC082FA0131839F
:102630002083E0913A06F0913B062081CB01009087
:10264000430602C0880F991F0A94E2F7822B808309
:10265000D0924506E0913806F09139068081806479
:102660008083A017B10731F6809173129091741294
:10267000A0917512B09176128096A11DB11D809324
:10268000731290937412A0937512B09376121092F5
:102690004A0610924B0610924C0610924D068FE09F
:1026A00090E09093490680934806C0906312D090C2
:1026B0006412E0906512F0906612B1C930916F1209
:1026C00020917012909171128091721239832A8335
:1026D0009B838C8310927712DE01119641E050E0CB
:1026E000FF24F394ED900091320610913306B80167
:1026F000605C7F4FFB01208131812F5F3F4F2F7343
:10270000332732968081918182179307D9F3FB0199
:1027100080819181F801E80FF91FE082FB0131838C
:102720002083E0913A06F0913B062081CA01009097
:10273000430602C0880F991F0A94E2F7822B808318
:10274000F0924506E0913806F09139068081806468
:1027500080832D813E812A173B0721F61092731248
:102760001092741210927512109276128EE090E010
:102770009093490680934806C0906312D0906412EB
:10278000E0906512F09066124AC96091300670912F
:1027900031069B01205C3F4FD9018D919C9111978F
:1027A00012964D915C911197841B950B8F7399270D
:1027B000892B11F40C948C20F901208131818D91A9
:1027C0009C9111972817390709F4BECC8D919C91E3
:1027D0001197FB01E80FF91F20818D919C911197B2
:1027E00001968F73992711969C938E93263011F43E
:1027F0000C946928283009F4A7CC253009F0A4CC22
:1028000080914606C0906312D0906412E0906512E9
:10281000F0906612811103C9B4E0CB16D104E10433
:10282000F10408F459C189E090E09093490680933F
:102830004806FBC84091320650913306DA01A05C8D
:10284000BF4F2D913C9111972F5F3F4F2F7333272F
:10285000FA01EE5BFF4F8081918128173907D9F388
:102860008D919C911197FA01E80FF91F86E0808302
:1028700011963C932E93E0913A06F0913B0620810D
:1028800081E090E00090430602C0880F991F0A94EF
:10289000E2F7822B808381E080934506E091380641
:1028A000F091390680818064808310924A061092EC
:1028B0004B0610924C0610924D0682E190E09093E8
:1028C000490680934806C0906312D0906412E0904D
:1028D0006512F0906612A3C84091320650913306FB
:1028E000DA01A05CBF4F2D913C9111972F5F3F4FB4
:1028F0002F733327FA01EE5BFF4F808191812817F8
:102900003907D9F38D919C911197FA01E80FF91FBE
:1029100088E0808311963C932E93E0913A06F091E3
:102920003B06208181E090E00090430602C0880FC2
:10293000991F0A94E2F7822B808381E080934506F9
:10294000E0913806F091390680818064808310928E
:102950004A0610924B0610924C0610924D0687E0E4
:1029600090E09093490680934806C0906312D090FF
:102970006412E0906512F090661251C840913206E0
:1029800050913306DA01A05CBF4F2D913C91119715
:102990002F5F3F4F2F733327FA01EE5BFF4F80818C
:1029A000918128173907D9F38D919C911197FA01DC
:1029B000E80FF91F85E0808311963C932E93E091F8
:1029C0003A06F0913B06208181E090E000904306BA
:1029D00002C0880F991F0A94E2F7822B808381E05E
:1029E00080934506E0913806F09139068081806435
:1029F000808310924A0610924B0610924C06109259
:102A00004D068BE090E09093490680934806C09075
:102A10006312D0906412E0906512F09066120C94EC
:102A20000F0D10924A0610924B0610924C0610920F
:102A30004D0660913006709131069B01205C3F4F3E
:102A4000F90180819181DB01AE5BBF4F4D915C91BB
:102A50001197841B950B8F739927892B11F40C9474
:102A60000423F901208131818D919C9111972817C0
:102A7000390709F469CB8D919C911197FB01E80FFF
:102A8000F91F20818D919C91119701968F73992741
:102A900011969C938E93213011F40C94030D2530E4
:102AA00009F052CB80914606882311F40C94F82843
:102AB00080914F0681110C940A23C0906312D0902C
:102AC0006412E0906512F0906612F4E0CF16D10423
:102AD000E104F10408F0A7CE8AE090E09093490663
:102AE000809348060C940F0D60913006709131066A
:102AF0009B01205C3F4FD9018D919C9111971296BB
:102B00004D915C911197841B950B8F739927892B9D
:102B100009F498CBF901208131818D919C91119715
:102B200028173907A1F08D919C911197FB01E80FAF
:102B3000F91F20818D919C91119701968F73992790
:102B400011969C938E93223011F40C94572884E0B4
:102B500090E0909349068093480674CB40913206EA
:102B600050913306DA01A05CBF4F2D913C91119733
:102B70002F5F3F4F2F733327FA01EE5BFF4F8081AA
:102B8000918128173907D9F38D919C911197FA01FA
:102B9000E80FF91F84E0808311963C932E93E09117
:102BA0003A06F0913B06208181E090E000904306D8
:102BB00002C0880F991F0A94E2F7822B808381E07C
:102BC00080934506E0913806F09139068081806453
:102BD000808310924A0610924B0610924C06109277
:102BE0004D0686E090E09093490680934806C09099
:102BF0006312D0906412E0906512F09066120C940B
:102C00000F0D60913006709131069B01205C3F4FA3
:102C1000F90180819181DB01AE5BBF4F4D915C91E9
:102C20001197841B950B8F739927892B09F40ACB75
:102C3000F901208131818D919C91119728173907D5
:102C400009F485CF8D919C911197FB01E80FF91F35
:102C500020818D919C91119701968F7399271196E0
:102C60009C938E93213009F072CF85E090E0909391
:102C7000490680934806E6CA81E08093470687E0CC
:102C800090E0909349068093480640913206509117
:102C90003306DA01A05CBF4F2D913C9111972F5F55
:102CA0003F4F2F733327FA01EE5BFF4F80819181F5
:102CB00028173907D9F38D919C911197FA01E80FE4
:102CC000F91F82E0808311963C932E93E0913A069F
:102CD000F0913B06208181E090E00090430602C025
:102CE000880F991F0A94E2F7822B808381E08093FA
:102CF0004506E0913806F091390680818064808332
:102D000010924A0610924B0610924C0610924D06F5
:102D1000C0906312D0906412E0906512F090661239
:102D20000C940F0DE0903006F09031069701205C76
:102D30003F4FD9018D919C91119712960D911C9145
:102D40001197801B910B8F739927892B11F40C9489
:102D50004726F901208131818D919C911197281787
:102D60003907A1F08D919C911197F701E80FF91F98
:102D700020818D919C91119701968F7399271196BF
:102D80009C938E93243011F40C940D2981E090E0F3
:102D9000909349068093480655CAE0913006F09119
:102DA0003106DF01A05CBF4F8D919C911197EE5BC6
:102DB000FF4F14C02D913C9111978081918128176C
:102DC000390749F0808191818081918101968F73CB
:102DD0009927918380838D919C91119720813181D6
:102DE000821B930B8F739927892B21F72091320631
:102DF00030913306F901E05CFF4F808191810196AB
:102E00008F739927D901AE5BBF4F4D915C9111979C
:102E100084179507D1F340815181D901A40FB51FC3
:102E200041E04C9391838083E0913A06F0913B0618
:102E3000208181E090E00090430602C0880F991F36
:102E40000A94E2F7822B808340934506E09138068E
:102E5000F091390680818064808310924A06109236
:102E60004B0610924C0610924D0682E090E0909333
:102E7000490680934806C0906312D0906412E09097
:102E80006512F09066120C940F0D8130910511F0CF
:102E90000C94070F912CE0913714F0913814D50160
:102EA00014968C911497882389F015969C91159708
:102EB00091110C94E62014961C92E0913714F09135
:102EC0003814A090E714B090E81480E0D5011F9664
:102ED0009C911F97992389F050962C91509721111E
:102EE0000C941D211F961C92A090E714B090E8143A
:102EF000E0913714F091381490E08929D5015A9661
:102F00002C915A97222389F05B963C915B97311163
:102F10000C94F8205A961C92E0913714F0913814D2
:102F2000A090E714B090E81420E0892BD501959685
:102F30009C919597992369F096963C9196973111BB
:102F40000C940D2195961C92A090E714B090E81473
:102F500090E0822B982E992AD5018D919C910C940A
:102F6000050F009709F42DC4019711F40C94740D0A
:102F70001092FC131092FB130C94F406B12CCC2489
:102F8000CA94DC2C76010C94510F8491F901EC5415
:102F9000FD4F1491F901E259FD4F0491002389F08E
:102FA00081110C943221E02FF0E0EE0FFF1FEC5A5C
:102FB000FD4FA591B4919FB7F8948C91182B1C9359
:102FC0009FBFB5E7B89DF001B99DF00D1124E20D4A
:102FD000F31D21E02583E259FF4F008111810F5F2E
:102FE0001F4F118300830C94EE0B80E090E00C9453
:102FF0002E0C8091DA159091DB15009711F40C944A
:103000004B092091D6153091D7154FE4429F80018E
:10301000439F100D1124075B1B4E1093E81400937F
:10302000E71441E050E02115310511F040E050E097
:103030005093D7154093D61501979093DB15809345
:10304000DA158FE4829FF001839FF00D1124E55B78
:10305000FB4E8081882311F40C944B090C941108C9
:1030600013961C92139712961C9278016801B6E889
:10307000CB1ABEEFDB0A2224239464C0868897888B
:10308000A08CB18C4288538864887588A301920112
:10309000C501B4010E945A3618160CF470C1D7014C
:1030A0001B963C90332009F4B9C3F7018485811144
:1030B00072C1D7015A961C92A3019201C501B401B5
:1030C0000E94463487FD60C1A3019201C501B4018D
:1030D0000E94D9339F772AE037ED43EA5BE30E94F1
:1030E0005A3618162CF0D7011B963C90332021F14C
:1030F000F70180A191A1A2A1B3A1F801448155815A
:1031000066817781841B950BA60BB70BF70180A313
:1031100091A3A2A3B3A385369105A105B10508F03B
:1031200050C1F701258684A395A3A6A3B7A3178E44
:1031300010A211A212A213A2F6E3EF0EF11CEC14DE
:10314000FD0461F0F7018185811198CFF7011586A3
:10315000F6E3EF0EF11CEC14FD04A1F70091351419
:103160001091361478012CE2E20EF11C680136E869
:10317000C31A3EEFD30A77E0872E73E0972E6624BA
:103180006394E7EFAE2EE2E0BE2E09C00A5C1F4F4B
:10319000B6E3EB0EF11CC016D10609F483C0D801CA
:1031A00019968C911997882389F31D968C911D97F8
:1031B000882361F31D961C921D97D5962C9130E0C3
:1031C000F901E650FD4F8491F901EC54FD4F549004
:1031D000F901E259FD4F7490772089F081110C9428
:1031E0004621E72DF0E0EE0FFF1FEC5AFD4FA591B1
:1031F000B4918FB7F894EC91E529EC938FBFF80167
:10320000828D813011F40C94CD200684F785E02D59
:1032100080818111B0C760E0D801D6968C910E9460
:10322000F330F801128E2AE037ED43EA5BE366895A
:103230007789808D918D0E94D933D80156966D93F0
:103240007D938D939C935997D5962C9130E0F901FD
:10325000E650FD4F8491F901EC54FD4F5490F90173
:10326000E259FD4F7490772009F490CF81110C94AE
:103270003126E72DF0E0EE0FFF1FEC5AFD4FA59130
:10328000B4919FB7F8948C91E52DE095E823EC93E9
:103290009FBF0A5C1F4FB6E3EB0EF11CC016D106B0
:1032A00009F07DCF00E010E09924939422C0F8014A
:1032B00031966F01C701800F911FF501E80FF91FCB
:1032C0001282A0913B14B0913C148C91E00EF11E3F
:1032D000FD01EE0DFF1D9281992321F091E02381E4
:1032E000211190E0892B8C9386010C30110509F493
:1032F000BAC1A0903B14B0903C147801EE0CFF1CB6
:10330000EE0CFF1CF701E00FF11FEA0DFB1D82819F
:1033100083838181882359F26801FFEFCF1ADF0A86
:10332000F601EE0FFF1FEE0FFF1FEC0DFD1DEA0D66
:10333000FB1D208130E0F901E650FD4F8491F90139
:10334000EC54FD4F8490F901E259FD4F74907720C1
:1033500071F08111C3C4E72DF0E0EE0FFF1FE05EB6
:10336000FD4FA591B4918C91882209F0A3CFC7019C
:10337000800F911FF501E80FF91F9282A2CFF7018C
:103380008485882309F495CEF7013384311003C076
:10339000D7015A962C92A3019201C501B4010E9453
:1033A000D9339F772AE037ED43EA5BE30E945A3630
:1033B00018160CF49DCED7011C968C91811198CED5
:1033C00095CEF701158614A215A216A217A2B4CEA7
:1033D0008BE080933216E0913514F0913614868993
:1033E0009789A08DB18D8093091490930A14A093AE
:1033F0000B14B0930C14DF01A45BBF4F8D919D9112
:103400000D90BC91A02D80930D1490930E14A09359
:103410000F14B0931014DF01AE57BF4F8D919D91E3
:103420000D90BC91A02D8093111490931214A09331
:103430001314B0931414DF01A854BF4F8D919D91C4
:103440000D90BC91A02D8093151490931614A09309
:103450001714B0931814DF01A251BF4F8D919D91A5
:103460000D90BC91A02D8093191490931A14A093E1
:103470001B14B0931C14DF01AC5DBE4F8D919D9168
:103480000D90BC91A02D80931D1490931E14A093B9
:103490001F14B0932014E65AFE4F80819181A281BF
:1034A000B3818093211490932214A0932314B0939A
:1034B0002414E0913B14F0913C14E280E092FD135F
:1034C000F780F092FE1304850093FF131189109387
:1034D0000014B689B0930114A38DA093021470A1B7
:1034E0007093031465A16093041452A550930514BE
:1034F00047A54093061434A93093071421AD2093B7
:1035000008148091371490913814FC01EC58FF4F47
:1035100080809180A280B38080922514909226149E
:10352000A0922714B0922814EB58FF4F808091800E
:10353000A280B3808092291490922A14A0922B1416
:10354000B0922C14EB58FF4F80809180A280B38002
:1035500080922D1490922E14A0922F14B0923014B9
:10356000EB58FF4F80809180A280B380809231140D
:1035700090923214A0923314B0923414E092331625
:10358000F09234160093351610933616B093371612
:10359000A09338167093391660933A1650933B16E1
:1035A00040933C1630933D1620933E16EFE3F6E130
:1035B000ABE5B6E1AD01CF0186539240DC012D9120
:1035C0003C9111973183208312968D919C91139792
:1035D0009383828334964E175F0769F7DA012BE6EF
:1035E00036E1FD01E653F2408081918111969C9372
:1035F0008E938281938113969C938E931297149647
:103600002A173B0771F729E330E040E050E02093B0
:1036100082163093831640938416509385168091BA
:103620004F0681110C94F40620936F1230937012A0
:10363000409371125093721289E3E2E3F6E1A3E53D
:10364000B6E001900D928A95E1F781E080934F06F4
:10365000E0913B14F0913C1410821092FC131092F4
:10366000FB130C94F40600913514109136140C944D
:103670006F0983E0809332166091891AF0E46F9F9E
:10368000B00111246757794E83E396E10E946A33B3
:103690008091891A20E4829FF0011124E757F94EA6
:1036A00010828F3008F04DC58F5F8093891A80910A
:1036B0008B1A815080938B1AE2E3F6E1019000208F
:1036C000E9F7AF014353564160E070E04F5F5F4F51
:1036D0006F4F7F4F409382165093831660938416EA
:1036E0007093851680914F0681110C94F4064093D7
:1036F0006F1250937012609371127093721262E3A2
:1037000076E183E596E00E945A3381E080934F068C
:103710001092FC131092FB130C94F40682E090E0DC
:103720009093FC138093FB13109232161F921F92FA
:103730001F9211E01F931F9282E08F931F921F929E
:1037400088EC92E09F938F9383E396E19F938F930E
:103750000E947133E3E3F6E101900020E9F7AF0145
:1037600043535641CA01A0E0B0E080938216909383
:103770008316A0938416B09385160FB6F894DEBF17
:103780000FBECDBF20914F0621110C94F4068093FB
:103790006F1290937012A0937112B093721262E341
:1037A00076E183E596E00E945A3310934F0610921B
:1037B000FC131092FB130C94F4061092FC1310925D
:1037C000FB1380918B1A882351F080914F06811151
:1037D00006C080914814882311F40C943F268091F0
:1037E0008816882331F085E090E09093FC13809355
:1037F000FB13E0913B14F0913C148081882311F479
:103800000C94F40684E090E09093FC138093FB13F7
:103810000C94F40681E090E00C94B206A3019201AE
:10382000C501B4010E94463487FDB2CDD7011C9674
:103830008C91882309F448CCABCD245D3F4F2E0DED
:103840003F1D3F932F93E2EFF2E0FF93EF934BEF97
:1038500053E15F934F930E948A2BD6011C961C92D2
:103860001C9719961C92F201108A0F900F900F90DE
:103870000F900F900F9080E00C941407060D171D09
:10388000F501E00FF11F8089A090E714B090E814D3
:103890000C942307F201108AF60182899389A48986
:1038A000B589868B978BA08FB18F1186D2015096E8
:1038B0008C91A090E714B090E8140C94230720E0BA
:1038C00030E048E453E4F801ED50FF4F608171812E
:1038D000828193810E94D5369B01AC0160E074E245
:1038E00084E799E40E944B3420E030E040E851E462
:1038F0000E94D5360E94FE34F801F39560837183EF
:10390000828393833897608371838283938321E0DA
:10391000D4012C93D801A450BF4F4D905D906D9071
:103920007C901397411451046104710411F40C94B8
:10393000BC0FAB01BC01440D551D661D771D4083B6
:103940005183628373831D921D921D921C92139763
:103950000C94BC0F20E030E048E453E4F801E15A55
:10396000FE4F60817181828193810E94D5369B01D7
:10397000AC0160E074E284E799E40E944B3420E0FB
:1039800030E040E851E40E94D5360E94FE34F80150
:10399000E459FE4F608371838283938338976083F9
:1039A00071838283938321E0D4012C939801285959
:1039B0003E4FD9014D905D906D907C904114510423
:1039C0006104710411F40C94FB0FDC01CB01840D34
:1039D000951DA61DB71D80839183A283B383D90152
:1039E0001D921D921D921C9213970C94FB0F20E0C8
:1039F00030E048E453E4F801E75DFE4F60817181F7
:103A0000828193810E94D5369B01AC0160E074E213
:103A100084E799E40E944B3420E030E040E851E430
:103A20000E94D5360E94FE34F801EA5CFE4F6083A6
:103A300071838283938338976083718382839383B6
:103A400021E0D4012C93D801AE5CBE4F4D905D9027
:103A50006D907C901397411451046104710411F42A
:103A60000C94DC0FAB01BC01440D551D661D771D88
:103A700040835183628373831D921D921D921C9219
:103A800013970C94DC0F20E030E048E453E4F80195
:103A9000EF5AFF4F60817181828193810E94D536F8
:103AA0009B01AC0160E074E284E799E40E944B342E
:103AB00020E030E040E851E40E94D5360E94FE3418
:103AC000F801E25AFF4F60837183828393833897B2
:103AD000608371838283938321E0D4012C93D80186
:103AE000A65ABF4F4D905D906D907C9013974114F6
:103AF00051046104710411F40C94620FAB01BC0118
:103B0000440D551D661D771D408351836283738369
:103B10001D921D921D921C9213970C94620F20E02F
:103B200030E048E453E4D8015B966D917D918D912E
:103B30009C915E970E94D5369B01AC0160E074E2D7
:103B400084E799E40E944B3420E030E040E851E4FF
:103B50000E94D5360E94FE34F80160A771A782A7A3
:103B600093A760A371A382A393A321E0278FC4A08E
:103B7000D5A0E6A0F7A0C114D104E104F10411F42A
:103B80000C944A0FDC01CB018C0D9D1DAE1DBF1D99
:103B900080A391A3A2A3B3A314A215A216A217A255
:103BA0000C944A0F20E030E048E453E4F801E95770
:103BB000FF4F60817181828193810E94D5369B0184
:103BC000AC0160E074E284E799E40E944B3420E0A9
:103BD00030E040E851E40E94D5360E94FE34F801FE
:103BE000EC56FF4F608371838283938338976083A1
:103BF00071838283938321E0D4012C93D801A05751
:103C0000BF4F4D905D906D907C901397411451047F
:103C10006104710411F40C94800FAB01BC01440DDC
:103C2000551D661D771D40835183628373831D92EA
:103C30001D921D921C9213970C94800F20E030E08F
:103C400048E453E4F801E354FF4F608171818281BD
:103C500093810E94D5369B01AC0160E074E284E759
:103C600099E40E944B3420E030E040E851E40E94A7
:103C7000D5360E94FE34F801E653FF4F608371830E
:103C8000828393833897608371838283938321E057
:103C9000D4012C93D801AA53BF4F4D905D906D90E5
:103CA0007C901397411451046104710411F40C9435
:103CB0009E0FAB01BC01440D551D661D771D408351
:103CC0005183628373831D921D921D921C921397E0
:103CD0000C949E0F0E9491300C94CB0B0E9491305B
:103CE0003ACB853009F069CD8091DD1580933A1586
:103CF0008091DE1580933B158091DF1590E09093C5
:103D0000391580933815009709F446C743E050E011
:103D10008130910509F408C7029709F455C68091CE
:103D20003A15882311F40C94B60680913B1588232C
:103D300009F4B2C68091EB14882311F40C94F22894
:103D4000E0903815F0903915B2E0EB16F10411F45B
:103D50000C94D12810923A150C94B6060E9491301A
:103D60000C94D90CE0903714F0903814F801848149
:103D70008111DFC3F801878581116CC3F801828D41
:103D80008111F9C2F80185A1811184C280819181DC
:103D9000029711F00C944B09D80114968D919C91C7
:103DA00015978D30910509F4A6C710F40C94B80A44
:103DB0008031910511F40C94C3278131910511F4E0
:103DC0000C9431270F9711F00C944B09F801838D57
:103DD00081110C941F2982A181110C94FC29EB5BA9
:103DE000FF4FD8015C968C915C9781110C9441290E
:103DF00093968C918823F1F0E0903514F09036146E
:103E00004081518162817381C7018F5A9F4FDC01CC
:103E10004D935D936D937C93139797012E5B3F4F6A
:103E200081E0D9018C9321503109D9011C92D7012D
:103E3000DF968C93D8015D968C915D9781110C94DF
:103E4000672994968C918823B9F0809135149091CC
:103E500036144081518162817381DC01A957BF4FC3
:103E60004D935D936D937C9313971F9721E02C9353
:103E700011971C9212972C93D8015E968C915E97A5
:103E800081110C94862995968C918823B9F08091A4
:103E90003514909136144081518162817381DC0127
:103EA000A354BF4F4D935D936D937C9313971F97CE
:103EB00021E02C9311971C9212972C93D8015F96B6
:103EC0008C915F9781110C94A52996968C918823EB
:103ED000B9F08091351490913614408151816281FE
:103EE0007381DC01AD50BF4F4D935D936D937C9317
:103EF00013971F9721E02C9311971C9212972C93E4
:103F0000D80190968C91909781110C94C429979622
:103F10008C918823B9F080913514909136144081AA
:103F2000518162817381DC01A75DBE4F4D935D932A
:103F30006D937C9313971F9721E02C9311971C92FC
:103F400012972C93D80191968C91919781110C9492
:103F5000E32998968C918823B9F08091351490913B
:103F600036144081518162817381DC01A15ABE4FB8
:103F70004D935D936D937C9313971F9721E02C9342
:103F800011971C9212972C93608171818281938189
:103F90000E94F7347F936F9387E293E09F938F9310
:103FA000EBEFF3E1FF93EF930E948A2B4091E7142C
:103FB0005091E814DA011D921C92E0913514F091B1
:103FC00036140F900F900F900F900F900F908385E5
:103FD000882311F40C942A2A81E0DA0150968C93FC
:103FE000CF018F5B9F4FDC018C9181110C94272AAC
:103FF00081E09F012E5B3F4FD9019C91911101C03F
:1040000080E0DA0159968C93CF0189589F4FDC01EB
:104010008C9181110C94242A81E09F0128583F4FF4
:10402000D9019C91911101C080E0DA0192968C93A4
:10403000CF0183559F4FDC018C9181110C94212A73
:1040400081E09F0122553F4FD9019C91911101C000
:1040500080E0DA019B968C93CF018D519F4FDC015C
:104060008C9181110C941E2A81E09F012C513F4FAD
:10407000D9019C91911101C080E0DA01D4968C9312
:10408000CF01875E9E4FDC018C9181110C941B2A1D
:1040900081E09F01265E3E4FD9019C91911101C0A4
:1040A00080E0DA01DD968C93CF01815B9E4FDC01CD
:1040B0008C9181110C94182AE05BFE4F81E0908175
:1040C000911101C080E0DA01AA5BBF4F8C930C9480
:1040D0004B096F81788589859A850E945A36181612
:1040E0000CF0CCC028E733E03F932F938BEF93E1A4
:1040F0009F938F930E948A2BEF85F8891082F50198
:10410000E259FF4F008111810F900F900F900F9097
:1041100080E090E00C942E0CC0906312D09064125A
:10412000E0906512F0906612C114D104E104F1042C
:1041300011F00C94150D0C94B6060E9491300C945D
:10414000820C80E0B2CA812C912C54010C94400D59
:1041500081E08093471489E393E09F938F93EBEF83
:10416000F3E1FF93EF930E948A2B0F900F900F9033
:104170000F900C946009FF92EF929F928F92EBEF59
:10418000F3E1FF93EF930E948A2B0F900F900F9013
:104190000F900F900F900C94C6180088F189E02DB5
:1041A0008081882309F4DFC3FF92EF92BF92AF9220
:1041B0002BEF33E13F932F930E948A2B0F900F90A8
:1041C0000F900F900F900F900C94C6189185992323
:1041D00011F40C946617F5011482E0913714F091F4
:1041E0003814A090E714B090E81480E00C9466179F
:1041F000DF01AD50BF4F3C91332311F40C94951760
:10420000F501128EE0913714F0913814A090E71464
:10421000B090E81420E00C949517E859FE4F3081D7
:10422000332311F40C94A917F50115A2A090E714FB
:10423000B090E81490E00C94A917DF01A258BF4F8A
:104240002C91222311F40C947D17F5011786A09070
:10425000E714B090E814E0913714F091381490E02E
:104260000C947D170E9491300C94D3170E949130CA
:104270000C94990A0E9491300C94A90CFB858F2F05
:1042800090E00C942E0C2FE533E02ECF0E9491305D
:104290000C94F1186701FEE9CF1AFEEFDF0A81E006
:1042A000D60117968C93F80190A5992311F0F60189
:1042B0008083D80199968C91882311F0D6011C92A5
:1042C000F80182A5882319F081E0F6018183D801E5
:1042D0009B968C91882319F0D60111961C92F801B7
:1042E00064A575A586A597A5F701E153FE4F6083E8
:1042F000718382839383D80196962C919697F601C9
:10430000238397962C91258321E0278B23E333E9A0
:1043100048E853E40E94DA339B01AC0160E070EEA0
:1043200086E795E40E944B342EE439EF43E551E4EF
:104330000E94D9330E94C53420E030E543EC57E4B5
:104340000E94D53620E030EE4BEA56E40E94DA3384
:104350009B01AC0168E075EB8BEA9BE40E944B3457
:104360000E94FE34D60152966D937D938D939C935B
:104370005597F8010BCD6701FDEECF0ED11C81E002
:10438000D60117968C93F801958D992311F0D601DB
:104390008C93D8015E968C91882311F0F6011082DF
:1043A000F801878D882321F081E0D60111968C9346
:1043B000D80190968C91882311F0F6011182F801B2
:1043C00061A172A183A194A1F701E65AFE4F608317
:1043D000718382839383D8015B962C915B97F6015E
:1043E00023835C962C91258321E0278B23E333E9FB
:1043F00048E853E40E94DA339B01AC0160E070EEC0
:1044000086E795E40E944B342EE439EF43E551E40E
:104410000E94D9330E94C53420E030E543EC57E4D4
:104420000E94D53620E030EE4BEA56E40E94DA33A3
:104430009B01AC0168E075EB8BEA9BE40E944B3476
:104440000E94FE34D60152966D937D938D939C937A
:10445000559798CC6701F8E7CF0ED11C81E0D601C3
:1044600017968C93F8019289992311F0D6018C93B9
:10447000D80153968C91882311F0F6011082F8012F
:104480008489882321F081E0D60111968C93D8018C
:1044900055968C91882311F0F6011182F8016689F6
:1044A0007789808D918DF701EB51FF4F6083718388
:1044B00082839383D80150962C915097F6012383E1
:1044C00051962C91258321E0278B23E333E948E89B
:1044D00053E40E94DA339B01AC0160E070EE86E7A2
:1044E00095E40E944B342EE439EF43E551E40E94F9
:1044F000D9330E94C53420E030E543EC57E40E94F4
:10450000D53620E030EE4BEA56E40E94DA339B01C8
:10451000AC0168E075EB8BEA9BE40E944B340E948F
:10452000FE34D60152966D937D938D939C9355974F
:1045300025CC81E0D7011A968C939781992319F0A5
:10454000D70113968C93F8018085882311F0F70129
:104550001382D80119968C91882321F081E0D7012C
:1045600014968C93F8018285882311F0F701148248
:10457000D8011B966D917D918D919C911E97F701AD
:10458000E059FF4F608371838283938315962C914A
:104590001597F701268316962C91208721E0228F0C
:1045A00023E333E948E853E40E94DA339B01AC018A
:1045B00060E070EE86E795E40E944B342EE439EF1C
:1045C00043E551E40E94D9330E94C53420E030E530
:1045D00043EC57E40E94D53620E030EE4BEA56E437
:1045E0000E94DA339B01AC0168E075EB8BEA9BE437
:1045F0000E944B340E94FE34D70155966D937D93F3
:104600008D939C935897B6CB80914F06882311F4D5
:104610000C94A41088E090E090934906809348069B
:10462000C0906312D0906412E0906512F090661210
:104630000C940F0D8A5B994F0115110509F44AC0BE
:10464000DC01BC01600F711F01E010E0DD24D39498
:10465000CD90E0903206F0903306A701405C5F4FAA
:10466000FA01208131812F5F3F4F2F73332732961C
:104670008081918182179307D9F3FA01808191811A
:10468000F701E80FF91FC082FA0131832083E0911E
:104690003A06F0913B062081C8010090430602C013
:1046A000880F991F0A94E2F7822B8083D0924506E7
:1046B000E0913806F09139068081806480836A1722
:1046C0007B0731F640916F12509170126091711218
:1046D000709172124093731250937412609375121A
:1046E000709376120C94471385E190E090934906FD
:1046F000809348060C9422116701BAEECB1ABEEFE4
:10470000DB0AF801FD962581368147815085F60147
:1047100066857785808991890E94DA33D6011A9659
:104720006D937D938D939C931D9781E011968C934F
:104730000C940B09670124EBC21A2EEFD20A2581D3
:10474000368147815085D6011E966D917D918D9160
:104750009C9151970E94DA33F601628773878487B0
:10476000958781E081830C9433096701FEE3CF0EC6
:10477000D11CD8015E962D913D914D915C91919700
:10478000F60166857785808991890E94DA33D601A2
:104790001A966D937D938D939C931D9781E0F701FD
:1047A00087AF0091E7141091E8140C946508670135
:1047B000B4E7CB0ED11CF80127A130A541A552A525
:1047C000D6011E966D917D918D919C9151970E947D
:1047D000DA33F601628773878487958781E0818366
:1047E0000091E7141091E8140C948F086701BAEA5D
:1047F000CB0ED11CF80120A931A942A953A9D60199
:104800001E966D917D918D919C9151970E94DA3306
:10481000F601628773878487958781E081830091A1
:10482000E7141091E8140C94B9086701B0EECB0EB0
:10483000D11CF80121AD32AD43AD54ADD6011E9669
:104840006D917D918D919C9151970E94DA33F60183
:10485000628773878487958781E081830091E7145D
:104860001091E8140C94E308D9016D917C91119793
:104870001296ED91FC9111974B018E1A9F0AEFE36E
:104880008E229924092C000CAA08BB0884149504D4
:10489000A604B70408F440CC411451046104710427
:1048A00011F40C942A1140916712440F4E8B1D8A0B
:1048B0004D895E894C0D5D1DFA01ED5AF54FAF0132
:1048C000440D551D8C0169017D015F0102C09601F7
:1048D000D701F901608171812D913C911197621787
:1048E000730709F4AAC42D913C911197820F931F6D
:1048F000FC0120818D919C91119701968F739927CE
:1049000011969C938E93822FD5018D935D01C801E2
:10491000A417B507E1F680916F1290917012A091E3
:104920007112B09172120C94A711D80155962D9165
:104930003D914D915C915897F70166897789808DFB
:10494000918D0E94DA33D70152966D937D938D93AA
:104950009C93559781E019968C930091E7141091E0
:10496000E8140C943C08D801D6962C9130E0F9015B
:10497000E650FD4F8491F901EC54FD4F5490F9013C
:10498000E259FD4F7490772089F081110E94913097
:10499000E72DF0E0EE0FFF1FEC5AFD4FA591B4910B
:1049A0009FB7F8948C9185298C939FBFF801628EF4
:1049B0002AE037ED43EA5BE366897789808D918D44
:1049C0000E94DA330C941D19FA01E352FA4E8081E9
:1049D00090E090933D1580933C15CA0185509C4E04
:1049E000BEE3EB2EB5E1FB2E05E415E16CE475E1C9
:1049F00023E5A22E25E1B22E3AE5832E35E1932E52
:104A000020E030E0FC01ED51FE4FE081D701ED9355
:104A10007D01FC01EC51FE4FE081D801ED938D0149
:104A2000FC01EB51FE4FE081DB01ED93BD01FC0188
:104A3000EA51FE4FE081D501ED935D01FC01E951A2
:104A4000FE4FE081D401ED934D01F901EF59FA4E8B
:104A5000DC01A851BE4FCD90DC901197D182C0826D
:104A600012960D90BC91A02DB383A28309962C5F62
:104A70003F4F2C31310531F6FA01E35EF94E80816A
:104A8000918190937E1580937D158281938190937F
:104A9000801580937F1543C91092481480913D146E
:104AA000811127C38091381590913915029709F02B
:104AB00051C980913C1590913D15039709F04AC961
:104AC00080EB92E09F938F932BEF33E13F932F93F3
:104AD0000E948A2B2091D8153091D9154FE4429F1E
:104AE000C001439F900D1124875B9B4E0E94CC2BED
:104AF00081E090E00F900F900F900F902091D815CB
:104B00003091D915232B11F080E090E09093D915C6
:104B10008093D8158091DA159091DB1501969093CA
:104B2000DB158093DA1516C9DA01A352BA4EECE30D
:104B3000F5E18C91868311968C911197848312965E
:104B40008C911297858313968C9113978383149677
:104B50008C911497828315968C9115978083169665
:104B60008D919C9117979087878318968D919C9132
:104B70001997928781871A968C911A9781831B9631
:104B80003B9625E1E836F207A1F6445D5F4F809140
:104B9000381590913915C0C88091E0159091E115B4
:104BA00090933D1580933C158091E2159091E3150B
:104BB00090933F1580933E158091E4159091E515F3
:104BC00090934115809340158091E6159091E715DB
:104BD00090934315809342158091E8159091E915C3
:104BE00090934515809344158091EA159091EB15AB
:104BF0009093471580934615ECEEF5E1A8E4B5E1F6
:104C00004BE256E1BD018081DB018C9381811196DD
:104C10008C931197828112968C93CF018F599109B1
:104C200023813481DC0111963C932E9325813681BA
:104C300013963C932E9312978781DB0114968C93E5
:104C40001497808513968C933996675F7F4F4E1724
:104C50005F07C9F680913815909139154EE450E000
:104C600057C80E9491300C94391980936712909321
:104C70006812A0936912B0936A120C94741083E0C6
:104C800090E09093FC138093FB130C94F4064F5F19
:104C90005F4F6F4F7F4F40934A0650934B06609390
:104CA0004C0670934D06C0906312D0906412E09051
:104CB0006512F09066120C940F0D40917312509192
:104CC0007412609175127091761280916F129091AA
:104CD0007012A0917112B0917212481759076A07A9
:104CE0007B0708F0A2C28EE090E090934906809383
:104CF00048060C942211F8018489882389F02091B8
:104D000035143091361481A592A5A3A5B4A5F90157
:104D1000868B978BA08FB18F828B938BA48BB58B57
:104D2000D80155968C9155978823B1F08091351410
:104D3000909136149D964D915D916D917C91D09797
:104D4000FC01E45BFF4F408351836283738334979C
:104D50004083518362837383F80186898823A1F09D
:104D6000809135149091361441A952A963A974A970
:104D7000FC01EE57FF4F4083518362837383349766
:104D80004083518362837383D80157968C915797E0
:104D90008823B1F08091351490913614D5964D91B9
:104DA0005D916D917C91D897FC01E854FF4F408351
:104DB0005183628373833497408351836283738307
:104DC000F801808D8823A1F08091351490913614DC
:104DD00041AD52AD63AD74ADFC01E251FF4F408374
:104DE00051836283738334974083518362837383D7
:104DF000D80159968C918823B1F080913514909107
:104E00003614F801FD964081518162817381FC0165
:104E1000EC5DFE4F408351836283738334974083FC
:104E2000518362837383F801828D882311F40C947B
:104E30004B098091351490913614EF5BFF4F408100
:104E4000518162817381FC01E65AFE4F4083518398
:104E500062837383349740835183628373830C949A
:104E60004B09D8011D968C91882361F0009135146F
:104E70001091361461E0F80184A90E94F330D80142
:104E800018961C92E091E714F091E8148685882327
:104E900089F00091351410913614F801E659FF4F4E
:104EA00061E080810E94F330F80116AEE091E714D2
:104EB000F091E8148785882391F0009135141091C2
:104EC00036140C581F4F61E0D8019C968C910E94BB
:104ED000F330F8011082E091E714F091E814808932
:104EE000882391F0009135141091361406551F4F08
:104EF00061E0D8019C968C910E94F330F8011082F9
:104F0000E091E714F091E8148189882391F00091F1
:104F100035141091361400521F4F61E0D8019C9651
:104F20008C910E94F330F8011082E091E714F09127
:104F3000E8148289882391F0009135141091361479
:104F40000A5E1E4F61E0D8019C968C910E94F3305E
:104F5000F8011082E091E714F091E8148389882326
:104F600011F40C944B090091351410913614045B24
:104F70001E4F61E0D8019C968C910E94F330F8019D
:104F800010820C944B09F8018681882369F0009106
:104F900035141091361460E0D801D4968C910E949B
:104FA000F33081E0F8018087E091E714F091E81494
:104FB0008781882399F00091351410913614F801F7
:104FC000E659FF4F60E080810E94F33081E0D80114
:104FD000DE968C93E091E714F091E81480858823A5
:104FE00091F000913514109136140C581F4F60E069
:104FF000F80184A50E94F33081E0D8018C93E09100
:10500000E714F091E8148185882391F0009135141C
:105010001091361406551F4F60E0F80184A50E94D8
:10502000F33081E0D8018C93E091E714F091E8141B
:105030008285882391F00091351410913614005226
:105040001F4F60E0F80184A50E94F33081E0D80191
:105050008C93E091E714F091E8148385882391F014
:1050600000913514109136140A5E1E4F60E0F8016D
:1050700084A50E94F33081E0D8018C93E091E7147D
:10508000F091E8148485882311F40C944B09009165
:10509000351410913614045B1E4F60E0F80184A5AE
:1050A0000E94F33081E0D8018C930C944B0981E08D
:1050B0008093470687E090E09093490680934806E6
:1050C0000C94221110923E1481E080933D140C94B4
:1050D00054098CE090E09093490680934806C09074
:1050E0006312D0906412E0906512F09066120C94F6
:1050F0000F0D8CE792E09F938F934BEF53E15F93FB
:105100004F930E948A2B2091D8153091D9154FE4E6
:10511000429FC001439F900D1124875B9B4E0E94CC
:10512000CC2B81E090E00F900F900F900F9020918A
:10513000D8153091D915232B11F080E090E0909391
:10514000D9158093D8158091DA159091DB150196C9
:105150009093DB158093DA1510923A1580913815EB
:1051600090913915029711F00C94AA1E80913C156C
:1051700090913D15069711F00C94AA1E81E0809342
:105180003E148AE992E09F938F93ABEFB3E1BF9314
:10519000AF930E948A2B0F900F900F900F900C945A
:1051A000AA1E00913C1510913D150A31110511F010
:1051B0000C94AA1E8DE692E09F938F93EBEFF3E1A0
:1051C000FF93EF930E948A2BF092EA14E092E91485
:1051D0001093EE140093ED140F900F900F900F901A
:1051E0000C94AA1E89EE94E10E94CC2B0C94AA1E6A
:1051F000C0906312D0906412E0906512F090661235
:1052000024E0C216D104E104F10410F40C946C15EE
:105210000C9413148FEF0C94951183E090E090930D
:105220004906809348060C94221180E190E0909307
:105230004906809348060C9422118FEF65CBA0910C
:105240003514B0913614F801EB5BFF4F408151816A
:10525000628173815B964D935D936D937C935E97B2
:1052600081E01B968C931B971C961C921C97199699
:105270008C93D8015C968C915C97882311F40C94E4
:10528000F81EE0903514F09036144081518162810F
:105290007381C7018F5A9F4FDC014D935D936D93CE
:1052A0007C93139797012F5B3F4F81E0D9018C933B
:1052B0002F5F3F4FD9011C92D701DF968C93D80105
:1052C0005D968C915D97882311F40C94211F809139
:1052D0003514909136144081518162817381DC01D3
:1052E000A957BF4F4D935D936D937C931397509740
:1052F00021E02C9311961C9213972C93D8015E9663
:105300008C915E97882311F40C94431F809135147F
:10531000909136144081518162817381DC01A354E4
:10532000BF4F4D935D936D937C931397509721E0FE
:105330002C9311961C9213972C93D8015F968C9105
:105340005F97882311F40C94651F80913514909118
:1053500036144081518162817381DC01AD50BF4FB1
:105360004D935D936D937C931397509721E02C930D
:1053700011961C9213972C93D80190968C9190972C
:10538000882311F40C94871F809135149091361462
:105390004081518162817381DC01A75DBE4F4D93D5
:1053A0005D936D937C931397509721E02C93119606
:1053B0001C9213972C93D80191968C9191978823E6
:1053C00011F40C94A91F80913514909136144081EA
:1053D000518162817381DC01A15ABE4F4D935D936F
:1053E0006D937C931397509721E02C9311961C9208
:1053F00013972C930C94C41FA0913514B0913614BC
:10540000F801EB5BFF4F40815181628173815B96B4
:105410004D935D936D937C935E9781E01C968C9386
:105420001C971B961C921B9719968C930C94F11E3B
:1054300081E00C94632081E00C94512081E00C9475
:105440003D2081E00C94292081E00C94152081E01E
:105450000C94012081E0948591110C94ED1F80E063
:105460000C94ED1F40E050E060E07FEF0C94491297
:10547000812C912C5401AA940C942A12C12CD12C69
:105480007601DA940C940C12412C512C32014A947E
:105490000C94ED110895CF93DF93DC011E96CD910E
:1054A000DC911F97CE01805C9F4FFC0140815181B0
:1054B0004F5F5F4F4F7355273296208131812417FC
:1054C0003507D9F3FC0180819181FE01E80FF91FB6
:1054D00060831E96ED91FC911F97E05CFF4F518316
:1054E00040835696ED91FC915797208181E090E0A2
:1054F0005F960C905F9702C0880F991F0A94E2F79D
:10550000822B808381E091968C9391975496ED91B4
:10551000FC91559780818064808381E090E0DF91E9
:10552000CF9108959F92AF92BF92CF92DF92EF9268
:10553000FF920F931F93CF93DF934115510509F409
:1055400060C0EC017B018A01C12CD12CAA24A39458
:10555000B12C99249394E881F9810190F081E02D98
:10556000D7016D917D01BAE2EB34FB0709F046C02B
:105570004E855F85DA01A05CBF4F8D919C9111979C
:1055800001968F739927FA01EE5BFF4F20813181DD
:1055900028173907D9F32D913C91FA01E20FF31F37
:1055A0006083EE85FF85E05CFF4F91838083EE8909
:1055B000FF892081C5010F8C02C0880F991F0A94B2
:1055C000E2F7822B808399A2EC89FD898081806437
:1055D000808381E090E0C80ED91E0150110909F0C6
:1055E000BACFC601DF91CF911F910F91FF90EF903D
:1055F000DF90CF90BF90AF909F900895CE01199506
:10560000EACFC12CD12CEDCFFC0181A1882329F058
:10561000A489B5899C9196FFFDCF11A20895FC0144
:1056200084859585FC01E05CFF4F40815181329675
:10563000208131814217530781F020813181DC01C3
:10564000A20FB31F8C91208131812F5F3F4F2F73A9
:1056500033273183208390E008958FEF9FEF0895E3
:10566000FC0184859585FC01E05CFF4F4081518100
:105670003296208131814217530741F020813181D8
:10568000FC01E20FF31F808190E008958FEF9FEF00
:105690000895FC0124853585F901E05CFF4F808188
:1056A0009181329620813181821B930B8F739927D0
:1056B00008958091300690913106FC01E05CFF4F27
:1056C0002081318132968081918180910E06909166
:1056D0000F06FC01E05CFF4F208131813296808112
:1056E00091818091EC059091ED05FC01E05CFF4F0C
:1056F000208131813296808191818091CA0590917B
:10570000CB05FC01E05CFF4F208131813296808126
:1057100091810895CF93DF93CDB7DEB7C054D109FF
:105720000FB6F894DEBF0FBECDBF80918B1A8031CB
:1057300050F0C05CDF4F0FB6F894DEBF0FBECDBF98
:10574000DF91CF9108959E01265B3F4F2A964EAD83
:105750005FAD2A9760E470E0CE0101960E94A0330D
:1057600080918A1A20E4829FC0011124BE016F5FDC
:105770007F4F8757994E0E946A3380918A1A8F30E3
:1057800048F080E080938A1A80918B1A8F5F809313
:105790008B1ACFCF8F5FF6CFFC0180913B158383AF
:1057A00080913815909139159183808320913A1515
:1057B0002283009709F0F0C080914415909145151F
:1057C000A0914615B091471584879587A687B7871E
:1057D00080913C1590913D15A0913E15B0913F15DB
:1057E00084839583A683B78380914015909141155A
:1057F000A0914215B091431580879187A287B38706
:1058000080914A15828B80914915818B80914D152D
:1058100090914E15A0914F15B0915015858B968B98
:10582000A78BB08F80914815808B80914C15848B0D
:1058300080914B15838B80915315838F80915215E6
:10584000828F8091561590915715A0915815B0915F
:105850005915868F978FA0A3B1A380915115818F81
:1058600080915515858F80915415848F80915C159A
:1058700084A380915B1583A380915F15909160153F
:10588000A0916115B091621587A390A7A1A7B2A7B7
:1058900080915A1582A380915E1586A380915D1533
:1058A00085A38091651585A78091641584A7809153
:1058B000681590916915A0916A15B0916B1580AB30
:1058C00091ABA2ABB3AB8091631583A780916715B1
:1058D00087A78091661586A780916E1586AB80910B
:1058E0006D1585AB8091711590917215A09173150E
:1058F000B091741581AF92AFA3AFB4AF80916C1526
:1059000084AB8091701580AF80916F1587AB8091CB
:10591000771587AF8091761586AF40917A155091B3
:105920007B1560917C1570917D15DF01AE5BBF4FDB
:105930004D935D936D937C9313978091751585AF0F
:105940008091791511978C938091781511978C938C
:105950008091801518968C9380917F1511978C9368
:10596000409183155091841560918515709186152D
:1059700014964D935D936D937C93139780917E1550
:1059800015978C938091821514968C938091811534
:10599000E75BFF4F808308958130910509F085C052
:1059A00080914215828780914015808780914115B2
:1059B000818780913F15878380913E1586838091F2
:1059C0003C1584838091431590914415A091451511
:1059D000B091461583879487A587B68780913D153A
:1059E000858380914D15858B80914B15838B80919C
:1059F0004C15848B80914A15828B80914915818B3F
:105A000080914715878780914E1590914F15A091F1
:105A10005015B0915115868B978BA08FB18F8091C7
:105A20004815808B8091581580A380915615868FDC
:105A300080915715878F80915515858F80915415CA
:105A4000848F80915215828F8091591590915A15AB
:105A5000A0915B15B0915C1581A392A3A3A3B4A3FD
:105A600080915315838F8091631583A78091611571
:105A700081A78091621582A78091601580A780918F
:105A80005F1587A380915D1585A380916415909122
:105A90006515A0916615B091671584A795A7A6A76F
:105AA000B7A780915E1586A30895029709F0D6C026
:105AB00080913C1590913D15958384838091451587
:105AC000858780913E15868380915A1582A38091A7
:105AD0005315838F80914C15848B80916115909123
