:100000000C942C010C945D010C945D010C945D0129
:100010000C945D010C945D010C945D010C945D01E8
:100020000C945D010C945D010C945D010C945D01D8
:100030000C945D010C945D010C945D010C945D01C8
:100040000C945D010C94B3050C945D010C945D015E
:100050000C945D010C945D010C945D010C945408AA
:100060000C945D010C94D7070C94DE060C945D0192
:100070000C945D010C945D010C945D010C945D0188
:100080000C9452050C945D010C945D010C945D017F
:100090000C9499070C949F060C945D010C945D01DF
:1000A0000C945D010C945D010C945D010C945D0158
:1000B0000C945D010C945D010C945D010C945D0148
:1000C0000C945D010C945D010C945D010C945B0734
:1000D0000C9460060C945D010C941D070C94210691
:1000E0000C945D012E0FD7209A204B200F20C31FA8
:1000F000761F76232A23CA23CE2270220F22F11BD9
:10010000862148211A23F11BB21EF11BF11B2F1E61
:10011000CC1DBC1DAC1D9A1D4D1D0C94CC1D0C940A
:10012000173B0C940F200C94BC1D0C94B21E0C9425
:1001300048210C94CA230C944B200C9486210C94D7
:10014000761F0C9470220C940F220C9424020C94B1
:100150009A200C942F1E0C9445020C94A7010C9429
:100160009A1D0C94C31F0C942A230C945E020C94C9
:10017000D7200C941A230C9460010C94CE220C947A
:1001800019020C9476230C94AC1D0C944D1D0C9408
:100190002E0F0C94F11B00002200250028002B00DC
:1001A0002E003100340002010000050108010B019E
:1001B00000002100240027002A002D003000330019
:1001C00001010000040107010A01050505050705F5
:1001D00008080808020202020A0A080804040404C3
:1001E00001010101010101010303030303030303EF
:1001F000040707070C0C0C0C0C0C0C0C020202027E
:1002000006060606060606060B0B0B0B0B0B0B0B66
:100210000102102020080810204010204080020118
:1002200002010804020101020408102040808040FD
:1002300020100804020180040201804020100804FC
:10024000020108040201010204081020408001029A
:10025000040810204080173B11241FBECFEFD1E2CD
:10026000DEBFCDBF00E00CBF12E0A0E0B2E0E0E4F2
:10027000F3E800E00BBF02C007900D92AA3BB10764
:10028000D9F72CE1AAEBB2E001C01D92A432B2076B
:10029000E1F711E0CCE2D1E000E006C021970109CE
:1002A000802FFE010E949641CB32D10780E00807E3
:1002B000A9F70E949E080C94233C0C94000008951A
:1002C000CF93DF93DC011E96CD91DC911F97CE0179
:1002D000805C9F4FFC01408151814F5F5F4F4F73A6
:1002E000552732962081318124173507D9F3FC0137
:1002F00080819181FE01E80FF91F60831E96ED91C8
:10030000FC911F97E05CFF4F518340835696ED911F
:10031000FC915797208181E090E05F960C905F9769
:1003200002C0880F991F0A94E2F7822B808381E034
:1003300091968C9391975496ED91FC91559780816D
:100340008064808381E090E0DF91CF9108959F9257
:10035000AF92BF92CF92DF92EF92FF920F931F93D3
:10036000CF93DF934115510509F460C0EC017B0187
:100370008A01C12CD12CAA24A394B12C9924939442
:10038000E881F9810190F081E02DD7016D917D0127
:10039000B1E0E036FB0709F046C04E855F85DA0123
:1003A000A05CBF4F8D919C91119701968F739927F7
:1003B000FA01EE5BFF4F2081318128173907D9F30D
:1003C0002D913C91FA01E20FF31F6083EE85FF85CA
:1003D000E05CFF4F91838083EE89FF892081C50116
:1003E0000F8C02C0880F991F0A94E2F7822B80833A
:1003F00099A2EC89FD8980818064808381E090E00E
:10040000C80ED91E0150110909F0BACFC601DF91FB
:10041000CF911F910F91FF90EF90DF90CF90BF9001
:10042000AF909F900895CE011995EACFC12CD12CA1
:10043000EDCFFC0181A1882329F0A489B5899C9185
:1004400096FFFDCF11A20895FC0184859585FC01DE
:10045000E05CFF4F4081518132962081318142170B
:10046000530781F020813181DC01A20FB31F8C91F1
:10047000208131812F5F3F4F2F73332731832083BA
:1004800090E008958FEF9FEF0895FC018485958596
:10049000FC01E05CFF4F4081518132962081318127
:1004A0004217530741F020813181FC01E20FF31F15
:1004B000808190E008958FEF9FEF0895FC012485DF
:1004C0003585F901E05CFF4F808191813296208172
:1004D0003181821B930B8F739927089580910005BA
:1004E00090910105FC01E05CFF4F20813181329643
:1004F000808191818091DE049091DF04FC01E05CB9
:10050000FF4F208131813296808191818091BC049E
:100510009091BD04FC01E05CFF4F20813181329657
:100520008081918180919A0490919B04FC01E05C10
:10053000FF4F208131813296808191810895CF9340
:10054000DF93CDB7DEB7C054D1090FB6F894DEBF44
:100550000FBECDBF8091FA19803150F0C05CDF4FE3
:100560000FB6F894DEBF0FBECDBFDF91CF910895D7
:100570009E01265B3F4F2A964EAD5FAD2A9760E401
:1005800070E0CE0101960E946C3C8091F91920E444
:10059000829FC0011124BE016F5F7F4F88509A4E29
:1005A0000E94363C8091F9198F3048F080E08093AA
:1005B000F9198091FA198F5F8093FA19CFCF8F5F65
:1005C000F6CFFC018091AA1483838091A7149091A7
:1005D000A814918380832091A9142283009709F0A5
:1005E000F0C08091B3149091B414A091B514B0915F
:1005F000B61484879587A687B7878091AB149091AE
:10060000AC14A091AD14B091AE1484839583A683ED
:10061000B7838091AF149091B014A091B114B091B0
:10062000B21480879187A287B3878091B914828B97
:100630008091B814818B8091BC149091BD14A091CD
:10064000BE14B091BF14858B968BA78BB08F809111
:10065000B714808B8091BB14848B8091BA14838BE8
:100660008091C214838F8091C114828F8091C514B0
:100670009091C614A091C714B091C814868F978F1B
:10068000A0A3B1A38091C014818F8091C414858FE1
:100690008091C314848F8091CB1484A38091CA1459
:1006A00083A38091CE149091CF14A091D014B091D7
:1006B000D11487A390A7A1A7B2A78091C91482A340
:1006C0008091CD1486A38091CC1485A38091D414FD
:1006D00085A78091D31484A78091D7149091D814C2
:1006E000A091D914B091DA1480AB91ABA2ABB3ABAB
:1006F0008091D21483A78091D61487A78091D514B6
:1007000086A78091DD1486AB8091DC1485AB809147
:10071000E0149091E114A091E214B091E31481AF40
:1007200092AFA3AFB4AF8091DB1484AB8091DF14A0
:1007300080AF8091DE1487AB8091E61487AF809103
:10074000E51486AF4091E9145091EA146091EB14DE
:100750007091EC14DF01AE5BBF4F4D935D936D93D1
:100760007C9313978091E41485AF8091E8141197DE
:100770008C938091E71411978C938091EF141896C5
:100780008C938091EE1411978C934091F2145091B8
:10079000F3146091F4147091F51414964D935D93D5
:1007A0006D937C9313978091ED1415978C938091A2
:1007B000F11414968C938091F014E75BFF4F8083C3
:1007C00008958130910509F085C08091B114828728
:1007D0008091AF1480878091B01481878091AE148E
:1007E00087838091AD1486838091AB14848380913C
:1007F000B2149091B314A091B414B091B51483873E
:100800009487A587B6878091AC1485838091BC14AA
:10081000858B8091BA14838B8091BB14848B8091DB
:10082000B914828B8091B814818B8091B61487871C
:100830008091BD149091BE14A091BF14B091C014CA
:10084000868B978BA08FB18F8091B714808B80910E
:10085000C71480A38091C514868F8091C614878F9A
:100860008091C414858F8091C314848F8091C114AA
:10087000828F8091C8149091C914A091CA14B0912C
:10088000CB1481A392A3A3A3B4A38091C214838F9A
:100890008091D21483A78091D01481A78091D11424
:1008A00082A78091CF1480A78091CE1487A38091D6
:1008B000CC1485A38091D3149091D414A091D51415
:1008C000B091D61484A795A7A6A7B7A78091CD14F9
:1008D00086A30895029709F0D6C08091AB14909139
:1008E000AC14958384838091B41485878091AD1472
:1008F00086838091C91482A38091C214838F8091D2
:10090000BB14848B8091D0149091D114A091D214F7
:10091000B091D31481A792A7A3A7B4A78091B514CF
:1009200086878091AE1487838091CA1483A38091B7
:10093000C314848F8091BC14858B8091D4149091C2
:10094000D514A091D614B091D71485A796A7A7A7C0
:10095000B0AB8091B61487878091AF148087809167
:10096000CB1484A38091C414858F8091BD14868B91
:100970008091D8149091D914A091DA14B091DB141D
:1009800081AB92ABA3ABB4AB8091B714808B809159
:10099000B01481878091CC1485A38091C514868F73
:1009A0008091BE14878B8091DC149091DD14A0910E
:1009B000DE14B091DF1485AB96ABA7ABB0AF8091DE
:1009C000B814818B8091B11482878091CD1486A355
:1009D0008091C614878F8091BF14808F8091E0141E
:1009E0009091E114A091E214B091E31481AF92AF21
:1009F000A3AFB4AF8091B914828B8091B214838776
:100A00008091CE1487A38091C71480A38091C014D5
:100A1000818F4091E4145091E5146091E614709137
:100A2000E714DF01DD964D935D936D937C931397EF
:100A30008091BA14838B8091B31484878091CF14F2
:100A400080A78091C81481A38091C114828F4091A6
:100A5000E8145091E9146091EA147091EB14149623
:100A60004D935D936D937C9313978091EC149091CB
:100A7000ED14A091EE14B091EF14EB5BFF4F808367
:100A80009183A283B3830895DC0112961C9212977E
:100A900013961C92FC0134962BE4DF011D922A95DB
:100AA000E9F708951F920F920FB60F9211240BB61B
:100AB0000F928F939F93EF93FF9380918D048823E0
:100AC000C9F110928D0480910B018B7F80930B01F3
:100AD000E091A413F091A5138181828383818823FF
:100AE00091F181E0818384819581019790939900B0
:100AF000809398001092950010929400E091A413B6
:100B0000F091A51381E0808390918D04911123C011
:100B100080938D0480910B01846080930B01FF9181
:100B2000EF919F918F910F900BBE0F900FBE0F9082
:100B30001F90189581E080938D0480910B01846053
:100B400080930B01C5CF118288EE93E090939900BA
:100B500080939800CFCF10928D0480910B018B7FF2
:100B600080930B01DCCF1F920F920FB60F921124CE
:100B70000BB60F928F939F93EF93FF9383E294EFC3
:100B800090938900809388001092850010928400D1
:100B9000E091A613F091A71381E08083FF91EF917C
:100BA0009F918F910F900BBE0F900FBE0F901F90D3
:100BB0001895FC0110821182168A1582128A138AF6
:100BC000148A158A12861386148615861282DC0111
:100BD000AF5BBF4F0D90BC91A02D81E090E09C01D8
:100BE00004AC02C0220F331F0A94E2F73C91232B7E
:100BF0002C931082DF01AD5BBF4F0D90BC91A02DF7
:100C000005AC02C0880F991F0A94E2F780959C9169
:100C100089238C93178A108E118E128E10A611A61E
:100C200012A613A614A615A616A617A610AA11AAF0
:100C300012AA13AA17A213821482CF01C4960C948D
:100C4000363C1F920F920FB60F9211240BB60F92E3
:100C50002F933F938F939F93EF93FF932091441A89
:100C60003091451A8091461A9091471A28173907F2
:100C700009F1E091461AF091471AEC5FF54E208198
:100C80008091461A9091471A01968F7399279093F5
:100C9000471A8093461A20933601FF91EF919F9156
:100CA0008F913F912F910F900BBE0F900FBE0F9021
:100CB0001F901895809131018F7D80933101EDCF88
:100CC0001F920F920FB60F9211240BB60F922F9313
:100CD0003F938F939F93EF93FF932091CC1A309182
:100CE000CD1A8091CE1A9091CF1A2817390709F1A1
:100CF000E091CE1AF091CF1AE457F54E2081809101
:100D0000CE1A9091CF1A01968F7399279093CF1A8C
:100D10008093CE1A2093D600FF91EF919F918F91EF
:100D20003F912F910F900BBE0F900FBE0F901F9011
:100D300018958091D1008F7D8093D100EDCF1F92C7
:100D40000F920FB60F9211240BB60F922F933F9371
:100D50008F939F93EF93FF932091541B3091551BDA
:100D60008091561B9091571B2817390709F1E09184
:100D7000561BF091571BEC5EF44E20818091561B60
:100D80009091571B01968F7399279093571B8093CF
:100D9000561B2093CE00FF91EF919F918F913F9131
:100DA0002F910F900BBE0F900FBE0F901F901895B4
:100DB0008091C9008F7D8093C900EDCF1F920F9263
:100DC0000FB60F9211240BB60F922F933F938F9370
:100DD0009F93EF93FF932091DC1B3091DD1B80915B
:100DE000DE1B9091DF1B2817390709F1E091DE1B0C
:100DF000F091DF1BE456F44E20818091DE1B909130
:100E0000DF1B01968F7399279093DF1B8093DE1B66
:100E10002093C600FF91EF919F918F913F912F9169
:100E20000F900BBE0F900FBE0F901F9018958091E2
:100E3000C1008F7D8093C100EDCF1F920F920FB63E
:100E40000F9211240BB60F922F933F934F938F93D2
:100E50009F93EF93FF938091300182FD29C04091D1
:100E600036018091881A9091891A20918A1A3091BE
:100E70008B1A01968F7399272817390759F0E0913B
:100E8000881AF091891AE85BF54E40839093891A8D
:100E90008093881AFF91EF919F918F914F913F918D
:100EA0002F910F900BBE0F900FBE0F901F901895B3
:100EB00080913601EFCF1F920F920FB60F9211243F
:100EC0000BB60F922F933F934F938F939F93EF9374
:100ED000FF938091D00082FD29C04091D60080917F
:100EE000101B9091111B2091121B3091131B019626
:100EF0008F7399272817390759F0E091101BF0914B
:100F0000111BE053F54E40839093111B8093101BEF
:100F1000FF91EF919F918F914F913F912F910F9062
:100F20000BBE0F900FBE0F901F9018958091D600AA
:100F3000EFCF1F920F920FB60F9211240BB60F92A4
:100F40002F933F934F938F939F93EF93FF938091B2
:100F5000C80082FD29C04091CE008091981B9091DD
:100F6000991B20919A1B30919B1B01968F73992797
:100F70002817390759F0E091981BF091991BE85A0E
:100F8000F44E40839093991B8093981BFF91EF91AF
:100F90009F918F914F913F912F910F900BBE0F908A
:100FA0000FBE0F901F9018958091CE00EFCF1F922B
:100FB0000F920FB60F9211240BB60F922F933F93FF
:100FC0004F938F939F93EF93FF938091C00082FD87
:100FD00029C04091C6008091201C9091211C209135
:100FE000221C3091231C01968F73992728173907EB
:100FF00059F0E091201CF091211CE052F44E408306
:101000009093211C8093201CFF91EF919F918F91D1
:101010004F913F912F910F900BBE0F900FBE0F90ED
:101020001F9018958091C600EFCFCF93DF9390E08B
:10103000FC01E05FFD4F2491FC01E653FE4F8491DB
:101040008823B9F090E0880F991FFC01E055FE4F0E
:10105000A591B491FC01EA56FE4FC591D491662347
:1010600059F06230A9F08FB7F894EC91E22BEC9331
:101070008FBFDF91CF9108959FB7F8948C91E22FA5
:10108000E0958E238C932881E223E8839FBFF1CFE4
:101090009FB7F8948C91322F309583238C93E881FD
:1010A000E22BE8839FBFE5CF1F920F920FB60F92FE
:1010B00011242F933F938F939F93AF93BF9380916E
:1010C000001A9091011AA091021AB091031A30915E
:1010D000FF1923E0230F2D3768F126E8230F02962E
:1010E000A11DB11D2093FF198093001A9093011A3E
:1010F000A093021AB093031A8091FB199091FC19E6
:10110000A091FD19B091FE190196A11DB11D80930A
:10111000FB199093FC19A093FD19B093FE19BF9190
:10112000AF919F918F913F912F910F900FBE0F9094
:101130001F9018950196A11DB11DD4CFCF93DF93B9
:10114000CDB7DEB7EA970FB6F894DEBF0FBECDBFBE
:10115000789484B5826084BD84B5816084BD85B592
:10116000826085BD85B5816085BD80916E0081609E
:1011700080936E0010928100809181008260809344
:101180008100809181008160809381008091800046
:101190008160809380008091B10084608093B10071
:1011A0008091B00081608093B00080919100826056
:1011B0008093910080919100816080939100809153
:1011C00090008160809390008091A1008260809364
:1011D000A1008091A10081608093A1008091A00076
:1011E00081608093A0008091210182608093210121
:1011F0008091210181608093210180912001816093
:101200008093200180917A00846080937A0080919D
:101210007A00826080937A0080917A008160809366
:101220007A0080917A00806880937A001092C100E1
:1012300089E491E19093A5138093A41386E093E051
:101240009093A7138093A6138CEB92E09093AB132B
:101250008093AA1381E08093130310927403809308
:10126000D5031092360425E031E030931203209329
:101270001103309373032093720322E031E0309323
:10128000D4032093D303309335042093340493E0A4
:101290009093160342E0409377038093D803109213
:1012A00039042BE230E0309315032093140330937C
:1012B0007603209375033093D7032093D60330939E
:1012C00038042093370426E320931A0327E320935E
:1012D0007B0328E32093DC0329E320933D04109251
:1012E000190380937A034093DB0390933C04EFE26D
:1012F000F0E0F0931803E0931703F0937903E09381
:101300007803F093DA03E093D903F0933B04E0937E
:101310003A041092060310920803109207031092E9
:101320000D0310920E031092090310920A031092FB
:101330001F031092100310920F0310920C031092CF
:101340001C0310921B0310921E0310921D03109297
:1013500068031092200310926303109262031092AC
:101360006503109264031092670310926603109253
:101370006903309105012BB110926E0310926F0337
:1013800010926A0310926B03109280031092710303
:101390001092700310926D0310927D0310927C03E3
:1013A00010927F0310927E031092C9031092810362
:1013B0001092C4031092C3031092C6031092C50387
:1013C0001092C8031092C7031092CA033C7F309357
:1013D00005011092CF031092D0031092CB0310920C
:1013E000CC031092E1031092D2031092D103109219
:1013F000CE031092DE031092DD031092E0031092F0
:10140000DF0310922A041092E20310922504109236
:10141000240410922704109226041092290410929A
:10142000280410922B043091020110923004109283
:10143000310410922C0410922D0410924204109248
:1014400033041092320410922F0410923F04109231
:101450003E04109241041092400410928B041092AA
:10146000430410928604109285041092880410920E
:10147000870410928A041092890410928C043C7F95
:1014800030930201207F2BB91092BC028093BD02E1
:10149000A4E0A093C202F093C102E093C002809343
:1014A000C30275E07093C802F093C702E093C602CE
:1014B0008093C90266E06093CE02F093CD02E09380
:1014C000CC028093CF0257E05093D402F093D30222
:1014D000E093D2028093D5021092DA0226E031E046
:1014E0003093D9022093D8028093DB028093E002EC
:1014F0003093DF022093DE028093E1024093E60204
:101500003093E5022093E4028093E7029093EC028B
:101510003093EB022093EA028093ED02A093F20253
:101520003093F1022093F0028093F3027093F8025B
:101530003093F7022093F6028093F9026093FE0243
:101540003093FD022093FC028093FF02509304032A
:10155000309303032093020310920503908194FFBC
:1015600002C00C94133B8093BE028091C302811190
:101570000C94FD3A1092C4028091C90281110C941E
:10158000E73A1092CA028091CF0281110C94D13AAD
:101590001092D0028091D50281110C94BB3A109226
:1015A000D6028091DB0281110C94A53A1092DC02E4
:1015B0008091E10281110C948F3A1092E2028091A5
:1015C000E70281110C94793A1092E8028091ED02C1
:1015D00081110C944B3A1092EE028091F30281112A
:1015E0000C94353A1092F4028091F90281110C9416
:1015F0001F3A1092FA028091FF0281110C94093A6D
:10160000109200038091AA139091AB130091A41340
:101610001091A513F801EB5AFF4F2BE031E0318315
:10162000208334973183208336963183208332960A
:1016300031832083369745E250E0518340833597CC
:1016400042E04083329743E0442E4082339651E09B
:10165000508331961082339754E0352E308240E02B
:1016600050E060E273E4D8019B964D935D936D93D7
:101670007C939E9740E050E060E87FE3F80147A745
:1016800050AB61AB72ABD3964D935D936D937C93EE
:10169000D697AC01475B5F4F57965C934E93569736
:1016A00059965C934E935897E056FF4F64E370E071
:1016B000718360833497ABE2B0E0B183A083369648
:1016C000718360833296718360833697A2E06A2EBD
:1016D00077247394718260823597B2E0B083329739
:1016E000A7E0A0833396B1E0B083319610823397A0
:1016F0000F2EF5E05F2EF02D5082B2970F2EF7EDF2
:101700008F2EF2E39F2EF9E3AF2EF2E4BF2EF02DE1
:1017100080829182A282B38234960F2EF4E3CF2E80
:10172000FFEEDF2EF0EBEF2EFCE3FF2EF02DC0825C
:10173000D182E282F3823496C082D182E282F38245
:101740007D9751834083329651834083E857FF4F02
:1017500031832083349731832083369631832083ED
:10176000329631832083369771826082359726E0E6
:10177000222E20823297A083339650823196308277
:1017800033972082B29780829182A282B38234966C
:10179000C082D182E282F3823496C082D182E28218
:1017A000F3827D9751834083329651834083E8577B
:1017B000FF4F22E230E0318320833497318320834E
:1017C0003696318320833296318320833697718316
:1017D00060833597B08332971082339642E040831E
:1017E0003196408233975082B297C12CD12C48E475
:1017F000E42E43E4F42EC082D182E282F382349656
:101800004AE057ED63EA7BE340835183628373834D
:10181000349640835183628373837D97DC011296F3
:10182000B183A08332961696B183A083E857FF4F09
:10183000318320833497318320833696318320830C
:1018400032963183208336972EE230E03183208335
:101850003597508232973082339620823196A7E0B6
:10186000A08333974082B297C082D182E282F38212
:1018700034964083518362837383349640835183CB
:10188000628373837D979C01225F3F4F3183208366
:1018900032962A5F3F4F31832083E857FF4FA8E2FB
:1018A000B0E0B183A0833497B183A0833696B1832F
:1018B000A0833296B183A083369771826082359778
:1018C0002082329727E020833396508231963082EF
:1018D00033974082B297C082D182E282F3823496FB
:1018E0004083518362837383349640835183628340
:1018F00073837D979C01265E3F4F31832083329610
:101900002A5F3F4F31832083E857FF4FB183A08385
:101910003497B183A0833696B183A0833296B18386
:10192000A083369771826082359732E03083329798
:1019300040823396A1E0A0833196108233973082A3
:10194000B297C082D182E282F3823496408351837F
:1019500062837383349640835183628373837D975C
:101960009C012A5D3F4F3183208332968C96918370
:101970008083F801108288EE93E0A0E0B0E08483D9
:101980009583A683B78313821282118260E172E08D
:10199000C80140960E94D90564E172E0C801855AE9
:1019A0009F4F0E94D9056BE172E0C8018A559F4F95
:1019B0000E94D90562E272E0C8018F509F4F0E94D9
:1019C000D90567E272E0C801845C9E4F0E94D90588
:1019D0006CE272E0C80189579E4F0E94D90562E30C
:1019E00072E0C8018E529E4F0E94D9051092AC132E
:1019F0001092AD131092AE131092AF131092B01359
:101A00001092B1131092B2131092B3131092B41338
:101A10001092B51310924A1510924915109248155C
:101A20001092471510924615109245151092BA1350
:101A30001092BB138BE4ACEBB3E1E82F1D92EA9557
:101A4000E9F71092091410920A14ABE0B4E11D9268
:101A50008A95E9F7E6EFF4E1F0935714E093561412
:101A60001092B7131092B613CF010E94440587EA73
:101A700094E10E94440588E594E10E94440586EFC4
:101A800094E10E944405109267131092661310921D
:101A9000AC131092F8191092F9191092FA191092C9
:101AA000F6151092F5151092A01510929F15109230
:101AB000F7151092F81510923816109278161092A9
:101AC000B8161092F81610923817109278171092D4
:101AD000B8171092F81710923818109278181092C0
:101AE000B8181092F81810923819109278191092AC
:101AF000B81962E08AE30E94150862E08BE30E9455
:101B0000150862E08CE30E94150862E08DE30E94F4
:101B1000150862E08EE30E94150862E08FE30E94E0
:101B2000150862E080E40E94150862E081E40E94EA
:101B3000150862E082E40E94150862E083E40E94D6
:101B4000150862E084E40E94150862E085E40E94C2
:101B5000150861E082E00E94150861E087E00E94BC
:101B6000150861E08EE00E94150861E08FE00E9498
:101B7000150861E080E10E94150861E081E10E94A2
:101B8000150861E082E10E94150861E083E10E948E
:101B9000150861E084E10E94150861E085E10E947A
:101BA000150861E086E10E94150861E087E10E9466
:101BB000150861E084E00E94150861E088E10E9458
:101BC000150861E089E10E94150861E08AE10E9440
:101BD000150861E08BE10E94150861E085E00E9434
:101BE000150861E08CE10E94150861E08DE10E941A
:101BF000150861E08EE10E94150861E08FE10E9406
:101C0000150861E086E00E94150861E080E20E940C
:101C1000150861E081E20E94150861E082E20E94FD
:101C2000150861E083E20E94150861E087E00E94E8
:101C3000150861E084E20E94150861E085E20E94D7
:101C4000150861E086E20E94150861E087E20E94C3
:101C5000150861E088E00E94150861E088E20E94B2
:101C6000150861E089E20E94150861E08AE20E949D
:101C7000150861E08BE20E94150861E089E00E948E
:101C8000150861E08CE20E94150861E08DE20E9477
:101C9000150861E08EE20E94150861E08FE20E9463
:101CA000150861E08AE00E94150861E080E30E9467
:101CB000150861E081E30E941508F89410928000F5
:101CC00010928100109285001092840083E294EFBC
:101CD0009093890080938800809181008860809330
:101CE00081008091810084608093810080916F00E9
:101CF000826080936F001092900010929100109279
:101D000095001092940087EE93E090939900809351
:101D1000980080919100886080939100809191005B
:101D20008160809391008091710082608093710046
:101D30007894E0910805F091090581E090E09C011C
:101D40000090140502C0220F331F0A94E2F720838B
:101D5000E0910405F09105051082E0910605F091EF
:101D6000070520E1208310921505E0910A05F09106
:101D70000B0540819C010090100502C0220F331F0B
:101D80000A94E2F7242B2083E0910A05F0910B05D9
:101D900040819C010090110502C0220F331F0A945C
:101DA000E2F7242B2083E0910A05F0910B05408196
:101DB0009C010090120502C0220F331F0A94E2F723
:101DC000242B2083E0910A05F0910B0520810090DF
:101DD000130502C0880F991F0A94E2F780958223A9
:101DE000808388E392E09F938F9326E633E13F93CD
:101DF0002F930E949F020F900F900F900F90CE0193
:101E000005969E838D83A8E5B4E1BCA7ABA780911E
:101E10008D04882311F40C94621810928D04809123
:101E20000B018B7F80930B0195B1392F292F2061F6
:101E3000922F25B940911A0550911B0560911C0500
:101E400070911D054132BEE45B076105710510F418
:101E50000C94E91B109219051092180510921F0599
:101E600010922005109221051092220580E092E048
:101E7000E3E2F5E09C01119221503040E1F7A3E24A
:101E8000B7E0FC011D923197E9F7109233111092DF
:101E900034111092351110923611109237111092A0
:101EA00038111092391110923A1110923B11109280
:101EB0003C1110923D1110923E11A3E2B9E0FC01D9
:101EC0001D923197E9F7A3E2BBE0FC011D92319727
:101ED000E9F7A3E2BDE0FC011D923197E9F7A3E227
:101EE000BFE0FC011D923197E9F710923F1110926B
:101EF0004011109241111092421110924311109210
:101F000044111092451110924611109247111092EF
:101F1000481110921A0510921B0510921C05109280
:101F20001D0510921E0510921705E0910805F0910D
:101F3000090580911505882319F0808186FFFDCF62
:101F4000109215058091160581110C94792B84E06F
:101F500090E0909319058093180525B12F7E25B93F
:101F6000C0903311D0903411E0903511F0903611BB
:101F7000C114D104E104F10411F00C94AF2B809151
:101F80006613909167138230910511F40C945C27CD
:101F900010F40C9447248430910511F40C94FA2722
:101FA00010F40C94A527059711F00C9450278CE0A1
:101FB0008093A11521E030E040E050E02093F1153E
:101FC0003093F2154093F3155093F41590911F053B
:101FD000911113C020933F11309340114093411150
:101FE000509342118093230581E080931F05109246
:101FF000F715109267131092661395B1906195B919
:10200000A0905614B0905714D50112968C91129747
:10201000882309F4E2C08D919C91009711F00C94F3
:10202000261D912C612C712CBBE48B2E29C0D7016D
:102030005896ED91FC9159979081992341F05496CF
:102040001C92549751961C92F801108A80E0869C4D
:10205000F001879CF00D1124E40DF51D9389911179
:102060000C94F71BA0905614B0905714982ABFEF09
:102070006B1A7B0AE7E06E16710411F40C941C1CB9
:102080006301CC0CDD1CCC0CDD1CCC0CDD1C8601F2
:10209000060D171D0A0D1B1DF8018089882331F3D9
:1020A0004090A4135090A513869C7001879CF00C5F
:1020B0001124E40CF51CD70154969C91549791116E
:1020C000B6CF53969C9191110C94F71BD701929621
:1020D0002D913D914D915C9195972F83388749873C
:1020E0005A875A962D913D914D915C915D972B8722
:1020F0003C874D875E876F81788589859A850E94A8
:10210000A53C9F77F70123A934A945A956A90E94A8
:10211000123D87FF02C00C940C2C2B853C854D850D
:102120005E856F81788589859A850E94123D87FF3B
:1021300022C0D7015896ED91FC9159978081882350
:10214000D1F0F801108A92968D919D910D90BC91DD
:10215000A02DF701828F938FA48FB58F118A22A1B2
:1021600033A144A155A12F83388749875A872B87EC
:102170003C874D875E872B853C854D855E856F81CD
:10218000788589859A850E946A3E181614F00C9409
:10219000382E869CD001879CB00D1124A40DB51D4E
:1021A0005696ED91FC9157978081C60CD71CF5018E
:1021B000EC0DFD1D882379F0108A92964D915D916A
:1021C0006D917C9195975A964D935D936D937C9309
:1021D0005D9751961C92808945CF80915A1488232F
:1021E00011F40C9416242BA53CA53093571420937E
:1021F000561448E554E15CA74BA78A01D8018D919C
:102200009C911197009709F0B4C4E090A413F0904A
:10221000A5131896BC91BF83F801F185FB87D801FF
:102220001A96BC91BB8FF801F385FD8F8F819B853A
:10223000AB2FBF2FF70180879187A287B387D70184
:102240001486158616861786F8018089882311F46E
:102250000C94442EF801818981110C94572F8588A4
:102260009688A788B08CA5019401D70192966D91AC
:102270007D918D919C9195970E94A53C9B01AC010D
:102280005F772F87388B498B5A8BD7015E962D93BA
:102290003D934D935C939197F701828E938EA48E1C
:1022A000B58E81E0818BF1E0FDA7CA01B90120E084
:1022B00030E0A9010E946A3E181614F00C94822D99
:1022C0002F85388949895A89D7011C962D933D93CA
:1022D0004D935C931F97DF84C88839882A88F8015A
:1022E000818D882311F40C948B2D828D81110C9497
:1022F0006C30868C978CA0A0B1A0A5019401F70149
:10230000E55AFF4FFC8BEB8B628973898489958931
:102310000E94A53C2B013C01E89477F8AB89BC896D
:102320001E964D925D926D927C925197FD01828630
:102330009386A486B58681E08183F1E0FEA7A301A0
:1023400092016D2D7C2D832D922D0E94123D87FFD1
:1023500009C0F7014486558666867786D42CC52C3D
:10236000362C272CD80192968C91882311F40C944A
:102370008C2EF80183A181110C94D52F27A130A5B3
:1023800041A552A52F8B388F498F5A8FF701EA55F7
:10239000FF4FFC8BEB8B62897389848995890E943E
:1023A000A53C4B015C01E894B7F8AB89BC891E964B
:1023B0008D929D92AD92BC9251972F89388D498D07
:1023C0005A8D1A962D933D934D935C931D9781E002
:1023D00011968C93B1E0BFA7A50194016D2D7C2DC2
:1023E000832D922D0E94123D87FF0BC0D7011C96B2
:1023F0008D929D92AD92BC921F97D82CC92C3A2CED
:102400002B2CF80183A5882311F40C947A2E84A533
:1024100081110C94AA2F20A931A942A953A92F8F69
:1024200038A349A35AA3F701EF50FF4FF88FEF8B62
:1024300062897389848995890E94A53C9B01AC01BE
:102440005F772B8B3C8B4D8B5E8BAF89B88D1E9647
:102450002D933D934D935C9351972F8D38A149A1B6
:102460005AA11A962D933D934D935C931D9781E04D
:1024700011968C93B1E0B8AB2B893C894D895E896C
:102480006D2D7C2D832D922D0E94123D87FF0FC054
:102490002B893C894D895E89D7011C962D933D93EC
:1024A0004D935C931F97DB88CC883D882E88F8017C
:1024B00084A9882311F40C94682E85A981110C94A9
:1024C0007F2F21AD32AD43AD54AD2BA33CA34DA323
:1024D0005EA3F701E45CFE4FF8A3EF8F6289738976
:1024E000848995890E94A53C9B01AC015F772F8B65
:1024F000388F498F5A8FAF8DB8A11E962D933D937B
:102500004D935C9351972BA13CA14DA15EA11A96CE
:102510002D933D934D935C931D9781E011968C9381
:10252000B1E0B9AB2F89388D498D5A8D6D2D7C2D39
:10253000832D922D0E94123D87FF0FC02F89388D69
:10254000498D5A8DD7011C962D933D934D935C93E5
:102550001F97DF88C88C398C2A8CF80185AD8823B9
:1025600011F40C94562E86ADF801FD962581368126
:102570004781508581110C9491302FA338A749A72A
:102580005AA7C70189579E4F9CA38BA3DC01529683
:102590006D917D918D919C9155970E94A53C9B01D9
:1025A000AC015F772F8F38A349A35AA3ABA1BCA17D
:1025B0001E962D933D934D935C9351972FA138A573
:1025C00049A55AA51A962D933D934D935C931D975B
:1025D00081E011968C93B1E0BAAB2F8D38A149A15F
:1025E0005AA16D2D7C2D832D922D0E94123D87FFC7
:1025F0000FC02F8D38A149A15AA1D7011C962D9348
:102600003D934D935C931F97DF8CC8A039A02AA0FF
:10261000F801EA5BFF4F8081882311F40C94982E17
:10262000818181110C94423085819681A781B0858A
:102630008BAB9CABADABBEAB9C01AD01D701AE5239
:10264000BE4FB8A7AFA352966D917D918D919C918D
:1026500055970E94A53C9B01AC015F772BA33CA33F
:102660004DA35EA3AFA1B8A51E962D933D934D93A8
:102670005C9351972BA93CA94DA95EA91A962D935D
:102680003D934D935C931D9781E011968C93B1E03F
:10269000BFA32BA13CA14DA15EA16D2D7C2D832D4F
:1026A000922D0E94123D87FF0FC02BA13CA14DA18E
:1026B0005EA1D7011C962D933D934D935C931F977C
:1026C000DBA0CCA03DA02EA0BDA5BB2309F449C032
:1026D000F701848981110C94AC2E838981110C94AB
:1026E000AC2E2F85388949895A896F817B858B8DDE
:1026F0009D8D0E946F3E2D2D3C2D432D522D0E940D
:10270000173D6DA77BABDC01AB01BC01F70147A313
:1027100050A761A772A76DA57BA99701205C3F4FC9
:10272000388B2F87F70123A534A545A556A5CD01E4
:102730000E946F3E9B01AC0160E074E284E799E483
:102740000E94173D20E030E040E851E40E946F3ED7
:102750000E94893DAF85B8896D937D938D939C933D
:102760001397FEA5FF2309F451C0F701E15AFF4F6B
:10277000808181110C94BB2EF701E25AFF4F8081BA
:1027800081110C94BB2EA30192016F817B858B8DEF
:102790009D8D0E946F3E2D2D3C2D432D522D0E946C
:1027A000173D562E472EDC01462F572FBC01C7017F
:1027B0008E589F4FFC01408351836283738337019E
:1027C0002BE8620E711CC7018A589F4FFC012081C3
:1027D000318142815381652D742DCD010E946F3E60
:1027E0009B01AC0160E074E284E799E40E94173D2C
:1027F00020E030E040E851E40E946F3E0E94893DB5
:10280000D3016D937D938D939C931397FFA5FF2325
:1028100009F451C0F701E655FF4F808181110C94F6
:10282000CA2EF701E755FF4F808181110C94CA2E03
:10283000A50194016F817B858B8D9D8D0E946F3EDC
:102840002D2D3C2D432D522D0E94173D962E872E67
:10285000DC01462F572FBC01C70183549F4FFC0159
:102860004083518362837383570126EDA20EB11C0E
:10287000C7018F539F4FFC012081318142815381D9
:10288000692D782DCD010E946F3E9B01AC0160E067
:1028900074E284E799E40E94173D20E030E040E8CC
:1028A00051E40E946F3E0E94893DD5016D937D9356
:1028B0008D939C931397F8A9FF2309F454C0F70153
:1028C000EB50FF4F808181110C94D92EF701EC5011
:1028D000FF4F808181110C94D92E2B893C894D8921
:1028E0005E896F817B858B8D9D8D0E946F3E2D2D26
:1028F0003C2D432D522D0E94173D962E872EDC0134
:10290000462F572FBC01C701885F9E4FFC014083B3
:1029100051836283738357012FEDA21A2EEFB20AFF
:10292000C701845F9E4FFC01208131814281538128
:10293000692D782DCD010E946F3E9B01AC0160E0B6
:1029400074E284E799E40E94173D20E030E040E81B
:1029500051E40E946F3E0E94893DD5016D937D93A5
:102960008D939C931397F9A9FF2309F454C0F701A1
:10297000E05CFE4F808181110C94E82EF701E15C50
:10298000FE4F808181110C94E82E2F89388D498D5E
:102990005A8D6F817B858B8D9D8D0E946F3E2D2D75
:1029A0003C2D432D522D0E94173D962E872EDC0183
:1029B000462F572FBC01C7018D5A9E4FFC01408303
:1029C000518362837383570124E9A21A2EEFB20A5E
:1029D000C701895A9E4FFC01208131814281538178
:1029E000692D782DCD010E946F3E9B01AC0160E006
:1029F00074E284E799E40E94173D20E030E040E86B
:102A000051E40E946F3E0E94893DD5016D937D93F4
:102A10008D939C931397FAA9FF2309F454C0F701EF
:102A2000E557FE4F808181110C94F72EF701E65790
:102A3000FE4F808181110C94F72E2F8D38A149A172
:102A40005AA16F817B858B8D9D8D0E946F3E2D2DB0
:102A50003C2D432D522D0E94173D962E872EDC01D2
:102A6000462F572FBC01C70182569E4FFC01408361
:102A7000518362837383570129E4A21A2EEFB20AAD
:102A8000C7018E559E4FFC012081318142815381C7
:102A9000692D782DCD010E946F3E9B01AC0160E055
:102AA00074E284E799E40E94173D20E030E040E8BA
:102AB00051E40E946F3E0E94893DD5016D937D9344
:102AC0008D939C931397FFA1FF2309F44FC0F70147
:102AD000EA52FE4F808181110C94062FF701EB52D0
:102AE000FE4F808181110C94062F2BA13CA14DA19A
:102AF0005EA16F817B858B8D9D8D0E946F3E2D2DFC
:102B00003C2D432D522D0E94173D6F837B878B8F69
:102B10009D8FCB01AB8DBD8DF701E751FE4F8083BB
:102B20009183A283B383CD016701B2E0CB0EDB1E9C
:102B3000F701E351FE4F20813181428153810E9490
:102B40006F3E9B01AC0160E074E284E799E40E946F
:102B5000173D20E030E040E851E40E946F3E0E94C3
:102B6000893DF6016083718382839383D8018D91BF
:102B70009C918130910511F40C94602D029709F419
:102B8000ABC295B19F7E8091AC13882399F0809160
:102B9000AD1381110FC08091B6132091491530916A
:102BA0004A15882311F40C94942B2230310510F42B
:102BB0000C94212F1092B613906195B9E091A61351
:102BC000F091A7138081882309F472C1108240E03C
:102BD00050E0E091A613F091A71331E6349FD001A5
:102BE000359FB00D1124AE0FBF1F54968C918633C4
:102BF00008F0865390917B00282F2870977F922BA6
:102C000090937B008770806480937C0080917A0031
:102C1000806480937A0080917A0086FDFCCF809159
:102C2000780020917900349FD001359FB00D112498
:102C3000AE0FBF1F90E0922B56969C938E935597A4
:102C40004F5F5F4F4430510549F67F01828D8111FE
:102C50000C943226F701E558FF4F808181110C94C6
:102C60001426F701E452FF4F808181110C94F62560
:102C7000F701E35CFE4F808181110C94D8257BE144
:102C8000472E512C612C712CE1E63E2E8824839432
:102C9000912C22242394369CC001379C900D112442
:102CA000F701E80FF91F23812111EEC425812223AA
:102CB000A9F0A385B4859401058402C0220F331FB7
:102CC0000A94E2F720953C9123232C93E090A613DD
:102CD000F090A713F701E80FF91F1582FFEF6F1AA5
:102CE0007F0A21E6420E511C34E06316710499F606
:102CF000D70114968C91149781115CC655966D91ED
:102D00007C915697072E000C880B990B0E94BA3DB8
:102D100020EB3FE84DE853E40E946A3EF7011816A5
:102D200014F40C94832687818823B1F0D70117828D
:102D30000684F785E02D81E090E050960C9002C06B
:102D4000880F991F0A94E2F78095908189238083E8
:102D5000E090A613F090A7131091BA02F701EB5977
:102D6000FF4F808181114DC6719660817181072E60
:102D7000000C880B990B0E94BA3D20EB3FE84DE810
:102D800053E40E946A3EF701E859FF4F181614F405
:102D90000C94532680818823C1F0108237960190CD
:102DA000F081E02DD701AF58BF4F81E090E00C904B
:102DB00002C0880F991F0A94E2F7809590818923B9
:102DC0008083E090A613F090A713F701EA53FF4F1A
:102DD00080818111CAC5719660817181072E000CB6
:102DE000880B990B0E94BA3D20EB3FE84DE853E475
:102DF0000E946A3EF701E753FF4F181614F40C9433
:102E0000BE2680818823C1F0108237960190F08120
:102E1000E02DD701AE52BF4F81E090E00C9002C090
:102E2000880F991F0A94E2F7809590818923808307
:102E3000E090A613F090A713F701E95DFE4F8081A3
:102E400081116CC5719660817181072E000C880B11
:102E5000990B0E94BA3D20EB3FE84DE853E40E94F5
:102E60006A3EF701E65DFE4F181614F40C94002735
:102E700080818823A1F0108237960190F081E02DA7
:102E8000D701AD5CBE4F81E090E00C9002C0880F8E
:102E9000991F0A94E2F7809590818923808381E0CD
:102EA000810F8093BA02843610F01092BA0295B165
:102EB0009F7E95B90091A4131091A513D8018C9110
:102EC000882339F01C9212968C91129781110C94E0
:102ED0008129F801838181110C94070F1092BB02A4
:102EE0008189882311F40C94CD2587A9811129C0EB
:102EF000F801E05CFF4F4081518162817381D8010C
:102F0000D8964D935D936D937C93DB9781E0D79634
:102F10008C93D797DC968D919D910D90BC91A02DAF
:102F20000097A105B10569F0840F951FA61FB71F73
:102F3000F80180AF91AFA2AFB3AF14AE15AE16AE2D
:102F400017AEF80140AD51AD62AD73AD81E0F8014F
:102F5000E45AFF4F90819923A9F0B6969081D80149
:102F6000992311F40C941A2CAD57BF4FCD90DD90DE
:102F7000ED90FC904C155D056E057F0518F0B701CE
:102F8000A60181E0F801E955FF4F90819923A9F04E
:102F9000B6969081D801992311F40C94462CA25333
:102FA000BF4FCD90DD90ED90FC904C155D056E050A
:102FB0007F0518F0B701A60181E0F801EE50FF4F40
:102FC00090819923A9F0B6969081D801992311F4A4
:102FD0000C94722CA75EBE4FCD90DD90ED90FC90CE
:102FE0004C155D056E057F0518F0B701A60181E05F
:102FF000F801E35CFE4F90819923A9F0B696908189
:10300000D801992311F40C94CA2CAC59BE4FCD9021
:10301000DD90ED90FC904C155D056E057F0518F078
:10302000B701A60181E0F801E857FE4F908199238E
:1030300009F45FC4B6969081D801992311F40C94D9
:103040009E2CA155BE4FCD90DD90ED90FC904C157F
:103050005D056E057F0508F44CC4F801ED52FE4F86
:1030600080818823C1F0B701A60181E0F801E75013
:10307000FE4F9081D801992311F40C94F62CA650A0
:10308000BE4FCD90DD90ED90FC904C155D056E052A
:103090007F0508F434C481E08093BB02B701A60128
:1030A000F801448355836683778381E08383E091CD
:1030B000A413F091A51381E0838380918D04811185
:1030C0000C940D0F81E080938D0480910B0184603E
:1030D00080930B010C94140FF801848195818D303D
:1030E000910511F40C946F3410F40C94EF3280318C
:1030F000910511F40C942E358131910511F40C9445
:103100001E360F9709F03DCDE090A413F090A51363
:10311000F801EB5BFF4F4081518162817381D701E0
:1031200018964D935D936D937C931B97D8015B9696
:103130008C915B9781110C94D03892968C91882356
:10314000A1F04081518162817381D70197964D939F
:103150005D936D937C939A9781E054968C935497EA
:1031600053961C92539751968C93D8015C968C91F0
:103170005C9781110C94EC3893968C9181110C948E
:10318000EB399701225A3F4F4901A701445A5F4F3B
:103190005C8B4B8BD8015D968C915D9781110C9463
:1031A000D63994968C9181110C94B8399701275592
:1031B0003F4F5901A70149555F4F58874F83D801A9
:1031C0005E968C915E9781110C94A33995968C91A3
:1031D00081110C94853997012C503F4F6901A7014B
:1031E0004E505F4F5C874B87D8015F968C915F97FD
:1031F00081110C946F3996968C9181110C945039F1
:103200009701215C3E4F3901A701435C5E4F5C8F03
:103210004B8FD80190968C91909781110C94E63742
:1032200097968C9181110C94C737970126573E4F82
:103230002901A70148575E4F5E8F4D8FD8019196A7
:103240008C91919781110C94AA3798968C91811149
:103250000C948F37F701EB52FE4F1F0197012D524F
:103260003E4F388B2F87D8011D921C92F70183891E
:1032700081110C948C3781E09489911101C080E018
:10328000D80150968C93F401808181110C94893778
:1032900081E0F701E15AFF4F9081911101C080E078
:1032A000D80159968C93F501808181110C94863751
:1032B00081E0F701E655FF4F9081911101C080E058
:1032C000D80192968C93F601808181110C94653718
:1032D00081E0F701EB50FF4F9081911101C080E038
:1032E000D8019B968C93F301808181110C946F37E8
:1032F00081E0F701E05CFE4F9081911101C080E018
:10330000D801D4968C93F201808181110C94793785
:1033100081E0F701E557FE4F9081911101C080E0F7
:10332000D801DD968C93F101808181110C94833753
:1033300081E0F701EA52FE4F9081911101C080E0D7
:10334000F801EA5BFF4F8083D70151968C9151972A
:10335000882379F154968C91882311F40C941D38AC
:10336000F701608571858285938567A370A781A722
:1033700092A78701005C1F4FF70123A534A545A53F
:1033800056A50E946F3E9B01AC0160E074E284E7A9
:1033900099E40E94173D20E030E040E851E40E94AB
:1033A0006F3E0E94893DD8016D937D938D939C93D0
:1033B0001397AB89BC898C918823B9F1F701E15A45
:1033C000FF4F8081882311F40C943C38D701189664
:1033D0006D917D918D919C911B97F701EE58FF4F58
:1033E0006083718382839383870105571F4FF701A1
:1033F000EA58FF4F20813181428153810E946F3E04
:103400009B01AC0160E074E284E799E40E94173DFF
:1034100020E030E040E851E40E946F3E0E94893D88
:10342000F8016083718382839383AF81B8858C9127
:103430008823B9F1F701E655FF4F8081882311F405
:103440000C946138D70118966D917D918D919C9166
:103450001B97F701E354FF4F60837183828393834B
:1034600087010A521F4FF701EF53FF4F208131812F
:10347000428153810E946F3E9B01AC0160E074E287
:1034800084E799E40E94173D20E030E040E851E4F1
:103490000E946F3E0E94893DF801608371838283A0
:1034A0009383AB85BC858C918823B9F1F701EB50F0
:1034B000FF4F8081882311F40C948638D701189629
:1034C0006D917D918D919C911B97F701E85FFE4F67
:1034D000608371838283938387010F5D1E4FF701A1
:1034E000E45FFE4F20813181428153810E946F3E13
:1034F0009B01AC0160E074E284E799E40E94173D0F
:1035000020E030E040E851E40E946F3E0E94893D97
:10351000F8016083718382839383AB8DBC8D8C9122
:103520008823B9F1F701E05CFE4F8081882311F414
:103530000C94AB38D70118966D917D918D919C912B
:103540001B97F701ED5AFE4F60837183828393834B
:10355000870104591E4FF701E95AFE4F208131813E
:10356000428153810E946F3E9B01AC0160E074E296
:1035700084E799E40E94173D20E030E040E851E400
:103580000E946F3E0E94893DF801608371838283AF
:103590009383AD8DBE8D8C918823B9F1F701E557EA
:1035A000FE4F8081882311F40C942939D701189695
:1035B0006D917D918D919C911B97F701E256FE4F85
:1035C0006083718382839383870109541E4FF701BF
:1035D000EE55FE4F20813181428153810E946F3E22
:1035E0009B01AC0160E074E284E799E40E94173D1E
:1035F00020E030E040E851E40E946F3E0E94893DA7
:10360000F8016083718382839383AF85B8898C913D
:10361000882309F4B6CAF701EA52FE4F8081882355
:1036200011F40C940439D70118966D917D918D9108
:103630009C911B97F701E751FE4F60837183828352
:10364000938387010E5F1D4FF701E351FE4F2081E9
:103650003181428153810E946F3E9B01AC0160E049
:1036600074E284E799E40E94173D20E030E040E8EE
:1036700051E40E946F3E0E94893DF801608371838E
:103680008283938395B17ECAC588D6888789908DB9
:10369000C81AD90ADF01A45ABF4F8D919C91119786
:1036A000A601481B590B16968C91811108C0E05A4F
:1036B000FF4F808191818C0D9D1D91838083369C6D
:1036C000C001379C900D1124D701A80FB91FA55A2E
:1036D000BF4F2C91E22FF0E03C96EE0FFF1F8E0FB4
:1036E0009F1FF701E80FF91FD482C3822F5F20329A
:1036F00008F0BDC02C93F701E40DF51D9201205C8C
:103700003F4F2E0D3F1D00E010E081919191080F79
:10371000191FE217F307C9F75601D7FE02C00C9430
:103720001E27B594A794B594A79457FF02C00C9494
:103730001A275595479555954795A40EB51E369C65
:10374000F001379CF00D1124EE0DFF1DA385B4850B
:10375000C401058402C0880F991F0A94E2F7B7FEDE
:1037600002C00C94D22580959C9189238C9315825C
:10377000369CC001379C900D11248E0D9F1DFC01BD
:10378000ED59FF4F2081222309F473C0215020837B
:1037900031978081882309F48FC0369CF001379CD3
:1037A000F00D1124EE0DFF1D1186369CC001379CD3
:1037B000900D1124E80EF91EF701E45AFF4FD18253
:1037C000C0823296B182A082E090A613F090A71337
:1037D00085CAE0911805F0911905EB31F10508F45F
:1037E00056C110921905109218050C94AE0F869CC4
:1037F000F001879CF00D1124E40DF51DA689B78911
:103800009C91992311F40C943210138A118AC60CDE
:10381000D71CF501EC0DFD1D108AA0905614B09038
:10382000571480E0982ABFEF6B1A7B0AE7E06E1608
:10383000710411F00C944010D5018D919C91019769
:1038400011F40C94102B91109CC9D50112961C9266
:10385000129713968C91811106C180914915909110
:103860004A15019790934A1580934915FFC01C9201
:1038700042CFFC01EE59FF4FF887EF8320812223CE
:10388000D9F03697808191811816190614F00C949E
:10389000182FD7FE82CF28E832E03F932F9386E699
:1038A00093E19F938F930E949F02EF81F88510828E
:1038B0000F900F900F900F9017FF02C00C947E2D69
:1038C00015950795159507951595079515950795E0
:1038D000159507950E5E1F4F0532110508F05DCF57
:1038E000369CF001379CF00D1124EE0DFF1D218652
:1038F0005CCFF801ED52FE4F90819111B7CB8093D0
:10390000BB028111CDCB88EE93E0A0E0B0E0F801DE
:1039100084839583A683B7831382C9CBF701E65DC1
:10392000FE4F808181110C9471261111B8CA37960F
:103930000190F081E02DD701AD5CBE4F81E090E0B9
:103940000C9002C0880F991F0A94E2F79081892B8E
:103950008083E091A613F091A713E65DFE4F81E00E
:1039600080838093BA0295B1A3CAF701E753FF4F52
:10397000808181110C94DC2611115ECA379601906A
:10398000F081E02DD701AE52BF4F81E090E00C9066
:1039900002C0880F991F0A94E2F79081892B8083D7
:1039A000E090A613F090A713F701E753FF4F81E0D3
:1039B000808342CAF70187811091BA0281110C9469
:1039C000A1261111CBC90684F785E02D81E090E096
:1039D000D70150960C9002C0880F991F0A94E2F705
:1039E0009081892B8083E090A613F090A71381E04B
:1039F000F7018783F701EB59FF4F8081882309F492
:103A0000B3C9F701E859FF4F808181110C94EE266C
:103A10001111DBC937960190F081E02DD701AF5825
:103A2000BF4F81E090E00C9002C0880F991F0A946C
:103A3000E2F79081892B8083E090A613F090A71382
:103A4000F701E859FF4F81E08083BFC9019711F466
:103A50000C940F2BD50112961C92129713968C91F1
:103A6000882309F4FACE81E08093F715F5011282DC
:103A7000138234968BE4DF011D928A95E9F7E6EF15
:103A8000F4E1F0935714E093561495B17BC888275E
:103A9000EE58FF4F8F4F0C949641809137119091C3
:103AA0003811A0913911B0913A11FC01EE0FFF1FAE
:103AB000EE0FFF1FED5DFE4E40913F115091401102
:103AC00060914111709142114083518362837383ED
:103AD000409133115091341160913511709136112C
:103AE0004F5F5F4F6F4F7F4F4093331150933411AF
:103AF00060933511709336110196A11DB11D84306C
:103B00009105A105B10510F40C94513310923711B1
:103B1000109238111092391110923A1110921A0520
:103B200010921B0510921C0510921D0587E090E075
:103B30000C94A90F10921F0510921A0510921B05E4
:103B400010921C0510921D0587E090E090931905D6
:103B5000809318050C94AE0F10921A0510921B0555
:103B600010921C0510921D0587E090E090931905B6
:103B7000809318050C94AE0F10921A0510921B0535
:103B800010921C0510921D058AE190E09093190592
:103B9000809318050C94AE0F4091020550910305D7
:103BA000DA01A05CBF4F2D913C9111972F5F3F4FE1
:103BB0002F733327FA01EE5BFF4F808191818217CB
:103BC0009307D9F38D919C911197FA01E80FF91F92
:103BD0008BE0808311963C932E93E0910A05F0913F
:103BE0000B05208181E090E00090130502C0880F52
:103BF000991F0A94E2F7822B808381E08093150558
:103C0000E0910805F09109058081806480834091EE
:103C1000431150914411609145117091461180916A
:103C20003F1190914011A0914111B091421148175C
:103C300059076A077B0710F40C944E3287E190E035
:103C4000909319058093180510921A0510921B0580
:103C500010921C0510921D0525B10C94AE0FC0905A
:103C60004311D0904411E0904511F090461180919D
:103C70003F1190914011A0914111B09142114C011E
:103C80005D018C189D08AE08BF08809100059091D9
:103C90000105AC01405C5F4FB0E28B169104A104BA
:103CA000B10410F40C945632FA016081718132969D
:103CB000A081B1816A1B7B0B6F737727603271051E
:103CC00014F40C949E2B20913711220F28AF1FAAB9
:103CD0002FA938AD2C0D3D1DD901AD5DB64FBD01ED
:103CE000605E7F4F6C017A018F015D0102C0A70108
:103CF000F801DA014D915C9120813181421753071F
:103D000011F40C94013920813181820F931FDC0161
:103D10002C918081918101968F7399279183808363
:103D2000822FF50181935F01C601E617F707F9F6C7
:103D30008091431190914411A0914511B091461189
:103D40008096A11DB11D8093431190934411A093BF
:103D50004511B093461186E190E090931905809348
:103D6000180572CF10923F1110924011109241111C
:103D7000109242112091000530910105A901405C8B
:103D80005F4FFA01608171813296A081B1816A1B17
:103D90007B0B6F737727643071050CF4A4C0DA01D4
:103DA0006D917C91808191816817790711F40C9451
:103DB000733AA081B181A20FB31FCC906081718151
:103DC0006F5F7F4F6F73772771836083D12CE12CF6
:103DD000F12CDA016D917C918081918168177907CE
:103DE00011F40C946D3AA081B181A20FB31F8C9194
:103DF000608171816F5F7F4F6F73772771836083FD
:103E000090E0A0E0B0E04424582E692E7A2EDA012A
:103E10000D911C91608171810617170711F40C94A4
:103E2000673A60817181620F731FDB018C90608142
:103E300071816F5F7F4F6F73772771836083912CE0
:103E4000A12CB12C540199248824DA016D917C9124
:103E5000408151816417750711F40C94613A4081D7
:103E60005181240F351FD9014C91208131812F5F61
:103E70003F4F2F7333273183208350E060E070E0A1
:103E8000742F662755274427D301C2018C299D2909
:103E9000AE29BF29882A992AAA2ABB2A4829592942
:103EA0006A297B2940933F1150934011609341113F
:103EB00070934211109248111092431110924411C4
:103EC000109245111092461110921A0510921B057E
:103ED00010921C0510921D0585E190E09093190544
:103EE0008093180595B1292F0C94AE0F0091000511
:103EF00010910105A801405C5F4FDA012D913C91C2
:103F0000119712966D917C911197261B370B2F7389
:103F10003327232B11F1FA01408151812D913C91DE
:103F200011974217530799F08D919C911197F801C1
:103F3000E80FF91F20818D919C91119701968F7345
:103F4000992711969C938E93223091F095B124E09D
:103F500030E0309319052093180510921A0510923D
:103F60001B0510921C0510921D05292F0C94AE0FF5
:103F700081E08093170587E090E090931905809386
:103F8000180595B1EACF4091020550910305DA0179
:103F9000A05CBF4F2D913C9111972F5F3F4F2F7326
:103FA0003327FA01EE5BFF4F8081918182179307DF
:103FB000D9F38D919C911197FA01E80FF91F84E0D4
:103FC000808311963C932E93E0910A05F0910B05A6
:103FD000208181E090E00090130502C0880F991FB6
:103FE0000A94E2F7822B808381E080931505E091AB
:103FF0000805F091090580818064808310921A057C
:1040000010921B0510921C0510921D0586E090E091
:10401000909319058093180525B10C94AE0F00916B
:10402000000510910105A801405C5F4FFA01208155
:104030003181D801AE5BBF4F6D917C911197261BEA
:10404000370B2F733327232B09F487CFFA014081D5
:1040500051812D913C9111974217530709F477CF65
:104060008D919C911197F801E80FF91F20818D9196
:104070009C91119701968F73992711969C938E931B
:10408000213009F063CF85E090E09093190580938B
:10409000180595B162CF81E08093170587E090E025
:1040A00090931905809318054091020550910305DE
:1040B000DA01A05CBF4F2D913C9111972F5F3F4FCC
:1040C0002F733327FA01EE5BFF4F808191818217B6
:1040D0009307D9F38D919C911197FA01E80FF91F7D
:1040E00082E0808311963C932E93E0910A05F09133
:1040F0000B05208181E090E00090130502C0880F3D
:10410000991F0A94E2F7822B808381E08093150542
:10411000E0910805F0910905808180648083109208
:104120001A0510921B0510921C0510921D0525B151
:104130000C94AE0FA0900005B09001057501F0E45D
:10414000EF0EF11CD7010D911C9111971296CD9095
:10415000DC9011970C191D090F731127012B11F415
:104160000C941F34F701408151812D913C9111979E
:1041700042175307A9F08D919C911197F501E80F13
:10418000F91F20818D919C91119701968F7399272A
:1041900011969C938E93243011F40C944E3795B164
:1041A00021E030E03093190520931805D6CEE09138
:1041B0000005F0910105DF01A05CBF4F8D919C913E
:1041C0001197EE5BFF4F14C02D913C9111978081A8
:1041D00091812817390749F08081918180819181EF
:1041E00001968F739927918380838D919C9111976C
:1041F00020813181821B930B8F739927892B21F7A3
:104200002091020530910305F901E05CFF4F8081A8
:10421000918101968F739927D901AE5BBF4F4D9164
:104220005C91119748175907D1F340815181D90109
:10423000A40FB51F41E04C9391838083E0910A0560
:10424000F0910B05208181E090E00090130502C001
:10425000880F991F0A94E2F7822B808340931505FB
:10426000E0910805F09109058081806480831092B7
:104270001A0510921B0510921C0510921D0582E074
:1042800090E0909319058093180525B10C94AE0F1A
:10429000E0900005F0900105B701605C7F4FDB0105
:1042A0004D915C91119712960D911C911197401BA5
:1042B000510B4F735527452B11F40C949E2BFB018A
:1042C000408151812D913C91119742175307A9F0DC
:1042D0008D919C911197F701E80FF91F20818D9125
:1042E0009C91119701968F73992711969C938E93A9
:1042F0002B3011F40C94013495B128E130E0309367
:10430000190520931805292F0C94AE0FC0903F116A
:10431000D0904011E0904111F09042114091431132
:104320005091441160914511709146119701860199
:10433000041B150B260B370B435F5F4F0032110533
:104340002105310510F40C948D31DA01AA5EBA4FC3
:104350007D0130E2E30EF11C01E010E0DD24D39496
:10436000CD906091020570910305AB01405C5F4FF9
:10437000FA01208131812F5F3F4F2F73332732960F
:104380008081918182179307D9F3FA01808191810D
:10439000FB01E80FF91FC082FA0131832083E0910D
:1043A0000A05F0910B052081C8010090130502C099
:1043B000880F991F0A94E2F7822B8083D09215050B
:1043C000E0910805F0910905808180648083EA16F8
:1043D000FB0631F68091431190914411A091451153
:1043E000B09146118096A11DB11D80934311909309
:1043F0004411A0934511B093461195B110921A053E
:1044000010921B0510921C0510921D052FE030E044
:104410003093190520931805292F0C94AE0F309175
:104420003F112091401190914111809142113983A7
:104430002A839B838C8310924711DE01119641E001
:1044400050E0FF24F394ED900091020510910305D4
:10445000B801605C7F4FFB01208131812F5F3F4FAE
:104460002F73332732968081918182179307D9F376
:10447000FB0180819181F801E80FF91FE082FB01C7
:1044800031832083E0910A05F0910B052081CA0158
:104490000090130502C0880F991F0A94E2F7822B3F
:1044A0008083F0921505E0910805F091090580815F
:1044B000806480832D813E812A173B0721F610926C
:1044C00043111092441110924511109246118EE042
:1044D00090E0909319058093180525B10C94AE0FC8
:1044E000E0900005F0900105B701605C7F4FDB01B3
:1044F0004D915C91119712960D911C911197401B53
:10450000510B4F735527452B11F40C949E2BFB0137
:10451000408151812D913C91119742175307D1F061
:104520008D919C911197F701E80FF91F20818D91D2
:104530009C91119701968F73992711969C938E9356
:10454000263011F40C944537283009F4EFCA253091
:1045500051F095B127E030E030931905209318050C
:10456000292F0C94AE0F80911605811175CB809187
:10457000331190913411A0913511B09136110497F7
:10458000A105B10510F00C943C378AE090E09093BF
:1045900019058093180525B10C94AE0F40910205C2
:1045A00050910305DA01A05CBF4F2D913C9111970A
:1045B0002F5F3F4F2F733327FA01EE5BFF4F808150
:1045C000918182179307D9F38D919C911197FA01EC
:1045D000E80FF91F86E0808311963C932E93E091BB
:1045E0000A05F0910B05208181E090E00090130511
:1045F00002C0880F991F0A94E2F7822B808381E022
:1046000080931505E0910805F0910905808180648B
:10461000808310921A0510921B0510921C051092AF
:104620001D0582E190E0909319058093180525B14E
:104630000C94AE0F89E190E09093190580931805D2
:1046400010921A0510921B0510921C0510921D0560
:104650000C94AE0F4091020550910305DA01A05C65
:10466000BF4F2D913C9111972F5F3F4F2F733327F1
:10467000FA01EE5BFF4F8081918182179307D9F396
:104680008D919C911197FA01E80FF91F85E08083C5
:1046900011963C932E93E0910A05F0910B05208131
:1046A00081E090E00090130502C0880F991F0A94E2
:1046B000E2F7822B808381E080931505E091080565
:1046C000F091090580818064808310921A05109210
:1046D0001B0510921C0510921D058BE090E0909335
:1046E00019058093180525B10C94AE0F10921A0588
:1046F00010921B0510921C0510921D05E0900005FC
:10470000F0900105B701605C7F4FFB014081518152
:10471000D701AE5BBF4F0D911C911197401B510B00
:104720004F735527452B11F40C94E132FB01408166
:1047300051812D913C9111974217530709F40ACFEB
:104740008D919C911197F701E80FF91F20818D91B0
:104750009C91119701968F73992711969C938E9334
:10476000213011F40C942735253009F0F2CE8091D8
:104770001605882309F4FBCE80911F05882309F4D0
:10478000F6CE88E090E0909319058093180525B146
:104790000C94AE0F4091020550910305DA01A05C24
:1047A000BF4F2D913C9111972F5F3F4F2F733327B0
:1047B000FA01EE5BFF4F8081918182179307D9F355
:1047C0008D919C911197FA01E80FF91F88E0808381
:1047D00011963C932E93E0910A05F0910B052081F0
:1047E00081E090E00090130502C0880F991F0A94A1
:1047F000E2F7822B808381E080931505E091080524
:10480000F091090580818064808310921A051092CE
:104810001B0510921C0510921D0587E090E09093F7
:1048200019058093180525B10C94AE0F20914915F8
:1048300030914A15232B11F40C94C2152091451583
:10484000309146158FE4829F8001839F100D1124C3
:1048500008541C4E109357140093561441E050E036
:104860002115310511F040E050E05093461540937A
:1048700045158FE4829FF001839FF00D1124E654CB
:10488000FC4E808181110C94FE100C94C21500978F
:1048900009F4DDC2019709F003C381E08093A115FB
:1048A000E091A413F091A51382A193A1A4A1B5A1B5
:1048B0008093741390937513A0937613B09377132A
:1048C000DF01A359BF4F8D919D910D90BC91A02DFB
:1048D0008093781390937913A0937A13B0937B13FA
:1048E000DF01A854BF4F8D919D910D90BC91A02DDB
:1048F00080937C1390937D13A0937E13B0937F13CA
:10490000DF01AD5FBE4F8D919D910D90BC91A02DAB
:104910008093801390938113A0938213B093831399
:10492000DF01A25BBE4F8D919D910D90BC91A02D9A
:104930008093841390938513A0938613B093871369
:10494000DF01A756BE4F8D919D910D90BC91A02D7A
:104950008093881390938913A0938A13B0938B1339
:10496000EC51FE4F80819181A281B38180938C13A1
:1049700090938D13A0938E13B0938F13E091AA138D
:10498000F091AB1352805092681360846092691367
:10499000768470926A13848880926B13928C9092C2
:1049A0006C13A0A0A0926D13B6A0B0926E13C4A415
:1049B000C0926F13D2A8D0927013E0ACE092711342
:1049C000F6ACF0927213EC5BFF4F40804092731391
:1049D0000091A6131091A713D80155966D917C9163
:1049E0005697072E000C880B990B0E94BA3D6093D6
:1049F0009013709391138093921390939313F801F3
:104A000081858093A013EA58FF4F60817181072E42
:104A1000000C880B990B0E94BA3D6093941370931D
:104A200095138093961390939713F801E659FF4FCF
:104A300080818093A113E359FF4F60817181072E1C
:104A4000000C880B990B0E94BA3D609398137093E9
:104A5000991380939A1390939B13F801E553FF4F9A
:104A600080818093A213E359FF4F60817181072EEB
:104A7000000C880B990B0E94BA3D60939C137093B5
:104A80009D1380939E1390939F13F801E45DFE4F56
:104A900080818093A3135092A2156092A315709207
:104AA000A4158092A5159092A615A092A715B09274
:104AB000A815C092A915D092AA15E092AB15F09254
:104AC000AC154092AD15EEEAF5E1AAECB5E1AD0109
:104AD000CF018A539240DC012D913C911197318393
:104AE000208312968D919C911397938382833496A1
:104AF0004E175F0769F7DA01FD01EA53F240808142
:104B0000918111969C938E938281938113969C93AD
:104B10008E931297149635E1AA3DB30769F78091F9
:104B2000A0138093DA158091A1138093DB158091F7
:104B3000A2138093DC158091A3138093DD152DE3E0
:104B400030E040E050E02093F1153093F2154093AF
:104B5000F3155093F41580911F0581110C94FD0FEE
:104B60008DE390E0A0E0B0E080933F11909340117E
:104B7000A0934111B0934211E1EAF5E1A3E2B5E05F
:104B800001900D928A95E1F781E080931F051092C4
:104B90006713109266130C94FD0F4FEF5FEFBA018D
:104BA0000C94A7179C91892B8C9325820C94B81B8D
:104BB0001082EF5BFF4F1082319611821082329685
:104BC0001182108232961182108281E032968083A7
:104BD00080E23196808340E450E06FEF70E0C701DF
:104BE000825C9E4F0E942F3C0C943F161082EF5B1C
:104BF000FF4F1082319611821082329611821082FC
:104C000032961182108281E03296808380E2319662
:104C1000808340E450E06FEF70E0C70183529F4F04
:104C20000E942F3C0C9438161082EF5BFF4F1082CD
:104C30003196118210823296118210823296118240
:104C4000108281E03296808380E23196808340E456
:104C500050E06FEF70E0C70184589F4F0E942F3CD7
:104C60000C943116128EE55AFF4F10823196118244
:104C70001082329611821082329611821082329600
:104C800081E08083319680E2808340E450E06FEFE2
:104C900070E0C7014B960E942F3CE090A613F09065
:104CA000A7130C942A16808181110C94E51681E0DB
:104CB000808337960190F081E02DD701AF58BF4F28
:104CC00081E090E00C9002C0880F991F0A94E2F7EF
:104CD0009081892B8083E090A613F090A7130C9409
:104CE000E516D701A55DBE4F8C91181710F40C94F2
:104CF0004F171082F701EF5CFE4F0190F081E02D1D
:104D000018960C944317878181110C94AC1681E09E
:104D1000D70187830684F785E02D81E090E05096E7
:104D20000C9002C0880F991F0A94E2F79081892B9A
:104D30008083E090A613F090A7131091BA020C9410
:104D4000AE16D7018085181710F40C94AE16178292
:104D50000684F785E02D81E090E050960C9002C02B
:104D6000880F991F0A94E2F78095908189238083A8
:104D7000E090A613F090A7130C94AE1680818111D9
:104D80000C941C1781E0808337960190F081E02D10
:104D9000D701AE52BF4F81E090E00C9002C0880F67
:104DA000991F0A94E2F79081892B8083E090A613E3
:104DB000F090A7130C941C17D701A653BF4F8C91EA
:104DC000181710F40C941C171082F701E053FF4FD2
:104DD0000190F081E02D18960C940C17D701A7597B
:104DE000BF4F8C91181710F40C94E5161082F70140
:104DF000E159FF4F0190F081E02D18960C94D516E3
:104E0000808181110C944F1781E080833796019047
:104E1000F081E02DD701AD5CBE4F81E090E00C90B9
:104E200002C0880F991F0A94E2F79081892B808332
:104E30000C944F174D5F5F4F0C94991BB3E0AB0E72
:104E4000B11C0C94911B1092671310926613809101
:104E5000FA19882351F080911F05811106C08091B5
:104E6000B713882311F40C94F9338091F715882334
:104E700031F085E090E09093671380936613E091A2
:104E8000AA13F091AB138081882311F40C94FD0FC9
:104E900084E090E090936713809366130C94FD0F69
:104EA00010926713109266130C94FD0F82E090E04D
:104EB00090936713809366131092A1151F921F920F
:104EC0001F9211E01F931F9282E08F931F921F92F7
:104ED0008EE592E09F938F9382EA95E19F938F9363
:104EE0000E943D3CE2EAF5E101900020E9F7AF01C4
:104EF000425A5541CA01A0E0B0E08093F115909369
:104F0000F215A093F315B093F4150FB6F894DEBF25
:104F10000FBECDBF20911F0521110C94FD0F809372
:104F20003F1190934011A0934111B093421161EA57
:104F300075E183E295E00E94263C10931F051092D4
:104F40006713109266130C94FD0F83E08093A115F4
:104F50006091F819F0E46F9FB001112468507A4E07
:104F600082EA95E10E94363C8091F81920E4829F04
:104F7000F0011124E850FA4E10828F3008F056C725
:104F80008F5F8093F8198091FA1981508093FA19F4
:104F9000E1EAF5E101900020E9F7AF01425A5541FD
:104FA00060E070E04F5F5F4F6F4F7F4F4093F115B0
:104FB0005093F2156093F3157093F41580911F05CB
:104FC00081110C94FD0F40933F1150934011609359
:104FD00041117093421161EA75E183E295E00E940C
:104FE000263C81E080931F05109267131092661390
:104FF0000C94FD0F8BE08093A115E091A413F09128
:10500000A51382A193A1A4A1B5A180937413909339
:105010007513A0937613B0937713DF01A359BF4F95
:105020008D919D910D90BC91A02D809378139093BC
:105030007913A0937A13B0937B13DF01A854BF4F69
:105040008D919D910D90BC91A02D80937C13909398
:105050007D13A0937E13B0937F13DF01AD5FBE4F2E
:105060008D919D910D90BC91A02D80938013909374
:105070008113A0938213B0938313DF01A25BBE4F11
:105080008D919D910D90BC91A02D80938413909350
:105090008513A0938613B0938713DF01A756BE4FE5
:1050A0008D919D910D90BC91A02D8093881390932C
:1050B0008913A0938A13B0938B13EC51FE4F808118
:1050C0009181A281B38180938C1390938D13A093CF
:1050D0008E13B0938F13E091AA13F091AB1352800B
:1050E00050926813608460926913768470926A1398
:1050F000848880926B13928C90926C13A0A0A092E3
:105100006D13B6A0B0926E13C4A4C0926F13D2A850
:10511000D0927013E0ACE0927113F6ACF09272137F
:10512000EC5BFF4F4080409273130091A6131091E7
:10513000A713D80155966D917C915697072E000CB8
:10514000880B990B0E94BA3D609390137093911352
:105150008093921390939313F80181858093A01309
:10516000EA58FF4F60817181072E000C880B990B64
:105170000E94BA3D60939413709395138093961395
:1051800090939713F801E659FF4F80818093A11304
:10519000E359FF4F60817181072E000C880B990B3A
:1051A0000E94BA3D609398137093991380939A1359
:1051B00090939B13F801E553FF4F80818093A213D6
:1051C000E359FF4F60817181072E000C880B990B0A
:1051D0000E94BA3D60939C1370939D1380939E131D
:1051E00090939F13F801E45DFE4F80818093A31399
:1051F0005092A2156092A3157092A4158092A515E5
:105200009092A615A092A715B092A815C092A915C4
:10521000D092AA15E092AB15F092AC154092AD1564
:10522000EEEAF5E1AAECB5E1AD01CF018A53924077
:10523000DC012D913C9111973183208312968D9141
:105240009C911397938382833496B5E1EA3CFB07E4
:1052500061F7DA012AED35E1FD01EA53F240808180
:10526000918111969C938E938281938113969C9346
:105270008E93129714962A173B0771F78091A0130B
:105280008093DA158091A1138093DB158091A2138E
:105290008093DC158091A3138093DD152DE330E01E
:1052A00040E050E02093F1153093F2154093F31550
:1052B0005093F41580911F0581110C94FD0F8DE31F
:1052C00090E0A0E0B0E080933F1190934011A09354
:1052D0004111B0934211E1EAF5E1A3E2B5E001909A
:1052E0000D928A95E1F781E080931F05E091AA1362
:1052F000F091AB13108210926713109266130C9406
:10530000FD0F13961C92139712961C927801680158
:10531000B3EFCB1ABDEFDB0A7724739458C022A1F8
:1053200033A144A155A1628D738D848D958D0E940A
:10533000A53C4B015C0120E030E0A9010E946A3EDF
:1053400018160CF0CDC1D70153966C90611056C160
:10535000D70196967C92C501B4019F77F70123A9E6
:1053600034A945A956A90E946A3E87FF06C0D70105
:1053700054968C91882309F4D4C1F70180AD91AD86
:10538000A2ADB3ADF8014481558166817781841B5C
:10539000950BA60BB70BF70180AF91AFA2AFB3AFE0
:1053A000893C9105A105B10508F032C1F701758A64
:1053B00084AF95AFA6AFB7AF17AA10AE11AE12AEBD
:1053C00013AEFBE4EF0EF11CEC14FD0461F0F701E9
:1053D00081898111A4CFF701158AFBE4EF0EF11C3E
:1053E000EC14FD04A1F7C090A413D090A51376018E
:1053F00022E2E20EF11C86010B5E1F4F3EEDC31A46
:105400003DEFD30AAA24A394B12C09C0BBE4EB0E50
:10541000F11C055B1F4F0C151D0509F46CC0F8014C
:1054200034978081882391F3D8018C91882371F37C
:105430001C92DE96ED91FC91DF97C501D8960C90F9
:10544000D89702C0880F991F0A94E2F7809590813F
:105450008923808351968C915197813011F40C945B
:10546000B532D8011196ED91FC911297808181118E
:10547000CDCFD701D396ED91FC91D497C501D8013A
:10548000D9960C90D99702C0880F991F0A94E2F719
:10549000809590818923808351961C9251975A96CA
:1054A0002D913D914D915C915D97F70160817181E6
:1054B000828193810E94A53CD7016D937D938D934A
:1054C0009C931397D801DE96ED91FC91DF97C5016F
:1054D000D8960C9002C0880F991F0A94E2F7908129
:1054E000892B8083BBE4EB0EF11C055B1F4F0C1571
:1054F0001D0509F094CF809106012FB130E0382BC3
:10550000329522952F7023273F702327E091AA130D
:10551000F091AB13808192819383418141119FC3AC
:10552000128240E0842B90859187478141118BC383
:10553000108640E0842B968597874585411175C379
:10554000168640E0842B9489958B438941115DC375
:10555000148A40E0842B928D938F418D411145C375
:10556000128E40E0842B90A191A3478D41112BC353
:1055700010A240E0842B96A197A345A1411110C32E
:1055800016A240E0842B94A595A743A54111F9C22A
:1055900014A640E0842B92A993AB41A94111E8C223
:1055A00012AA40E0842B90AD91AF47A94111D7C218
:1055B00010AE40E0842B96AD97AF45AD4111C6C209
:1055C00016AE40E0842B8F010C5B1F4FD8014C912D
:1055D000BF016B5B7F4FDB014C9362507109DB01B4
:1055E0009C919111A4C2D8011C9290E0892B8083D8
:1055F0000091A4131091A5130C946917D701549628
:105600008C91811102C0F70116A26110A4CEA0CE28
:10561000F701158A14AE15AE16AE17AED2CE912C88
:10562000E091A613F091A713D50114968C911497CD
:10563000882381F015969C9115979111DFC41496DB
:105640001C92E091A613F091A713A0905614B0906D
:10565000571480E0D5011F969C911F97992381F0E4
:1056600050962C9150972111D9C41F961C92E0910D
:10567000A613F091A713A0905614B090571490E081
:10568000292D282BD5015A968C915A97882381F081
:105690005B963C915B973111D4C45A961C92E09171
:1056A000A613F091A713A0905614B090571480E061
:1056B000922BD50195962C919597222361F0969681
:1056C0003C9196973111D0C495961C92A090561497
:1056D000B090571420E0892B982E922A0C94231C0A
:1056E000D70154968C915497882339F053966C9037
:1056F0008CCF81E090E00C94A90FD70196961C9274
:105700009697A50194015F77D3966D917D918D91C8
:105710009C91D6970E94123D18160CF02ECEF701E0
:10572000638861102ACE4DCE2230310510F00C94E2
:10573000DC1581E08093B6130C94DC153F7E35B9FF
:10574000C0903311D0903411E0903511F0903611A3
:10575000C114D104E104F10411F40C94BF0F409082
:105760003B1150903C1160903D1170903E11F20140
:10577000EE0FFF1FEE0FFF1FED5DFE4E808091804C
:10578000A280B380B201762F6627770F6D5D764FCA
:10579000A4018BE495E10E94263CB3E04B16510432
:1057A0006104710408F0D4C2D301C2010196A11DA5
:1057B000B11D80933B1190933C11A0933D11B09388
:1057C0003E11E1E0CE1AD108E108F108C092331190
:1057D000D0923411E0923511F092361180929B15DF
:1057E00090929C15A0929D15B0929E1580914B159C
:1057F000853008F027C1833010F00C94BF0F882348
:1058000009F454CB813009F01ECB81E090E09093F5
:1058100067138093661341C8D80150961C92509725
:10582000F701118A50968C91A0905614B09057149D
:105830000C943610A557BF4FCD90DD90ED90FC90A5
:1058400013971897CD92DD92ED92FC92139791E009
:105850009083F801E957FF4F80809180A280B38048
:1058600081149104A104B10411F40C94B617C80C6E
:10587000D91CEA1CFB1CCD92DD92ED92FC92139791
:1058800010821182128213820C94B617AA52BF4F53
:10589000CD90DD90ED90FC9013971897CD92DD920E
:1058A000ED92FC92139791E09083F801EE52FF4F36
:1058B00080809180A280B38081149104A104B104FE
:1058C00011F40C94D117C80CD91CEA1CFB1CCD9206
:1058D000DD92ED92FC921397108211821282138254
:1058E0000C94D117AF5DBE4FCD90DD90ED90FC9044
:1058F00013971897CD92DD92ED92FC92139791E059
:105900009083F801E35EFE4F80809180A280B38097
:1059100081149104A104B10411F40C94EC17C80C87
:10592000D91CEA1CFB1CCD92DD92ED92FC921397E0
:1059300010821182128213820C94EC17A954BE4F6C
:10594000CD90DD90ED90FC9013971897CD92DD925D
:10595000ED92FC92139791E09083F801ED54FE4F85
:1059600080809180A280B38081149104A104B1044D
:1059700011F40C942318C80CD91CEA1CFB1CCD9202
:10598000DD92ED92FC9213971082118212821382A3
:105990000C942318A459BE4FCD90DD90ED90FC904F
:1059A00013971897CD92DD92ED92FC92139791E0A8
:1059B0009083F801E859FE4F80809180A280B380E7
:1059C00081149104A104B10411F40C940718C80CBB
:1059D000D91CEA1CFB1CCD92DD92ED92FC92139730
:1059E00010821182128213820C940718AE5FBD4F91
:1059F000CD90DD90ED90FC9013971897CD92DD92AD
:105A0000ED92FC92139791E09083F801E250FE4FE3
:105A100080809180A280B38081149104A104B1049C
:105A200011F40C944118C80CD91CEA1CFB1CCD9233
:105A3000DD92ED92FC9213971082118212821382F2
:105A40000C944118853009F0FEC980914C15809363
:105A5000A91480914D158093AA1480914E1590E061
:105A60009093A8148093A714009709F45DC633E0BF
:105A7000832E912C8130910509F41DC6029709F4FB
:105A8000A7C48091A914882311F40C94BF0F8091AE
:105A9000AA14882309F4B3C580915A14882311F4F9
:105AA0000C945F37E090A714F090A814B2E0EB16C6
:105AB000F10411F40C94FC371092A9140C94BF0F4C
:105AC000E091A613F091A713D80114968C91149726
:105AD0008111FBC3D8011F968C918111B5C3D801E8
