:1000000000000420C1010000ED010000ED0100002E
:10001000ED010000ED010000ED010000ED01000028
:10002000ED010000ED010000ED010000ED01000018
:10003000ED010000ED010000ED010000ED01000008
:1000400001560000ED010000ED010000ED0100008F
:10005000ED010000ED010000ED010000ED010000E8
:10006000ED010000C9060000E90C000025AF00000A
:10007000ED010000ED010000ED010000017900003C
:10008000ED010000ED010000110D000045AF000082
:10009000ED010000ED010000ED010000ED010000A8
:1000A000ED010000ED010000ED010000ED01000098
:1000B000ED010000ED01000095130000ED010000CE
:1000C000ED010000ED010000ED010000ED01000078
:1000D000ED010000ED010000ED010000ED01000068
:1000E000ED010000ED010000ED010000ED01000058
:1000F000ED010000ED010000ED010000ED01000048
:10010000ED010000ED010000ED01000010B5054C0F
:10011000237833B9044B13B10448AFF300800123B3
:10012000237010BD28020020000000007C0D01009B
:1001300008B5034B1BB103490348AFF3008008BD6A
:10014000000000002C0200207C0D0100154B002B4C
:1001500008BF134B9D46A3F5803A00218B460F46FE
:100160001348144A121A0DF062F80F4B002B00D0FE
:1001700098470E4B002B00D0984700200021040028
:100180000D000D48002802D00C48AFF300800DF0A0
:100190001FF8200029000AF06BFF0DF005F800BFE2
:1001A0000000080000000420000000000000000023
:1001B0002802002010B20220000000000000000011
:1001C000064880470649074A074B9A42BEBF51F886
:1001D000040B42F8040BF8E7FFF7B8FFCD0200006C
:1001E000A81001000000002028020020FEE700BF48
:1001F00080B582B000AF00F025F878600A4BD3F8E4
:1002000008311B0AC3F308033B603B6801337A687B
:10021000B2FBF3F37B60054A7B6813607B6818468A
:100220000837BD4680BD00BF00400E4008000020DA
:1002300080B400AF024B1846BD465DF8047B7047A2
:10024000005A620280B483B000AF164BD3F89430EA
:1002500003F00703032B08D0042B02D0022B08D095
:100260000BE0114B1B687B600BE04FF400437B609D
:1002700007E00E4B1B687B6003E00D4B1B687B6047
:1002800000BF084BD3F800311B0A03F01F030133F2
:100290007A68B2FBF3F318460C37BD465DF8047B71
:1002A000704700BF00400E40040000200000002006
:1002B0000C00002080B400AF034B1B681846BD46FD
:1002C0005DF8047B704700BF0000002080B400AFE1
:1002D000064BD3F88830054A43F47003C2F88830DF
:1002E00000BFBD465DF8047B704700BF00ED00E035
:1002F00080B400AF4FF400431846BD465DF8047B60
:10030000704780B400AF4FF47A731846BD465DF86D
:10031000047B704780B400AF034B1B681846BD4692
:100320005DF8047B704700BF0400002080B584B0F6
:1003300000AF78603960214B1B7883F00103DBB29A
:10034000002B01D01E4B34E07B68002B01D11D4BEC
:100350002FE006F063FDB8600023FB6022E01A4A3C
:10036000FB681B0113440C331B7883F00103DBB2E1
:10037000002B14D0FA687B681A60134AFB681B01D3
:1003800013440C3301221A700F4AFB681B011344FB
:1003900000221A60B86806F051FD002309E0FB68EE
:1003A0000133FB60FB68072BD9DDB86806F046FD1A
:1003B000064B18461037BD4680BD00BF44020020E2
:1003C000028000F0018000F048020020048000F06C
:1003D00080B584B000AF194B1B687B6000233B7174
:1003E00006F01CFDB860164B1B78002B04D0B868D3
:1003F00006F024FD134B1CE0114B01221A70B86863
:1004000006F01CFD0023FB6009E00F4AFB681B019E
:1004100013440C3300221A70FB680133FB60FB6845
:10042000072BF2DD0423FB713B1D184606F044FE4A
:10043000002318461037BD4680BD00BF9808010054
:1004400044020020038000F04802002080B58CB0F8
:1004500008AFF860B9607A603B60BB6A07937B6A5B
:10046000069397F820300593FB6904933B7E039332
:10047000002302933B6801937B680093BB68FA6892
:100480000021002000F08EF9034618461037BD46C3
:1004900080BD80B58CB008AFF860B9607A603B6011
:1004A000BB6A07937B6A069397F820300593FB6934
:1004B00004933B7E0393002302933B6801937B6884
:1004C0000093BB68FA680121002000F06BF9034635
:1004D00018461037BD4680BD80B582B000AF786049
:1004E000114B1B7883F00103DBB2002B01D00F4BC3
:1004F00016E07B68072B01D90D4B11E00D4A7B6894
:100500001B0113440C331B7883F00103DBB2002B77
:1005100001D0094B04E07B68184606F0B1FE0023C9
:1005200018460837BD4680BD44020020028000F016
:10053000018000F048020020078000F080B483B002
:1005400000AF786039601A4B1B7883F00103DBB28F
:10055000002B01D0174B25E07B68072B02D83B68A6
:10056000002B01D1144B1DE0144A7B681B0113447E
:100570000C331B7883F00103DBB2002B01D0104B4E
:1005800010E0104B1B6A01217A6801FA02F2134055
:10059000002B03D03B6801221A7002E03B68002266
:1005A0001A70002318460C37BD465DF8047B70476F
:1005B00044020020028000F0018000F04802002088
:1005C000078000F000200E4080B483B000AF786058
:1005D00039601A4B1B7883F00103DBB2002B01D08A
:1005E000174B25E07B68072B02D83B68002B01D115
:1005F000144B1DE0144A7B681B0113440C331B7819
:1006000083F00103DBB2002B01D0104B10E0104B44
:100610001B6E01217A6801FA02F21340002B03D00D
:100620003B6801221A7002E03B6800221A70002326
:1006300018460C37BD465DF8047B70474402002025
:10064000028000F0018000F048020020078000F0E6
:1006500000200E4080B582B000AF78603960154B45
:100660001B7883F00103DBB2002B01D0124B1DE09D
:100670007B68072B02D83B68002B01D10F4B15E09C
:100680000F4A7B681B0113440C331B7883F0010372
:10069000DBB2002B01D00B4B08E07B68184606F05C
:1006A00013FE03461A463B681A60002318460837B3
:1006B000BD4680BD44020020028000F0018000F0B1
:1006C00048020020078000F080B586B000AF324BB2
:1006D0001B6EFB60304BDB6EFA681340FB60FB68FF
:1006E000002B00DAFEE700237B6101233B614CE035
:1006F000FA683B691340002B41D0274A3B69936657
:100700007B691B01254A1344BB60BB681B68002B37
:1007100035D0BB689B685A1CBB689A60BB681B6875
:10072000BA689168BA685268786998470346002B9E
:1007300014BF01230023DBB283F00103DBB2FB71A2
:10074000FB7903F00103FB71BB685B7B012B16D1C6
:10075000FB79002B13D0124A7B695B01134403F130
:10076000080213796FF3410313710D4A7B695B0132
:10077000134403F1180213796FF3410313717B697A
:1007800001337B613B695B003B617B69072BAFD920
:1007900000BF1837BD4680BD00200E404802002033
:1007A000C802002090B58BB000AFBA607B600346F2
:1007B000FB730B46BB737A4B1B7883F00103DBB2F0
:1007C000002B01D0774BE7E0BB68072B0FD8BB6B42
:1007D000002B0CD0FB6B002B09D0BB6CB3F5006F6A
:1007E00005DCFB7B012B04D13B6C002B01D16E4B54
:1007F000D2E0BB681B016D4A13447B627B6A1B7BA2
:1008000083F00103DBB2002B01D0694BC4E007F198
:10081000100300221A605A609A60DA60BB685B01BC
:10082000644A13443B62BB7B002B1DD13B6A1A46D2
:100830000023136053609360D3603A6A937843F067
:10084000100393703A6AD37843F03003D37097F86B
:10085000443083F00103DBB2002B22D03A6AD37814
:1008600043F00303D3701CE03B6A1A460023136075
:1008700053609360D3603A6A937843F010039370A7
:100880003A6AD37843F00303D37097F8443083F087
:100890000103DBB2002B04D03A6AD37843F0300373
:1008A000D3707B683B61BB6C9BB2013B9BB2C3F3D3
:1008B0000A0399B23A6A138861F30E131380BA6B74
:1008C0003B6A9A60FA6B3B6A5A6097F84C3003F0C7
:1008D0000303D9B23A6AD37861F38303D370FB7B05
:1008E000012B3AD13A6A137B43F0010313733A6A3E
:1008F000137B43F0020313733A6AD368042161F354
:100900009F03D3602B4ABB685B01134403F11002C1
:100910003B6A14460FCB84E80F00264ABB685B0194
:10092000134403F1180253686FF0030161F39F034E
:1009300053603A6C1F49BB685B010B4414331A6067
:10094000BB7B012B09D1FA6B1A49BB685B010B44D5
:1009500018331A603A6C3B6A5A603B6D002B07D122
:10096000FB7B002B04D13A6A93786FF304139370E6
:100970007B6A3A6D1A607B6A7A6D5A607B6A0022E4
:100980009A607B6AFA7B5A73BB6807F110013A6A76
:10099000184606F0CBFB002318462C37BD4690BD09
:1009A00044020020028000F0018000F04802002094
:1009B000078000F0C802002080B485B000AF7860E6
:1009C00039607B6803F1C063FB60FB683A681A60BA
:1009D00000BF1437BD465DF8047B704780B485B016
:1009E00000AF786039607B6803F18063FB60FB686F
:1009F0003A681A6000BF1437BD465DF8047B704743
:100A000080B582B000AF03463960FB71FB79002BE3
:100A10001CD0FB79012B19D0FB79022B16D0FB7966
:100A2000032B13D0FB79042B10D0FB79052B0DD0B1
:100A3000FB79062B0AD0FB79072B07D0FB79082B13
:100A400004D0FB79092B01D0FB790A2BFA791346E4
:100A50005B0013441B010C3303F1804303F5204377
:100A600001213A6801FA02F211461846FFF7B6FF73
:100A700000BF0837BD4680BD80B582B000AF0346D9
:100A80003960FB71FB79002B1CD0FB79012B19D04D
:100A9000FB79022B16D0FB79032B13D0FB79042BA7
:100AA00010D0FB79052B0DD0FB79062B0AD0FB79F2
:100AB000072B07D0FB79082B04D0FB79092B01D039
:100AC000FB790A2BFA7913465B0013441B010C33A4
:100AD00003F1804303F5204301213A6801FA02F251
:100AE00011461846FFF768FF00BF0837BD4680BDB6
:100AF00080B584B000AFB9607B600346FB731346DA
:100B0000BB73FB7B002B1CD0FB7B012B19D0FB7B29
:100B1000022B16D0FB7B032B13D0FB7B042B10D0B6
:100B2000FB7B052B0DD0FB7B062B0AD0FB7B072B19
:100B300007D0FB7B082B04D0FB7B092B01D0FB7B70
:100B40000A2BBB7B002B0DD07B68002B05D0FB7BD9
:100B5000B9681846FFF790FF04E0FB7BB9681846B8
:100B6000FFF74EFFBB68072B20D82E49FA7B1346B0
:100B70005B0013441B010B4404331A68BB689B00E1
:100B80000F2101FA03F3DB431340B97BBA689200EB
:100B900001FA02F211462348FA7B194313465B001F
:100BA00013441B0103440433196025E01D49FA7BFB
:100BB00013465B0013441B010B4408331A68BB68DF
:100BC00003F18043083B9B000F2101FA03F3DB4351
:100BD00002EA0301BA7BBB6803F18043083B9B0038
:100BE00002FA03F30F48FA7B194313465B001344E0
:100BF0001B01034408331960BB7B002B0DD17B68BC
:100C0000002B05D0FB7BB9681846FFF735FF04E0E1
:100C1000FB7BB9681846FFF7F3FE00BF1037BD46EF
:100C200080BD00BF00A0004080B483B000AF7860FA
:100C3000044A7B68C2F8243400BF0C37BD465DF817
:100C4000047B704700A0004080B483B000AF074B26
:100C5000D3F828347B60054BD3F81C247B68134001
:100C600018460C37BD465DF8047B704700A0004075
:100C700080B485B000AF78607B68FB60FB6893FA56
:100C8000A3F3BB60BB68B3FA83F318461437BD46C1
:100C90005DF8047B7047000080B584B000AF7860D9
:100CA00019E07868FFF7E4FFF8600122FB6802FAB8
:100CB00003F3DB431A467B6813407B60094AFB68F9
:100CC00052F82330BB60BB68002B04D0FB68DAB25B
:100CD000BB68104698477B68002BE2D100BF1037F5
:100CE000BD4680BDC803002080B582B000AFFFF7CD
:100CF000ABFF024645F2555313407B607868FFF71F
:100D000093FF7868FFF7C8FF00BF0837BD4680BD76
:100D100080B582B000AFFFF797FF02464AF6AA23DC
:100D200013407B607868FFF77FFF7868FFF7B4FFB8
:100D300000BF0837BD4680BD80B483B000AF034616
:100D4000FB71FB7903F01F02074997F907305B0934
:100D5000012000FA02F241F8232000BF0C37BD4603
:100D60005DF8047B704700BF00E100E080B483B011
:100D700000AF0346FB71FB7903F01F02074997F9A7
:100D800007305B09012000FA02F2603341F82320AA
:100D900000BF0C37BD465DF8047B704700E100E002
:100DA00080B485B000AF78607B68002B03D07B688F
:100DB000B3F5004F00BF7B68B3FA83F3C3F11F03A1
:100DC000FB60FB6818461437BD465DF8047B70472E
:100DD00080B483B000AF7860064A7B6804331B019F
:100DE000134404331B6818460C37BD465DF8047B7A
:100DF000704700BF0020044080B483B000AF78602B
:100E00003960074A7B6804331B01134404333A6892
:100E10001A6000BF0C37BD465DF8047B704700BF09
:100E20000020044080B400AF034B9B681846BD46C9
:100E30005DF8047B704700BF0020044080B483B09D
:100E400000AF7860044A7B68136200BF0C37BD4670
:100E50005DF8047B704700BF0020044080B483B07D
:100E600000AF7860064B5A6A7B68DB430449134045
:100E70004B6200BF0C37BD465DF8047B704700BF76
:100E80000020044080B483B000AF7860054B5A6AFC
:100E900004497B6813434B6200BF0C37BD465DF8C5
:100EA000047B70470020044080B483B000AF064B41
:100EB0005B6A7B60044B9A697B68134018460C3769
:100EC000BD465DF8047B70470020044080B586B0C5
:100ED00000AF786000237B6100233B6105F09EFF3B
:100EE000F86002E07B6901337B617B69032B0ADCDC
:100EF00016497A6913469B001344DB000B441E33EA
:100F00001B78002BEED17B69042B02D1104B3B6187
:100F100014E07B68002B0FD00C497A6913469B00C4
:100F20001344DB000B441E3301221A707A697B687C
:100F30001A6000233B6101E0064B3B61F86805F055
:100F40007DFF3B6918461837BD4680BD0804002068
:100F5000011000F0041000F080B500AF224B1B78A8
:100F6000002B01D000233CE01F4B01221A7001210D
:100F70001E4805F0C1F902211D4805F0EBFB0820D1
:100F8000FFF70EFF0346DAB21A4B1A7101211A4815
:100F900005F0B2F9174806F005FA1849012006F0E5
:100FA000D3F940F2FF70FFF759FF40F2FF70FFF7EF
:100FB00045FF134B00229A601E20FFF7D7FE1E202C
:100FC000FFF7BAFEA02200210E480CF030F90E4BBC
:100FD00000221A700D4B00221A700D4B00221A606D
:100FE0000023184680BD00BFB204002000250A007F
:100FF0000500220010000020A00914001C000020A1
:101000000020044008040020B0040020B1040020A7
:10101000AC04002090B58FB000AFF8607A603B6000
:101020000B46FB7200233B63FB68032B01D9B64BD5
:1010300065E105F0F3FEF862B449FA6813469B00D7
:101040001344DB000B441E331B7883F00103DBB237
:10105000002B04D0F86A05F0F1FEAD4B4FE17B6840
:10106000002B0BD13B68002B03D03B68B96CF868B0
:101070009847F86A05F0E2FE002340E1FFF7D2FE50
:101080007863A249FA6813469B001344DB000B44C3
:1010900018333A681A607B6819464FF000024FF027
:1010A00000034FF00004D40344EA5144CB0313F58A
:1010B0007A6044F100014FF4FA524FF000030AF055
:1010C0000DFD03460C4619462246904CF86803462F
:1010D0009B000344DB0023440833C3E90012FB7A7E
:1010E000012B28D17B684FF47A7202FB03F1874809
:1010F000FA6813469B001344DB0003440833D3E92A
:1011000000341A46F42303FB02F3CB1A18467F4936
:10111000FA6813469B001344DB000B44103318603D
:101120007A49FA6813469B001344DB000B441433DE
:101130007A221A6013E07549FA6813469B0013443B
:10114000DB000B440833D3E90012704CF868034607
:101150009B000344DB0023440833C3E900126B49BE
:10116000FA6813469B001344DB000B440833D3E9B1
:101170000034591C44F10002644CF86803469B009B
:101180000344DB002344C3E900126049FA681346B4
:101190009B001344DB000B441C3301221A705B4993
:1011A000FA6813469B001344DB000B441F33FA7AA2
:1011B0001A705649FA6813469B001344DB000B442F
:1011C0002033BA6C1A60534B1B78002B04D0F86A9A
:1011D00005F034FE002392E04F4B1B68B3F1FF3F54
:1011E00004D04D4B1B6801334B4A13604B4B1B78AB
:1011F00083F00103DBB2002B2ED0494A7B6B1360D6
:101200000420FFF71BFE4149FA6813469B00134474
:10121000DB000B44D3E90034C7E906346FF0640304
:101220007B617B6919464FF00002D7E90634A24280
:1012300008BF994201D20B4614463B617A6B3B6969
:10124000134419460120FFF7D7FD0420FFF71AFECB
:10125000324B01221A7045E02F4B1B68012B41D104
:101260002A49FA6813469B001344DB000B441C33E5
:1012700000221A700420FFF7F1FD294B1B687A6BDE
:10128000D31ABB62B86A00F0D7F800F03DFA3B6BA6
:10129000002B09D11D49FA6813469B001344DB005B
:1012A0000B441C3301221A703B6B01333B63786B98
:1012B00000F05CFAFFF7B6FD7863194B1B687A6B98
:1012C000D31ABB620120FFF783FD0246144B1B6853
:1012D000D31A7B62114B1B78002B03D0BA6A7B6A4E
:1012E0009A42C7D80C4B1B68002B04D00A4B1B68D2
:1012F000013B094A1360F86A05F0A0FD0023184677
:101300003C37BD4690BD00BF021000F0080400202D
:10131000031000F0B0040020AC040020B104002051
:10132000A804002080B584B000AF78607B68032BF0
:1013300001D9154B23E005F071FDF86013497A6877
:1013400013469B001344DB000B441E331B7883F0D1
:101350000103DBB2002B04D0F86805F06FFD0C4BE5
:101360000DE00A497A6813469B001344DB000B44E6
:101370001C3300221A70F86805F060FD002318463F
:101380001037BD4680BD00BF021000F008040020E9
:10139000031000F080B586B000AF05F03FFD386166
:1013A000FFF782FDF860FB6823F005031846FFF79E
:1013B00045FDFB6803F00403002B30D01B4B0122DA
:1013C0001A70FFF72FFD78610420FFF747FD184BD7
:1013D0001B687A69D31ABB60B86800F02DF800F07A
:1013E00093F9786900F0C2F9FFF71CFD7861104BA2
:1013F0001B687A69D31ABB600120FFF7E9FC02463B
:101400000B4B1B68D31A7B600A4B1B78002B03D055
:10141000BA687B689A42D7D8044B00221A703869A0
:1014200005F00CFD00BF1837BD4680BDB00400209C
:10143000A8040020B1040020F0B587B000AF7860A8
:1014400000237B6156E1AF497A6913469B00134440
:10145000DB000B441D3300221A70AA497A69134637
:101460009B001344DB000B441C331B78002B00F063
:101470003E81A4497A6913469B001344DB000B4468
:10148000D3E900347A6811464FF00002A24208BF47
:1014900099421AD29B497A6913469B001344DB0098
:1014A0000B44D3E900567B684FF0000429463246CE
:1014B000C91A62EB0402934C786903469B0003440B
:1014C000DB002344C3E9001211E18E497A69134617
:1014D0009B001344DB000B441F331B78002B0AD105
:1014E00088497A6913469B001344DB000B441C3384
:1014F00000221A70E6E07B6819464FF00002814C2A
:10150000786903469B000344DB002344D3E900567B
:101510000B4614465B1B64EB0604C7E902347949A9
:101520007A6913469B001344DB000B440833D3E96C
:10153000004574497A6913469B001344DB000B4451
:101540000833D3E90023D7E902010AF0C7FAA41A45
:1015500065EB030521462A466A4C786903469B00E1
:101560000344DB002344C3E9001266497A69134649
:101570009B001344DB000B4410331B68002B50DD31
:1015800060497A6913469B001344DB000B44143313
:1015900019685C487A6913469B001344DB000344D6
:1015A00010331B68194457487A6913469B0013444B
:1015B000DB0003441433196052497A6913469B00D7
:1015C0001344DB000B4414331B68F32B7AD94D49C9
:1015D0007A6913469B001344DB000B44D3E90034C3
:1015E000591C44F10002474C786903469B000344B0
:1015F000DB002344C3E9001242497A6913469B0089
:101600001344DB000B4414331B68A3F1F4013D4881
:101610007A6913469B001344DB00034414331960BA
:1016200050E038497A6913469B001344DB000B44B1
:101630001433196833487A6913469B001344DB005E
:10164000034410331B68C91A2E487A6913469B005D
:101650001344DB000344143319602A497A691346A2
:101660009B001344DB000B4414331B68F32B29D974
:1016700024497A6913469B001344DB000B44D3E9E9
:10168000003413F1FF3144F1FF321E4C78690346F8
:101690009B000344DB002344C3E9001219497A6923
:1016A00013469B001344DB000B4414331B68A3F167
:1016B000F40114487A6913469B001344DB00034489
:1016C000143319600F497A6913469B001344DB00F9
:1016D0000B4418331B68002B09D00A497A6913465A
:1016E0009B001344DB000B441D3301221A707B69FD
:1016F00001337B617B69032B7FF7A5AE00BF1C37ED
:10170000BD46F0BD0804002090B583B000AF0023B3
:101710007B6022E014497A6813469B001344DB0087
:101720000B441D331B78002B14D00F497A681346E5
:101730009B001344DB000B4418331C6878680A498B
:101740007A6813469B001344DB000B4420331B686C
:101750001946A0477B6801337B607B68032BD9DD8A
:1017600000BF0C37BD4690BD0804002090B58BB07B
:1017700000AF78604FF0FF334FF0FF34C7E9063415
:1017800000237B6227E031497A6A13469B001344A9
:10179000DB000B441C331B78002B19D02B497A6AD1
:1017A00013469B001344DB000B44D3E90012D7E936
:1017B0000634A24208BF99420AD224497A6A1346E3
:1017C0009B001344DB000B44D3E90034C7E9063423
:1017D0007B6A01337B627B6A032BD4DD1C4B0022C6
:1017E0001A70D7E90634B4F1FF3F08BFB3F1FF3FE9
:1017F00027D0D7E90634C7E904346FF06403FB60EF
:10180000FB6819464FF00002D7E90434A24208BF32
:10181000994201D20B461446C7E906340D4A7B684B
:1018200013600420FFF70AFBBA697B68134419466A
:101830000120FFF7E1FA064B01221A700420FFF79E
:1018400021FB00BF2C37BD4690BD00BF080400201F
:10185000B1040020A804002080B485B000AF7860F7
:1018600039607B6803F10473DA003B6813449B0022
:10187000FB60FB681B6818461437BD465DF8047BA7
:10188000704780B582B000AF03463960FB71FB79C9
:10189000002B1CD0FB79012B19D0FB79022B16D021
:1018A000FB79032B13D0FB79042B10D0FB79052B8C
:1018B0000DD0FB79062B0AD0FB79072B07D0FB79DB
:1018C000082B04D0FB79092B01D0FB790A2BFA797C
:1018D00013465B0013441B011C3303F1804303F5E3
:1018E000204339681846FFF7B7FF03461846083704
:1018F000BD4680BDB0B58AB000AF78603960A04BFE
:1019000007F108041D460FCD0FC495E8030084E8D5
:1019100003007B68002B01D19A4B5AE13B68002BF6
:1019200001D1994B55E15822002178680BF07FFCDA
:101930003B681B68954A93420AD17B68944ADA64F3
:101940007B68944A5A627B684FF440229A6231E085
:101950003B681B68904A93420AD17B688F4ADA64DD
:101960007B688F4A5A627B684FF450229A6221E06A
:101970003B681B688B4A93420AD17B688A4ADA64C7
:101980007B688A4A5A627B684FF460229A6211E04F
:101990003B681B68864A93420AD17B68854ADA64B1
:1019A0007B68854A5A627B684FF470229A6201E034
:1019B000754B0EE17A683B6814461D460FCD0FC487
:1019C00095E8070084E807003B685B7D012B01D1A7
:1019D0000123BB753B689B7D002B02D100233B8319
:1019E00019E03B689B7D012B03D14FF400733B83CF
:1019F00011E03B689B7D022B03D14FF480733B8346
:101A000009E03B689B7D032B03D14FF440733B837C
:101A100001E05D4BDDE03B681B7D012B05D1002320
:101A20007B754FF47A733B6102E03B689B683B61D6
:101A30000121624804F060FC0121614804F05CFC73
:101A40007B68DB6C0121184604F056FC3B681B6880
:101A500007F108021146184605F0A6FD3B681B7DFC
:101A6000002B0BD13B68DB7D002B07D13B681B684B
:101A70001A683B681B6842F480321A603B68DB7D61
:101A8000002B1CD13B681B680F225A673B681B6800
:101A90009B6F03F0E0333A681279120213433A68FD
:101AA000527913433A68927912061A433B68DB79FC
:101AB0001B0419463B681B680A439A6719E03B6898
:101AC0001B680B225A673B681B689B6F23F01F2320
:101AD00023F01F033A681279120213433A685279CD
:101AE0001A433B689B791B0619463B681B680A43EF
:101AF0009A670121786800F0F1F878627B6A002B20
:101B000001D07B6A65E005F089F938622D4B1B78BE
:101B100083F00103DBB2002B08D02A4B01221A709C
:101B2000386A05F08BF9FFF717FA02E0386A05F01A
:101B300085F93B681B7D012B09D17B68543318461E
:101B4000FFF7C4F90346002B01D01F4B41E0FEF71D
:101B50003FFC7B681C3300211846FEF7E7FB034679
:101B6000002B01D0194B34E07B682033002118464C
:101B7000FEF7DCFB0346002B2AD0144B29E000BF04
:101B80009C080100012000F0022000F0000001404C
:101B90000042040001000C00000401400052040057
:101BA00001000D00000801400062040001000E0069
:101BB000000C01400072040001000F0040410500CC
:101BC00000350A00B3040020042000F0092000F0D2
:101BD000002318462837BD46B0BD00BF80B588B089
:101BE00002AFF860B9607A603B60FB681B7D002B38
:101BF00001D1184B2AE07A68B968F86803F05AFCFA
:101C000078617B69002B01D07B691FE03B6A002B68
:101C100008D0FB68586D3A6AFB6800930E4B0021B0
:101C2000FFF7F8F9FB681B7E012B08D1F86803F079
:101C300079FC78617B69002B01D07B6906E03B6809
:101C40007A68B968F86803F073FB00231846183700
:101C5000BD4680BD082000F08552000080B588B0E8
:101C600002AFF860B9607A603B60FB681B7D002BB7
:101C700001D1184B2AE07A68B968F86803F01AFCB9
:101C800078617B69002B01D07B691FE03B6A002BE8
:101C900008D0FB68586D3A6AFB6800930E4B002130
:101CA000FFF7B8F9FB681B7E012B08D1F86803F039
:101CB00039FC78617B69002B01D07B6906E03B68C9
:101CC0007A68B968F86803F095FB0023184618375E
:101CD000BD4680BD082000F08552000080B58AB066
:101CE00000AF78600B46FB707B68FB607B681B680D
:101CF000674A934240F07686FB681B79002B00F020
:101D0000C980FB681B79012B00F0C080FB681B7940
:101D1000022B00F0B980FB681B79032B00F0B28026
:101D2000FB681B79042B00F0AB80FB681B79052B4B
:101D300000F0A480FB681B79062B00F09D80FB68F7
:101D40001B79072B00F09680FB681B79082B00F0AD
:101D50008F80FB681B79092B00F08880FB681B795A
:101D60000A2B00F08180FB681B790B2B7AD0FB6873
:101D70001B790C2B74D0FB681B790D2B6ED0FB6884
:101D80001B790E2B68D0FB681B790F2B62D0FB6888
:101D90001B79102B5CD0FB681B79112B56D0FB688C
:101DA0001B79122B50D0FB681B79132B4AD0FB6890
:101DB0001B79142B44D0FB681B79152B3ED0FB6894
:101DC0001B79162B38D0FB681B79172B32D0FB6898
:101DD0001B79182B2CD0FB681B79192B26D0FB689C
:101DE0001B791A2B20D0FB681B791B2B1AD0FB68A0
:101DF0001B791C2B14D0FB681B791D2B0ED0FB68A4
:101E00001B791E2B08D0FB681B791F2B01D10523E2
:101E100041E04FF0FF333EE005233CE005233AE08C
:101E2000052338E0052336E0052334E0052332E0BE
:101E3000052330E003232EE003232CE003232AE0D4
:101E4000032328E0032326E0032324E0032322E0E6
:101E5000022320E002231EE002231CE002231AE0FA
:101E6000022318E0022316E0012314E0012312E00C
:101E7000012310E001230EE001230CE000230AE01F
:101E8000002308E0002306E0002304E0002302E032
:101E9000000001400023BB61FB685B79002B00F070
:101EA000C780FB685B79012B00F0C080FB685B7921
:101EB000022B00F0B980FB685B79032B00F0B28045
:101EC000FB685B79042B00F0AB80FB685B79052B2A
:101ED00000F0A480FB685B79062B00F09D80FB6816
:101EE0005B79072B00F09680FB685B79082B00F08C
:101EF0008F80FB685B79092B00F08880FB685B7939
:101F00000A2B00F08180FB685B790B2B7AD0FB6891
:101F10005B790C2B74D0FB685B790D2B6ED0FB6862
:101F20005B790E2B68D0FB685B790F2B62D0FB6866
:101F30005B79102B5CD0FB685B79112B56D0FB686A
:101F40005B79122B50D0FB685B79132B4AD0FB686E
:101F50005B79142B44D0FB685B79152B3ED0FB6872
:101F60005B79162B38D0FB685B79172B32D0FB6876
:101F70005B79182B2CD0FB685B79192B26D0FB687A
:101F80005B791A2B20D0FB685B791B2B1AD0FB687E
:101F90005B791C2B14D0FB685B791D2B0ED0FB6882
:101FA0005B791E2B08D0FB685B791F2B01D10023C6
:101FB0003FE04FF0FF333CE005233AE0052338E0F3
:101FC000052336E0052334E0052332E0052330E025
:101FD00005232EE005232CE003232AE0032328E039
:101FE000032326E0032324E0032322E0032320E04D
:101FF00003231EE002231CE002231AE0022318E060
:10200000022316E0022314E0022312E0012310E071
:1020100001230EE001230CE001230AE0012308E084
:10202000002306E0002304E0002302E0002300E098
:1020300000237B61FB689B79002B00F0C780FB6865
:102040009B79012B00F0C080FB689B79022B00F08C
:10205000B980FB689B79032B00F0B280FB689B7909
:10206000042B00F0AB80FB689B79052B00F0A4806B
:10207000FB689B79062B00F09D80FB689B79072B02
:1020800000F09680FB689B79082B00F08F80FB683E
:102090009B79092B00F08880FB689B790A2B00F064
:1020A0008180FB689B790B2B7AD0FB689B790C2B8A
:1020B00074D0FB689B790D2B6ED0FB689B790E2B3F
:1020C00068D0FB689B790F2B62D0FB689B79102B43
:1020D0005CD0FB689B79112B56D0FB689B79122B47
:1020E00050D0FB689B79132B4AD0FB689B79142B4B
:1020F00044D0FB689B79152B3ED0FB689B79162B4F
:1021000038D0FB689B79172B32D0FB689B79182B52
:102110002CD0FB689B79192B26D0FB689B791A2B56
:1021200020D0FB689B791B2B1AD0FB689B791C2B5A
:1021300014D0FB689B791D2B0ED0FB689B791E2B5E
:1021400008D0FB689B791F2B01D100233FE04FF0A3
:10215000FF333CE000233AE0052338E0052336E076
:10216000052334E0052332E0052330E005232EE08B
:1021700005232CE005232AE0032328E0032326E09F
:10218000032324E0032322E0032320E003231EE0B3
:1021900003231CE002231AE0022318E0022316E0C6
:1021A000022314E0022312E0022310E001230EE0D8
:1021B00001230CE001230AE0012308E0012306E0EB
:1021C000002304E0002302E0002300E000233B6141
:1021D000FB68DB79002B00F0C780FB68DB79012B03
:1021E00000F0C080FB68DB79022B00F0B980FB684F
:1021F000DB79032B00F0B280FB68DB79042B00F065
:10220000AB80FB68DB79052B00F0A480FB68DB79F1
:10221000062B00F09D80FB68DB79072B00F0968091
:10222000FB68DB79082B00F08F80FB68DB79092BDA
:1022300000F08880FB68DB790A2B00F08180FB6866
:10224000DB790B2B7AD0FB68DB790C2B74D0FB6825
:10225000DB790D2B6ED0FB68DB790E2B68D0FB6829
:10226000DB790F2B62D0FB68DB79102B5CD0FB682D
:10227000DB79112B56D0FB68DB79122B50D0FB6831
:10228000DB79132B4AD0FB68DB79142B44D0FB6835
:10229000DB79152B3ED0FB68DB79162B38D0FB6839
:1022A000DB79172B32D0FB68DB79182B2CD0FB683D
:1022B000DB79192B26D0FB68DB791A2B20D0FB6841
:1022C000DB791B2B1AD0FB68DB791C2B14D0FB6845
:1022D000DB791D2B0ED0FB68DB791E2B08D0FB6849
:1022E000DB791F2B01D100233FE04FF0FF333CE0AF
:1022F00000233AE0002338E0052336E0052334E0EC
:10230000052332E0052330E005232EE005232CE0F1
:1023100005232AE0052328E0032326E0032324E005
:10232000032322E0032320E003231EE003231CE019
:1023300003231AE0022318E0022316E0022314E02C
:10234000022312E0022310E002230EE001230CE03E
:1023500001230AE0012308E0012306E0012304E051
:10236000002302E0002300E000237A68D363FB68C7
:102370001B79002B00F0C780FB681B79012B00F054
:10238000C080FB681B79022B00F0B980FB681B79C9
:10239000032B00F0B280FB681B79042B00F0AB80AC
:1023A000FB681B79052B00F0A480FB681B79062BCA
:1023B00000F09D80FB681B79072B00F09680FB687E
:1023C0001B79082B00F08F80FB681B79092B00F02C
:1023D0008880FB681B790A2B00F08180FB681B79E1
:1023E0000B2B7AD0FB681B790C2B74D0FB681B7904
:1023F0000D2B6ED0FB681B790E2B68D0FB681B7908
:102400000F2B62D0FB681B79102B5CD0FB681B790B
:10241000112B56D0FB681B79122B50D0FB681B790F
:10242000132B4AD0FB681B79142B44D0FB681B7913
:10243000152B3ED0FB681B79162B38D0FB681B7917
:10244000172B32D0FB681B79182B2CD0FB681B791B
:10245000192B26D0FB681B791A2B20D0FB681B791F
:102460001B2B1AD0FB681B791C2B14D0FB681B7923
:102470001D2B0ED0FB681B791E2B08D0FB681B7927
:102480001F2B01D107233FE04FF0FF333CE0062331
:102490003AE0052338E0042336E0032334E0022346
:1024A00032E0012330E000232EE00F232CE00E2346
:1024B0002AE00D2328E00C2326E00B2324E00A2346
:1024C00022E0092320E00B231EE00A231CE009235D
:1024D0001AE0082318E0072316E0062314E00F2370
:1024E00012E00E2310E00D230EE00C230CE00B2372
:1024F0000AE0052308E0042306E0032304E00223A6
:1025000002E0012300E000237B62FB685B79002B83
:1025100000F0C780FB685B79012B00F0C080FB688E
:102520005B79022B00F0B980FB685B79032B00F02C
:10253000B280FB685B79042B00F0AB80FB685B79B1
:10254000052B00F0A480FB685B79062B00F09D80D2
:10255000FB685B79072B00F09680FB685B79082BA2
:1025600000F08F80FB685B79092B00F08880FB68A6
:102570005B790A2B00F08180FB685B790B2B7AD0AA
:10258000FB685B790C2B74D0FB685B790D2B6ED0EC
:10259000FB685B790E2B68D0FB685B790F2B62D0F0
:1025A000FB685B79102B5CD0FB685B79112B56D0F4
:1025B000FB685B79122B50D0FB685B79132B4AD0F8
:1025C000FB685B79142B44D0FB685B79152B3ED0FC
:1025D000FB685B79162B38D0FB685B79172B32D000
:1025E000FB685B79182B2CD0FB685B79192B26D004
:1025F000FB685B791A2B20D0FB685B791B2B1AD008
:10260000FB685B791C2B14D0FB685B791D2B0ED00B
:10261000FB685B791E2B08D0FB685B791F2B01D10F
:1026200000233FE04FF0FF333CE007233AE006236E
:1026300038E0052336E0042334E0032332E00223AC
:1026400030E001232EE000232CE00F232AE00E23AC
:1026500028E00D2326E00C2324E00B2322E00A23AC
:1026600020E009231EE00B231CE00A231AE00923C3
:1026700018E0082316E0072314E0062312E00F23D6
:1026800010E00E230EE00D230CE00C230AE00B23D8
:1026900008E0052306E0042304E0032302E002230C
:1026A00000E001233B62FB689B79002B00F0C780B0
:1026B000FB689B79012B00F0C080FB689B79022BA3
:1026C00000F0B980FB689B79032B00F0B280FB68B7
:1026D0009B79042B00F0AB80FB689B79052B00F005
:1026E000A480FB689B79062B00F09D80FB689B799A
:1026F000072B00F09680FB689B79082B00F08F80F9
:10270000FB689B79092B00F08880FB689B790A2B7A
:1027100000F08180FB689B790B2B7AD0FB689B795A
:102720000C2B74D0FB689B790D2B6ED0FB689B79CA
:102730000E2B68D0FB689B790F2B62D0FB689B79CE
:10274000102B5CD0FB689B79112B56D0FB689B79D2
:10275000122B50D0FB689B79132B4AD0FB689B79D6
:10276000142B44D0FB689B79152B3ED0FB689B79DA
:10277000162B38D0FB689B79172B32D0FB689B79DE
:10278000182B2CD0FB689B79192B26D0FB689B79E2
:102790001A2B20D0FB689B791B2B1AD0FB689B79E6
:1027A0001C2B14D0FB689B791D2B0ED0FB689B79EA
:1027B0001E2B08D0FB689B791F2B01D101233FE022
:1027C0004FF0FF333CE000233AE0072338E00623D4
:1027D00036E0052334E0042332E0032330E0022313
:1027E0002EE001232CE000232AE00F2328E00E2313
:1027F00026E00D2324E00C2322E00B2320E00A2313
:102800001EE009231CE00B231AE00A2318E0092329
:1028100016E0082314E0072312E0062310E00F233C
:102820000EE00E230CE00D230AE00C2308E00B233E
:1028300006E0052304E0042302E0032300E0022372
:10284000FB61FB68DB79002B00F0C780FB68DB795C
:10285000012B00F0C080FB68DB79022B00F0B9800F
:10286000FB68DB79032B00F0B280FB68DB79042B7B
:1028700000F0AB80FB68DB79052B00F0A480FB68DF
:10288000DB79062B00F09D80FB68DB79072B00F0DD
:102890009680FB68DB79082B00F08F80FB68DB7982
:1028A000092B00F08880FB68DB790A2B00F081801F
:1028B000FB68DB790B2B7AD0FB68DB790C2B74D0AF
:1028C000FB68DB790D2B6ED0FB68DB790E2B68D0B3
:1028D000FB68DB790F2B62D0FB68DB79102B5CD0B7
:1028E000FB68DB79112B56D0FB68DB79122B50D0BB
:1028F000FB68DB79132B4AD0FB68DB79142B44D0BF
:10290000FB68DB79152B3ED0FB68DB79162B38D0C2
:10291000FB68DB79172B32D0FB68DB79182B2CD0C6
:10292000FB68DB79192B26D0FB68DB791A2B20D0CA
:10293000FB68DB791B2B1AD0FB68DB791C2B14D0CE
:10294000FB68DB791D2B0ED0FB68DB791E2B08D0D2
:10295000FB68DB791F2B01D102233FE04FF0FF33EF
:102960003CE001233AE0002338E0072336E0062369
:1029700034E0052332E0042330E003232EE0022379
:102980002CE001232AE0002328E00F2326E00E2379
:1029900024E00D2322E00C2320E00B231EE00A2379
:1029A0001CE009231AE00B2318E00A2316E0092390
:1029B00014E0082312E0072310E006230EE00F23A3
:1029C0000CE00E230AE00D2308E00C2306E00B23A5
:1029D00004E0052302E0042300E003237A68136483
:1029E00002F075BB7B681B68674A934240F07686AD
:1029F000FB681B79002B00F0C980FB681B79012B59
:102A000000F0C080FB681B79022B00F0B980FB68E6
:102A10001B79032B00F0B280FB681B79042B00F0BC
:102A2000AB80FB681B79052B00F0A480FB681B7949
:102A3000062B00F09D80FB681B79072B00F0968029
:102A4000FB681B79082B00F08F80FB681B79092B32
:102A500000F08880FB681B790A2B00F08180FB68FE
:102A60001B790B2B7AD0FB681B790C2B74D0FB687D
:102A70001B790D2B6ED0FB681B790E2B68D0FB6881
:102A80001B790F2B62D0FB681B79102B5CD0FB6885
:102A90001B79112B56D0FB681B79122B50D0FB6889
:102AA0001B79132B4AD0FB681B79142B44D0FB688D
:102AB0001B79152B3ED0FB681B79162B38D0FB6891
:102AC0001B79172B32D0FB681B79182B2CD0FB6895
:102AD0001B79192B26D0FB681B791A2B20D0FB6899
:102AE0001B791B2B1AD0FB681B791C2B14D0FB689D
:102AF0001B791D2B0ED0FB681B791E2B08D0FB68A1
:102B00001B791F2B01D1052341E04FF0FF333EE03D
:102B100005233CE005233AE0052338E0052336E0B1
:102B2000052334E0052332E0052330E003232EE0C3
:102B300003232CE003232AE0032328E0032326E0D9
:102B4000032324E0032322E0022320E002231EE0EB
:102B500002231CE002231AE0022318E0022316E0FD
:102B6000012314E0012312E0012310E001230EE011
:102B700001230CE000230AE0002308E0002306E024
:102B8000002304E0002302E0000401400023BB61B5
:102B9000FB685B79002B00F0C780FB685B79012B39
:102BA00000F0C080FB685B79022B00F0B980FB6805
:102BB0005B79032B00F0B280FB685B79042B00F09B
:102BC000AB80FB685B79052B00F0A480FB685B7928
:102BD000062B00F09D80FB685B79072B00F0968048
:102BE000FB685B79082B00F08F80FB685B79092B11
:102BF00000F08880FB685B790A2B00F08180FB681D
:102C00005B790B2B7AD0FB685B790C2B74D0FB685B
:102C10005B790D2B6ED0FB685B790E2B68D0FB685F
:102C20005B790F2B62D0FB685B79102B5CD0FB6863
:102C30005B79112B56D0FB685B79122B50D0FB6867
:102C40005B79132B4AD0FB685B79142B44D0FB686B
:102C50005B79152B3ED0FB685B79162B38D0FB686F
:102C60005B79172B32D0FB685B79182B2CD0FB6873
:102C70005B79192B26D0FB685B791A2B20D0FB6877
:102C80005B791B2B1AD0FB685B791C2B14D0FB687B
:102C90005B791D2B0ED0FB685B791E2B08D0FB687F
:102CA0005B791F2B01D100233FE04FF0FF333CE065
:102CB00005233AE0052338E0052336E0052334E018
:102CC000052332E0052330E005232EE005232CE028
:102CD00003232AE0032328E0032326E0032324E040
:102CE000032322E0032320E003231EE002231CE051
:102CF00002231AE0022318E0022316E0022314E064
:102D0000022312E0012310E001230EE001230CE076
:102D100001230AE0012308E0002306E0002304E089
:102D2000002302E0002300E000237B61FB689B7925
:102D3000002B00F0C780FB689B79012B00F0C0805E
:102D4000FB689B79022B00F0B980FB689B79032B11
:102D500000F0B280FB689B79042B00F0AB80FB682D
:102D60009B79052B00F0A480FB689B79062B00F073
:102D70009D80FB689B79072B00F09680FB689B7910
:102D8000082B00F08F80FB689B79092B00F088806E
:102D9000FB689B790A2B00F08180FB689B790B2BE9
:102DA0007AD0FB689B790C2B74D0FB689B790D2B38
:102DB0006ED0FB689B790E2B68D0FB689B790F2B3C
:102DC00062D0FB689B79102B5CD0FB689B79112B40
:102DD00056D0FB689B79122B50D0FB689B79132B44
:102DE0004AD0FB689B79142B44D0FB689B79152B48
:102DF0003ED0FB689B79162B38D0FB689B79172B4C
:102E000032D0FB689B79182B2CD0FB689B79192B4F
:102E100026D0FB689B791A2B20D0FB689B791B2B53
:102E20001AD0FB689B791C2B14D0FB689B791D2B57
:102E30000ED0FB689B791E2B08D0FB689B791F2B5B
:102E400001D100233FE04FF0FF333CE000233AE0A4
:102E5000052338E0052336E0052334E0052332E07E
:102E6000052330E005232EE005232CE005232AE08E
:102E7000032328E0032326E0032324E0032322E0A6
:102E8000032320E003231EE003231CE002231AE0B7
:102E9000022318E0022316E0022314E0022312E0CA
:102EA000022310E001230EE001230CE001230AE0DD
:102EB000012308E0012306E0002304E0002302E0F0
:102EC000002300E000233B61FB68DB79002B00F06E
:102ED000C780FB68DB79012B00F0C080FB68DB79E1
:102EE000022B00F0B980FB68DB79032B00F0B28085
:102EF000FB68DB79042B00F0AB80FB68DB79052BEA
:102F000000F0A480FB68DB79062B00F09D80FB6855
:102F1000DB79072B00F09680FB68DB79082B00F04B
:102F20008F80FB68DB79092B00F08880FB68DB79F8
:102F30000A2B00F08180FB68DB790B2B7AD0FB68D1
:102F4000DB790C2B74D0FB68DB790D2B6ED0FB6822
:102F5000DB790E2B68D0FB68DB790F2B62D0FB6826
:102F6000DB79102B5CD0FB68DB79112B56D0FB682A
:102F7000DB79122B50D0FB68DB79132B4AD0FB682E
:102F8000DB79142B44D0FB68DB79152B3ED0FB6832
:102F9000DB79162B38D0FB68DB79172B32D0FB6836
:102FA000DB79182B2CD0FB68DB79192B26D0FB683A
:102FB000DB791A2B20D0FB68DB791B2B1AD0FB683E
:102FC000DB791C2B14D0FB68DB791D2B0ED0FB6842
:102FD000DB791E2B08D0FB68DB791F2B01D1002386
:102FE0003FE04FF0FF333CE000233AE0002338E0BD
:102FF000052336E0052334E0052332E0052330E0E5
:1030000005232EE005232CE005232AE0052328E0F4
:10301000032326E0032324E0032322E0032320E00C
:1030200003231EE003231CE003231AE0022318E01D
:10303000022316E0022314E0022312E0022310E030
:1030400002230EE001230CE001230AE0012308E043
:10305000012306E0012304E0002302E0002300E056
:1030600000237A68D363FB681B79002B00F0C780CC
:10307000FB681B79012B00F0C080FB681B79022BD9
:1030800000F0B980FB681B79032B00F0B280FB686D
:103090001B79042B00F0AB80FB681B79052B00F03B
:1030A000A480FB681B79062B00F09D80FB681B79D0
:1030B000072B00F09680FB681B79082B00F08F80AF
:1030C000FB681B79092B00F08880FB681B790A2BB1
:1030D00000F08180FB681B790B2B7AD0FB681B7991
:1030E0000C2B74D0FB681B790D2B6ED0FB681B7901
:1030F0000E2B68D0FB681B790F2B62D0FB681B7905
:10310000102B5CD0FB681B79112B56D0FB681B7908
:10311000122B50D0FB681B79132B4AD0FB681B790C
:10312000142B44D0FB681B79152B3ED0FB681B7910
:10313000162B38D0FB681B79172B32D0FB681B7914
:10314000182B2CD0FB681B79192B26D0FB681B7918
:103150001A2B20D0FB681B791B2B1AD0FB681B791C
:103160001C2B14D0FB681B791D2B0ED0FB681B7920
:103170001E2B08D0FB681B791F2B01D107233FE0D2
:103180004FF0FF333CE006233AE0052338E0042308
:1031900036E0032334E0022332E0012330E0002351
:1031A0002EE00F232CE00E232AE00D2328E00C2331
:1031B00026E00B2324E00A2322E0092320E00B234E
:1031C0001EE00A231CE009231AE0082318E0072365
:1031D00016E0062314E00F2312E00E2310E00D2367
:1031E0000EE00C230CE00B230AE0052308E0042387
:1031F00006E0032304E0022302E0012300E00023B1
:103200007B62FB685B79002B00F0C780FB685B7911
:10321000012B00F0C080FB685B79022B00F0B980C5
:10322000FB685B79032B00F0B280FB685B79042BB1
:1032300000F0AB80FB685B79052B00F0A480FB6895
:103240005B79062B00F09D80FB685B79072B00F013
:103250009680FB685B79082B00F08F80FB685B79B8
:10326000092B00F08880FB685B790A2B00F08180D5
:10327000FB685B790B2B7AD0FB685B790C2B74D0E5
:10328000FB685B790D2B6ED0FB685B790E2B68D0E9
:10329000FB685B790F2B62D0FB685B79102B5CD0ED
:1032A000FB685B79112B56D0FB685B79122B50D0F1
:1032B000FB685B79132B4AD0FB685B79142B44D0F5
:1032C000FB685B79152B3ED0FB685B79162B38D0F9
:1032D000FB685B79172B32D0FB685B79182B2CD0FD
:1032E000FB685B79192B26D0FB685B791A2B20D001
:1032F000FB685B791B2B1AD0FB685B791C2B14D005
:10330000FB685B791D2B0ED0FB685B791E2B08D008
:10331000FB685B791F2B01D100233FE04FF0FF33A7
:103320003CE007233AE0062338E0052336E0042397
:1033300034E0032332E0022330E001232EE00023B7
:103340002CE00F232AE00E2328E00D2326E00C2397
:1033500024E00B2322E00A2320E009231EE00B23B4
:103360001CE00A231AE0092318E0082316E00723CB
:1033700014E0062312E00F2310E00E230EE00D23CD
:103380000CE00C230AE00B2308E0052306E00423ED
:1033900004E0032302E0022300E001233B62FB6818
:1033A0009B79002B00F0C780FB689B79012B00F014
:1033B000C080FB689B79022B00F0B980FB689B7989
:1033C000032B00F0B280FB689B79042B00F0AB80EC
:1033D000FB689B79052B00F0A480FB689B79062B8A
:1033E00000F09D80FB689B79072B00F09680FB68BE
:1033F0009B79082B00F08F80FB689B79092B00F0EC
:103400008880FB689B790A2B00F08180FB689B79A0
:103410000B2B7AD0FB689B790C2B74D0FB689B79C3
:103420000D2B6ED0FB689B790E2B68D0FB689B79C7
:103430000F2B62D0FB689B79102B5CD0FB689B79CB
:10344000112B56D0FB689B79122B50D0FB689B79CF
:10345000132B4AD0FB689B79142B44D0FB689B79D3
:10346000152B3ED0FB689B79162B38D0FB689B79D7
:10347000172B32D0FB689B79182B2CD0FB689B79DB
:10348000192B26D0FB689B791A2B20D0FB689B79DF
:103490001B2B1AD0FB689B791C2B14D0FB689B79E3
:1034A0001D2B0ED0FB689B791E2B08D0FB689B79E7
:1034B0001F2B01D101233FE04FF0FF333CE00023FD
:1034C0003AE0072338E0062336E0052334E00423FE
:1034D00032E0032330E002232EE001232CE000231E
:1034E0002AE00F2328E00E2326E00D2324E00C23FE
:1034F00022E00B2320E00A231EE009231CE00B231B
:103500001AE00A2318E0092316E0082314E0072331
:1035100012E0062310E00F230EE00E230CE00D2333
:103520000AE00C2308E00B2306E0052304E0042353
:1035300002E0032300E00223FB61FB68DB79002B40
:1035400000F0C780FB68DB79012B00F0C080FB68CE
:10355000DB79022B00F0B980FB68DB79032B00F0EC
:10356000B280FB68DB79042B00F0AB80FB68DB7971
:10357000052B00F0A480FB68DB79062B00F09D8012
:10358000FB68DB79072B00F09680FB68DB79082B62
:1035900000F08F80FB68DB79092B00F08880FB68E6
:1035A000DB790A2B00F08180FB68DB790B2B7AD06A
:1035B000FB68DB790C2B74D0FB68DB790D2B6ED0AC
:1035C000FB68DB790E2B68D0FB68DB790F2B62D0B0
:1035D000FB68DB79102B5CD0FB68DB79112B56D0B4
:1035E000FB68DB79122B50D0FB68DB79132B4AD0B8
:1035F000FB68DB79142B44D0FB68DB79152B3ED0BC
:10360000FB68DB79162B38D0FB68DB79172B32D0BF
:10361000FB68DB79182B2CD0FB68DB79192B26D0C3
:10362000FB68DB791A2B20D0FB68DB791B2B1AD0C7
:10363000FB68DB791C2B14D0FB68DB791D2B0ED0CB
:10364000FB68DB791E2B08D0FB68DB791F2B01D1CF
:1036500002233FE04FF0FF333CE001233AE0002338
:1036600038E0072336E0062334E0052332E0042364
:1036700030E003232EE002232CE001232AE0002384
:1036800028E00F2326E00E2324E00D2322E00C2364
:1036900020E00B231EE00A231CE009231AE00B2381
:1036A00018E00A2316E0092314E0082312E0072398
:1036B00010E006230EE00F230CE00E230AE00D239A
:1036C00008E00C2306E00B2304E0052302E00423BA
:1036D00000E003237A68136401F0F9BC7B681B687F
:1036E000674A934240F07686FB681B79002B00F016
:1036F000C980FB681B79012B00F0C080FB681B7937
:10370000022B00F0B980FB681B79032B00F0B2801C
:10371000FB681B79042B00F0AB80FB681B79052B41
:1037200000F0A480FB681B79062B00F09D80FB68ED
:103730001B79072B00F09680FB681B79082B00F0A3
:103740008F80FB681B79092B00F08880FB681B7950
:103750000A2B00F08180FB681B790B2B7AD0FB6869
:103760001B790C2B74D0FB681B790D2B6ED0FB687A
:103770001B790E2B68D0FB681B790F2B62D0FB687E
:103780001B79102B5CD0FB681B79112B56D0FB6882
:103790001B79122B50D0FB681B79132B4AD0FB6886
:1037A0001B79142B44D0FB681B79152B3ED0FB688A
:1037B0001B79162B38D0FB681B79172B32D0FB688E
:1037C0001B79182B2CD0FB681B79192B26D0FB6892
:1037D0001B791A2B20D0FB681B791B2B1AD0FB6896
:1037E0001B791C2B14D0FB681B791D2B0ED0FB689A
:1037F0001B791E2B08D0FB681B791F2B01D10A23D4
:1038000041E04FF0FF333EE00A233CE00A233AE078
:10381000052338E0052336E0052334E0052332E0B4
:10382000052330E005232EE005232CE005232AE0C4
:10383000052328E0052326E0052324E0052322E0D4
:10384000052320E005231EE005231CE001231AE0E8
:10385000012318E0012316E0012314E0012312E004
:10386000082310E008230EE008230CE008230AE0F8
:10387000002308E0002306E0002304E0002302E028
:10388000000801400023BB61FB685B79002B00F05E
:10389000C780FB685B79012B00F0C080FB685B7917
:1038A000022B00F0B980FB685B79032B00F0B2803B
:1038B000FB685B79042B00F0AB80FB685B79052B20
:1038C00000F0A480FB685B79062B00F09D80FB680C
:1038D0005B79072B00F09680FB685B79082B00F082
:1038E0008F80FB685B79092B00F08880FB685B792F
:1038F0000A2B00F08180FB685B790B2B7AD0FB6888
:103900005B790C2B74D0FB685B790D2B6ED0FB6858
:103910005B790E2B68D0FB685B790F2B62D0FB685C
:103920005B79102B5CD0FB685B79112B56D0FB6860
:103930005B79122B50D0FB685B79132B4AD0FB6864
:103940005B79142B44D0FB685B79152B3ED0FB6868
:103950005B79162B38D0FB685B79172B32D0FB686C
:103960005B79182B2CD0FB685B79192B26D0FB6870
:103970005B791A2B20D0FB685B791B2B1AD0FB6874
:103980005B791C2B14D0FB685B791D2B0ED0FB6878
:103990005B791E2B08D0FB685B791F2B01D10023BC
:1039A0003FE04FF0FF333CE00A233AE00A2338E0DF
:1039B0000A2336E0052334E0052332E0052330E016
:1039C00005232EE005232CE005232AE0052328E02B
:1039D000052326E0052324E0052322E0052320E03B
:1039E00005231EE005231CE005231AE0052318E04B
:1039F000012316E0012314E0012312E0012310E06B
:103A000001230EE008230CE008230AE0082308E065
:103A1000082306E0002304E0002302E0002300E086
:103A200000237B61FB689B79002B00F0C780FB685B
:103A30009B79012B00F0C080FB689B79022B00F082
:103A4000B980FB689B79032B00F0B280FB689B79FF
:103A5000042B00F0AB80FB689B79052B00F0A48061
:103A6000FB689B79062B00F09D80FB689B79072BF8
:103A700000F09680FB689B79082B00F08F80FB6834
:103A80009B79092B00F08880FB689B790A2B00F05A
:103A90008180FB689B790B2B7AD0FB689B790C2B80
:103AA00074D0FB689B790D2B6ED0FB689B790E2B35
:103AB00068D0FB689B790F2B62D0FB689B79102B39
:103AC0005CD0FB689B79112B56D0FB689B79122B3D
:103AD00050D0FB689B79132B4AD0FB689B79142B41
:103AE00044D0FB689B79152B3ED0FB689B79162B45
:103AF00038D0FB689B79172B32D0FB689B79182B49
:103B00002CD0FB689B79192B26D0FB689B791A2B4C
:103B100020D0FB689B791B2B1AD0FB689B791C2B50
:103B200014D0FB689B791D2B0ED0FB689B791E2B54
:103B300008D0FB689B791F2B01D100233FE04FF099
:103B4000FF333CE000233AE00A2338E00A2336E062
:103B50000A2334E0052332E0052330E005232EE07C
:103B600005232CE005232AE0052328E0052326E091
:103B7000052324E0052322E0052320E005231EE0A1
:103B800005231CE005231AE0052318E0052316E0B1
:103B9000012314E0012312E0012310E001230EE0D1
:103BA00001230CE008230AE0082308E0082306E0CC
:103BB000082304E0002302E0002300E000233B612F
:103BC000FB68DB79002B00F0C780FB68DB79012BF9
:103BD00000F0C080FB68DB79022B00F0B980FB6845
:103BE000DB79032B00F0B280FB68DB79042B00F05B
:103BF000AB80FB68DB79052B00F0A480FB68DB79E8
:103C0000062B00F09D80FB68DB79072B00F0968087
:103C1000FB68DB79082B00F08F80FB68DB79092BD0
:103C200000F08880FB68DB790A2B00F08180FB685C
:103C3000DB790B2B7AD0FB68DB790C2B74D0FB681B
:103C4000DB790D2B6ED0FB68DB790E2B68D0FB681F
:103C5000DB790F2B62D0FB68DB79102B5CD0FB6823
:103C6000DB79112B56D0FB68DB79122B50D0FB6827
:103C7000DB79132B4AD0FB68DB79142B44D0FB682B
:103C8000DB79152B3ED0FB68DB79162B38D0FB682F
:103C9000DB79172B32D0FB68DB79182B2CD0FB6833
:103CA000DB79192B26D0FB68DB791A2B20D0FB6837
:103CB000DB791B2B1AD0FB68DB791C2B14D0FB683B
:103CC000DB791D2B0ED0FB68DB791E2B08D0FB683F
:103CD000DB791F2B01D100233FE04FF0FF333CE0A5
:103CE00000233AE0002338E00A2336E00A2334E0D8
:103CF0000A2332E0052330E005232EE005232CE0E3
:103D000005232AE0052328E0052326E0052324E0F7
:103D1000052322E0052320E005231EE005231CE007
:103D200005231AE0052318E0052316E0052314E017
:103D3000012312E0012310E001230EE001230CE037
:103D400001230AE0082308E0082306E0082304E032
:103D5000082302E0002300E000237A68D363FB68B5
:103D60001B79002B00F0C780FB681B79012B00F04A
:103D7000C080FB681B79022B00F0B980FB681B79BF
:103D8000032B00F0B280FB681B79042B00F0AB80A2
:103D9000FB681B79052B00F0A480FB681B79062BC0
:103DA00000F09D80FB681B79072B00F09680FB6874
:103DB0001B79082B00F08F80FB681B79092B00F022
:103DC0008880FB681B790A2B00F08180FB681B79D7
:103DD0000B2B7AD0FB681B790C2B74D0FB681B79FA
:103DE0000D2B6ED0FB681B790E2B68D0FB681B79FE
:103DF0000F2B62D0FB681B79102B5CD0FB681B7902
:103E0000112B56D0FB681B79122B50D0FB681B7905
:103E1000132B4AD0FB681B79142B44D0FB681B7909
:103E2000152B3ED0FB681B79162B38D0FB681B790D
:103E3000172B32D0FB681B79182B2CD0FB681B7911
:103E4000192B26D0FB681B791A2B20D0FB681B7915
:103E50001B2B1AD0FB681B791C2B14D0FB681B7919
:103E60001D2B0ED0FB681B791E2B08D0FB681B791D
:103E70001F2B01D102233FE04FF0FF333CE0012331
:103E80003AE0002338E00F2336E00E2334E00D2320
:103E900032E00C2330E00B232EE00A232CE0092330
:103EA0002AE0082328E0072326E0062324E0052350
:103EB00022E0042320E003231EE001231CE0002372
:103EC0001AE00A2318E0092316E0082314E0072368
:103ED00012E0062310E003230EE002230CE001238E
:103EE0000AE0002308E0092306E0082304E0072392
:103EF00002E0062300E005237B62FB685B79002B70
:103F000000F0C780FB685B79012B00F0C080FB6884
:103F10005B79022B00F0B980FB685B79032B00F022
:103F2000B280FB685B79042B00F0AB80FB685B79A7
:103F3000052B00F0A480FB685B79062B00F09D80C8
:103F4000FB685B79072B00F09680FB685B79082B98
:103F500000F08F80FB685B79092B00F08880FB689C
:103F60005B790A2B00F08180FB685B790B2B7AD0A0
:103F7000FB685B790C2B74D0FB685B790D2B6ED0E2
:103F8000FB685B790E2B68D0FB685B790F2B62D0E6
:103F9000FB685B79102B5CD0FB685B79112B56D0EA
:103FA000FB685B79122B50D0FB685B79132B4AD0EE
:103FB000FB685B79142B44D0FB685B79152B3ED0F2
:103FC000FB685B79162B38D0FB685B79172B32D0F6
:103FD000FB685B79182B2CD0FB685B79192B26D0FA
:103FE000FB685B791A2B20D0FB685B791B2B1AD0FE
:103FF000FB685B791C2B14D0FB685B791D2B0ED002
:10400000FB685B791E2B08D0FB685B791F2B01D105
:1040100005233FE04FF0FF333CE002233AE0012369
:1040200038E0002336E00F2334E00E2332E00D2386
:1040300030E00C232EE00B232CE00A232AE0092396
:1040400028E0082326E0072324E0062322E00523B6
:1040500020E004231EE003231CE001231AE00023D8
:1040600018E00A2316E0092314E0082312E00723CE
:1040700010E006230EE003230CE002230AE00123F4
:1040800008E0002306E0092304E0082302E00723F8
:1040900000E006233B62FB689B79002B00F0C780A1
:1040A000FB689B79012B00F0C080FB689B79022B99
:1040B00000F0B980FB689B79032B00F0B280FB68AD
:1040C0009B79042B00F0AB80FB689B79052B00F0FB
:1040D000A480FB689B79062B00F09D80FB689B7990
:1040E000072B00F09680FB689B79082B00F08F80EF
:1040F000FB689B79092B00F08880FB689B790A2B71
:1041000000F08180FB689B790B2B7AD0FB689B7950
:104110000C2B74D0FB689B790D2B6ED0FB689B79C0
:104120000E2B68D0FB689B790F2B62D0FB689B79C4
:10413000102B5CD0FB689B79112B56D0FB689B79C8
:10414000122B50D0FB689B79132B4AD0FB689B79CC
:10415000142B44D0FB689B79152B3ED0FB689B79D0
:10416000162B38D0FB689B79172B32D0FB689B79D4
:10417000182B2CD0FB689B79192B26D0FB689B79D8
:104180001A2B20D0FB689B791B2B1AD0FB689B79DC
:104190001C2B14D0FB689B791D2B0ED0FB689B79E0
:1041A0001E2B08D0FB689B791F2B01D106233FE013
:1041B0004FF0FF333CE005233AE0022338E00123CF
:1041C00036E0002334E00F2332E00E2330E00D23ED
:1041D0002EE00C232CE00B232AE00A2328E00923FD
:1041E00026E0082324E0072322E0062320E005231D
:1041F0001EE004231CE003231AE0012318E000233F
:1042000016E00A2314E0092312E0082310E0072334
:104210000EE006230CE003230AE0022308E001235A
:1042200006E0002304E0092302E0082300E007235E
:10423000FB61FB68DB79002B00F0C780FB68DB7952
:10424000012B00F0C080FB68DB79022B00F0B98005
:10425000FB68DB79032B00F0B280FB68DB79042B71
:1042600000F0AB80FB68DB79052B00F0A480FB68D5
:10427000DB79062B00F09D80FB68DB79072B00F0D3
:104280009680FB68DB79082B00F08F80FB68DB7978
:10429000092B00F08880FB68DB790A2B00F0818015
:1042A000FB68DB790B2B7AD0FB68DB790C2B74D0A5
:1042B000FB68DB790D2B6ED0FB68DB790E2B68D0A9
:1042C000FB68DB790F2B62D0FB68DB79102B5CD0AD
:1042D000FB68DB79112B56D0FB68DB79122B50D0B1
:1042E000FB68DB79132B4AD0FB68DB79142B44D0B5
:1042F000FB68DB79152B3ED0FB68DB79162B38D0B9
:10430000FB68DB79172B32D0FB68DB79182B2CD0BC
:10431000FB68DB79192B26D0FB68DB791A2B20D0C0
:10432000FB68DB791B2B1AD0FB68DB791C2B14D0C4
:10433000FB68DB791D2B0ED0FB68DB791E2B08D0C8
:10434000FB68DB791F2B01D107233FE04FF0FF33E0
:104350003CE006233AE0052338E0022336E001235F
:1043600034E0002332E00F2330E00E232EE00D2353
:104370002CE00C232AE00B2328E00A2326E0092363
:1043800024E0082322E0072320E006231EE0052383
:104390001CE004231AE0032318E0012316E00023A5
:1043A00014E00A2312E0092310E008230EE007239B
:1043B0000CE006230AE0032308E0022306E00123C1
:1043C00004E0002302E0092300E008237A68136474
:1043D00000F07DBE7B681B68674A934240F075869B
:1043E000FB681B79002B00F0C980FB681B79012B4F
:1043F00000F0C080FB681B79022B00F0B980FB68DD
:104400001B79032B00F0B280FB681B79042B00F0B2
:10441000AB80FB681B79052B00F0A480FB681B793F
:10442000062B00F09D80FB681B79072B00F096801F
:10443000FB681B79082B00F08F80FB681B79092B28
:1044400000F08880FB681B790A2B00F08180FB68F4
:104450001B790B2B7AD0FB681B790C2B74D0FB6873
:104460001B790D2B6ED0FB681B790E2B68D0FB6877
:104470001B790F2B62D0FB681B79102B5CD0FB687B
:104480001B79112B56D0FB681B79122B50D0FB687F
:104490001B79132B4AD0FB681B79142B44D0FB6883
:1044A0001B79152B3ED0FB681B79162B38D0FB6887
:1044B0001B79172B32D0FB681B79182B2CD0FB688B
:1044C0001B79192B26D0FB681B791A2B20D0FB688F
:1044D0001B791B2B1AD0FB681B791C2B14D0FB6893
:1044E0001B791D2B0ED0FB681B791E2B08D0FB6897
:1044F0001B791F2B01D10A2341E04FF0FF333EE02F
:104500000A233CE00A233AE0052338E0052336E09D
:10451000052334E0052332E0052330E002232EE0BA
:1045200002232CE002232AE0022328E0022326E0D3
:10453000022324E0092322E0092320E001231EE0D6
:1045400001231CE001231AE0012318E0012316E0F7
:10455000012314E0082312E0082310E003230EE0F7
:1045600003230CE003230AE0032308E0032306E00F
:10457000032304E0032302E0000C01400323BB619A
:10458000FB685B79002B00F0C780FB685B79012B2F
:1045900000F0C080FB685B79022B00F0B980FB68FB
:1045A0005B79032B00F0B280FB685B79042B00F091
:1045B000AB80FB685B79052B00F0A480FB685B791E
:1045C000062B00F09D80FB685B79072B00F096803E
:1045D000FB685B79082B00F08F80FB685B79092B07
:1045E00000F08880FB685B790A2B00F08180FB6813
:1045F0005B790B2B7AD0FB685B790C2B74D0FB6852
:104600005B790D2B6ED0FB685B790E2B68D0FB6855
:104610005B790F2B62D0FB685B79102B5CD0FB6859
:104620005B79112B56D0FB685B79122B50D0FB685D
:104630005B79132B4AD0FB685B79142B44D0FB6861
:104640005B79152B3ED0FB685B79162B38D0FB6865
:104650005B79172B32D0FB685B79182B2CD0FB6869
:104660005B79192B26D0FB685B791A2B20D0FB686D
:104670005B791B2B1AD0FB685B791C2B14D0FB6871
:104680005B791D2B0ED0FB685B791E2B08D0FB6875
:104690005B791F2B01D103233FE04FF0FF333CE058
:1046A0000A233AE00A2338E00A2336E0052334E0FF
:1046B000052332E0052330E005232EE005232CE01E
:1046C00002232AE0022328E0022326E0022324E03A
:1046D000022322E0022320E009231EE009231CE03C
:1046E00001231AE0012318E0012316E0012314E05E
:1046F000012312E0012310E008230EE008230CE060
:1047000003230AE0032308E0032306E0032304E075
:10471000032302E0032300E003237B61FB689B7912
:10472000002B00F0C780FB689B79012B00F0C08054
:10473000FB689B79022B00F0B980FB689B79032B07
:1047400000F0B280FB689B79042B00F0AB80FB6823
:104750009B79052B00F0A480FB689B79062B00F069
:104760009D80FB689B79072B00F09680FB689B7906
:10477000082B00F08F80FB689B79092B00F0888064
:10478000FB689B790A2B00F08180FB689B790B2BDF
:104790007AD0FB689B790C2B74D0FB689B790D2B2E
:1047A0006ED0FB689B790E2B68D0FB689B790F2B32
:1047B00062D0FB689B79102B5CD0FB689B79112B36
:1047C00056D0FB689B79122B50D0FB689B79132B3A
:1047D0004AD0FB689B79142B44D0FB689B79152B3E
:1047E0003ED0FB689B79162B38D0FB689B79172B42
:1047F00032D0FB689B79182B2CD0FB689B79192B46
:1048000026D0FB689B791A2B20D0FB689B791B2B49
:104810001AD0FB689B791C2B14D0FB689B791D2B4D
:104820000ED0FB689B791E2B08D0FB689B791F2B51
:1048300001D103233FE04FF0FF333CE003233AE094
:104840000A2338E00A2336E00A2334E0052332E065
:10485000052330E005232EE005232CE005232AE084
:10486000022328E0022326E0022324E0022322E0A0
:10487000022320E002231EE009231CE009231AE0A2
:10488000012318E0012316E0012314E0012312E0C4
:10489000012310E001230EE008230CE008230AE0C6
:1048A000032308E0032306E0032304E0032302E0DC
:1048B000032300E003233B61FB68DB79002B00F05E
:1048C000C780FB68DB79012B00F0C080FB68DB79D7
:1048D000022B00F0B980FB68DB79032B00F0B2807B
:1048E000FB68DB79042B00F0AB80FB68DB79052BE0
:1048F00000F0A480FB68DB79062B00F09D80FB684C
:10490000DB79072B00F09680FB68DB79082B00F041
:104910008F80FB68DB79092B00F08880FB68DB79EE
:104920000A2B00F08180FB68DB790B2B7AD0FB68C7
:10493000DB790C2B74D0FB68DB790D2B6ED0FB6818
:10494000DB790E2B68D0FB68DB790F2B62D0FB681C
:10495000DB79102B5CD0FB68DB79112B56D0FB6820
:10496000DB79122B50D0FB68DB79132B4AD0FB6824
:10497000DB79142B44D0FB68DB79152B3ED0FB6828
:10498000DB79162B38D0FB68DB79172B32D0FB682C
:10499000DB79182B2CD0FB68DB79192B26D0FB6830
:1049A000DB791A2B20D0FB68DB791B2B1AD0FB6834
:1049B000DB791C2B14D0FB68DB791D2B0ED0FB6838
:1049C000DB791E2B08D0FB68DB791F2B01D1032379
:1049D0003FE04FF0FF333CE003233AE0032338E0AD
:1049E0000A2336E00A2334E00A2332E0052330E0CC
:1049F00005232EE005232CE005232AE0052328E0EB
:104A0000022326E0022324E0022322E0022320E006
:104A100002231EE002231CE009231AE0092318E008
:104A2000012316E0012314E0012312E0012310E02A
:104A300001230EE001230CE008230AE0082308E02C
:104A4000032306E0032304E0032302E0032300E042
:104A500003237A68D363FB681B79002B00F0C780BF
:104A6000FB681B79012B00F0C080FB681B79022BCF
:104A700000F0B980FB681B79032B00F0B280FB6863
:104A80001B79042B00F0AB80FB681B79052B00F031
:104A9000A480FB681B79062B00F09D80FB681B79C6
:104AA000072B00F09680FB681B79082B00F08F80A5
:104AB000FB681B79092B00F08880FB681B790A2BA7
:104AC00000F08180FB681B790B2B7AD0FB681B7987
:104AD0000C2B74D0FB681B790D2B6ED0FB681B79F7
:104AE0000E2B68D0FB681B790F2B62D0FB681B79FB
:104AF000102B5CD0FB681B79112B56D0FB681B79FF
:104B0000122B50D0FB681B79132B4AD0FB681B7902
:104B1000142B44D0FB681B79152B3ED0FB681B7906
:104B2000162B38D0FB681B79172B32D0FB681B790A
:104B3000182B2CD0FB681B79192B26D0FB681B790E
:104B40001A2B20D0FB681B791B2B1AD0FB681B7912
:104B50001C2B14D0FB681B791D2B0ED0FB681B7916
:104B60001E2B08D0FB681B791F2B01D102233FE0CD
:104B70004FF0FF333CE001233AE0002338E00F23FD
:104B800036E00E2334E00D2332E00C2330E00B231B
:104B90002EE005232CE004232AE0032328E002234F
:104BA00026E0012324E0002322E00F2320E00E234F
:104BB0001EE00B231CE00A231AE0092318E0082357
:104BC00016E0072314E0062312E0032310E002237B
:104BD0000EE00F230CE00E230AE00D2308E00C2367
:104BE00006E00B2304E00A2302E0092300E0082387
:104BF0007B62FB685B79002B00F0C780FB685B7908
:104C0000012B00F0C080FB685B79022B00F0B980BB
:104C1000FB685B79032B00F0B280FB685B79042BA7
:104C200000F0AB80FB685B79052B00F0A480FB688B
:104C30005B79062B00F09D80FB685B79072B00F009
:104C40009680FB685B79082B00F08F80FB685B79AE
:104C5000092B00F08880FB685B790A2B00F08180CB
:104C6000FB685B790B2B7AD0FB685B790C2B74D0DB
:104C7000FB685B790D2B6ED0FB685B790E2B68D0DF
:104C8000FB685B790F2B62D0FB685B79102B5CD0E3
:104C9000FB685B79112B56D0FB685B79122B50D0E7
:104CA000FB685B79132B4AD0FB685B79142B44D0EB
:104CB000FB685B79152B3ED0FB685B79162B38D0EF
:104CC000FB685B79172B32D0FB685B79182B2CD0F3
:104CD000FB685B79192B26D0FB685B791A2B20D0F7
:104CE000FB685B791B2B1AD0FB685B791C2B14D0FB
:104CF000FB685B791D2B0ED0FB685B791E2B08D0FF
:104D0000FB685B791F2B01D108233FE04FF0FF3395
:104D10003CE002233AE0012338E0002336E00F2391
:104D200034E00E2332E00D2330E00C232EE00B2381
:104D30002CE005232AE0042328E0032326E00223B5
:104D400024E0012322E0002320E00F231EE00E23B5
:104D50001CE00B231AE00A2318E0092316E00823BD
:104D600014E0072312E0062310E003230EE00223E1
:104D70000CE00F230AE00E2308E00D2306E00C23CD
:104D800004E00B2302E00A2300E009233B62FB68F6
:104D90009B79002B00F0C780FB689B79012B00F00A
:104DA000C080FB689B79022B00F0B980FB689B797F
:104DB000032B00F0B280FB689B79042B00F0AB80E2
:104DC000FB689B79052B00F0A480FB689B79062B80
:104DD00000F09D80FB689B79072B00F09680FB68B4
:104DE0009B79082B00F08F80FB689B79092B00F0E2
:104DF0008880FB689B790A2B00F08180FB689B7997
:104E00000B2B7AD0FB689B790C2B74D0FB689B79B9
:104E10000D2B6ED0FB689B790E2B68D0FB689B79BD
:104E20000F2B62D0FB689B79102B5CD0FB689B79C1
:104E3000112B56D0FB689B79122B50D0FB689B79C5
:104E4000132B4AD0FB689B79142B44D0FB689B79C9
:104E5000152B3ED0FB689B79162B38D0FB689B79CD
:104E6000172B32D0FB689B79182B2CD0FB689B79D1
:104E7000192B26D0FB689B791A2B20D0FB689B79D5
:104E80001B2B1AD0FB689B791C2B14D0FB689B79D9
:104E90001D2B0ED0FB689B791E2B08D0FB689B79DD
:104EA0001F2B01D109233FE04FF0FF333CE00823E3
:104EB0003AE0022338E0012336E0002334E00F23F8
:104EC00032E00E2330E00D232EE00C232CE00B23E8
:104ED0002AE0052328E0042326E0032324E002231C
:104EE00022E0012320E000231EE00F231CE00E231C
:104EF0001AE00B2318E00A2316E0092314E0082324
:104F000012E0072310E006230EE003230CE0022347
:104F10000AE00F2308E00E2306E00D2304E00C2333
:104F200002E00B2300E00A23FB61FB68DB79002B26
:104F300000F0C780FB68DB79012B00F0C080FB68C4
:104F4000DB79022B00F0B980FB68DB79032B00F0E2
:104F5000B280FB68DB79042B00F0AB80FB68DB7967
:104F6000052B00F0A480FB68DB79062B00F09D8008
:104F7000FB68DB79072B00F09680FB68DB79082B58
:104F800000F08F80FB68DB79092B00F08880FB68DC
:104F9000DB790A2B00F08180FB68DB790B2B7AD060
:104FA000FB68DB790C2B74D0FB68DB790D2B6ED0A2
:104FB000FB68DB790E2B68D0FB68DB790F2B62D0A6
:104FC000FB68DB79102B5CD0FB68DB79112B56D0AA
:104FD000FB68DB79122B50D0FB68DB79132B4AD0AE
:104FE000FB68DB79142B44D0FB68DB79152B3ED0B2
:104FF000FB68DB79162B38D0FB68DB79172B32D0B6
:10500000FB68DB79182B2CD0FB68DB79192B26D0B9
:10501000FB68DB791A2B20D0FB68DB791B2B1AD0BD
:10502000FB68DB791C2B14D0FB68DB791D2B0ED0C1
:10503000FB68DB791E2B08D0FB68DB791F2B01D1C5
:105040000A233FE04FF0FF333CE009233AE0082316
:1050500038E0022336E0012334E0002332E00F235E
:1050600030E00E232EE00D232CE00C232AE00B234E
:1050700028E0052326E0042324E0032322E0022382
:1050800020E001231EE000231CE00F231AE00E2382
:1050900018E00B2316E00A2314E0092312E008238A
:1050A00010E007230EE006230CE003230AE00223AE
:1050B00008E00F2306E00E2304E00D2302E00C239A
:1050C00000E00B237A68136401E0544BA2E0FB7804
:1050D000002B6BD07B681B7D002B33D1BB69D8B212
:1050E000796A00230422FBF703FD7B69D8B2396A91
:1050F00000230122FBF7FCFC7B689B7D002B03D087
:105100007B689B7D012B07D13B69D8B2F9690023ED
:105110000422FBF7EDFC06E03B69D8B2F9690123F4
:105120000422FBF7E5FC7B68DB7D002B71D17B68FB
:10513000DB6BD8B27B681B6C194601230422FBF79A
:10514000D7FC66E0BB69D8B2796A00230122FBF77D
:10515000CFFC7B69D8B2396A00230422FBF7C8FC74
:105160007B689B7D002B03D07B689B7D012B07D147
:105170003B69D8B2F96900230222FBF7B9FC06E0CB
:105180003B69D8B2F96901230222FBF7B1FC7B68C5
:10519000DB7D002B3DD17B68DB6BD8B27B681B6C61
:1051A000194601230222FBF7A3FC32E0BB69D8B207
:1051B000796A00230222FBF79BFC7B69D8B2396A2B
:1051C00000230222FBF794FC7B689B7D002B03D01D
:1051D0007B689B7D012B07D13B69D8B2F96900231D
:1051E0000222FBF785FC06E03B69D8B2F96901238E
:1051F0000222FBF77DFC7B68DB7D002B09D17B68FD
:10520000DB6BD8B27B681B6C194600230022FBF7CE
:105210006FFC002318462837BD4680BD022000F0F1
:1052200080B586B000AFF860B9607A6001F0F6FD35
:1052300078617B683B613B6900225A643B690022CC
:1052400083F848203B6900229A633B691B7D012B50
:1052500004D13B695B6D1846FCF764F83B69DB6A77
:10526000002B06D03B69DB6A3A69526B0021386932
:105270009847786901F0E2FD012318461837BD46CA
:1052800080BD000080B584B000AF786039603B68B5
:10529000FB60FB6893F84830DBB2012B43D1FB681D
:1052A0001B6A07F10B0211461846FBF747F9FB7A18
:1052B000002B12D0FB681B6A1846FBF70DF9FB6840
:1052C000DB691846FBF708F9FB681A6AFB68383394
:1052D00019461046FBF7BEF90EE0FB68DB6907F1E3
:1052E0000A0211461846FBF76FF9BB7A002B19D159
:1052F000FB685A6BFB689A63FB680C4A5A64FB684C
:10530000002283F84820FB68DB6A002B0BD0FB6887
:10531000DB6AFA68516BFA68926B8A1A0349F8687B
:10532000984700E000BF1037BD4680BD052000F063
:1053300080B58EB006AFF860B9607A603B60FB68FC
:10534000002283F85020FB687A685A63FB681B6868
:105350004FF44062DA60FB683A68DA62FB68DB6847
:10536000082B02D90123FB7501E00023FB75FB68C4
:10537000DB68082B08D9FB681B682433FB61FB68DA
:105380001B683C33BB6107E0FB681B681C33FB6197
:10539000FB681B683433BB61FB68186AFB68996A59
:1053A000FB680493124B0393FB7D02937B6801938C
:1053B00001230093FB69BA68FBF76BF8FB68D869B7
:1053C000FB68596AFB6803F1100200230493002371
:1053D0000393FB7D02937B680193002300931346A4
:1053E000BA69FBF733F800BF2037BD4680BD00BF68
:1053F0002152000080B58EB006AFF860B9607A60C7
:105400003B60FB68002283F85020FB687A685A638F
:10541000FB681B684FF44062DA60FB683A68DA6246
:10542000FB68DB68082B02D90123FB7501E0002330
:10543000FB75FB68DB68082B08D9FB681B68243305
:10544000FB61FB681B683C33BB6107E0FB681B68C2
:105450001C33FB61FB681B683433BB61FB68186A53
:10546000FB68996AFB6803F13002FB680493104BF8
:105470000393FB7D02937B68019300230093FB69F8
:10548000FBF707F8FB68D869FB68596A00230493A7
:1054900000230393FB7D02937B6801930123009318
:1054A000BB68BA69FAF7D2FF00BF2037BD4680BD9E
:1054B0002152000080B586B000AFF860B9607A6014
:1054C000FB68002B01D1144B21E0BB68002B06D0F8
:1054D0007B68002B03D07B68B3F5006F01DD0F4BB9
:1054E00015E001F09BFC7861FB6893F84830DBB273
:1054F000002B04D0786901F0A1FC094B07E0FB68A0
:10550000012283F84820786901F098FC00231846AE
:105510001837BD4680BD00BF012000F0022000F01A
:10552000032000F080B582B000AF786000BF7B68D8
:10553000DB6BDAB27B681B6C19461046FCF7A1F9ED
:105540000346002B05D17B6893F84830DBB2002B73
:10555000EDD17B6893F84830DBB2002B02D17B6839
:105560005B6C00E0002318460837BD4680BD000094
:1055700080B483B000AF7860044A7B68D36200BF18
:105580000C37BD465DF8047B704700BF00300E400D
:1055900080B483B000AF7860064B1A6B7B68DB4346
:1055A000044913400B6300BF0C37BD465DF8047B14
:1055B000704700BF00300E4080B483B000AF786009
:1055C000054B1A6B04497B6813430B6300BF0C3710
:1055D000BD465DF8047B704700300E4080B483B058
:1055E00000AF064B1B6B7B60044B5A6A7B68134011
:1055F00018460C37BD465DF8047B704700300E40FE
:1056000080B500AF00F002F800BF80BD80B582B069
:1056100000AFFFF7E3FF78607B68002B1CDA224BBA
:105620001B681B68002B12D01F4B1B681B683B605C
:105630001D4B1B6808220021184607F0F8FD00F0FA
:1056400003F903461A463B680021104698474FF07D
:105650000040FFF78DFF20E07B6803F08043002BC4
:105660001BD0124B1B681B68002B12D00F4B1B6802
:105670001B683B600D4B1B6808220021184607F091
:10568000D6FD00F0E1F803461A463B6801211046BA
:1056900098474FF08040FFF76BFF00F033F800BFF2
:1056A0000837BD4680BD00BF080500200405002066
:1056B00080B485B000AF0346FB71FB79DB000F4A75
:1056C00082FB03125210DB179A1A0D4B1B6813440E
:1056D000FB60FB6813F1800F03DA6FF07F03FB6060
:1056E00004E0FB687F2B01DD7F23FB60FB685BB27E
:1056F00018461437BD465DF8047B704767666666DA
:105700000C05002080B582B000AF0023FB7124E0BF
:10571000FB79484A52F83330002B1BD0464B1B68AC
:105720001B68002B06D1FB79DB00424A1344424A36
:1057300013600FE0FB793F4ADB0013441A793E4BBC
:105740001B681B799A4205D9FB79DB00394A13445F
:10575000394A1360FB790133FB71FB79042BD7D9EC
:10576000354B1B681B68002B13D0344BDB69334A65
:1057700023F0FF03D361314BDB692F4A12681279A2
:1057800011462E4A0B43D3614FF08040FFF714FFC0
:1057900003E04FF08040FFF7FBFE0023FB7124E0A5
:1057A000FB79274A52F83330002B1BD0254B1B685E
:1057B0001B68002B06D1FB79DB00214A1344214AE8
:1057C00013600FE0FB791E4ADB0013441A791D4B6E
:1057D0001B681B799A4205D2FB79DB00184A1344F7
:1057E000184A1360FB790133FB71FB79042BD7D97D
:1057F000144B1B681B68002B14D0104BDB690F4A3D
:1058000023F47F43D3610D4BDB690E4A1268127992
:1058100012021146094A0B43D3614FF00040FFF7D3
:10582000CBFE03E04FF00040FFF7B2FE00BF0837A9
:10583000BD4680BDB40400200405002000300E40A9
:10584000DC0400200805002080B500AF044B1B6A73
:10585000DBB21846FFF72CFF0346184680BD00BF99
:1058600000300E4080B487B000AFF860B9607A6055
:10587000FB6803F10473DA00BB6813449B007B618F
:105880007B697A681A6000BF1C37BD465DF8047BEF
:10589000704780B485B000AF786039607B6803F1F1
:1058A000C063FB60FB683A681A6000BF1437BD46EE
:1058B0005DF8047B704780B485B000AF78603960D4
:1058C0007B6803F18063FB60FB683A681A6000BF85
:1058D0001437BD465DF8047B704780B584B000AFD7
:1058E000F860B9607A60B968F868FFF7E4FF796832
:1058F000F868FFF7CEFF00BF1037BD4680BD00003F
:1059000080B489B000AF78600B46FB701346BB7063
:10591000BB78002B04D010237B616C4BBB6103E090
:1059200000237B616A4BBB617B685B6BBA69134088
:105930003B610023FB617B68664A934240F0BF8075
:10594000654BFB60FB78022B43D0022B04DC002B61
:105950000AD0012B22D0A7E0062B75D0812B00F0B6
:105960008680032B52D09FE0FB681B681B0A1B023A
:1059700003F4FE43FA691343FB61FB681B6803F001
:105980000F03FA691343FB61FB681B681B091B01CA
:1059900003F0F003FA691343FB6188E0FB681B68BE
:1059A0001B0E1B0203F4FE43FA691343FB61FB6801
:1059B0001B681B0C03F00F03FA691343FB61FB68C0
:1059C0001B681B0D1B0103F0F003FA691343FB6115
:1059D0006DE0FB6804331B681B0A1B0203F4FE43E3
:1059E000FA691343FB61FB6804331B6803F00F0380
:1059F000FA691343FB61FB6804331B681B091B0135
:105A000003F0F003FA691343FB6150E0FB680433D1
:105A10001B681B0E1B0203F4FE43FA691343FB6170
:105A2000FB6804331B681B0C03F00F03FA69134374
:105A3000FB61FB6804331B681B0D1B0103F0F003C3
:105A4000FA691343FB6132E0FB6808331B6803F01B
:105A50000F03FA691343FB61FB6808331B681B09DA
:105A60001B0103F0F003FA691343FB611FE0FB68BD
:105A700004331B681B0A1B0203F4FE43FA69134339
:105A8000FB61FB6804331B6803F00F03FA691343DF
:105A9000FB61FB6804331B681B091B0103F0F00367
:105AA000FA691343FB6102E00023FB6100BFFA695E
:105AB0007B699A403B691A437B685A6300E000BFE8
:105AC0002437BD465DF8047B704700BFFFFF0080B0
:105AD0000080FFFF002000401082E00F80B588B0FA
